:020000040000FA
:100000000202DF0218034100B8002202180B22226C
:0100100022CD
:07001300021813E4FFE1BC39
:07001B0002181B75C8012249
:030023000218239D
:03002B0002182B8D
:030033000218337D
:03003B0002183B6D
:030043000218435D
:03004B0002184B4D
:030053000218533D
:03005B0002185B2D
:030063000218631D
:03006B0002186B0D
:10007300021873BB010689828A83E0225002E722B9
:10008300BBFE02E32289828A83E49322BB010CE54F
:100093008229F582E5833AF583E0225006E9258239
:1000A300F8E622BBFE06E92582F8E222E58229F57D
:1000B30082E5833AF583E49322BB010689828A832E
:1000C300F0225002F722BBFE01F322F8BB010DE53B
:1000D3008229F582E5833AF583E8F0225006E92583
:1000E30082C8F622BBFE05E92582C8F222C5F0F8D4
:1000F300A3E028F0C5F0F8E582158270021583E0CD
:1001030038F022A3F8E0C5F025F0F0E582158270FF
:10011300021583E0C838F0E822EF2BFFEE3AFEED3C
:1001230039FDEC38FC2275F008758200EF2FFFEEE5
:1001330033FECD33CDCC33CCC58233C5829BED9A10
:10014300EC99E58298400CF582EE9BFEED9AFDEC6E
:1001530099FC0FD5F0D6E4CEFBE4CDFAE4CCF9A8B4
:100163008222B800C1B90059BA002DEC8BF084CFBC
:10017300CECDFCE5F0CBF97818EF2FFFEE33FEED93
:1001830033FDEC33FCEB33FB10D703994004EB99BD
:10019300FB0FD8E5E4F9FA227818EF2FFFEE33FED0
:1001A300ED33FDEC33FCC933C910D7059BE99A4005
:1001B30007EC9BFCE99AF90FD8E0E4C9FAE4CCFB1D
:1001C3002275F010EF2FFFEE33FEED33FDCC33CC71
:1001D300C833C810D7079BEC9AE899400AED9BFDFA
:1001E300EC9AFCE899F80FD5F0DAE4CDFBE4CCFA0D
:1001F300E4C8F922EF5BFFEE5AFEED59FDEC58FC23
:1002030022EB9FF5F0EA9E42F0E99D42F0E89C451F
:10021300F022E8600FECC313FCED13FDEE13FEEFC9
:1002230013FFD8F122E8600FEFC333FFEE33FEED87
:1002330033FDEC33FCD8F122E0FCA3E0FDA3E0FEA8
:10024300A3E0FF22E0F8A3E0F9A3E0FAA3E0FB2296
:10025300ECF0A3EDF0A3EEF0A3EFF022A8828583E8
:10026300F0D083D082120276120276120276120244
:1002730076E473E493A3C583C5F0C583C8C582C878
:10028300F0A3C583C5F0C583C8C582C822E0FBA31C
:10029300E0FAA3E0F922F8E0FBA3A3E0F925F0F0EC
:1002A300E582158270021583E0FA38F022EBF0A3A1
:1002B300EAF0A3E9F022D083D082F8E493701274B9
:1002C3000193700DA3A393F8740193F5828883E4DB
:1002D300737402936860EFA3A3A380DF75812F0279
:1002E300094A9000E551B0AE071FEE60129000E896
:1002F30071031176FE9000E57103EE11BC80E822D4
:10030300E475F0018090900A12EEF0A3EFF09000F4
:100313004FE064016002619CC3900A12E0940850AC
:100323000BE4FF9153900A12918780ECE4F50DFBE7
:1003330071C5AF0C12103DE50DC39408504771C34E
:10034300E50D7F0071BDEF29F9EA3EFA9000E8510F
:10035300B07B017A0979007FFF51E5E50DFEE424C6
:10036300FFFFE43E71BD8F828E83118F9009FFF0F2
:100373007B017A0979009000FBE50DF0AD0C1210BA
:1003830063050D80B2900050513BE42FFFEE34081B
:10039300120D139000500214BC900054E0FEA3E031
:1003A300FF71BE900A12E0FDA3E09000D1CD1208C8
:1003B300D4900054EEF0A3EFF022FE902001419080
:1003C3007B007A00791012103675FF031176F5D38E
:1003D30075FF0390000171F190000271F190000329
:1003E30071F175D40175FF03E5D55402FF22118F16
:1003F300F5D375FF03229000F1E0FEA3E0FF9130F7
:1004030091539000F3513BEF2401120D109000F330
:100413005153900A18914D900A18E07002A3E070AE
:100423000BFF7E087109120F4212142822B108CD66
:1004330024FFCD34FFFCC3ED9FFFEC9E541FFE74DD
:10044300082F121416FF229000DF74FFF5F001F05D
:10045300B108541FFC74082DF58274203CF583EF1A
:10046300F0902006E0B42019A3E0B4001490200516
:10047300E02401FF902004E03400541FF0A3EFF0C8
:1004830022902006E475F00101F09000BA515390D8
:1004930000BE51B0110AF11EEF6004110F80F71274
:1004A3000F0560099000BA513B7810D1249000BA2F
:1004B300D1209000BA513BE480219000C11208C7BB
:1004C30045F0601B9000BE5190E94A600C1176FF25
:1004D300D1279000BF918780E1E4FFD12780DBF132
:1004E300B79000AF7401F0229000E3E0FF81039026
:0704F3000A1BE014F0E022F7
:10050800902006E0FCA3E0FD902005E02DFD902062
:1005180004E03C22D1C8EF541FFF12148DA37401CC
:10052800F0120F4C9000DCE0FCA3E0FDAE0478056F
:10053800CEC313CE13D8F9FF9000DFEEF0A3EFF08F
:10054800ED541FA3F0A3E4F09000F1F0A3F0C390E2
:1005580000DDE094209000DCE09400407D914A901A
:1005680000E1E0FEA3E0FF9000F1EE8FF011F090C3
:1005780000DFE07004A3E06406700AD1C89000DFD1
:10058800E48FF011F0D1C89000F1E48FF011F0126F
:100598000FFCEF600512148A8005E49000DEF090ED
:1005A80000F1121371701D91309000E3EFF0910388
:1005B80091EB91EB9000DFE07002A3E0604891EBD3
:1005C800914A80F071F971F971F99000DFE07002D9
:1005D800A3E0603271F9914A80F09000DC91878045
:1005E8000A9000DCE07002A3E0600BD1C891039090
:1005F80000DC914D80EB120FFCEF600512148A802D
:1006080005E49000DEF09000DEE06002A12C1214F8
:10061800AB71099000F3413B513B78085115E4E573
:10062800C820E2FB8FEB227F01F1BC900A1C740109
:10063800F0900A1CE06032120FF4D1BC900A1CEF53
:10064800F0120849D1AB9000ACEFF0120849900ABB
:100658001CE054011213BB60D8A3E0F460D3EF3060
:10066800E7CFE4900A1CF080C8F1E87F9FD127D13A
:10067800BC9000ADD1BA9000B2D1BA9000B3F1B538
:100688009000ABE0F4601BA3E0F460169000B2E0C9
:10069800FD541F240FA3F0EDC413540744809000A9
:1006A800B2F022F1E87FD7D1277FFFD127D1C090C0
:1006B80000ABEFF07FFFD127E5C820E2FBAFEB22CC
:1006C800900081E0B4082CA3E0B40027120F2E7B21
:1006D800017A0179009000CA120F45F161120F2EBC
:1006E800E42FFFEE3408120D13120F28E490008156
:0806F800F0A3F0900083120F43
:10070000DB9000835153900081E475F0013106FEC7
:10071000740025F0F58274013EF583E0FF227F012D
:10072000F1BC300216120FF4D1BC900A1DEFF0128A
:100730000849900A1DE020E002C202300219D1AB44
:100740009000ACEF1213BB600BA3E0F46006EF3037
:10075000E702C202120849E4FFF1BCA202E433FF3F
:10076000229000C351539000C751B0110AF11EEFFF
:100770006004110F80F7F1E47F03120F1E600990EF
:1007800000C3513B7810D1249000C3D1209000C306
:10079000120F349000CA1208C745F06011D1BC9006
:1007A00000C75190EF11BC9000C8918780E51208F6
:1007B00049E4FF8007EFF0120849E4FFEFB40104B9
:1007C00043FE202253FEDF229000ABE020E014F134
:1007D000E47F3DD1277F2AD1277F80D1277FA6D1F3
:1007E00027F1B7227F01F1BC9000B0E051B9080AAF
:1007F00004081214081715081C17082C3008313487
:10080000083636083B3700000824531AEF851A8053
:10081000802F531BEF8008531BDF8003531B7F8502
:100820001B90801D531CDF851CA08015531DFE806E
:100830000D531DEF8008531DBF8003531D7F851D81
:10084000B07F0CDFFE2212062712149FEF70FA9081
:1008500000B2E0F4600B900A1B7406F01204F27010
:10086000FB9000B0E01202B9088404088C140891CF
:100870001508961708A63008AB3408B03608B53707
:100880000000089E431A10851A80802F431B108099
:1008900008431B208003431B80851B90801D431C45
:1008A00020851CA08015431D01800D431D1080086C
:1008B000431D408003431D80851DB0900A1B740CAE
:1008C000F01204F270FB2274FFF5F0020106E0FD65
:1008D0009000D1E4F0A3EDF09000CCEEF0A3EFF0A7
:1008E000A31202B09000D111C745F060549000CE21
:1008F0001202901200769000D3F09000CF1204877D
:100900007D80ED60DF3141EE7C0030E7027C0190BC
:1009100000D3E05D7B0060027B01EB6CFCEF25E027
:10092000FFEE339000CCF0A3EFF0AF04EF600C903B
:1009300000CCE06410F0A3E06421F0EDC313FD806F
:10094000C19000CCE0FEA3E0FF2275FF03759E027C
:100950009017FAE493900A0FF075FF02E5E654034E
:100960006002618B7510DE7511AD7512BE7513EFE7
:10097000C2AF75FF0275E404F5E4751AFF751BFF3D
:10098000751CFF751DFF7516FF7517FF7518FF7530
:1009900019FF75FF0253E6BFD11A1210DAB11BEF2F
:1009A00064016002618290180893FE740193FF90C5
:1009B000007FEEF0A3EFF0F5828E83E493FE7401E6
:1009C00093FFC3EE9480500280047E807F008E14DB
:1009D0008F15B1F7FFF5828E83740293F51E7403B1
:1009E00093F51F740493F508740593F50974069341
:1009F000F50A740793F50BC201EF4E700241E4EF64
:100A0000F4FFEEF44F700241E4E514451EFEE515D7
:100A1000451FFFE5084EFEE5094FFFE50A4EFEE5DE
:100A20000B4F4E700241E4E51FF4FFE51EF4FEE5B6
:100A300015F4FDE514F44EFEED4FFFE509F4FDE578
:100A400008F44EFEEF4DFFE50BF4FDE50AF44EFE13
:100A5000EF4D4E700241E47F03718EE50B24FFFFE2
:100A6000E50A71BC640370227F02718EE50924FFE0
:100A7000FFE50871BCB402127F01718EE51F24FFEF
:100A8000FFE51E71BCB40102D2012001577F017144
:100A90008E71B59000D1E51EF0E51FF13B71A07F8E
:100AA0000271AB9000D1E508F0E509719E7F0371FA
:100AB000AB9000D1E50AF0E50B719E7F01718E903D
:100AC0000A10E0FEA3E0FF7BFF7A187900E4251509
:100AD0009000D2F0E51434E89000D1719F4EC370BD
:100AE00001D39201300109F1ACEF6401600261822F
:100AF000D20091FB7B017A007964B1D8741BF012AB
:100B00000761900064E0B4800B9153EF70061214FB
:100B100046EF6002C20030006530011AB1F7F5827D
:100B20008E83740C93FE740D93FF90007DE06E70C5
:100B300003A3E06F604890005012025F00001800AD
:100B400091FBF128F12EEF2401B110B1D27404F021
:100B5000120761900087B10A9000871214BC9000C0
:100B600081F14590004F04F012051C7440D3950CA0
:100B7000400C1203C3AF0C12103D050C80EDE4FFD6
:100B8000F186E4F510F511F512F513021800AEFF29
:100B9000EE54CFFEEFC454F024804EF5FF22A3F0B4
:100BA00011D8900A10EEF0A3EFF022718E900A1087
:100BB000E0FEA3E0FF7BFF7A80790022347F8F8202
:100BC000F583E49322900000EEF0A3EFF0A312026D
:100BD0003B900008120253900006E0FFA3E0900053
:100BE0000CCF806090000C121371605EC3EF9440D4
:100BF000EE94004006A37440F0800590000EEFF0E4
:100C0000B1FFE0FFB1D8EFF090000812023B1207ED
:100C10006190000EE0FFC390000DE09FF090000C8B
:100C2000E09400F090000812024790000EE4FCFDF2
:100C3000FE12011C900008120253914AB1FF11CE1E
:100C4000900000EEF0A3EFF0809A900000E0FEA389
:100C5000E0FF2291FBB101900006E4F07405F13B46
:100C600091F0C006C00791FBEF2407B110B10190CD
:100C70000006E4F0A37414F0D007D00691F0C0068B
:100C8000C007B107B101D10940067EFF7FFF800692
:100C900090006512023B900006EEF0A3EFF0D00743
:100CA000D00691F0D109402F91FBEF241AFFE43ECA
:100CB000FEED3401FDE43CFCB10190006512023B05
:100CC000EF2401FFE43E900006F0A3EFF0900A1637
:100CD000E0FEA3E0FF91F0900069E0FEA3E0FF904A
:100CE0000A16E06E7003A3E06F7F0060027FFF22B0
:100CF00071C5900A16EEF0A3EFF0229000A6020252
:100D00003B9000020202539000A612023BEF241B0C
:100D1000FFE43EFEE43DFDE43CFC22E49000AAF04A
:100D20007B017A007995121378900097E0FF741197
:100D3000D39F5077E4FFFEFDFC7B017A0079FE90A3
:100D400000CAF0A37402F01207619000FEE0FEA357
:100D5000E0FFE4FCFDB1CC91FBEF2402B110B1CC7B
:100D60009000B5E024FFFF9000B4E034FFFEE4FC07
:100D7000FD9000A61202471201F79000FCEEF0A3CE
:100D8000EFF09000A61202479000FCE0FEA3E0FF07
:100D9000C39000B5E09FFF9000B4E09EFEE4FCFD30
:100DA00012011CB1CC9000AA7401F09000AAE0FBE3
:100DB0006017E4FFFE7D02FC900097E024EFF9F855
:100DC00012022890008F120253AF03229000A60255
:100DD00002537B017A0079839000CAE4F0A3229148
:100DE000FBEF2401B110B1D27404F0120761B10716
:100DF000F128900081E14590007FE0FEA3E0227B96
:100E0000017A00790F90000E22E47FFF7EFFFDFC47
:100E1000900065120247D3020204E4900A1EF0908B
:100E20000A1EE0FFD3946F501EEF2410FFF198903C
:100E30000A1EE0FEE42EF582E4344FF583EFF090D5
:100E40000A1EE004F080D87B017A4F79009000D12F
:100E5000E4F0A37470F07F0F7E1D11D8EF4E7F0079
:100E600070027F01901218EFF024FF22900A09EB24
:100E7000F0900A05120253900A0512023BD1C3906A
:100E80000A09E06F603B12000A12071EEF600512AC
:100E9000000F80F5F105600B900A0512023B7810F7
:100EA000120624900A05120620900A05F134900AD1
:100EB00009E0FF1206271207B79000AF7401F0D3C4
:100EC00022C322900A0012025312000A12071EEFD8
:100ED000600512000F80F51207E47F03F11E600B1E
:100EE000900A0012023B7810120624900A001206A3
:100EF00020900A00F1341206BC900A041207B59043
:100F00000A04E0FF227F011207BCD2021207E87F29
:100F10000612062711491207E89000AEE0FF1206FC
:100F2000279000B1E06402229000870202539000F3
:100F30008702023B12023BE4020627A3F07F0F7EEA
:100F40001D22900A187408F0A3E4F022F1429000E8
:100F5000F312025F00000000E4902004F0A3F0A36D
:100F6000F0A3F07B017A2079089020011202B0E40E
:100F7000902000F0227F0F7E1D11D09000D8120229
:100F8000909000DB01CEAB07E4FF9000AAE0600781
:100F9000F1D8D16CE433FF2275FF03E4F59712100A
:100FA00021E59720E1FB75FF03AF9922E4900A1A2F
:100FB000F09000AAE0601B90008F12023BE4FBFA65
:100FC0007902F8D31202045009F1D8D1C3900A1A59
:100FD000EFF0900A1AE0FF229000A612023BEF24E5
:100FE000FFFFEE34FFFEED34FFFDEC34FFFC22E4A6
:100FF000FCFDC1C31207E87F05020627E4FFFEFDE2
:10100000FC900083120E137F0040027F012275FFC7
:10101000037597011121E59720E1FB75FF03AF9957
:101020002275FF038F9875FF0322113675FF03E5C4
:10103000D5F45402FF2275FF0375D4022275FF0315
:10104000EF543F4480F5D1E5D520E20AE5D520E014
:1010500005E5D530E1F1E5D55403FF75FF0375D5FE
:101060000580D375FF03ACD5EC20E13C75FF03EDA3
:10107000543FF5D175FF03E9F5D375FF03EA540F2B
:10108000FF9000FBE0C4547044804FF5D2E5D520BA
:10109000E205E5D530E0F6E5D55401FC75FF0343E4
:1010A000D40275FF0375D505AF042212000A12079A
:1010B0001EEF600512000F80F57F011207BCD202FF
:1010C0001207E87F061208461207E87F011206277A
:1010D0007F03120846E4FF0207BC7B017A0079B067
:1010E0007F0351E47A0079B97F0851E47A0079B638
:1010F0007D027F0951847B017A0079B47D027F0BE8
:1011000051849000B471716006BEFF16BFFF135189
:10111000F35002800451FC80099000B4E4F0A37401
:1011200040F051F3500280089000B17403F0800643
:101130009000B17402F09000B0E01202B9115904AD
:10114000116414116C15117417118A301192341135
:101150009A3611A2370000117F75FF015316EF85F3
:1011600016FD804775FF015317EF800E75FF015381
:1011700017DF800675FF0153177F8517C9802C750F
:10118000FF015318DF8518CA802175FF015319FE2E
:10119000801675FF015319EF800E75FF015319BFBB
:1011A000800675FF0153197F8519CB1208497F11FD
:1011B00051DEE4FF710612062F9000AE7402F0902B
:1011C00000B2E0247F600904701651EB740A8007B6
:1011D0001207C851EB7458F09000B17403F051FC41
:1011E0009000B3E0F4600241829000B6E0FEA3E01C
:1011F000FF64104E70069000B3740EF0EF64204E42
:1012000070069000B3740FF0EF64404E70069000CB
:10121000B37410F0EF64804E70069000B37411F058
:10122000E4B5070AEEB401069000B37412F0E4B519
:10123000070AEEB402069000B37413F0E4B5070A8F
:10124000EEB404069000B37414F0E4B5070AEEB4EB
:1012500008069000B37415F0E4B5070AEEB4100662
:101260009000B37416F0E4B5070AEEB420069000BF
:10127000B37417F0E4B5070AEEB440069000B374F7
:1012800018F001AB900A0AEFF0A3EDF0A31202B040
:10129000900A0BE06047901218E06013900A0AE091
:1012A0002410FF120F98900A0C120290EF801790F2
:1012B0000A0AE06401900A0C7007120290748080A0
:1012C0000512029074FF1200BC900A0D1204879060
:1012D0000A0BE014F0900A0AE004F080B322EF4415
:1012E00020F5FE227D0151847B01227F1051DE908A
:1012F00000AE229000B9E024FE24FD229000B474D8
:1013000001F0A3E4F022900A14EFF0E4A3F09000BF
:10131000B9E0FFB40209740F716974B9F0800CEF81
:1013200064047044743D71697479F01207E4900AA2
:1013300014E060079000B8E0FF80027FAB12062740
:10134000120849900A14E09000B8F07016900A153F
:10135000E0D39400400D7FFF120627900A15E01499
:10136000F080EAE4FF1207BC22900A15F09000B862
:1013700022E0FEA3E0FF4E229000ADE01200BC9000
:1013800000B2E09000011200CE9000B3E0900002A5
:101390000200CEAB05E4FCFD020E6C9000ED1202E3
:1013A000B0E4FCFDC0079000ED1202909000F0E068
:1013B000FF120DD8EFF0D007020761F09000ABE00C
:1013C000FFF42212000A12071EEF600512000F80C0
:1013D000F5229000AFE0FF22E49000AFF0229012DF
:1013E00018E024FF22901218E060057F10020F9889
:1013F0007FFF22902004E0FEA3E0FF24089116FD69
:10140000EF2401FFE43E541F902004F0A3EFF0A36B
:1014100012044DAF0522F58274203EF583E0229040
:101420002006E0FEA3E0FF22902000E0045403F039
:101430007F0033333354F8FEEF2408F974203EFA6A
:101440007B01A30202B0900054741DF0A3740FF04E
:10145000120DDFE490004FF012051C90006BE0FECF
:10146000A3E0FF900054E06E7003A3E06F7F006084
:10147000027FFF22EFB40109D2AD75FF0143AE40F8
:1014800022C2AD75FF0153AEBF221206C89000DC28
:10149000E4F0A3EFF022E5C85402FF75C80222E58C
:1014A000C85404FF22E5C85401FF22900A18E0FE48
:1014B000A3E0FFC3E49FFF74089EFE22120253E4E0
:1014C000FB7A08F9F890005012023B1201658F0C6C
:0114D00022F9
:1017FA000604FFFCFFFF0218561A341A39007FB894
:10180A00EF90181393901900730A20364CE570FF75
:10181A0022EFF570225A2D5761766520362E303424
:10182A0000025131000DFA20000DDC7000000000AA
:10183A00020C00013F3F3F04040435353500000027
:10184A00000261351C691C6EFF0275EC7581B0756A
:10185A00FF03759E02121920024837023238902A75
:10186A00E5E47E019360F4A3FF543F30E509541F79
:10187A00FEE493A360010ECF54E0B4E00EEFFAEE5B
:10188A00F9A3A3A3A3DAFDD9FB80D654C025E0604F
:10189A004B5026E493A3F85407240CC8C333C4540A
:1018AA000F4420C8834004F456800146F6DFE480E2
:1018BA00B00102040810204080E493A3FAE493A341
:1018CA00F8E493A3C8C582C8CAC583CAF0A3C8C529
:1018DA0082C8CAC583CADFE9DEE78085E493A3F834
:1018EA00E493A34003F68001F208DFF402186B1EAA
:1018FA0085FF02011E8AC0707419C0E0C082C083CD
:10190A0075700AE5FF54CF4490F5FF22C070741930
:10191A00C0E0C082C083757020E5FF54CF4490F5C3
:10192A00FF22C0707419C0E0C082C083757036E5AA
:10193A00FF54CF44A0F5FF22C0707419C0E0C082E2
:10194A00C08375704CE5FF54CF44B0F5FF229081F7
:10195A00AA21169081BE211690903C211690BC1E99
:10196A00211690D098211690D0B021169083AF21DD
:10197A001690AD76211690E046211690E0CC2116FD
:10198A0090B890211690B2A6211690E0F4211690F4
:10199A00E110211690E163211690E16D211690CA9B
:1019AA0082211690E352211690933C211690E392DD
:1019BA00211690EEC1211690EFB3211690E2322142
:1019CA001690AFEE211690E2E5211690AFEA2116A5
:1019DA0090EFDF211690CAC0211690D1852116906A
:1019EA00F099211690F024211690F0F2211690F128
:1019FA0098211690E41B211690912C211690F17AC9
:101A0A00211690C209211690F540211690F5C6219B
:101A1A001690F623211690F657211690F6A2211653
:101A2A0090F739211690F6E9211690F7F2211690CF
:101A3A00AC8F211690F5E821169081EF211690AF10
:101A4A00B0211690F813211690F845211690EB66EE
:101A5A00211690F5A9211690F271211690F5AF2161
:101A6A001690EB74211690EB1F211690F5B52116EE
:101A7A0090ED7A211690F851211690F2F0211690E5
:101A8A00F2CE211690F49C211690F3CF211690F2F3
:101A9A00CA211690F516211690F588211690F3C0E2
:101AAA00211690F310211690F3C1211690EEAF2162
:101ABA001690F87C211690F3C9211690C6DE2116DD
:101ACA0090C39D211690C261211690D7BB21169012
:101ADA00D7EC211690D5FD211690D6BA211690D7AB
:101AEA0068211690D6A7211690D3AB211690D33130
:101AFA00211690D865211690F2E8211690F3DF217D
:101B0A001690F481211690CB76211690F2DA2116DE
:101B1A0090E52C211690E641211690EC2E21169084
:101B2A00ED8E211690F9A3211690E852211690F90C
:101B3A00E7211690EBC4211690FA31211690ECA9F0
:101B4A00211690809721169080FB21169080002103
:101B5A001690815F211690BE1921429088DC21429D
:101B6A0090C0E4214290B0B7214290C0E721429050
:101B7A0092A82142908503214290910E2142909091
:101B8A00E621429080AE21429093A8214290A89FDC
:101B9A00214290C1EE214290C222214290C3D0211B
:101BAA00429093822142909405214290C4E92142B5
:101BBA0090C937214290CB20214290850A21429038
:101BCA00CEE3214290937521429092B5214290D062
:101BDA0086214290D0FB214290D0CE214290D2421F
:101BEA002142908502214290D42B214290D48C210B
:061BFA0042909087214299
:101C000090D4C7214290D51A2142909079214290D8
:101C10008000214290809B214290D521214290D585
:101C200045214290D591214290B951214290B60C64
:101C300021429092AB214290D9E8214290DAFF21D3
:101C40004290DB6B214290DBA1214290DC64214277
:101C500090DD67214290A714214290E0FE2142903E
:101C6000CEF12142908122214290E21E214290A792
:101C700082214290E263214290A6AB214290A48946
:101C8000214290A349214290B8FF214290B0FE2109
:101C90004290B7E6214290B7EE214290E3322142D2
:101CA00090A84B214290A853214290E39721429063
:101CB000E3B3214290B6002142909C82214290E2FF
:101CC000E9214290E3EB214290B7E0214290E3F119
:101CD000214290B985214290A85B214290D1952163
:101CE0004290A8D7214290D40F214290E48B214208
:101CF00090D53221429080DD214290EC7B214290B0
:101D0000E1C0214290E2F0214290A861214290ED91
:101D10005B214290DF47214290ED6A214290EDF62F
:101D2000214290EE44214290EE45214290B0DA21CA
:101D30004290A8C3214290EE4E214290EE5521429E
:101D400090A45A214290B8382142908909214290AA
:101D50008B56214290F0AA214290B718214290F16F
:101D6000D8214290F46B214290F4E721429089E41B
:101D7000214290F632214290A2C82142909F2A210E
:101D800042909CF22142909C7C214290A51B2142D2
:101D900090A5292142909A9A214290E35E21429097
:101DA000A4A22142909D9B214290FADE211690FB35
:101DB0003F211690E3C3212C90E2F3212C90ED8477
:101DC000212C90ED85212C90D32A212C90EDD2212D
:101DD0002C90DFD5212C908D20212C909AEE212C57
:101DE00090EEE8212C90E10C212C90EEF4212C9027
:101DF000EF35212C90EB8F212C90EFBB212C90C044
:101E000060212C90C979212C90D513212C90ED4B79
:101E1000212C90EFDF212C90EB14212C90E99D21B7
:101E20002C90EFFD212C90ED35212C90EEAF212C44
:101E300090F0BF212C90F0C5212C90D4DE212C9065
:101E4000EE5B212C90F17A212C90B471212C90E83A
:101E500070212C90F327212C90F338212C90F363E0
:101E6000212C90F364212C90F365212C90F36621B2
:101E70002C90BDB3212C90A6EF212C90F383212C24
:101E800090CE5A212C90F58A212C90EF4B212C904A
:101E9000F5C3212C90BE78212C90F706212C90BB05
:101EA00074212C90A39F212C90F72A212C90A38E93
:101EB000212C90E2C3212C908405212C90EC202130
:101EC0002C90FA4F212C90FA63212C90FA81212C2E
:101ED00090FA86212C90CA0D212C90A32C212C90B5
:101EE000B31B212C90A9EB212C90FB25212C90FBDE
:101EF00042212C90A8E6212C90D89E212C90AB0654
:101F0000212C90FB57212C90AAF7212C90DC9621B4
:101F10002C90AC19212C90AC1B212C90B8002142A4
:101F200090A53B214290F779214290F7CB21429036
:101F3000F80421429094EA214290F8CC214290F892
:101F4000F6214290F945214290F9CD21429093E04B
:101F500021429097FF214290C51F214290C509213F
:101F600042909119214290925D214290D0022142EB
:101F700090FA08214290D64F214290D55A214290A2
:101F8000C245214290C105214290C4B4214290D063
:101F90006C21429092E1214290E625214200E7091E
:101FA000F608DFFA8046E709F208DFFA803E888209
:101FB0008C83E709F0A3DFFA8032E309F608DFFA41
:101FC0008078E309F208DFFA807088828C83E30965
:101FD000F0A3DFFA806489828A83E0A3F608DFFA3F
:101FE000805889828A83E0A3F208DFFA804C80D28D
:101FF00080FA80C680D4806980F28033801080A609
:1020000080EA809A80A880DA80E280CA8033898260
:102010008A83ECFAE493A3C8C582C8CCC583CCF00C
:10202000A3C8C582C8CCC583CCDFE9DEE7800D89B3
:10203000828A83E493A3F608DFF9ECFAA9F0EDFBBA
:102040002289828A83ECFAE0A3C8C582C8CCC58302
:10205000CCF0A3C8C582C8CCC583CCDFEADEE8805B
:10206000DB89828A83E493A3F208DFF980CC88F0CD
:10207000EF60010E4E60C388F0ED2402B4040050FE
:10208000B9F582EB2402B4040050AF232345822328
:10209000901FEE73BB010689828A83E0225002E71B
:1020A00022BBFE02E32289828A83E49322BB010CD5
:1020B000E58229F582E5833AF583E0225006E92599
:1020C00082F8E622BBFE06E92582F8E222E58229B3
:1020D000F582E5833AF583E49322BB010989828A7C
:1020E00083F8E028F022500327F722BBFE05F8E32F
:1020F00028F3228A838982F8E4932822BB010FF80F
:10210000E58229F582E5833AF583E028F02250093B
:10211000C58229F8E58226F622BBFE09C58229F888
:10212000E22582F222F8EA2583F583E9932822BB8F
:10213000010689828A83F0225002F722BBFE01F356
:1021400022F8BB010DE58229F582E5833AF583E8A3
:10215000F0225006E92582C8F622BBFE05E9258259
:10216000C8F222EF8DF0A4A8F0CF8CF0A428CE8D79
:10217000F0A42EFE22BC000BBE0029EF8DF084FFE0
:10218000ADF022E4CCF875F008EF2FFFEE33FEEC53
:1021900033FCEE9DEC984005FCEE9DFE0FD5F0E97A
:1021A000E4CEFD22EDF8F5F0EE8420D21CFEADF079
:1021B00075F008EF2FFFED33FD4007985006D5F07E
:1021C000F222C398FD0FD5F0EA22C2D5EC30E70920
:1021D000B2D5E4C39DFDE49CFCEE30E715B2D5E436
:1021E000C39FFFE49EFE122175C3E49DFDE49CFCA9
:1021F000800312217530D507C3E49FFFE49EFE22C1
:10220000C5F0F8A3E028F0C5F0F8E5821582700269
:102210001583E038F022A3F8E0C5F025F0F0E58260
:10222000158270021583E0C838F0E822BB010A89E4
:10223000828A83E0F5F0A3E022500687F009E719CF
:1022400022BBFE07E3F5F009E3192289828A83E4C1
:1022500093F5F074019322BB0110E58229F582E524
:10226000833AF583E0F5F0A3E0225009E92582F8EE
:1022700086F008E622BBFE0AE92582F8E2F5F008BE
:10228000E222E5832AF583E993F5F0A3E99322BBE3
:10229000010DC58229C582C5833AC583022200503B
:1022A00011C58229F808E5F026F618F5F0E5823622
:1022B000F622BBFE11C58229F808E225F0F5F0F2FE
:1022C00018E23582F222F8E58229F582E5832AF5C3
:1022D0008374019325F0F5F0E4933822BB010A8959
:1022E000828A83F0E5F0A3F0225006F709A7F019DF
:1022F00022BBFE06F3E5F009F31922F8BB0111E554
:102300008229F582E5833AF583E8F0E5F0A3F0222F
:102310005009E92582C8F608A6F022BBFE09E92586
:1023200082C8F2E5F008F222EF2BFFEE3AFEED391B
:10233000FDEC38FC22C3EF9BFFEE9AFEED99FDEC1D
:1023400098FC22E88FF0A4CC8BF0A42CFCE98EF052
:10235000A42CFC8AF0EDA42CFCEA8EF0A4CDA8F00D
:102360008BF0A42DCC3825F0FDE98FF0A42CCD35D1
:10237000F0FCEB8EF0A4FEA9F0EB8FF0A4CFC5F03B
:102380002ECD39FEE43CFCEAA42DCE35F0FDE43C34
:10239000FC2275F008758200EF2FFFEE33FECD337F
:1023A000CDCC33CCC58233C5829BED9AEC99E582C6
:1023B00098400CF582EE9BFEED9AFDEC99FC0FD552
:1023C000F0D6E4CEFBE4CDFAE4CCF9A88222B80042
:1023D000C1B90059BA002DEC8BF084CFCECDFCE50D
:1023E000F0CBF97818EF2FFFEE33FEED33FDEC3331
:1023F000FCEB33FB10D703994004EB99FB0FD8E5B6
:10240000E4F9FA227818EF2FFFEE33FEED33FDECFE
:1024100033FCC933C910D7059BE99A4007EC9BFCF4
:10242000E99AF90FD8E0E4C9FAE4CCFB2275F01080
:10243000EF2FFFEE33FEED33FDCC33CCC833C810A5
:10244000D7079BEC9AE899400AED9BFDEC9AFCE8D3
:1024500099F80FD5F0DAE4CDFBE4CCFAE4C8F92220
:10246000EF5BFFEE5AFEED59FDEC58FC22C3E49FF2
:10247000FFE49EFEE49DFDE49CFC22EB9FF5F0EA68
:102480009E42F0E99D42F0EC6480C864809845F07B
:1024900022EB9FF5F0EA9E42F0E99D42F0E89C4570
:1024A000F022E8600FECC313FCED13FDEE13FEEF1A
:1024B00013FFD8F122E8600FEFC333FFEE33FEEDD8
:1024C00033FDEC33FCD8F122BB010789828A8302F9
:1024D00025565005E9F8022A35BBFE05E9F8022A1F
:1024E0004189828A83022562BB010DE58229F5823A
:1024F000E5833AF5830225565007E92582F8022A3A
:1025000035BBFE07E92582F8022A41E58229F582DA
:10251000E5833AF583022562BB010789828A83023B
:1025200025E35005E9F8022A77BBFE05E9F8022AFF
:102530008322BB010DE58229F582E5833AF583020A
:1025400025E35007E92582F8022A77BBFE07E92533
:1025500082F8022A8322E0FCA3E0FDA3E0FEA3E0D0
:10256000FF22E493FC740193FD740293FE740393C1
:10257000FF22E0F8A3E0F9A3E0FAA3E0FB22BB010D
:102580000DE58229F582E5833AF58302257250072D
:10259000E92582F8022A4DBBFE07E92582F8022AC6
:1025A0005AE58229F582E5833AF583022A677401A8
:1025B000FF3395E0FEFDFCA3A3A3E02FFFF0E5822F
:1025C000158270021583E03EFEF0E58215827002EE
:1025D0001583E03DFDF0E582158270021583E03C35
:1025E000FCF022ECF0A3EDF0A3EEF0A3EFF022A8B4
:1025F000828583F0D083D082122606122606122608
:1026000006122606E473E493A3C583C5F0C583C808
:10261000C582C8F0A3C583C5F0C583C8C582C822DA
:10262000BB010789828A830225EF5005E9F8022A57
:102630008FBBFE05E9F8022AA822BB010DE582291D
:10264000F582E5833AF5830225EF5007E92582F804
:10265000022A8FBBFE07E92582F8022AA822F5F09C
:10266000C582A4C582C5F0C583A42583F58322A4B1
:102670002582F582E5F03583F58322E0FBA3E0FABD
:10268000A3E0F922F8E0FBA3A3E0F925F0F0E5824E
:10269000158270021583E0FA38F022EBF0A3EAF01D
:1026A000A3E9F022E493FB740193FA740293F922F4
:1026B000BB010789828A8302267B5005E9F8022A3A
:1026C000C1BBFE05E9F8022AD389828A830226A4C7
:1026D000BB011A89828A83D0F0D0E0F8D0E0F9D02B
:1026E000E0FAD0E0FBE8C0E0C0F002269B5016E91B
:1026F000F8D083D082D0E0F9D0E0FAD0E0FBC082FD
:10270000C083022ACABBFE16E9F8D083D082D0E08B
:10271000F9D0E0FAD0E0FBC082C083022ADC22BB01
:10272000010DE58229F582E5833AF58302267B5087
:1027300007E92582F8022AC1BBFE07E92582F802D3
:102740002AD3E58229F582E5833AF5830226A4BBE4
:102750000120E58229F582E5833AF583D0F0D0E0C7
:10276000F8D0E0F9D0E0FAD0E0FBE8C0E0C0F00239
:10277000269B5018E92582F8D083D082D0E0F9D08A
:10278000E0FAD0E0FBC082C083022ACABBFE18E98F
:102790002582F8D083D082D0E0F9D0E0FAD0E0FBF7
:1027A000C082C083022ADC22D083D082F8E49370F6
:1027B00012740193700DA3A393F8740193F58288AA
:1027C00083E4737402936860EFA3A3A380DFD083D4
:1027D000D082E4937012740193700DA3A393F874E4
:1027E0000193F5828883E4737402936C701274030E
:1027F000936D700C7404936E70067405936F60DDB6
:10280000A3A3A3A3A3A380CA8A838982E473E56BED
:102810002582F582E56A3583F583B56A0485826B86
:102820002210AF0685826BF56A2285826BF56AD22B
:10283000AF22EC8EF0A4CCC5F0CCCDF8EFA4CEC581
:10284000F02DFDE43CFCE8A42EC8C5F03DFDE43CC1
:10285000FCEFA4FFE5F028FEE43DFDE43CFC22E3B0
:10286000F5F009E208B5F06BDFF58067E3F5F009F4
:10287000E608B5F05EDFF5805A87F009E608B5F0A6
:1028800052DFF6804E87F009E208B5F046DFF680A9
:102890004288828C8387F009E0A3B5F036DFF680AA
:1028A0003288828C8387F009E493A3B5F025DFF5A5
:1028B000802188828C83E3F5F009E0A3B5F014DF72
:1028C000F5801088828C83E3F5F009E493A3B5F0DA
:1028D00002DFF402298E808780E9809080D4803ED8
:1028E0008015806E807E809D80B7808D80A3805112
:1028F0008074803C02299A89828A83ECFAE493F5F9
:10290000F0A3C8C582C8CCC583CCE493A3C8C58254
:10291000C8CCC583CCB5F076DFE3DEE18070898278
:102920008A83E493F5F0A3E208B5F062DFF4805EF9
:1029300089828A83E0F5F0A3E608B5F051DFF580DF
:102940004D89828A83E0F5F0A3E208B5F040DFF517
:10295000803C89828A83E493F5F0A3E608B5F02EE3
:10296000DFF4802A8002805789828A83ECFAE4931C
:10297000F5F0A3C8C582C8CCC583CCE0A3C8C58286
:10298000C8CCC583CCB5F006DFE4DEE280007FFF73
:10299000B5F0020F2240027F012289828A83ECFA7D
:1029A000E0F5F0A3C8C582C8CCC583CCE0A3C8C5F8
:1029B00082C8CCC583CCB5F0D5DFE5DEE380CF8916
:1029C000828A83ECFAE0F5F0A3C8C582C8CCC5833F
:1029D000CCE493A3C8C582C8CCC583CCB5F0AFDF27
:1029E000E4DEE280A988F0EF60010E4E60ABED24DA
:1029F00002B404005098F582EB2402B40400508E17
:102A000023234582239028D673EF4E6012EF600196
:102A10000EEDBB010B89828A83F0A3DFFCDEFA2274
:102A200089F05007F709DFFCA9F022BBFEFCF3098F
:102A3000DFFCA9F022E6FC08E6FD08E6FE08E6FF5A
:102A400022E2FC08E2FD08E2FE08E2FF22E6FB08C3
:102A5000E6F908E6FA08E6CBF822E2FB08E2F90814
:102A6000E2FA08E2CBF822E493F8740193F97402D5
:102A700093FA740393FB22ECF608EDF608EEF608E1
:102A8000EFF622ECF208EDF208EEF208EFF222D0B7
:102A900083D082E493F608740193F608740293F6E7
:102AA00008740393F6740473D083D082E493F2081D
:102AB000740193F208740293F208740393F274049D
:102AC00073E6FB08E6FA08E6F922EBF608EAF608F0
:102AD000E9F622E2FB08E2FA08E2F922EBF208EA60
:102AE000F208E9F2224103C0004103BF00E0020204
:102AF0000000151FE002020002120FE001020009AF
:102B000054E00102000AA5E00102120B00E00502F8
:102B1000120C120F0206044108F9060114004108C4
:102B2000F8014108F601C127011900011700C13C55
:102B30004140E3004140D8004140E1004140E20013
:102B40004140DFFF43373600000042373400004188
:102B50003F4F00E00202121101B0E0010212130027
:102B6000E00102129400E0050213BC01B006060465
:102B7000C12AC115412C1E00412CA8FF412CA000E8
:102B8000C113412CA900412CAA00412CA101C1185C
:102B9000412C1D004147B300C148433C0A000000DE
:102BA000413C0900413C0D004303B60000004303D3
:102BB000B30103B6422E71980743448A00000043D4
:102BC000448701448A4146C5024146C40D4146C678
:102BD000086020368342DB01000000000000000096
:102BE00000000000000000000000000000000000E5
:102BF0000000000000602036A30900000000000073
:102C000000000000000000000000000000000000C4
:102C1000000000000000000000503A9A0000000090
:102C2000000000000000000000000000C121015869
:102C300000C11EC11F41461A05C12BC12DC1324220
:102C4000238C984041238E006020234B000000001D
:102C50000000000000000000000000000000000074
:102C60000000000000000000000000004320009F62
:102C700001005020030000000000000000000000E0
:102C800000000000016127260E000201050101027B
:102C90000E060101000407040102030000040006FF
:102CA00008050402080314040004001405010809BF
:102CB00008050208031405000400140500060014AA
:102CC0000802020A0A0802030100080004001408AE
:102CD0000006001408010800140A020D000A0A0286
:102CE0000C000A0A02080B0A0A01050C0E0A00046D
:102CF00000140A000600140A010800140E000A0D50
:102D0000110E020804140E000400140E0006001434
:102D10000E010800140E010500140E020F0E121110
:102D2000000C0C0E11020804141100040014110010
:102D30000600141101080014110105001411000A05
:102D400000141102050E12120208041412020C0FD4
:102D500000120004001412000600141201080014EE
:102D6000120105001412000A0014120205001412C8
:102D7000000C001413020C01000002090000000204
:102D8000100000140209010014020B0013140007C4
:102D9000100014020A0100140204001414020C00B2
:102DA0001414020D010014020E001414021001008C
:102DB0006024281E0200FFFF0602FF000602FF003B
:102DC0000301FF002300FFFF0300000013000000C9
:102DD0000200010103000000462775010002010402
:102DE000024227FB1D2241288200412A300141284E
:102DF0008800432885012843432879012843410A54
:102E00009D006020095FEDFFFFFFFFFFFFFFFFFF59
:102E1000FFFFFFFFFFFFFFFFFFFFFFFFFFFFFFFFC2
:102E2000FFFFFFFFFF7FE0020213C1014AE005023E
:102E30001506014A040126424713000041471200CB
:102E4000413D3800413D4000413D3E02413D3F0291
:102E5000413D4C004F2B02FF340812FF341A06FF8D
:102E600034200C031101492A3F4C6966656C696E78
:102E700065004C2AE55B032003320226035A0175E4
:102E800003608A2A4D200120014F6E2F4F66662075
:102E9000436F6E74726F6C00000000000000000051
:102EA0000000000000000000000000000000000022
:102EB00000000020022601537769746368204D7575
:102EC0006C74696C6576656C205365740000000055
:102ED00000000000000000000000000000000000F2
:102EE0000020032601537769746368204D756C7464
:102EF000696C6576656C2053746172742F53746FBE
:102F000070204C6576656C000000000000000042F7
:102F10002ADD0001412B2A00C107412ADA00412A9B
:102F20004801412AF400603B36C700000000000061
:102F30000000000000000000000000000000000091
:102F40000000000000000000000000000000000081
:102F50000000000000000000000000000000000071
:102F60000000000000C14B4147D400414135004200
:102F70004136000041412C0041412D0041412E00CD
:102F800042412F0000414131004141320041413373
:102F90000041413400443C9300000000443C860062
:102FA000000000423C8D0000413C8B00413C8CFF06
:102FB000413C8A00413C9700413F6E00413BAB00E1
:102FC000413BAC00423BA70000423BA90000443B10
:102FD000AE00000000443BB243640000413BA0004F
:102FE000413BA100413BA300423BA40000413BA662
:102FF0000044341D0000000041341C015133E9013C
:103000001E5D1E531E581E620000003C0000003C66
:103010005133FA031E6C00001E670000000000FF21
:10302000000000FF4142A9004142A80041472A0098
:1030300041407200414078004140770042407300B7
:103040000041407C004140710041407B004240799A
:103050000000424075000041407000503A590000A5
:103060000000000000000000000000000000413AE5
:103070005810413A690044467000000000412F9A00
:1030800000412F990043347400000041342100E0D6
:103090000202150B0013E00C02150D031E010100C6
:1030A00001000101260604E0050215190013FF01C5
:1030B00026E00202151E000041332D01413B1500A0
:1030C0005B3AF90000000000000000000000000072
:1030D0000000000000000000000000000000413A75
:1030E000F8FF41387D005038660000000000000005
:1030F00000000000000000000045387600010204D6
:10310000804735B8000000000000005235E85E2618
:103110007085595586725A7398329F5B6C75227A06
:103120004635E25E6C55989F224335B5000000C1DC
:103130005841393C0042475E000041475D00414133
:10314000CD004141C9004141C3004141CC00414152
:10315000C400443D9F000000004E3DA40001050650
:1031600007090A0B0D0E0F111516413DA300413D35
:10317000B200423C840000413C8100C159413C8284
:1031800000413C8000413C8300413C6DFF413C6E6E
:1031900000413C6F00413C7000413C7100413C7279
:1031A00000413C7300413C7400413C7500413C7659
:1031B00000413C7700413C7800413C790000C2D599
:1031C000E830E70FB2D5E4C39BFBE49AFAE499F93F
:1031D000E498F8EC30E717B2D51231F41223CEE4BC
:1031E000C39BFBE49AFAE499F9E498F8800312236C
:1031F000CE30D50DE4C39FFFE49EFEE49DFDE49C2C
:10320000FC2278B0E4F6D8FD9000007F007E10E448
:10321000F0A3DFFCDEFA9047DFA3E583C3942040F0
:1032200011FEAF829020000E0FE48002F0A3DFFCBD
:10323000DEFA121920021868223200000100000094
:10324000001706000000001806000000061806001F
:103250000000011806000000081806000000010127
:103260000100000001150000000001020400000040
:10327000010B04000000060B04000000080B040012
:103280000000010D00000000010E0400000001100C
:1032900000000000010F0000000004050100000014
:1032A00004060600000004070800000002050000F4
:1032B00000000305010000000108050000000008EF
:1032C00000000000010C01000000011205000000D8
:1032D0000803020000000122000000000816080098
:1032E000000008080000000001160100000006169A
:1032F00001000000050903000000050A00000000AD
:10330000050302000000050400000000061B060083
:103310000000011B06000000061C07000000061D3F
:1033200007000000070508000000081E0700000055
:10333000082000000000081F000000000821000015
:10334000000008110600000001110600000008221C
:1033500000000000061906000000061E0000000024
:10336000062000000000061A0800000006140100F4
:103370000000071401000000081B060000000724DD
:10338000000000000814010000000000000070FEB2
:10339000FE0000000000000000000000000000002F
:1033A000000000000000000000000000000000001D
:1033B000000000000000000000000000000000000D
:1033C00000000000000000000000010000000003F9
:1033D000FD0200FD040000000000555555555555EF
:1033E000555555555555555555333333333333337B
:1033F000333333333333333333888888888888884A
:1034000088888888888888885E267085595586725D
:103410005A7332989F5B6C75227A5E6C55989F2226
:10342000267085598632725A5B73757A1DE01DE5E8
:103430001DEA1DEF1DF43F241E16110E0B09070592
:1034400004030201F0C8A79177676046383532302F
:1034500024222014000101020203030404050506CE
:103460000607071E301E35020306070A0B0E0F0162
:10347000030507090B0D0F040506070C0D0E0F08B9
:10348000090A0B0C0D0E0F000000000000000000E8
:10349000000000000000000000000000000000002C
:1034A00000000000000087888888888888888888CD
:1034B0008888888888882626262626262626262660
:1034C0002626262626261E080000000000000000F2
:1034D0000000000000000000000000000300004C9D
:1034E0006966656C696E6500496E76616C69642019
:1034F00067726F75700000152A557FAAD4EA000123
:10350000050607090A0B0D0E0F11151619BC19C176
:1035100019C619CB19D519E919EE19F31D451D4F17
:103520001D541D591D5E1D631D681D7200000000A5
:103530000000000000000000000000001958195DA4
:10354000196C197119761C281C371C3C1C411C462F
:103550001EBCFA4A1EC61ECB1ED0822D1C1613118D
:1035600010104420401841B56C566C7447881A7A84
:103570001A7F1AB62603260126051F431F481F4D32
:103580001DB31DB81E761E7B1E991EA81EE91EEED9
:103590001F111F1619A31BB51BC91D3B1E3A1E4444
:1035A0001E4E20035A011E8F20017503E4FD7C0C82
:1035B000AB050DEB90181F938F828E83F00FBF0029
:1035C000010EDCEC7F03228F828E83E4F0A374066D
:1035D000F0B1EB7404F0B1EBA3E4F0EF2404F58256
:1035E000E43EF583E4F0A3745BF0228F828E83A324
:1035F000A322AD07901217E054FCF0E0FFED543029
:103600007E0060027E02EF4E901217F0E0FFED7E2A
:103610000030E0027E01EF4E901217F0229003C8B6
:103620007402F09003BFE0FF121DC7B1F29003C80F
:103630007405F0229003C6E0FF121DD19003CBEF7A
:10364000F0229003CBE07F0070027F0122E4900320
:10365000C6F0229003C67401F0229003C67402F0F3
:1036600022D16870027F01229003C6E07F0022D140
:1036700068B401027F0122D168B402027F012212E4
:103680003BB2121A3E121B0B121994121C23127E0B
:103690006D7002E1757FFF121AC5900A0512269B14
:1036A0007E007F09F1CEBF540D7E007F0AF1CEBFB0
:1036B000A5047F0180027F009003BFEFF0900A0510
:1036C00012267BE94A4B701D7F04FEF1CEEF2401E8
:1036D000FFE433FEC37401125E187F0050027F01C5
:1036E0009003BFEFF09003BFE06401704E900A05B5
:1036F00012267B127C677A0A790B127388900A0B68
:10370000E0FEA3E0900A05127CDCE43AFA900A0895
:1037100012269BE92408F9E43AFEAF017B017A0AFC
:10372000790B127388900A0BE064017004A3E064C3
:10373000266008121ACA9003BFEFF09003BFE07032
:103740002C7E007F04C006C3741F9404FE7415947D
:10375000009043F1F0A3CEF07B007A007900D00610
:103760001273BC74FFFDFCE4FFFE121ACF9003BF7E
:10377000E0FF121AF2127E6D7F0060027F011219C3
:10378000FD121A07121962127B79121B6F125097E1
:10379000FE4FFDA3E0FC4DFDA3E0FB4D600BEE5F93
:1037A000FFEC5FFFEB5FF47003124D41901221E0DC
:1037B000FF901225E06F9003BAF0021BF1E075F064
:1037C00002A42485F9740F35F07B02FEAF01E4FCFE
:1037D000FD9045501225E3123F501238BEEF6005B0
:1037E000123EB680F5123A407F03123B31600B90D7
:1037F0004550122556781012381B90455012381635
:10380000904550123F3A1238B2904554EFF031E2F1
:10381000904554E0FF2212255678081224A2E4E5D0
:10382000C820E2FB8FEB227F0131E69047AC7401A8
:10383000F09047ACE0602EF14011B29047ACEFF051
:10384000316411A1903F43EFF031649047ACE054F4
:1038500001F1C960DCA3E0F460D7EF30E7D3E49076
:1038600047ACF080CC51447F9F111F11B2903F4470
:1038700011B0903F4911B0903F4AEFF031E2903FD4
:1038800042E0F4601BA3E0F46016903F49E0FD5471
:103890001F240FA3F0EDC41354074480903F49F058
:1038A0002251447FD7111F7FFF111F11B6903F4255
:1038B000EFF07FFF111FE5C820E2FBAFEB227F0195
:1038C00031E6304614F14011B29047ADEFF031646B
:1038D0009047ADE020E002C24630461711A1903F6C
:1038E00043EFF1C9600BA3E0F46006EF30E702C2DA
:1038F000463164E4FF31E6A246E433FF2290423CC5
:103900001225E390424012269BF15011BEEF600455
:10391000D1B680F7711C600A90423C12255678108F
:10392000111B90423C111690423C122556E4802512
:10393000904243F1EB602290424012267BE94A60BC
:1039400012122094FF111F904241E475F0011222DF
:103950000080DDE4FF111F80D731E2903F46740103
:10396000F022111F1275E0EF70FA903F49E0F46009
:103970000A9047AB7406F0F1D170FC903F47E0121B
:1039800027A8399E0439A61439AB1539B01739C0A8
:103990003039C53439CA3639CF37000039B84354C5
:1039A00010855480802F4355108008435520800394
:1039B000435580855590801D4356208556A080151F
:1039C000435701800D4357108008435740800343FD
:1039D00057808557B09047AB740CF0F1D170FC2242
:1039E000111F3164E4FFEFB4010443FE202253FEB3
:1039F000DF22904559F09045551225E39045551228
:103A000025561237D1904559E06F6032F15011BE02
:103A1000EF6004D1B680F7711C600A9045551225FD
:103A2000567810111B9045551116904555F13A9056
:103A30004559E0FF31E0903F467401F0D322C322A4
:103A40007F0131E6903F47E01227A83A67043A6FBA
:103A5000143A74153A79173A89303A8E343A9336D3
:103A60003A983700003A815354EF855480802F53A1
:103A700055EF80085355DF800353557F855590805F
:103A80001D5356DF8556A080155357FE800D5357A2
:103A9000EF80085357BF800353577F8557B07F0C83
:103AA000DFFE22F15011BEEF6004D1B680F77F0136
:103AB00031E6D24651447F06316251447F01111FE5
:103AC0007F033162E4FF21E69042451225E39042F4
:103AD0004912269BF15011BEEF6004D1B680F75118
:103AE000407F037131600A904245122556781011CB
:103AF0001B9042451116904245F13A90424CF1EB31
:103B0000601411B2904249125F0590424AE475F088
:103B10000112220080E53164E4FF21E67F0131E6F5
:103B2000D24651447F06111F31645144903F45E015
:103B3000FF111F903F48E0640222903F42E020E0E6
:103B40001251407F3D111F7F2A111F7F80111F7F5F
:103B5000A631E022904764EFF0E4A3F0903F50E0FC
:103B6000FFB40209740FF19C74B9F0800CEF640487
:103B7000703F743DF19C7479F05140904764E0606F
:103B800007903F4FE0FF80027FAB111F31649047E9
:103B900064E0903F4FF07015904765E0D39400408B
:103BA0000C7FFF111F904765E014F080EBE4FF31BC
:103BB000E6227B017A3F79477F03F1C17A3F795052
:103BC0007F08F1C17A3F794D7D027F09121BFB7B93
:103BD000017A3F794B7D027F0B121BFB903F4BF12B
:103BE000956006BEFF17BFFF14F1E2500280051278
:103BF0007E638009903F4BE4F0A37440F0F1E25003
:103C0000028008903F487403F08006903F48740299
:103C1000F0903F47E01227A83C34043C3F143C4757
:103C2000153C4F173C65303C6D343C75363C7D3758
:103C300000003C5A75FF015350EF8550FD804775D9
:103C4000FF015351EF800E75FF015351DF80067560
:103C5000FF0153517F8551C9802C75FF015352DFFD
:103C60008552CA802175FF015353FE801675FF01EE
:103C70005353EF800E75FF015353BF800675FF014C
:103C800053537F8553CB31647F11F18FE4FF71541F
:103C90001127903F457402F0903F49E0247F60096E
:103CA000047016F1A4740A8006713AF1A47458F0F5
:103CB000903F487403F0127E63903F4AE0F4600244
:103CC000A15B903F4DE0FEA3E0FF64104E700690B4
:103CD0003F4A740EF0EF64204E7006903F4A740F16
:103CE000F0EF64404E7006903F4A7410F0EF64802D
:103CF0004E7006903F4A7411F0E4B5070AEEB40125
:103D000006903F4A7412F0E4B5070AEEB40206903A
:103D10003F4A7413F0E4B5070AEEB40406903F4A34
:103D20007414F0E4B5070AEEB40806903F4A74151F
:103D3000F0E4B5070AEEB41006903F4A7416F0E4BA
:103D4000B5070AEEB42006903F4A7417F0E4B507B1
:103D50000AEEB44006903F4A7418F041A3903F7EAB
:103D60001225E3903F8212269B903F7E12255690AB
:103D70003F4CE024FFFD903F4BE034FF5EFEED5FE3
:103D8000FF903F87127D6D6062F146127D4B903F40
:103D900087F0A3EFF0903F85E0FCA3E0FDD39FEC1C
:103DA0009E5006A3ECF0A3EDF0D17C127516F060E6
:103DB00028F15FC004C005C006C007D17CE94A6095
:103DC00005F12DFF80027F007E00D17C127BFED0AA
:103DD00007D006D005D00411FDF146D15EE94A6056
:103DE00004F1D9806C7E007F008066903F85F1955C
:103DF000606A903F4BE0FCA3E0FDD3EF9DEE9C405A
:103E00000A903F87ECF0A3EDF08006903F85127D8D
:103E1000E2D17C127516F06028F15FC004C005C0C5
:103E200006C007D17CE94A6005F12DFF80027F00C2
:103E30007E00D17C127BFED007D006D005D00411C5
:103E4000FDF146D15EE94A6004F1D980047E007F2D
:103E500000903F83EE8FF0122200808FD322903F9C
:103E600086E09FF0903F85E09EF0903F7E122572A5
:103E7000E4FCFD122328903F7E1225E3903F82024E
:103E8000267BEFF4045FFFE4FEEF70037FFF22EF79
:103E9000D3940F4009EFC4540FFFEE4404FEEFD358
:103EA0009403400AEF1313543FFFEE4402FEEF3039
:103EB000E1010EAF0622E51530E20FE51520E50A17
:103EC000E51530E0057F01124CB722AB07AA06EBDF
:103ED000241FFFE43AFEEF7805CEC313CE13D8F9C2
:103EE000F9EB541F9047AEF0AF05F132FCAF05D1AE
:103EF00087AE01EE14C39FC43354E0F9AF04C3EBA3
:103F00009FFFEA9400FEE9FDC3EF9DFFEE9400FEE3
:103F1000ED600FE0FD6007C374209DFD80067D000D
:103F200080027D007C00EF2DFFEC3EFE22903F8B57
:103F3000E0FFD182EFC43354E022122556E4011F82
:103F400051447F05011F903F87E0FEA3E0FFC3229D
:103F500075FF02E5E430E10675E40675E40322909E
:103F60003F87E0FEA3E0FF903F8BE0FDD1CB903F89
:103F700089EEF0A3EFF0A3E0FFD182EF75F020A46B
:103F8000FFAEF0E4FCFD903F7E122572022328EF85
:103F90004420F5FE22E0FEA3E0FF4E22904765F0AC
:103FA000903F4F227F10F18F903F45227E127F0B72
:103FB000E4FD1243AAF15011BEEF6004D1B680F7C0
:103FC000227D01121BFB7B0122F0903F42E0FFF4B7
:103FD000229047ABE014F0E022903F87E0FEA3E0A0
:103FE000FF22903F50E024FE24FD2274FFF5F012E2
:103FF000221645F02275FF0275E40475E40175E4AC
:10400000022275FF0275E404E4F5E4221247F790FA
:1040100003C9EEF0A3EFF022126AF3EF70087FA05D
:104020007E0FFDFC01B7126B2A9040D9EFF07406A9
:10403000D39F4065E0605A31317E009040D9E01452
:10404000FDE5F0A805088005C333CE33CED8F9FFCF
:10405000312A31149040DA122572C000C001C0022A
:10406000C0039040D9E014FF74107E00A8070880B8
:1040700005C333CE33CED8F9FFEE3395E0FDFC31E6
:1040800020122343D003D002D001D0001223288075
:10409000263131AFF03128801E9040E1E0FF600F03
:1040A000E4FCFDFEFB7AF47901F812234380087FDB
:1040B000007ED07D077C00311431447E417FB5C045
:1040C00006C007310DD1DBD007D00671B3126B04E7
:1040D000EF7039311AD31224914007E47F01FEFDBD
:1040E0008022311A1223CE3114310DE47B01D1B379
:1040F0005014310DC3EF9401FFEE9400FEED9400D7
:10410000FDEC94003113310D3171110C229040DA25
:10411000022556FC9040DA0225E39040DA1225563B
:10412000E47BE87A03F9F8227E007C007D640228B3
:10413000323139EF75F0A084229003BAE064AA24EA
:1041400011FFF022D1EEEF6010E47FA07E0FFD3171
:1041500013901217E054E7F022901217E0FF74E07A
:10416000D39F4005E02410F022EF6410901217F066
:10417000229045E01225E331AFE47BFFD1B3501C20
:10418000E431AE1223CE9012181225E3E47BFFFA3D
:10419000F931AE1223CE901228EBF02290121812B1
:1041A00025EF0000000031AF901228EFF022F890C8
:1041B00045E002255691A99040DEE0B4020AD1E71D
:1041C0009040DE7403F041569040DEE06403706975
:1041D0009040E0E060569040E2E0B40105121BDD43
:1041E000800A9040E2E0B40203121BE29040E0E05B
:1041F00014F0E0601F3139EF75F04684E5F075F09A
:1042000064A4FFEF24A0FFE5F0340FFEE433FDE4E7
:1042100033FC8007E47FA07E0FFDFC9042FA12255C
:10422000E37E417FB5E49042FEF061B39040DE74DE
:1042300001F051567FFD021DDB9040DEE0B4041218
:10424000D1EEEF600A7B007A007900E4FF011812DA
:104250001BDD227401F09040DEE0640270227C4499
:104260007D207F011219F8E4FBFAFD7FFF1219E4AB
:104270007E417FB5C006C007D1D4D007D00661B358
:104280009040DEE0640370189040DAF1C89040E29C
:10429000E07C447D20B402047F0380117F02800D06
:1042A0009040DEE0B4040B7C447D207F041219F8BA
:1042B00021B59040DEE0B4010BD1E791A9719DE4F6
:1042C0009040DEF0229047A6EFF0C23C901221E031
:1042D00060207E127F0B1237CEBF01087FFF121DB8
:1042E000DB7F00229040DEE06008901221E0FF12A8
:1042F0001DDB123FAC9047A6E07002617DE4904068
:10430000E2F09040DEE0600251539047A6E0FFB437
:1043100001079040E274018009EFB403109040E27D
:104320007402F0719D9040E07404F08048EF6404E2
:104330007035901221E0701ED23CD1BAEF700F712F
:104340009DF1EF7E127F0B7D0171AA123FB5904067
:10435000DE7404F0803A9003C1E0B40505E4F01285
:104360001BD8719D7F00229047A6E06402702190C7
:1043700040E0F0719D9040DE7402F08013E49040C4
:10438000E2F0D1BAEF6003123FAC9040DE7401F06E
:1043900051569040DEE07F0060027F0122901217AC
:1043A000E05403F022FEAF01E4FDAB05E4FCFDEBBD
:1043B0000239F271BB9040E3EFF0229042F8EEF048
:1043C000A3EFF07FFFA3122572E8494A4B6050909B
:1043D00042FF7403F09042FFE0FEC3940E5040EEA3
:1043E00091DFE070329042FF91DD7405F0C00790DC
:1043F00042FA1225569042F31225E39042FEE090D5
:1044000042F7F09042F8E0FCA3E0FDD007B1C7907E
:1044100042FFE004FF80089042FFE004F080B622F3
:10442000904762EFF0A3EDF091A9904762E0B401EC
:1044300012A3E09040DFF0719D9040DE7405F07FA4
:10444000FE805F904762E0640270229040E2E06488
:104450000270559040D9F09040DE7403F07E417FA9
:10446000B5C006C007D1D4D007D00661B39047626B
:10447000E07035121A5CEF6401602A303C14121DA2
:10448000FEEF600C121A5CEF600690476374FFF059
:10449000C23C123FAC9040DEE06002515390476353
:1044A000E0FF021DDB121A66229040E3E0FF91B6A6
:1044B000E49040E3F022AB07E4FF1BEBC3940E5003
:1044C0001BEBD1C61225EF00000000EBB1A91225AD
:1044D000EF00000000EB91DFE4F07F0122E0FF75C8
:1044E000F00CA424B6F582E4342DF58322D3900099
:1044F00001E09400900000E094005002A1A6C2AD3B
:10450000E0FFA3E0904760CFF0A3EFF0E49000005D
:10451000F0A3F0D2ADF56DE56D91DFE060729047EC
:1045200060D1F6B1A7F1DD5046B1B7E0FF6008F405
:104530006005B1B7E014F0B1B7E0600EE56DD1C62B
:10454000122556B1A71225E3800FE56D91DFE4F047
:10455000B1A71225EF00000000D11FE0FEA3E04E3E
:104560006008D11FF1D6F9122808123EB68021B199
:10457000A7C083C082122556C006C00790476012AC
:1045800072EAD007D006122335D082D0831225E3F9
:10459000056DE56DC3940E5002A117904760E0FED3
:1045A000A3E0FF121B0622E56D75F00CA424ABF509
:1045B00082E4342DF58322E56D75F00CA424B5F565
:1045C00082E4342DF583229042F1ECF0A3EDF090DB
:1045D00042F0EFF0FB9042F3122556EBD1C61225C4
:1045E000E3EBB1A91225E3EBB1A9C083C082122588
:1045F00072900000D1F6122328D082D0831225E3D6
:104600009042F7E0FF9042F0E0FEB1B9EFF0904247
:10461000F1E0FCA3E0FDEED121ECF0A3EDF022E50A
:104620006D75F00CA424B3F582E4342DF58322904B
:1046300043D01272E0EBF09043D574FFF09043D476
:10464000E09043D6F09043D6E0FFC3940E505EEF67
:10465000B1A9122556E4FBD1B3704A9043D4E07E51
:104660000170027E029043D691DDEEF0C0079043C8
:10467000D2E0FF7E006004F1E480027F0AE4FCFDEA
:104680009042F31225E39043D3E09042F7F0904339
:10469000D0E0FCA3E0FDD007B1C79043D6E004FF13
:1046A0009043D5F0229043D6E004F080989043D513
:1046B000E0FF22FAF9F8C3022491901217E07F007C
:1046C00030E2027F012275F00CA424AFF582E434BD
:1046D0002DF58322E47FD07E07FDFC9042FA12255F
:1046E000E3E49042FEF022E4FDFCFF0219F8901290
:1046F00017E05408FF22E0FEA3E0FFE4FCFD22F0F7
:10470000A3EFF07E477F88E4FB7D01E49043D4F083
:10471000C12F9047A8EFF0903734123F9560359045
:104720003739F1CF903734F0A3F09047A8E0B402C6
:104730001990373B7401F0903739E0FFA3E09037D0
:104740003CCFD1FFEFF4703F80259047A8E0FF9069
:104750003739802B903732123F95602B9047A8E075
:10476000B4020EE490373BF0A3EED1FFBFFF1880F8
:10477000179047A8E0FF7B017A37790F903732E036
:10478000FC127CAB12280C2290373BE0B40103A34F
:1047900080097B017A37790F90373C127AA57F0226
:1047A00002280CAB07E4FA1BEBC3940E5013EBD1B9
:1047B000C6122556EC4D4E4F6007EBB1A91225E30A
:1047C0000AAF022280DD81B6FFFEFDFC0225E3EE8A
:1047D000F0A3EFF0E422E0FEA3E0AA062212257285
:1047E000D30224917C007D0A022163F1F780F590C9
:1047F0001217E04404F022A2AD9236C2ADAF67AE0C
:1048000066A23692AD2220152B901217E030E10AF5
:10481000F1ED50067E007F0180047E007F00EF4EA8
:104820007012121C5AEF700C126BEEEF70061240F1
:104830000C7F01227F002275FF0275E404E4F5E499
:10484000F1DCC330E001D34016E5E630E011901210
:1048500017E0540C600971A3901217E054F7F0C2EE
:1048600026F1DC30E036E5E654036401702E121ABE
:1048700020126938401D90123FE0600AE014F07089
:10488000051232027175901215E020E002212EF11E
:10489000AA212E123202D2267175212E1232021254
:1048A0006D009003C1EFF0901200E0B47A14901202
:1048B00014E0B49C0D9003C1E0FF64056004EFB404
:1048C0000330E49003C7F09003C7E0FFC394805027
:1048D00013E42FF582E43412F583E4F09003C7E08B
:1048E00004F080E3901200747AF0901214749CF03B
:1048F000D222121C054003121C007B017A1279108F
:104900007D017F01121BFB7B017A1279117D017FF2
:1049100021121BFB7B017A1279127D017F22121B6F
:10492000FB7B017A1279297D017F02121BFB901219
:1049300029E0B401057F01127301121A25126D00DE
:10494000121A1B9003C1EFF0121999121A16900354
:10495000C1E0FFB40602800C3026047F028005907F
:1049600003C1E0FF121DC2EF24FFB3924875FF029E
:1049700053E6BF127E6D6002717512510E121A2F2E
:1049800012367F30220A7B017A12792B7D10D1FCFE
:10499000121A6B901215E0C330E001D3400F20488B
:1049A0000C12361D7B017A2C79B11219DA90122A79
:1049B000E030E00280033026047F0191B7D2AF20BF
:1049C00048024143121C1E1244ED121DCC121BF66C
:1049D00040F29003C0E06041121A4DEF7007125888
:1049E0008F94004034E51470FCE51520E50291D465
:1049F000121B6AEF70FA717D5004718F50057F01B0
:104A0000123B549003C0E0B40204E4FF8009900319
:104A1000C0E0B403047F01F18C121A43E51530E1C4
:104A2000A3127C344002E4F0E51520E504715991AD
:104A30002C127C6EEFC0E07167F1D4D0E0FF121948
:104A40008F80811250AE12507F5002B14112366FEA
:104A5000EF70069003C0E06053902C1EE0704D1282
:104A60001A4DEF700712588F94004040E51470FC07
:104A7000E51520E50291D4126C0F121B6AEF70FA53
:104A8000717D5004718F50057F01123B549003C01B
:104A9000E0701212366FEF600C12365A901217E067
:104AA0004408F080079003C0E0FF71FC121C1E1246
:104AB00044ED121BE7123634123642EF70221236E2
:104AC00077EF600471A3803712366FEF7031126B8D
:104AD00010EF702B1106EF64017024123653801F03
:104AE000901217E020E218123677EF600D717D50BA
:104AF00004718F5005E4FF123B54E49003C6F0208C
:104B00002305121A4380221247F79003B9E0FEEF03
:104B1000C39E4005EF9EFF80089003B9E0F4042F88
:104B2000FF7406D39F5002C223E51530E120127CAA
:104B3000344002E4F0E51520E5047159912C127C13
:104B40006EEFC0E07167F1D4D0E0FF12198F121B35
:104B5000BA121A571250FC41439003C2E0FD75F09F
:104B6000AA9003CC12266FED75F002A424BBF97451
:104B70000335F0FA22901215E054FEF02290000165
:104B8000740193B40007E493B41802C322D3227FC4
:104B9000017E009017FCE4935EFE7401935F4E2447
:104BA000FFB322901217E0FF20E20320E14AE4FF66
:104BB000901218F1587007901228E0700122E4FF5B
:104BC000FEFDFC901218F15B60167FFFF14B901216
:104BD00018127BBB127EF4FC9012181225E3800C95
:104BE000901228E0FFF14BE4901228F0126CCC9068
:104BF0001240F1F07F01E18CF1727F059047A7EF41
:104C0000F071759047A7E0B40204E4FF801B904761
:104C1000A7E0B403047F0180109047A7E0B4050B20
:104C2000901215E04401F07F01F18C227B01AF82EC
:104C3000AE837D01900A1A127B05E5147078F1624B
:104C40005004C24491FB900A1AE0FEA3E08E11F5D5
:104C500012A312267B9008FA12269BAE11AF127D8A
:104C6000AA12754AE4F5FF75D901F510E51554212E
:104C7000602CE51530E505E4FF1263DDE4900A1FC2
:104C8000F0900A1FE004F0126693EF6009900A1F8B
:104C9000E0C3941040EB7F02121DBD5315DE900857
:104CA000F6E07F00B403027F011263CED24491FB91
:104CB000D2EBA22592ED22EF600E71597B01AF82FB
:104CC000AE83E4FD91348009121A5291D4E433FF8B
:104CD000227F0122E5147021F1625004C24491FB4D
:104CE000F1B01263F8E5D120E0FB4315205315FE27
:104CF000E4F510A22592EDD322C3229047AAE5F451
:104D0000F0E0547FF5F47F827E0012668E1256CC5E
:104D10005005E5FC20E6F63044089047AAE04480C0
:104D2000F5F412668A1256CC5005E5FC20E6F675BD
:104D3000FF01E5D520E702C322E5F4D330E601C345
:104D400022E4FF91B7EF603FF151B1885009901212
:104D500023E0C394C040F17B017A127925B18850D9
:104D60000F1250975FFFA3E05FFFA3E05FF460E7DF
:104D700090122AE030E0047F0191B7E4901221F014
:104D8000F151E0FD121B742290418CD1F3904192BD
:104D90001225EF000000019041967401F0F5FFE547
:104DA000D554C07004F16A5002C322E4F5FF539653
:104DB0007F75FF0175D5041256D775FF0143D508DD
:104DC000E4F5FF5394FBF5FF53847FF5FF7598FFDF
:104DD000904190E5F4F075F49C75FF01A3E5E4F0D3
:104DE00075E4257B017A417996126DC7904196E072
:104DF00064016002C1A5F5FF90418F7414F09041E9
:104E000092D1E778011224B59041921225E3E5A7EB
:104E100030E1FB43A702904192D1E7E5A730E005DE
:104E2000E47B018002E4FBFAF9F8EF4BFFEE4AFE67
:104E3000ED49FDEC48FC9041921225E390418FE052
:104E400014F070BA904192D1E778101224A27B6DD1
:104E50007A4E79C67841122343EF2439FFEE34307D
:104E60001251C4E4FBFA7901F81223CEEE547FFE0E
:104E7000E4FDFC1271A0904192D1E7EB6FFFEA6E66
:104E8000FEE8CDEFCDCCEECCECFF1264D8EF1221D2
:104E90002F1264D8ED12737290120FE030E606E420
:104EA000F5FF75968075FF01E4F5D5904190E0F52A
:104EB000F475FF01A3E0F5E4126EA1904196E0B411
:104EC0000103D38001C322E0FB25E025E02401F5A6
:104ED00082E43412F5831225E3EB25E025E024017A
:104EE000F582E43412F583E0FCA3E0FDA3E0FEA329
:104EF000E0FF22EBF0A3EAF0A3E9F022900A3712D8
:104F0000269B900A3AEDF0E4A3F0ED54FE900A3AA5
:104F1000F0602EE4FF91B7BF0127900A3712267B7D
:104F2000B188501D900A38E475F002122200900AF0
:104F30003BE02402F0900A3BE0FF900A3AE06F70F9
:104F4000D97F0191B7900A3BE0FF2275FF028FE302
:104F5000227B017A12792322FEFDFC122572C30204
:104F60002491C2EBA2ED9225C2EDE5F4C330E70136
:104F7000D322126CCC90122AE090124030E5071236
:104F800050767F1F8004F1F0E4FF80BF43FB107573
:104F9000FF0243E640EF600D75FF02E5E120E7FB0D
:104FA00043FB0D800343FB0E80FEF1727F0180DC2A
:104FB000F1B77F08021DBDE5FA30E1FB75FC807595
:104FC000FF0153D5EFE4F5FC75FC401257E1E5FC19
:104FD00020E6FB227B019003C3E0FD2275FF0290D7
:104FE0001215E022C2AFEFF45215D2AF22A2262250
:104FF000E0FB7D01E4FFEB600875FF0153CDFD8010
:105000000675FF0143CD02ED600553FBDF800343CE
:10501000FB20EF600775FF0243E1402275FF02535A
:10502000E1BF22900A64EFF0900A66EBF0900A6507
:10503000EDF05402901240F0124806EF7002C322C5
:10504000900A64E0B4040BA31176900A647403F030
:105050008012900A64E0B40505124F728006900A2F
:1050600065124FF0900A64E09003C0F0900A66E089
:1050700090123FF0D322E0FB7D017F01024FF690BA
:105080001221E0701011974FFFA3E04FFFA3E04FF4
:105090007003D38001C322901223E0FFA3E022AE6D
:1050A00007124139EE04FEEF8EF084AFF022302477
:1050B0000C902C1EE07006FF1219B7C22430262374
:1050C000AF67900917E0FEEFC39E400AEF9ED394AE
:1050D000024010C22622900917E0F42FD394014019
:1050E00002C226229003C4E0FCA3E04C70059003AA
:1050F000C48002C322EEF0A3EFF0D3229003C412C7
:105100003F956009CAEECAC9EFC912280822D2AD7C
:10511000D2BD75FF02758E71756C0975FF02E58E43
:10512000546F4480F58E9045DC1225EF000000009E
:1051300022C0E0C0F0C083C082C0D075D008C0FFDC
:1051400075FF02E58E30E43D75FF02E58E54EF44B5
:1051500010F58E9045DC12255631BE9045DC1225A7
:10516000E3900000E475F001122200E56C30E002EB
:105170000559E56C700D756C090567E567700205EA
:10518000668002156C75FF02E58530E40875FF0244
:10519000438510056FD0FFD0D0D082D083D0F0D01F
:1051A000E032FF7E04FDFCE0F8A3E0F9A3E0FAA3FF
:1051B000E0FB122343E47B7DFAF9F81223CEEF24BF
:1051C00001FFE43EFEE43DFDE43CFC22903BBB12CB
:1051D00025E3126FD2903BD01225EF002DC6C0E41C
:1051E000F5FFF5A490120EF0A3F0903BCB7402F003
:1051F00075FF03903BCBE0FFF595EF14601414604E
:105200001E2402702A903BBB124EE7D1B9903BC7D7
:105210008018903BBF124EE7D1B9903BC8800B90ED
:105220003BC3124EE7D1B9903BC9E0903BD4F0129A
:105230007003903BD4E07005127D3D805E90120EAD
:10524000E004F0903BCB1267DC903BD0124EE7902D
:105250003BCCE0F8A3E0F9127BACC3122491500AD6
:10526000903BCC124EE7A31225E3903BD4E0FF1213
:105270006E53903BCAE0FFA3E0FDA241923F126F44
:1052800080A3124EE790454C1225E3903BCBE0FF04
:10529000B106903BCBE0124EDA91CA127ECB60028F
:1052A00021F07402F075FF03903BCB127F49701719
:1052B000FF7E04FDFC903BD031A778011224A29020
:1052C0003BCB124EC791CA127ECB70D9127C2640BE
:1052D0000343F420A2419240126EB2903BD0127C64
:1052E0008B2420FFEE344E31C4E4FB7A04F9F8310C
:1052F000B278011224A2C23E127D019012137401F1
:10530000F07E127F01E4FD8F828E83EF2DF582E423
:105310003EF583E0FC901213E02CF00DEDB412E7A3
:1053200022903A7A1225E3903A8A127E0E126FD2B8
:1053300075FF02E5E630E00E903A8B7401F0FB7ADF
:105340003A798B126DC7903A951225EF002DC6C0A1
:10535000E4F5FFF5A490120FF0903A8C7402F0750A
:10536000FF03903A8CE0FFF595EF14601414601E73
:105370002402702A903A7A124EE7D1BF903A868082
:1053800018903A7E124EE7D1BF903A87800B903A40
:1053900082124EE7D1BF903A88E0903A99F01270AD
:1053A00003903A99E07005127D3D806E90120EE0F8
:1053B00004F0903A8C1267DC903A8BE07021903ABE
:1053C00095124EE7903A91E0F8A3E0F9127BACC356
:1053D000122491500A903A91124EE7A31225E390BD
:1053E0003A99E0FF126E53903A89E0FF903A8CE0D0
:1053F000FDA242923F126F80903A8BE07013903A78
:1054000091124EE790454C1225E3903A8CE0FFB1A3
:1054100006903A8CE0124EDA91CA127EC2600261A6
:105420005F903A8BE07047A37402F075FF03903AE7
:105430008C127F497012903A9531A278011224A201
:10544000903A8C124EC791CA127EC270DE903A9585
:10545000127C8B2420FFEE344E31C4E4FB7A04F935
:10546000F831B278011224A2903A8D1225E3127C11
:1054700026400343F420A2429240126EB2903A8B2F
:10548000E024FF923E903A8D124EE7127D01E4F542
:10549000FF75E508127D74E59B30E7FBD1E7F1EF7E
:1054A00043D5047FC8D1FA51FBD1DE7B017A3A792A
:1054B0008A126DFB90120EE0B40103126756903A07
:1054C0008AE0B40103D38001C3229045E81225E3AA
:1054D00075FF019045E8A3E0FDA3A3E4FFFEE4FC13
:1054E00078101224A28FE19045E8A3A3E0FEA3E484
:1054F000FFE4FDFC78081224A28FE29045E8A3A304
:10550000A3E0FF8FE32290454BEFF0E4A331A278B4
:10551000011224A290454BE0FBD1AB1225E390127F
:1055200010E064806075E0C3947F5038EBD1ABC06D
:1055300083C082124EE7EEC0E0EFC0E0901210E0B0
:1055400075F004A4AEF0FBCAEECAEA3395E0F9F8B0
:10555000D0E0FFD0E0FEC3EF9BFFEE9AFEED99FD99
:10556000EC98802F90454BD1AAC083C082E0F8A36D
:10557000E0F9127BAC901210E0F40475F004A4FF83
:10558000AEF0EE3395E0FDFCEB2FFFEA3EFEE93D89
:10559000FDE83CFCD082D0831225E3229043E51243
:1055A00072E3EBF09043EB7401F0C24312668AD1D0
:1055B000CC5005E5FC20E6F712662FBF0108E4F5A4
:1055C000FC75FC40800812662FBF0202D3221267CE
:1055D0004F9043E6E0FF1271AD75FF0153D5DF53E5
:1055E000FAFB9043E5E0FF1263DD9043E6E0904371
:1055F000E5B4080BD1AA127C8B245231C18004E09F
:10560000124EDA91CA9043E7E0FF12720675FF016D
:1056100075FF03759B0412668A75FC42E5FC20E168
:1056200004D1CC40F49043E8E0F075FF03E59B2003
:10563000E704D1CC40F4E59B20E70D75FF03759B93
:105640001F124FB7D243804FD1C5126DC79043E6AA
:10565000E0FD90120FE05D701C9043E5E0FFD1C5C6
:1056600012701090120FE0FF9043E6E0FEEF4E90B4
:10567000120FF051FB12652C7B017A4379E9126518
:105680000F500FC39043EAE094209043E9E0940365
:1056900040E6D1C5126DFBD1DE304302A1A4904398
:1056A000EBE0B40103D38001C322E025E025E02430
:1056B00001F582E43412F58322903BCC0225E3907D
:1056C0003A910225E37B017A4379EB2275FF03E5EA
:1056D00091C330E701D3227F3FFEF1C4D1FE75FFB5
:1056E00003E59120E7FB22E4F5FF758EC812652CD7
:1056F00075FF0153D5FBF1E17F147E00F1C475FF06
:105700000343918022C22EE490468EF0C22FA3F074
:10571000A3F075FF01E5D520E702C322C245126957
:1057200084202E02E1B453F4DF90468EE0FF126332
:10573000DD126756302F0543F440800353F4BFE475
:10574000F5FF53F5F090468FE0FAA3E0FBEA42F54F
:10575000EBF5F6D2451269847FC8D1FAE4F5FFE58E
:105760009320E604D1CC40F4302F57E5F430E30425
:105770007D288010E5F430E2047D288007E5F430D0
:10578000E1027D28F1E17F28D1FAD1CC40FC7F787D
:10579000D1FAD1CC502CF1E850F812720CEFC39D25
:1057A00050F0F1E850ECE5F720E5E7C245126984D6
:1057B000F1E180DE53F4BF127C2C400643F420124A
:1057C000674FD32275FF03D3EF9402EE9400400895
:1057D00074FE2FFF74FF3EFEEFF592EE540FF5912D
:1057E0002275FF03E4F5912275FF01E5E43322D130
:1057F000DE75FF0122903F62E0FF9044F67428F0CE
:10580000E4FBFD121E497E1D7FE57B017DC89043B0
:10581000D47403F002462F1FEFC3940E5009EF1209
:1058200045A91225568005E4FFFEFDFC22E4FEEFAB
:10583000C3940E5013EF1244DFE05D7C00B5050207
:105840007C01EC2EFE0F80E7AF06227D02E4FF8094
:10585000DC7D017F03112DAB07114BEF2BFF22E401
:10586000FD7F0380C8AD07AC061247F7C3EF9DEE7E
:105870009C4008EF9DFFEE9CFE8013EDF4FDECF4E0
:10588000FCED2401FDE43CFCED2FFFEC3EFE2290FC
:1058900003C9E0FEA3E0FF1165D3EF94C8EE22E454
:1058A000900909F07B017A09791890468812269BA5
:1058B000904688B107FF1244B690468812267BE4D2
:1058C00002212F900A3212269BD238C2EBE51460D7
:1058D000026137E51530E202C322718424E3D1F777
:1058E0001269A5900A32718FD10AFF9008F8F01260
:1058F00060AD900A35EFF0E51520E06F124F6A4079
:10590000057F01124CB7900A35E0FF7B017A0A79D6
:1059100036126411E4337004D2EB611D900A35E055
:105920002463127F41E0FF900A36E0D39F403CD2CF
:10593000EB126850A22592ED900909E06010718485
:1059400024E3F11312212F431504119FD322900950
:1059500018E070157B017A0979187C5F7DEF904320
:10596000DC7464F0E4A3F0B196C322124F6A5005D0
:10597000C244124CFB1263F8E5D120E0FBE4F510C1
:10598000C226900A32718FD10AC39403E494005066
:1059900032718424B1717C718324D8717C2FFFE42F
:1059A00033FED3EF9440EE648094804016718424DB
:1059B000E3F9E43AFA740212212F431504A2259266
:1059C000EDD32271842408F9E43ACFE9CFF5118FA1
:1059D00012718424B1717CF516AE11127574718444
:1059E00024B2F9E43A8B1CF51D891E718424D87108
:1059F0007CF51F900A32718F127E85ACF054606086
:105A00002D718424D9717CFF126810C238716CFB2F
:105A10007A00900919E0FE7D18F1E7EF2BFFEA3ECE
:105A2000FEEF2414FBE43EFA7D027F016107900A39
:105A300032718FD10A9008F8F07514087184F10C56
:105A4000126404718424D8717CFFAD161275939092
:105A500008F8E0640370277B01FDFFD126713FD376
:105A6000D118500574011220DAE4F5FF127ED41229
:105A700020942428FBE433FA7D03E4FF61079008B7
:105A8000F8E06402702B713FD3D118400574FF1207
:105A900020DAE4F5FFE5D25480440AF5D2122094CE
:105AA0002414FBE433FA7D027F011269EDD12180D9
:105AB00059D121713FD3D118400574FF1220DAE487
:105AC000F5FF900A32718FF12E7F0560027F0AEF99
:105AD000547FFFE5D254804FF5D2E4F5FF43D280E6
:105AE000716CFD7C00900A32718FF12E7E00600493
:105AF0007F0A80027F05EF25E0FFEE33FEEF2DFBEE
:105B0000EE3CFA7D017F011269ED900A32718FF946
:105B1000E43AFAF1D9A2389237F1AC4006A22592C4
:105B2000EDC322119F900A35E0718324E5910BA209
:105B30002592EDD2EBD322A22592EDD2EBC3229097
:105B40000A3212267BE924B1F9E43AFA122094FFD2
:105B5000900A3212267BE924D8F9E43AFA1220940A
:105B60002FFFE433FEEF2401FFE43EFE900A3212E1
:105B7000267BE924B2F9E43AFAE92407F9E43AFA8F
:105B8000022094FF900A3212267BE92290085212DA
:105B9000267BE9240422903FEE12269BD104E924BF
:105BA00005717C903FF6F0903FEE918B717C903FB9
:105BB000F7F0903FEEB107903FF8F0E92406717CD2
:105BC000903FF9F0D104717904903FFAF0C3903F0F
:105BD000F5E09402903FF4E094004028D104E924D9
:105BE00003717C30E1031219AD903FF4A3E0FD7B1B
:105BF000017A3F79F690446012269B903FF112267D
:105C00007B121F0C2212267BE92402F9E43AFAEFF8
:105C100002212F903D7712269B903D7C918B717CC9
:105C2000903D81F0903D7CB107903D82F0E92403E6
:105C3000717C903D83F0903D7C12267BE9240271BB
:105C40007C903D85F0903732E0FFA3E0903D89CF16
:105C5000F0A3EFF0903D7FD1B0903D7C718F717CCF
:105C600014903D88F0903D7712267B903ED6122608
:105C70009B903ED9D18E7A3D7981121CFFEF600353
:105C80007F0122903D89D1B07F002212267BE9243A
:105C90000122903E2512269B903E2A918B717C908A
:105CA0003E2FF0903E2AB107903E30F0E4A3F0E999
:105CB0002402717C903E33F0903E2A12267BE92428
:105CC00003717C14903E36F0903734E0FFA3E090EF
:105CD0003739CFF0A3EFF0903E2DD1A3903E25129F
:105CE000267B903EE612269BAF05903EE9D1907A46
:105CF0003E792F121D1DEF60037F0122903739D1AD
:105D0000A37F00229043D712267B022094903F333A
:105D100012269B903F36EDF0A3918B717CFC903F57
:105D20003BF0901221E0FD903F3AF0903F37B107F1
:105D3000540C7E0060027E01903F3DEEF0122094F4
:105D4000903F3FF07E0030E1027E02EE4405903F3E
:105D50003EF0903F3712267BE92403717C903F4050
:105D6000F0903F33B107649F702BE92401717CB43C
:105D70000405AF04121D0E903F3312267B903BF2B8
:105D800012269B903F36E0FF903BF5E4D1917A3F9D
:105D9000793A121D13229043DAECF0A3EDF0904310
:105DA000D712269B11AA9043DA127C5212470B900D
:105DB00043D7F105B104B4FF04E412212FB104FF6D
:105DC0002290430012269B7A377903F11A90430000
:105DD000B107903704F0E92401717C903703F0900B
:105DE0004300718F717C903705F09037087401F093
:105DF0009043067A377903D198F123904303122612
:105E00007B02197B903FEE02267BF9E43AFA1222DC
