:020000040000FA
:200000008000018F380506CFDBF4229003C6E0FF1225129003CBEFF0229C1A1F021DA9212F
:200020002F2134007FB8EF90181393902000730A20364CE56FFF22EFF56F22231F732378BF
:200040000278985A0124CCFF02686C5A2D5761766520362E303400FF0278D725DF1C25E4F3
:2000600025F325F825FD2602FF0263F84103C0004103BF00E00202000069FA4006080212F5
:200080000FE001020009544005010AA520051F120B00E00502120C120F0206044108F90641
:2000A0000114004108F8014108F601C11801190C00011700C12F41447D0041447220030086
:2000C0007B2003007C20030F79FF433B40000000423B3E000041430E406503121101B04095
:2000E000520113004005009440581713BC01B0060604C11BC102412FAE00413038FF4130AC
:200100003000C1200900392003003A2003103101C105412FAD00414B2400C13B43404F2049
:20012000550241404E20030452004303B6200D0D4303B30103B642336998074348124010CD
:2001400017480F014812414A2602414A250D414A270860203ACD42DB01201BE01100202398
:2001600002ED0900E0150002503EC1E007201AC10E015800C10BC10C41498B05C11CC11E89
:20018000C1234226339840412635205201234BE0072FE00700084320009F0100502003E030
:2001A00006181501612728B5000201050101020E06010100040704010220250A0400060811
:2001C00005040208031404200B0614050108090805400E0005600E0E000600140802020A89
:2001E0000A0802030100084013000860130B010800140A020D000A0A020C400408080B0A45
:200200000A01050C0E0A4022000A4022000A4022080E000A0D110E0208042009205E000E61
:200220004018000E6018010105200909020F0E1211000C0C0E1140220011402200114022E6
:2002400000114022001140220211000A20040402050E121240220512020C0F00124027002B
:2002600012402700124027001240270012402701120220540712000C001413020C219F00F7
:200280000241810702100000140209012004060B0013140007102009000A400E20900014A9
:2002A00020BD2004000D400E000E40090E10010060242AC50200FFFF0602FF0040030403A8
:2002C00001FF0023200F212D01001320030302000101400B03462A1C0121521B0402422A65
:2002E000A2242C412B2900412CD701412B2F00432B2C012AEA432B20200502410A9D21B971
:2003000003095FEDFFE014001A7F016E00424AEA000142490200004249040000414B3BFF31
:200320004449C9002000185132895E855955702C2B2686725A73989F6C7A5B4531FF5E5540
:200340002009044C3279855940191F737A865A5B724932164C6966656C696E65004A326DE7
:20036000200326035B0370065A014A1E31F520012601260426052B01602E32350000200195
:2003800052657472616E736D697400E016000E4125F0004123A10041418201424187201096
:2003A00001417620030977004241390063414147200C044A0341413B23AF000A20030415A8
:2003C00000414B4B43A80313C1000723F50613C3000704030424181413C80013E00C021338
:2003E000CA0371038D0003008D03040604402103D60013FF802100DB22C9013D3A20910EA4
:20040000413D0F00413823014142DF004142DA200300D2200300DB200300DE200304D50003
:200420004242D3212D0142E0202F0144CE402F0144CC200309D100413E7E2860203E5D20B5
:2004400012E00F0000FF40180A413E5CFF4149E4004149E1200304E21E4149E3240B0BBBFE
:20046000014140BA034440B2038D9420060DB618002000C156413D6900503C674036E00378
:20048000000A453C770001020480473BF1A01602433BEE200902414B5E208A00D320030087
:2004A000D9200304D8004244D420140144DD200300DC200C00DA20B70144D6401120D11665
:2004C000313D0042313B01014130931941314603413145FF41313724B01F9500007581B099
:2004E00075FF03759E0212202002394C021EC690184EE47E019360F4A3FF18543F30E50906
:20050000541FFEE493A360010ECF54E0B4E00EEFFAEEF9A320000DDAFDD9FB80D654C02562
:20052000E0604B502620211AF85407240CC8C333C4540F4420C8834004F456800146F6DF1E
:20054000E480B020C1040810204080202500FA200300F8200308C8C582C8CAC583CAF0E0A2
:20056000000905DFE9DEE78085201A401E1F4003F68001F208DFF4021DBEC2D5E830E70F1B
:20058000B2D5E4C39BFBE49AFAE499F9E4980CF8EC30E717B2D5121E82122B87E004180115
:2005A000800320111F30D50DE4C39FFFE49EFEE49DFDE49CFC2278B0E4F6D8FD9000007F8F
:2005C000007E10E4F012A3DFFCDEFA904B6AA3E583C394204011FEAF8226A2040E0FE480BD
:2005E00002801B410D1F1DBB223226DE26E326E826ED26F226C526CA26CF26D426D9006452
:2006000001900384076C01083423AD0C14001E0064006E00780082008C2198001E200100B4
:20062000C8E0000F43C2002CE0022F0001201D4001621F05FFFFFF0001FE200A0102FD2076
:200640000B0103FC20110204FBFF200F046300000F0F204B600007256C25712576258A4027
:200660000C01257B200100806009008F20010294259920130685259E25A325A84271600393
:2006800001FF612003205A40030200CCCC202D014C6322622547045C630021202009030161
:2006A00063000046F1024C6301200D02C80055E005000033E006000088E0050064170F723B
:2006C000013289110131FF050132790C031107400E03FF1FDB06200E000B200E16FFC06F49
:2006E0007420C0E0C082C083756F0AE5FF54CF4490F5FF22E003150020E00C15003660159E
:2007000001A0F5E0052B004C601500B02015079081AA01169081BE2004019FD2200401B872
:200720005B200401D02F4004004720040183BB2004019502200401D7A8200401B2092004E8
:2007400001AC35200401D85640040072200401CC03200401E90F200401B7A2200401A368EF
:20076000200401E97F200401DF36200401DC51200400CB405901CC924009007E200401CCC1
:200780008D200400EB405901EBD8200901C91E200401EA87200401C11B200401C612200497
:2007A00001ECA4200401ED3F200401EA14200401A122200401D96A4004404000ED405E0194
:2007C000EDE5200E01EE2A4004005E400400A9200401EF40200401EEF0200401EF6720047B
:2007E00001939A200400EF40950181F3200900F0402201F6C6200900F6402200C5600E0082
:20080000FE200E00C6406D01F725200901C5504004003B200400C6409F01C5B7200901F7F7
:2008200037200401EDBC400400AD200401F17C200401F75F40040060200401F1E8200401EE
:20084000F704200401C5B6200401F0CD200401F773200401C78C200401F77B400400E42035
:200860000401DD0E200401B338200401D9DF200400F5407C01F5DC200901F220200401C6CD
:20088000CA200401F33C200401C717200400CE40EF00CD409500D140FE00EF406301EFCC17
:2008A000201801CF08200400D1418A00D6405E01F869200E01F526200401F43D200401E7E6
:2008C0000D200400E3416C01FAB3200901F64D4004002E200401E0C920040180974004007C
:2008E000FB400400002004008140C206C4B301429080D0200401C563200401A61520040120
:20090000AA4E200401A6B6200401A2FC200401C0D9200401A04C20040180A3200401BD7B27
:20092000200401C7CA400400F5200401C8C2200401C9AE2004019A1B20040181D820040100
:20094000CD8E200401A3F7200401D02C2004018625200401D1204004002E200401C0EA2015
:200960000401D13B40040074200401B81C200401D1E6200401D20B4004003D400440400191
:20098000D41A200901A2EF200401D53640040083200401C07A200401D6B1200401D7B520DB
:2009A00004019A51200420CC200400E0200401D7BC4004403101D90E200901C83C2004018B
:2009C000A5AA20040198C4200401DC404004004D200401DD80400400BB200401E00C2004BF
:2009E00000CD404F0197A5200901CEA8200401BFEE2004018396200400E1401D0198102083
:200A00000901BF6D200401E14A200400C240360195DE400900DD2004019513200401E1B8CF
:200A2000400400C0400400D6200401C131400440BD01E202200901E21E200401BFE8200441
:200A40000089405901C555200901C543200401C0E4200401C549200401C32D200401C1141C
:200A6000200400E2408B01C88B200901E39D200401D4D7200400C140E000A0400401E76C9A
:200A8000200E01E7B9200401C139200401B137200401E83E200401BDB2200401E8474004E4
:200AA000401D01E907200901E90840040011200401C55C200401E93540044112009440770D
:200AC00001E987200E00DD41AD01CCE1200901E9984004412B00D9408601DBC5200E01EA4A
:200AE000422004019D84200401D3F3200401AD76200400AC415D00AA419E01AB69200E0001
:200B0000B2406801AFF4200900AF411700B2423E00AF403101AB6F201301FC9E226601FCE7
:200B2000B0400400CE200400FD42A201FD5D400942B600FC43CE01C4D7200E01D8C82004B6
:200B400001FD9340040096200400FC432906B5B9012C90AD822004018ABC4004006C2004FF
:200B6000018BBA200401B8074004001E40040092400400A02004018003200401B8A14004C5
:200B800000A220040197244004005D2004019A29200401B9832004019AF4200401B2CB2074
:200BA0000401A2C52004019D4020040186D3200401AAA8200401B18A200401D661200401F1
:200BC000D532200401D7E8200401D89440040096200401DADD200401DC73200401AF70200B
:200BE0000400DD402201DDE6200901DE3D200401DB87200401AE5C200401B469200401B1DB
:200C00005520042527032C909AFF200401AD7B200401CD4B200400E4400401F2492009017B
:200C2000F2EA400400F9200400F3403600F3407701F3A1400E00A6200422CF200E00AD20CB
:200C40000400F4400900F540F901DED9200E01F633200400B1400900B2407C01961A200EAA
:200C600001F73120042216022C90F840DB01D7532009018A2A200401F8EF2004018A5B20DF
:200C80000401F9172004018004200421C6022C90D2402701A01D200901A55E2004019D0BDC
:200CA000200401FB5F4004008420040094401301D2572009019688200401FAA7200401D7AE
:200CC00063200401E615200401F1E2200401E230400440B300FB43B000F9436A01A0722163
:200CE000EE01A0BD20040198DC200401A159200401F45F200400FB426100F842E3018A0608
:200D0000200E01FC794004008940040099400400A9400400AC4004434200F9446901F9C877
:200D2000400E00C6400400D4200401F471200401F3D5200401EDCC200401FAA4200401F654
:200D400048200401FA45200400EA43D800F2446901F9E2200E00F0449100F044AA01F31668
:200D6000200E01F356200400DD406300DC409F01F593200E01F2F0200400FC402C0EFCF17B
:200D8000014200E709F608DFFA8046E709291B08FA803E88828C83E70928B203FA8032E31A
:200DA000801B0178E3801B0070401B00E3801B076489828A83E0A3F640330058800B603F67
:200DC0001F4C80D280FA80C680D4806980F28033801080A680EA809A80A880DA80E280CACC
:200DE000800033402B00EC49B249AE03CCC583CC89AE400969AE000D402029B2205907F9BC
:200E0000ECFAA9F0EDFB22401102ECFAE0E00B3104EADEE880DB401F2031207F05F980CC6C
:200E200088F0EF2A580F4E60C388F0ED2402B4040050B9F582EB80090CAF23234582239097
:200E400027A773BB0106403509E0225002E722BBFE02E360640EE49322BB010CE58229F55E
:200E600082E5833AF5401E0506E92582F8E62022600801E222E0011C602C0009404508F8BC
:200E8000E028F022500327F720260905F8E328F3228A8389822A730028204E010FF8E00127
:200EA0003260270309C5822920130126F6202D600B0BE22582F222F8EA2583F583E96032D0
:200EC000609A2051000240500601F322F8BB010DE0014400E82019408C00C84040000520B9
:200EE0009E0EC8F222EF8DF0A4A8F0CF8CF0A428CE200A082EFE22BC000BBE00292017195F
:200F000084FFADF022E4CCF875F008EF2FFFEE33FEEC33FCEE9DEC984005200614FE0FD5B3
:200F2000F0E9E4CEFD22EDF8F5F0EE8420D21CFEADF080290EED33FD4007985006D5F0F262
:200F400022C398FD202807EA22C2D5EC30E7094B366B0203EE30E715400C6B150312292ED6
:200F6000C38B192B2E06292E30D507C3E460180422C5F0F8A320F9200613E58215827002F1
:200F80001583E038F022A3F8E0C5F025F0F0E0001303C838F0E8212F000A415103E0F5F0D8
:200FA000A3219B050687F009E71921270607E3F5F009E319A1A403F5F0740141A90010E1A8
:200FC0000114A0300009210E03F886F00841B0000A400B03E2F5F00821B401832A415B2024
:200FE0005400E94037000D21810BC582C5833AC5830229B95011200E0BF808E5F026F618EB
:20100000F5F0E582364157801308E225F0F5F0F218E23541A0A06C2049207D401802E4935A
:2010200038C0AF03F0E5F0A3419603F709A7F040AF0606F3E5F009F31941B90011A0372251
:201040004E00E8A02640A504C8F608A6F020D9600B03F2E5F00821C41F2BFFEE3AFEED399F
:20106000FDEC38FC22C3EF9BFFEE9AFEED99FDEC98FC22E88FF0A4CC8B05F0A42CFCE98EA0
:201080004005028AF0ED200B00EA200B02CDA8F02017062DCC3825F0FDE92025052CCD351A
:2010A000F0FCEB201803FEA9F0EB200F10CFC5F02ECD39FEE43CFCEAA42DCE35F0FD2009B7
:2010C000062275F008758200820E1FCD33CDCC33CCC58233C5829BED9AEC99E58298400C8A
:2010E000F582EE9BFEED9AFDEC99FC21F81FD6E4CEFBE4CDFAE4CCF9A88222B800C1B90060
:2011000059BA002DEC8BF084CFCECDFCE5F003CBF97818804C2234225E12EB33FB10D7035B
:20112000994004EB99FB0FD8E5E4F9FA22E0052015C933C910D7059BE99A4007EC9BFCE9F2
:201140009AF90FD8E0E4C9206000FB209A0010E0004A209715C833C810D7079BEC9AE899FA
:20116000400AED9BFDEC9AFCE899F8209315DAE4CDFBE4CCFAE4C8F922EF5BFFEE5AFEED6A
:2011800059FDEC582137827482891522EB9FF5F0EA9E42F0E99D42F0EC6480C864809845EB
:2011A000F0E0041501E89C201011E8600FECC313FCED13FDEE13FEEF13FFD8F1401202EF62
:2011C000C333432F80D3201202BB0107429B09022D0F5005E9F80231B9437E200700C580EA
:2011E00015001B2258E101EB4025000742816027A00900C5E0031F202FA04F0067804F00DE
:20120000FB804F0132072069E004490067C0492021804920230EE0FCA3E0FDA3E0FEA3E0E9
:20122000FF22E493FC22930AFD740293FE740393FF22E0237006F9A3E0FAA3E0FBE0074B8D
:20124000002BC04B00D1C04B0131DEE002951931EBECF0A3EDF0A3EEF0A3EFF022A8828590
:2012600083F0D083D082122D8AE0000201E473256B05C583C5F0C58345C200F0E0020B2075
:201280006CA0D2007360D2013213A0D2002C2019E004D20073A0864021A0D2062C22F5F053
:2012A000C582A42398205900A4450D0822A42582F582E5F03525190222E0FB60D002F92299
:2012C000F820092007E4033A00FA244F03EBF0A3EA23DF24EB0193FB210C00FA210C00F9E0
:2012E0002075A08F00FF808F0045A08F005761B2042E28BB011A40090ED0F0D0E0F8D0E09F
:20130000F9D0E0FAD0E0FBE82E6507F0022E1F5016E9F840FCE000184E7B0402324EBBFE3B
:20132000E00D180060206EE004E400FFC0E42076A0E40057E1026B407E0020E0010FE00ED4
:201340008400184244E00D86E00F1A016022402F267F017012210905700DA3A393F8200830
:2013600005F5828883E4732117076860EFA3A3A380DF4025E01024006C203C1003936D708D
:201380000C7404936E70067405936F60DD203620000180CA46DF03E473E569619F00684163
:2013A0009F09B568048582692210AF06200602F56822600503D2AF22EC248A0BCCC5F0CC69
:2013C000CDF8EFA4CEC5F02D447F06E8A42EC8C5F03D400A07EFA4FFE5F028FEE4600C009A
:2013E0002245E508E208B5F06BDFF58067400C00E6200C005E200C015A87800B0452DFF664
:20140000804E200B40240046200B00424891200F04E0A3B5F036200F0032A00F22A102B5C8
:20142000F02520380021401040494021001420100010C01060220002320D0731128087802C
:20144000E9809028B2173E8015806E807E809D80B7808D80A380518074803C02311E422328
:2014600048B3264042F248AB203EC00A08B5F076DFE3DEE1807040266024409E0462DFF427
:20148000805E4011469A40C70051207D004DC010402100402010003C401060334022002EAB
:2014A0002033032A800280629EE00670E801FE14B5F006DFE4DEE280007FFFB5F0020F2255
:2014C00040027F012240472923E002A1E0033006D5DFE5DEE380CFE00924E004C600AF604A
:2014E0005600A9C94100ABA93F0198F5C93F008E893F06305A73EF4E6012496703EDBB0156
:201500000B40552A2F32FE0A2289F05007F709DFFCA9F026DA01FCF380091FE6FC08E6FDCD
:2015200008E6FE08E6FF22E2FC08E2FD08E2FE08E2FF22E6FB08E6F908E6FA0E08E6CBF889
:2015400022E2FB08E2F908E2FA08E2200C01E49342AF00F922AA00FA228318FB22ECF608C3
:20156000EDF608EEF608EFF622ECF208EDF208EEF208EFF262E603E493F60822DC20040015
:20158000024004050393F674047382D900F24018200400024004020393F220184073207075
:2015A00009F922EBF608EAF608E9F66078207520111FF208EAF208E9F22202362AE8648091
:2015C000F8E933E83360110460F0ED33EC337009E8FC1FE9FDEAFEEBFF220460DED3EB9FE3
:2015E000EA9EE99DE8C2E78CF0C2F795F0400CE8CCF8E91FCDF9EACEFAEBCFFB1235F585A4
:20160000D0F05804700320D5B3E80470075002B2D50236341492D5EC0460F7E4CCC0E0C316
:2016200098F8603B94186008400D246F1F02360CE4FBFAC9FC8028E830E406E4C9FBE4CA8A
:20164000FCE830E305E4C9CACBFCE854070E6010F8C3E913F9EA13FAEB13FBEC13268A033D
:2016600030F52FC33482E8002220440FEF4E4D4C701222DB03023631EC2CFCEFC6BA03EDEC
:2016800030E7EB2060E8005B202A0450130BBB0020270034E600EF2054202307EC4D601156
:2016A000E849701740EF0804600DE4FCFFFEFD224105020470F8211320D60C58046009E43B
:2016C000CC24815006285009204001284020460931C0E0EB4A7044B98006205B13023620AB
:2016E000EF4E701CBD8008EBFFEAFEE9FD80EBE98D288B04E5F002344A4120214003EF89FA
:20170000F0A4283400CE2006052EFFE435F0CD2008012DFE2008018067203A0C05BD80D7FA
:2017200080C3EF8BF0A4ACF0EE2005012CFC201902F8EF8A200906E5F038FCE433CB204F4B
:20174000002C203F023BF8EE401420090438F8E433CF2044600B02CF34004059002F24562E
:20176000043EFEE433C9202D002E207E0139CD202CA014033DFD33D0210500072105000F87
:2017800020C4E1032D21054011055D046005E85921C0E000F619F6EC4860F2EC7004FDFE2A
:2017A000FF22C860DB2481C85009C3986002500621000C9850CAF582E9294B4A7005AB828D
:2017C00021010575F0007C1A7820C5069BEE9AED99400D200801FFEE69CB05E842F0DC2326
:2017E000AC266D0FFFD0E0FED0E0FDAB8220E7101BEB60BAE0068406E803F830E705C02B83
:201800008AA9A528840C40B830E7C280AA74F8CC6480CC28C906C8F58204604FC3E803E2DC
:2018200000E828CC1F603C501DE5825FFFE582D313CB5BCBF42B5582FB50280ABA00240947
:20184000B900200880201C015BFB401C14CF5FCFF4C3132F5582FF50090EBE00050DBD0064
:20186000010CE0094E0707CC4820E701B3EC29990720800E75F01080052A3E027D007E364F
:20188000F70C3392D530D503122C26EC334010E2007218EC33FCD5F0ED22E5F0247EA2D587
:2018A00013CC92E7CDCEFF22EDD2E7CD23470692D524814006E4225903FC22FCE42A3E1FF8
:2018C000CC24E0501174FF80EDC3CC13CCCD13CDCE13CECF13CF0470F030D5DE022C26E9F8
:2018E00002D2E7C9238702F892D5A04000FC434C0822EC30E7100FBF000C20B7000820B721
:2019000011040BEB6014A2D5EB13FCED92E7FD2274FFFC41A711E480F8A2D574FF13FC7D18
:2019200080E480EF00000100200001170620040100184005000660050001600500086005D5
:2019400001010140230101152021020001023AD20200010B4005000660050008600501018B
:201960000D20160200010E401700013BAA20057758010405403B0104064059020407082084
:20198000173BDC200000036017010108600C401621654029010112401102080302401100FF
:2019A00022200402000816401E00084004020001164023000660050105095BBD01050A20D9
:2019C00016010005602F0005407C0200061B406B0001600502061C074011001D4005010781
:2019E00005404201081E400B0008378D2005001F2004020008212004020008116035600556
:201A0000000860770106194011000638422005602F01061A40410106144083000760050056
:201A2000086065010724202201000860111D3F241E16110E0B09070504030201F0C8A79104
:201A4000776760463835323024222014214A0A02020303040405050606074089E013000158
:201A60008788E005000026E0060007000D45DA000D403040433D0008013F3F3F04040435EF
:201A8000353C12010000FC003D1F496E76616C69642067726F75700020B220B720BC20C1F0
:201AA00020CB20DF20E420E9244F0D2459245E24632468246D2472247C220E06020004009A
:201AC00008001038C9174000802058205D206C20712076233223412346234B23500A38F039
:201AE0001F2122232140FF822D1C1613111010466E4C7A46F7717E719C696E2175217A2100
:201B0000B11F25C625CB25D025D525DA260C26112620262F26432648265C2661FF02012026
:201B200099221DAB22BF244526072616267A2693E4FD7C0CAB050DEB90182E938F828E837A
:201B4000F022C406010EDCEC7F0322400E3A45067406F03103740420040AA3E4F0EF240489
:201B6000F582E43EF56018015BF0602318A3A322AD07901217E054FCF0E0FFED54307E00B5
:201B800060027E02EF4E20134010067E0030E0027E01800F10229003C87402F09003BFE0DA
:201BA000FF12250D310A400F1A05F02275FF0275E404E4F5E4127F3BC330E001D34017E5E8
:201BC000E630E012204307E0540C600A1222E7600A03F7F0C21720221F30E037E5E65403D7
:201BE0006401702F12211B1261BE401E90123FE0600AE014F07005121E0E90F1EE9012151C
:201C0000E020E002414312587C2004051E90D217F1EE6008151271DB9003C1EFF090120029
:201C2000E0B47A14901214E0B49C0D20120DE0FF64056004EFB40330E49003C720A409C7FC
:201C4000E0FFC394805013E42F20F501341240F640140304F080E3203C01747A20421A143D
:201C6000749CF0D21312230F400312230A7B017A1279107D017F01122305600C0011200C47
:201C80000021C00C0012200C0022200C20240C297F02124FE4901229E0B40105202E047560
:201CA000FE122120209902122116208907EFF0122094122111200A0DE0FFB40602800C30A8
:201CC00017047F028005601008122508EF24FFB3923B21351553E6BF1247D96002F1EE12B2
:201CE000684912212A12404130130B607A082B7D10126EC4122166410A8154050E203B0BE5
:201D00003135201D093079411220D090122AE0219C038003301740831F6000D2AF203B02D5
:201D2000615C122328124A3412251712230040F29003C0E0604212214800EF215A1F6A976A
:201D40004037E51470FCE51520E503126754122260EF70FA1270A450051270905004037F88
:201D600001919A403006B40204E4FF8009600A01030520E010588112213EE51530E1A2120F
:201D80006E354002E4F040411005917512601E127C7FEFC0E09183127EE426881412208ABC
:201DA00041DA1267E81258A550031258C59191EF70064047076053902FAEE0704DE00189DA
:201DC0000042E0048901507FE00F8C017011204404600C1240244244044408F0800840505F
:201DE00003FF1222E2A0EA0F22F1F1FE12400CEF7023124039EF6005226F01803820340BC8
:201E000070331270EFEF702D124FF2EF226D052512401D802040440220E2196029000EE000
:201E200001FA03E4FF919A223804C6F020140520EB118022126A5F9003B9E0FEEFC39E40F6
:201E400005EF9EFF40750DB9E0F4042FFF7406D39F5002C214410F0022E1190F1F1222B0DE
:201E6000122152126834615C9003C2E0FD75F0AA9003CC122DF3ED75F002A424BB0BF97451
:201E80000335F0FA22124032B4014B7B0A904AC8EFF0E4A3F090430F223E12020A740F1208
:201EA0007F2374B9F0800DEF64047040743D400E0379F0D13120280FE0600790430EE0FF04
:201EC00080027FABB103F10C401220100FF07015904AC9E0D39400400C7FFFB103400C1FCC
:201EE00014F080EBE4FFD19A22122D0F7808122C5BE4E5C820E2FB8FEB227F01D19A904BAC
:201F0000031D7401F0200508E06037D1357F05B194200B10EFF0F10CB190904301EFF0B10D
:201F200096904302EF200F201610E05401F1F660D3A3E0F460CEEF30E7CAE4201302F08085
:201F4000C32036009F2036024303EF602D000880060309EFF0D1203B0001202C001B403131
:201F6000001620190EE0FD541F240FA3F0EDC41354074480201101F022203D02D7B103409D
:201F8000AC00E5409600AF8096023039162018608D011EEF607D001E441704C23930391E85
:201FA000E004992090000B405E00062090201E01F10C40EA03A239E4333D910C48C4F090D4
:201FC00048C0122D67F1E8F18A200D08E06F603012480FB1A2422A0D4A1F80F6F1CA6006B6
:201FE000F1E8781091FF20270491FAF1E8E42132202701FFD120CE0005211702D322C3818C
:20200000251F4306E0122F2C3E58043E60143E65153E6A173E7A303E7F343E84363E893754
:2020200000001F3E725354EF855480802F5355EF80085355DF800353557F855590801D5389
:2020400056DF850A56A080155357FE800D5357401E0157BF201E0A577F8557B07F0CDFFECB
:2020600022B121C110E4FFEFB4010443FE202253FEDF229045B020B7059045B4122E1FE012
:2020800007B2000A601C000F60B60345B091FA2004200E01E480203405B7127D19601E402C
:2020A00036032DFFE94A22E601284D42050745B512665C80E0E4200B0180DA419540DB2013
:2020C000750212785A2406218621A4030B904B1C263504127F2B70FBA0EE163F47043F4FC8
:2020E000143F54153F59173F69303F6E343F73363F7820EE043F6143541060EE0C435510C2
:202100008008435520800343558060EE0243562060EE06435701800D4357401E01574020AF
:202120001E01578020EE4064000C8064219F00BB20E3E004DD05D1317F03F1DF20E1401A14
:2021400080E10148BB20E1600E00E422640248BFEF425600482688619801D2392226000668
:20216000413F05D135904304E020E105904307E06402205D00C0333C45440354FEF0222338
:20218000540301E0FFF426C800C624400425129003CB3298200503E07F0070437C6402205D
:2021A0001001C674211940060402F0221132601A200D2025200D01B40240291C12484B12ED
:2021C000213912220112208F12232DF1D9700221267FFF1221C0900A0521AE2AD1050931B1
:2021E00084BF540D2008000A200800A5255D23A60000273D1DEFF0316DE94A4B701D7F0465
:20220000FE3184EF2401FFE433FEC374011255B07F0050205C6023200400E024B50E4C315E
:202220006D127C0E7A0A790B71AB900A0B73A220120B7DAAE92407F9E43AFA900A08206DFF
:2022400002E92408200C02FEAF01261EE0002A0C64037004A3E0640460081221C5204E801D
:202260005301702220911804C006C374FA9404FE74699400904764F0A3CEF1E7D006F1F181
:202280002B4C021221CA202C211F0621EDF1D97F00602090181220F8122102122062127B37
:2022A0008F1222651258BDFE4FFDA3E0FC4D20040EFB4D600BEE5FFFEC5FFFEB5FF470038D
:2022C00025F410901221E0FF901225E06F9003BAF00222FB211132BF00E064EF0785F97472
:2022E0000F35F07B0220AB05E4FCFD023F8A21620290476120C3200E01C007400A012DFFA8
:20230000209109127D94D007719D904341201A0290433D22081B90430BE024FFFD127E3DAB
:202320005EFEED5FFF904346127D8D605A717B127D74200C546406904344127BA09E267BAB
:20234000117B1691D36029714BC004C005C006C00751A223090205713E452B160051A0F1DF
:20236000D2127CC0D007D006D005D004123EA6717B7185802204127E9B8077212202008082
:2023800071204D616F064E606E90430AE0552306D3EF9DEE9C400A206E00EC54DA01800DC9
:2023A000402304FFA3E0A3CF407EE032720004407208904342127C388087D321A320F9210F
:2023C0003408EFF4045FFFE4FEEF70251B0F22EFD3940F4009EFC4540FFFEE4404FE200EA5
:2023E0000703400AEF1313543F200F1102FEEF30E1010EAF0622AB07AA06EB241FFF2210FA
:202400001FEF7805CEC313CE13D8F9F9EB541F904B1FF0AF057143FCAF0551ADAE01EE14D3
:20242000C3169FC43354E0F9AF04C3EB9FFFEA9400FEE9FDC3EF9DFFEE20091FED600FE0DF
:20244000FD6007C374209DFD80067D0080027D007C00EF2DFFEC3EFE2290434A04E0FF51F3
:20246000A8EF403D200C00466125401405FD51DC90434875EF364A20212DE703A4FFAEF035
:2024800021DB61C3032B022AE1C02F00C320390245E09F41B301E09E200521E2002B202703
:2024A00000124021003D36A762CC0540797E9047F0622300ED2208201F422300ED622308A4
:2024C000F0127AD3D0079045B9243F029045BD201E244501123DC5D702F5123E24470212F8
:2024E0003FDF24D44023244801123C252B02B9123C252C2034070FE4123D039045C0452D57
:202500000311123D9640430469CD9045BE452602E7123F258C05023E9A127E6E20590AE4D8
:20252000904488F0A304F090448560EC084E700281CDD3EF9420212B0540047F20800620AD
:202540001920F2029044872285004436E3400A200F023DC7E442190290447E2070041276C1
:2025600094400E204900E0223100FE2B542053203005E0FFC39044864109205C0194002021
:2025800006202B002B201802127EC6407D65C40007200F67E81200904483E48FF01229B904
:2025A000904489E025E0F08138204725082230202A415D205D204A6291214A207701912ACA
:2025C000219C44E9054B18EFF0C22F43A005601F7E127F0B249801010824B501253524DA60
:2025E00005904478E06008401C401001B1D5202D04E07002A1AD20FB007C2094201C020293
:20260000B1FA401402FFB401208E047C740180092B700010400A0702F0B1CD90447A742B80
:202620005E004948A7003640460E701FD22F1270C6EF700FB1CD1270BE4070057D01B1F161
:20264000B1DD204C4029003A4B1109B40505E4F01222CEB1CD408220720364027021204AAE
:2026600060500078205801801360804048208000D540140301F0B1FD2007258F449D002275
:2026800049D3035403F022406003E4FDB1F1E205060022446A02FDAB05223B03EB023DEAAC
:2026A000203C403A206504237C467D6E44DC04EEE4FBFAFD21050520DA7E467FF7442D0330
:2026C000127BCED0241C01E194602A08037019904474127BF220E900E040342B20037F0307
:2026E00080112BD4000D402002B4040B4015017F04204A01C1F7601107010BF1E0F1C5B160
:20270000CD20BA00782649014AC6231003EDF0F1C52009201C001241A00079A0E10505F005
:202720007FFE805F4018409340622007035590447340A7027403F0E00993204310703412B5
:202740002157EF64016029302F1412252BEF2B212010066006904AC774FF21E3612881B1A5
:202760000A4AC7E0FF02253512216122208020152A5500F12221405C00A1614720E1006A75
:20278000217202E06057407E2CD4041222D3800A600B0402031222D8401B0714F0E0602074
:2027A000124D9C23D2024684E5324C0A64A4FFEF24A0FFE5F0340F331B0FFDE433FC80072B
:2027C000E47FA07E0FFDFC904665239340B806E4904669F08025406C41B4017FFD208820E3
:2027E0000C213206101270B6EF6007296D03FF024C7A20701B22124C1590447DEFF022AB39
:2028000007E4FF1BEBC3940E501C124FCF122D7300200002124AF9A00905EB124B7FE4F055
:2028200041F706447DE0FFF19DE4200708F022E92FF9EE3AFA224252006427C816FDFCFFBD
:202840000220EEF07B007A0079002280AC318D74FFFDFC222D752EAB0575E40175E402A09B
:202860000C2EB8400906E5E430E10675E420020203221184460404511F80F62220003E2824
:202880006001123E286102123F0A4007000124374459000A20BA013E9A2772044379067DC8
:2028A0000120112E1D0643790F7F08F1E42007030C7F0951400F050A7F0B510590263F5BD1
:2028C0005D104E6006BEFF16BFFF13510C5002800451152D6601430A2422027440F060125B
:2028E000030890430721F4244F2007271A8A721648CB0448D61448DE1548E61748FC30496B
:202900000434490C36491429830C48F175FF015350EF8550FD8047400A0151EF33582012BE
:202920000351DF80066007057F8551C9802C400A0652DF8552CA8021400A0353FE80166051
:2029400007A02D0153BF802D04537F8553CB24FA0E7F1131F7E4FF123C9A123D0B9043048A
:2029600060891108E0247F600904701631FD740A80071276582008005820A240B004511530
:202980009043092A40050221F590430C60EB0264104E2DFC074309740EF0EF6420A00B00DA
:2029A0000F200B0040A00B0010200B0080A00B0811F0E4B5070AEEB40160310012A00D00E6
:2029C00002600D0013A00D0004600D0014A00D0008600D0015A00D0010600D0016A00D001F
:2029E00020600D0017A00D0040600D0D18F0011EEF4420F5FE227F1031F720D406227B01EE
:202A00007D020223219B060FE024FE24FD22218922A5312A00222DDB06E20FE51520E50A06
:202A2000200900E04F0206600022D3900001259F02900000200505500241F8C2AD656A0106
:202A40004AC4656A00E420180DF0A3F0D2ADF56BE56B717FE0607D201905B1EAE56B51FA9D
:202A600025CE0CD3122C4A50497108E0FF6008F428880308E014F02004056010E56BF1D066
:202A800025A200E5602603678011E5203B2F60600E017300200001716D414D024E60088093
:202AA0000801B1D522950022401F02C083C02667000F44AF206901D10244B106122AEED069
:202AC00082D08320490005208543420202415E201D404229D13EC40575F00CA424A35113E6
:202AE0000232F5832047600F00ADC00F0290465C68D80890465BEFF0FB90465E206000F1AC
:202B00002382016751237D20048073002B20EA01B1EA27A9A06B0290466226EA05465BE024
:202B2000FE710A267301465C692B02EE716F604BC06400ABC06401E0FF607400AEC00F05A8
:202B4000904743D194EB2A06004824BA06904747E090474920070149E031C1030E5063EF9B
:202B60004140060FE4FBB1DB704F401D027E017032A3201F03717DEEF020FB034745E0FFDB
:202B800032B707097C007D0A12291C2B65000A25EB60BB0467904746E0209D204D004360E8
:202BA000932A530018203901E0042A6300482598400A02F08093200C00E027410146636848
:202BC000BA027FFFA320E308E8494A4B605090466A238E200501E0FE408C0140EE21D901AC
:202BE0007032200F01717D25B9207D44EA000FA06C014669806C014663E0016C2039010460
:202C0000FF23D6400709F080B6221270D2EF7008852704A11B12710925E901EFF0505406D9
:202C20004067E0605AB19429FA184473E014FDE5F0A805088005C333CE33CED8F9FFB18D49
:202C4000B17F902685092D2BC000C001C002C003602606FF74107E00A807E0022812EE3329
:202C600095E0FDFCB185122AFCD003D002D001D00021A90E8028B194AFF07E00B18D801E74
:202C800090447B2286000F212406FEFB7AF47901F8202A0D80087F007ED07D077C00B17F2E
:202CA000B1A745BA425704B178127BD562570B47941270E3EF703EB178B18542CB08400739
:202CC000E47F01FEFD8024401002122B8720350E78E47B01B1DB5014B178C3EF9401FF2918
:202CE0001909FEED9400FDEC9400B17E20480322ECB1F325B200742D8F00FC60060867E4AE
:202D00007BE87A03F9F82221B80464022FB6B1465B02A084222C3506E064AA2411FFF02164
:202D20002C26230010865502B17E90545000E721B5200702FF74E021310805E02410F02210
:202D4000EF641020120EF022AA06F9022F8CFAF9F8C3022C4A222921B802618DE045762063
:202D6000EA01221251D100C961E00322904969401703FBAA06E4207F200D427F0BB1FFD19F
:202D80008AAC00AD01AE02AF0340FC201604127F33D10640FF20F202347E005322225E00E2
:202DA00000401D402D06D0E02FFFD0E03E202849E30253ECFC200961F904EC540342EC26A8
:202DC0006B07EDF5AF75ED0275ED2D871F600543EC08800353ECF790496CE0600443EC0446
:202DE0002253ECFB227F807E387D01FC02011E4C609A282500A322960258D1974310005EA4
:202E0000248F0FC236F1C5F1BA5005E5FC20E6F71275AE29B107E4F5FC75FC408008400DF3
:202E2000080202D322F1EB90475923DF01757945D304D5DF53FAFB204220100162EA401845
:202E4000200B05B40814125F67609B2A7A12A3E02452125E0A8004E0125A5F127298904754
:202E60005A274800DE203C0A75FF03759B04F1C575FC42206F0AE104F1BA40F490475BE0E2
:202E8000F0201803E59B20E760104008000D20100E759B1F125F92D2368050F1B312679DB9
:202EA000406A07FD90120FE05D701D2072205103B3126B9E4010236C00596AF008120FF06A
:202EC000125D16125F7627341247795C12670F500FC390475DE0942090475CE02CCF00E697
:202EE0002034097395125F30303602C1A52101288E0403D38001C325AD2032005E27AA12A3
:202F000003E591C330E701D3227FE87E031266E1025E2B84D501A7F535E944D520C8018FF7
:202F2000DA2030017D0125DE200C0653D8EF2220022B222408E030E10B1257CD50062D6EB9
:202F40000101806D7411EF4E7011122364EF700B1123EF7006124DF3285A2A8B08114BE9CD
:202F6000240F113C70094008030D113C60AFC10822F9EA3402FA02284D2A6E0195E4246891
:202F8000013B402DA8049044C1747127C61F9CF0114B127D3D7A3B792C022206F174123F68
:202FA0008AEF600F1144E924E0F9E49045C005F1851243CA22203301119E3B5E0015C01830
:202FC00001434420180741A6F17404123DEA33A31AFFE924DCF9E43AFA0229E5900A3212CA
:202FE0002E1FD22BC2EBE5146002612F26910CE202C322717E24E3F15E127050201F11718B
:203000008911A45407FF9008F8F0126DCA900A35EF55A104E06FF1A24086BB201201E0FF22
:2030200021400D0A793612632CE4337004D2EB610E4015042463127F1B21A0010A36434FF1
:203040000C3DD2EB126E9AA21692ED900909269C60640CD01228E8431504F1AAD32290096E
:203060002C12001620480B0979187C6A7DB290474F746454AD1A126999C322F1A25005C21E
:20308000371260AA126748E5D120E0FBE4F510C217E0009F03C39403E42738002F205403E4
:2030A000B17177FF200603D871772F50FC0AD3EF9440EE648094804012201502E3F1D780DA
:2030C00071408700D340E850DC05CFE9CFF5118F401F203C06F516AE111277F1202C00B26D
:2030E0002125058B1CF51D891E200C204F01F51FA06F06FDACF05460602D201500D9206CEC
:203100001F126E5EC22B7167FB7A00900919E0FE7D18F1DEEF2BFFEA3EFEEF2414FBE43E01
:20312000FA007D30E50141F8A03A015407414909751408717EF1661277E52043205905FFDB
:20314000AD1612780D20194B2E09247B01FD7137D3B1B050334415122893E4F5FF127EB61A
:2031600012284D2428FBE433FA7D03E4FF204E402B0402702B713A202803400574FF80283D
:2031800007E5D25480440AF5D2402D207C202D207C0A126F9991878063E4FB7D016057E083
:2031A000012EA09405441045F07F052CEF030AEF547F6043024FF5D220760643D2807167EC
:2031C000FD7C21E262064026270C09047F0A80027F05EF25E0260F06FEEF2DFBEE3CFA2A44
:2031E000A24066A0282F9508A22B922A126D2C4006416803C322F1AA4210419700E52154C9
:2032000001FAEF2184401803D2EBD322800704C322FF918C203E629E00B1402320C2409F53
:20322000601000D8A01061D172D5013EFEC02C41A500FAB2B12339A0160322900852603AF6
:203240000404229043C922E40971FEE9240571779043D12A5502C99180400A02D271FD2085
:2032600065069043D3F0E92406401018D471FD7174049043D5F0C39043D0E094029043CF91
:20328000E094004028403D0803717730E1031220A3201402A3E0FD22A9064379D19047E826
:2032A000125244377504FF12267522405C43B20141624016014167606802416CF0200A40E3
:2032C00021206D01416D206D204B0290416E401501F16D400A0570F0903B3CE04F5C014121
:2032E0007469F10490416AD1CB203406718971771490412DB02051240A0142B5205711AF59
:20330000059042B8ECD1B77A41796C122409EF60032456203901D1CB244200FF202601E974
:20332000242CA621EE00FF21C40275D102A33004FFF5D1EF6025E041D7018006200704534D
:20334000D27FEB6040080343D104EDA00804082290422620630290422B60BB034230D1A828
:2033600040B6024231F0383902E9240220AE034234D1A860C3031490423720B9013EE04035
:20338000B9013B4380B903422ED1BE404340AD00C5204940AD00C840AD054279301224272D
:2033A000A0AD033B43D1BE20AD029049E82A110149E52027206504FCE412358AD35601B15A
:2033C000A3C86301B1B9225D0124BD20264092E01124000280244152E01124010302404949
:2033E0000BE8E0FCE402358A33FEE0C39F241E0FF8748098221233617B007AFF797F78479E
:20340000800A0E3A79C5784612346A1235BEAD07AC0629C4006B20A7257F020DF17C400B39
:2034200021F221D0013B0E211600012116013B0D299E006B41B102903B0F211600122761B5
:2034400002904671602F0410F18F9046516F0502207B9042F22046029042F5278F60D002ED
:203460009042FA3C32002126E10342F9D1AF205301540C236707027E019042FCEEF0200F6B
:203480000C9042FEF07E0030E1027E02EE4421FC02FDD1AF617F0190422AD4204D60880378
:2034A000649F702B608807B40405AF04122418801902904037806D258902403AE4223505C8
:2034C0004279F912241D22AA01422B22AA200600F620066821017B012B403040013B3E61E1
:2034E000CAA00C003C800C02904673204820CD001340FD0073807402903B1420E900132B0F
:203500005C236A2090013B1520F20079602460F20276C11B632B039009EB0220F3010A6770
:2035200020424005092DFFE51BF1579180F15E400D057ABEFAE4F157201420D543EA05E517
:2035400013F1577189801B20DB047E780228E82432202A0022401E00E4200E83F786CE0074
:2035600002519E0094272F479700062F3903225B3AFA217C02A3742720B60109EE673D0C15
:203580007EF022C2EBA2ED9216C2EDE5F487E400E4268920F34671029049E940990649E992
:2035A000F1E612479D20072077406601A217607101740180060102222CEB047C0002291C50
:2035C000201F001224A10322900A6423AD020A66EB20040865EDF05402901240F05C16017C
:2035E00070023485010A64308E00112A0D057D017F011148200F2A380180132007529C0491
:203600001222DD80072036011175601A03E09003C020450466E090123F3A1802EB60084806
:203620005F01CDFD6F3E0743CD02ED600553FB39F60243FB2030DD0575FF0243E140288FC8
:20364000040253E1BF22406102E4FF222051047F0143FB1020150443E640EF60294A0802F6
:20366000E5E120E7FB43FB0D4038020E80FE2011018FE32AE73343031011BD4F21EE600364
:203680000070890902901223420100222FA00A6000EF603FF1E2310D5009401504C394C05B
:2036A00040F1212C021279252012030E11BD5F203A600303F460E8907E3188103EBD082173
:2036C000F0F1E2E0FD12226A2B9406EA1263AC9044F08E7106019044F47401F026A808D53A
:2036E00054C070051257A2502126448A01967F20EC0475D504F12920070143D544A60253C4
:2037000094FB20040F847FF5FF7598FF9044EEE5F4F075F49C201E06A3E5E4F075E4252016
:203720008C024479F44A1D0144F43198036002412A26D20244ED7422920844F0516C78014C
:20374000122C6E20092DAB07E5A730E1FB43A702200D01516C200C01E0052C50118002E441
:20376000FBFAF9F8EF4BFFEE4AFEED49FDEC482C3C402D20432F420170BA200D20450B100C
:20378000122C5B7B6D7A4E79C678412CCD08EF2439FFEE3430D10D203C027901F82C9F03CE
:2037A000EE547FFE321402126DBD603011EB6FFFEA6EFEE8CDEFCDCCEECCECFF1266814655
:2037C000EE200603ED12768E2AA602E030E645730275968020CA02E4F5D520D902E0F5F464
:2037E000200B06A3E0F5E412743B40CDCA9808E0FB25E025E02401F52A7D0112F54F7B008C
:20380000EBE00410EB01752289013EA120E902903EB1216004E4A3F0F13921E907E5E63021
:20382000E00E903EB2201204FB7A3E79B2412C013EBC418B022DC6C0217601F5A420900339
:20384000F0903EB331852AFD20080EE0FFF595EF14601314601C2402702720540B516CF18B
:20386000B4903EAD8016903EA5800B05AE800A903EA9800B08AFE0903EC0F012756C200618
:2038800000E021D1067D5F806590120E2E90204C02127DA1207C00E034E3023EBC51202162
:2038A00003B8B141C350AC0009200A01516C2F0920AE5F6F0473ED903EB0249F207E07FD90
:2038C000A235923212751A603700126027029048B76029209B01B14D400600514C58021259
:2038E0007EA421F100B860270137A3E000BF03F1E97014206D03B13CB1FB41FF005B202F67
:2039000001514C2C87202E0170DD401800DEA0163CC1086712678F400343F42020730333F7
:2039200012744C404B0324FF9231201C20DC00D4211F1975E508127388E59B30E7FBD115F5
:20394000F1C143D5047FC8D127B116F130227C023E79B12C4F40EC21AE021267E1217A40BD
:203960000900D34C5102904000205F04F139904015E1056D000E31C702904010A0AF01409F
:2039800010E1076F014000207A03AE90400C216F014004800B000D216F014008800B040E75
:2039A000E0904019616F014019A16F00552055416F014010416F0140152131014011E100AE
:2039C00069014011A169202F616900402D34259301A234616700A3202D815F408B215F20D6
:2039E00006A15F04AD60028128E000A821580519FF7E04FDFC206101B141C15D014010A1E8
:203A00005D02AD70D8E1004D0034814D2027816C06C231F1D490121322842CD70801E4FDE8
:203A20008F828E83EF2D22D3003E42C1201908E02CF00DEDB412E722606009E0F8A3E0F9EF
:203A4000A3E0FAA3E05DC200B632FE00A3E101CE0548B6E0FBF168215B07901210E06480DE
:203A6000606E2498057F5037EBF168523F06516CEEC0E0EFC0254100103C130804A4AEF0C9
:203A8000FBCAEECAEA30B603F9F8D0E02F500EFEC3EF9BFFEE9AFEED99FDEC988029204EBA
:203AA00001F167403801B141403201F40440342ABE90E801EB2F4BC605E93DFDE83CFCB2DD
:203AC0008E0022E3017101242024070D4EFEE43DFDE43CFCE4FB7A04F9F8241E02E47B7D70
:203AE00024532415AAA6801E44E204758EC8F17623E60A53D5FBF1BA7F147E00F10C237248
:203B00000143913F560140F820D0426E04BB0575BB8520230475D5022031250B60300743FB
:203B2000D520303102C1F2202007538EF7438E077D04200A018DBC29B705B102E5B130E24E
:203B40002D0C0BFFAFDFEFFEACDEECFBEBFFED243000F6215C0134402430036967F5FF20E8
:203B60003601B1FD215F010CC9206824D00009231600A3201900FD4029000040290041213F
:203B80008701C31321700313FBF1C73098062BFFEE3AFEF1C768131FED240490120DF0ED5C
:203BA000C394075016CFEDCF0DEFF1C812437E9040FDE09F9040FCE0029E50B8207E20DCF4
:203BC000257B04120DE0F5BC400D00BB44DB01F5D5269D0403D3EF940231AF07400874FEDC
:203BE0002FFF74FF2D160AF592EE540FF591227F3FFE3F55002B202301E59126A2202C26E8
:203C0000D10280F19220FF01438E26C2020153DB86140202D125237B60120143DB40592543
:203C2000350022251720E8C519616009C2E17F1E12672C30E707408301C2A18014038122DD
:203C4000E5FA25FD0175FC40390253D5EF90E101F1BA308400E62260014011322E246720C9
:203C600005208900E4209701F130207B0022411C00FE411C21460222D132205108E5BD5467
:203C8000F84404F5BD2223FB0D12792322E0F595E5F4540722AE0738BB00EE3D34058EF0CB
:203CA00084AFF0222F9317123C757B01AF82AE83E4FD1126800912214DF154E433FF222B7C
:203CC000A68017047D01900A1A215E0DF1D4E514707712579A5004C237112D24011AE03162
:203CE00041038E11F512251C2F7406FA122E1FAE11AF3F93021277BB20820A75D901F51011
:203D0000E5155421602B2FAB09E504E4FF51EAE4900A1F2836001F2402051272D4EF6009CA
:203D2000400B04C3941040EB2B100C25215315DE9008F6E07F00B4032E0B02D16BD220675B
:203D400002D2EBA22F873B12111BE5F4F0E0547FF5F47F827E00124FC9124FB20D03F6307C
:203D60003708201E07E04480F5F4124FC5E00117211A03E5D520E727B505E5F4D330E60171
:203D800024EA080A82EFF0C23851C9D229D90882E09049EFF0D220A35877030DF0511620AD
:203DA0009D0183F047E70076200812E07070E5F754C060EF31A331B66455704E31B6282CA8
:203DC00002E06F60302F0783E0F4703990121531460032401C00603C0C08644A6012EF64ED
:203DE0000A600D402500FF402303FE6F7005200725100308F7E06E200901701924A10180FB
:203E00009E200901800F200408E0B454057433F0808D200B246F01808520073A69000641B9
:203E20005D02800051211B0083272A04E5F720E00840890B70F5FF2243F701AFF92231A327
:203E4000201A00EF541600506136027F011121540595EFF0BF020249B00695E0B43311E454
:203E6000F0401602BF020D200F405D000520DD0095402601E07031FA00A281C401F17B2073
:203E80001426470122C23DDA210C02C220A325F3E10137412A07201F0241BA53F4DF201FAD
:203EA00000E021C20CF1E130200543F440800353F4BF21E60153F52D1300F0650106EA42F4
:203EC000F5EBF5F6D2215E047FC8125E27201C04E59320E60521900D40F330205AE5F4307D
:203EE000E3047D288010200800E240080007200808E1027D28125FBA7F282030402802FB0E
:203F00007F7880090C502AD17A50F7D1DCEFC39D50F0200A00EC210801E5E74090202E01A2
:203F200080DE207C08F195400643F420124F2F9902AFF4EF421A03303805EF4206E001C1FA
:203F4000C1F960110130E6220B209606439A80EF127DA2200904539A7FD322417000F1D1B8
:203F6000AA42B7E2088431C10822904965EFF0A371AC204934705C74204C20C14053738285
:203F8000085F0C125E2BD1A540016050202E00E0212E0353F4DFD222C5057F787E0071B5AD
:203FA000203A0453E4BFE5E427A210F13E7F8AF12C30E608904966D184E4800A201B600AF1
:203FC00001E5D92C3D200C0243E44020E047F160522B6307F0A3EAF0A3E9F02289AD1CD177
:203FE0008DAB94EF4BF124CBEFCBFAE59130E71DD190A994E9F582EF4582FFEB26B00DEA12
:204000003CF583C3EF9582E5F0958340DE44B50309CEECCE251407125F2C22C0E0C0F046F6
:204020004A06C0D075D008C0FF206E411C0A047F028009E5D57F0030E7237E058F18E518F7
:20404000640227571ED1E514122F2C64440164570264BE08646209646D0A647B0B64980CFB
:2040600000006641203C0C75C355151AE51A6002C14175144004401203F0751409200F40FF
:204080000A035575140A600A0890090AE0F5C375140B800D2317400D0301751A14328F016D
:2040A000F1348040080CC141AB1CAA1DA91E327303AD16AF1F326E0B12548775FF00127EDB
:2040C000B643FA04200801D173329506C141C2EB751400339203126E8C40207503D15CC1DD
:2040E0004120B2219703C141F1DA401105E5107022D155239B14556004EFB4540BD217AFFD
:2041000067900917EFF0A1C675100220480175D9204601E510329D0165F12AB100FF617CCB
:20412000051275DA126E4A22030FEFF0D199E0900A94F0E0FFD39409402520120CE0D3949B
:2041400002400CEFD394AA7F004021243EF9010A9420140040800E06EF6004D163806F4079
:204160001308F5161275A3901222EF234E07008516D9751003C1406A0003609E048312546F
:2041800080F9320C607001D1632022405C341A0CE5D350055402FF80035401FFEF3ED60BE4
:2041A000E111C3900904E094FF9009032005025013803629010906200A029009052005082E
:2041C0005002D15C71068077C22264204501F14B714006C2EB431502D1552B6A08901224C1
:2041E000E0FEEF6ED15428670423D14EA3A320070025400736FF029012263A9E026D4F60BC
:2042000040630008204C029009072005405220630002200A0190093BEA601001751060A1C9
:204220000CB403071516D199E516F09003C3200503D0FFD0D0486E05D0F0D0E032FE604D3F
:2042400005FF851282851126E50F75F0010229B9301704C21751092251EA21BB235E0553B7
:20426000D1FD43D101638F01E4334D7301E0FB693F00F920120D03AF93EF75F010A4FF2267
:20428000E512240726D0093511F58322E5F730E5106501644A00F023FF00C3230F01E4FF1D
:2042A00040130360028016226322BE01E30D242500F424300160EF200805EB22F13EAFD988
:2042C00023B40E551256B67A497957F10F501490495746B305FF904956E09F201A03E09EF9
:2042E000400B400626C711FF125F0C22D18DAD94EF4DF1248FF0122A95D75E0124FB5FDCC1
:2043000004FF22FE71B52C800AE02274FFF5F01229B945F020B027DD04EA75EAFF2220D7E2
:2043200008E5D154FE4402F5D12227250021E7002501F17BA458054315205315FE244746C9
:20434000CD0AD322C322125F927F0802255E8660432740205003037595804B2201D3943305
:20436000251149EC71AC7F017C127D01E4FE8D828C83ED2E211223D607E02FFF0EEEB4120B
:20438000EC4A8D006F27430149EC2441243520860214808024A430BE411B25D720A21543A9
:2043A000D8102230150C902FAEE07006FF1220ADC2153017236308221905C39E400AEF9EDD
:2043C00042D536A30022231C02E0F42F207C014002400D0103C44A42024C700A20092801ED
:2043E00001EFF040B8200B6130104E6009CAEECAC9EFC9122F8C22D2ADD2BD291305758E1E
:2044000071756A09200803E58E546F2588038E9049514C532000E4097320240230E43A6067
:20442000070354EF4410A02C020F125E3A722035116790000012665CE56A30E0020559E50D
:204440006A700D205A0B0567E567700205668002156A4039028530E43079050243851005B9
:204460006DE2048B40AD037E697F6E545A00E43B0406F0024B8D904B1930FF013B3EA0BEFE
:20448000003533D8043167903B3E26F2201A277A0319903B45272B20174C760B903B46CFE2
:2044A00011DAEFF4703F8028401F00FF201701802E3263A03F601410B4020EE4903B45F0F3
:2044C000A3EE11DABFFF15801B60292975013B79204D063C31D5122F9022613B00E4344872
:2044E00000454D7402A38009C01F074631907F02022F90483303FD903036405900F52C71BD
:204500003AFA004D7E340290474A2956021257B520100331DF11E6200F0131CD200424AB4B
:2045200031D202B4FF0441F7200F020257E6554C00EF326D00FF41B301FDF5222F0022404F
:204540004E4D3F4C9D06AB07E4FA1BEBC33E490A0E124FCF51096007124AF92165050AAF10
:20456000022280E2217706EC4D4E4F221FEF40210409EF124AFA2012283402FFFEFD2C1197
:20458000222720381C13EF124B7FE05D7C00B505027C01EC2EFE0F80E7AF06227D02E4FFC7
:2045A00080DC323508035127AB075145EF2B231013FD7F0380C8A2AD9229C2ADAF67AE66A3
:2045C000A22992AD22549819515FC3EF9DEE9C4008EF9DFFEE9CFE8013EDF4FDECF4FCED8C
:2045E00024014C9A05ED2FFFEC3EFE226200C960BA01516E2B9100C82B910322515F7C3E72
:20460000D632CB00E4397B00F0330B0204F02268C50651CE40033017036EC822F300E022BD
:20462000F304AF14EFC3603B1760B30A059008F9EFF022E517540F24551E17C394F0501FE5
:204640005317F07118FE740FC39F4005EE940E400543170D8003EF42178025017F002028DB
:204660000CC4540FFEEF9037AD932E2271185F8025ED000D2010138F93FF22EF30E303AF02
:204680001322AD1B201804EE30E00B80560E2071708018E5196006FDE4F5198012801420C2
:2046A0001B20780760047125AD07AF0537E916F9E0FDFFC3740E7197EFC4F8540FC868FF49
:2046C000EEC454F048FE202607F01255AF7F0050022026019FFF3A2121060149612201162F
:2046E0001211E0F46005A3E0B4FF0C9049637418F0A37413F080104017200F201F001220C3
:20470000070164F0220E46FA01A106203508E0FE64086004EEB404285D04627428F080205D
:20472000140462743AF0EF5CE7072C26E4B107EF24D82E11093FFEED3493FDEC3416FC36B1
:204740004C098079037800121E4CB1BD204E22EC054963E0C3719734A92E2905ECC0E0ED1C
:20476000C0E0AEAF401D20161AFEB107D0E0FBD0E0FAD0E0F9D0E0F8EB2FFBEA3EFAE93DD6
:20478000F9E83CF8206D8022203A02EF24542069080B125E0DE47BA87A162E6F011E4C2832
:2047A000B340A50D14605D14601B24FE600C24FC707A25430275CE3177EC0975CE21F5FFBA
:2047C0008BCF22E4FA201404EA2440F5CE400716FFC374077197747D2FF58274383EF5839B
:2047E000E4B10FC39DF5CF401A01244880220C90387DB10F2DF5CF0AEAB408C4250E204976
:20480000000140494008020EF5FF3290602F0775CE0FF5FFCFEBCF3D2F0603A4F5CF227B21
:20482000642F0709022AFC9325E0FDE433FC2016268300AE25E5002E296B12EBFFE4C313F6
:20484000EF13224315015315DF7136B16D4026C701142226CE0E5315FB302A05126670803F
:204860000A7F55B15640035A26257402E5D5204A1705E5FA540360FA200F018FC33C350131
:204880000A6B247E3B0C01FFB13C9C006C800B0D24FD6013047008900A6A7404F0802C5BAA
:2048A000026A740841AF20070102F0384A012521202A218D010A6A63C624CA0E5BF0124E00
:2048C0009E50E9D322C8ECC8C9EDC92583214E0122EF2048030680007E542900FE23941136
:2048E0009003C8E0B4020D8F1B900A17E0F51312212545BB426605C4540F2FFFC32D7302B8
:20490000027F0F22D0009D22D0067E10EE60091EEE400C03B507F4EE23EB0340027E0D20A4
:204920000F42ED06C2AFEF4215D2AF400701F4524008067F02D12C9003C2360200C7280520
:2049400005C204F0C39402207F41C603FE6005803E51202203227F032269D9031390090A22
:2049600060EA20CF3D4E031930E5074D6F023AF022400606E6F022D18C500325E70622C346
:204980009008FEE094270700FD2005200D0109002007029008FF2005802000904D70072C81
:2049A000044402F02254FD572C0119E024DE215601371257A8013AED317C03F0ED54FE20E4
:2049C0000A02F06030761502BF0128401E252C06590D501D900A382894000227BC05900A3C
:2049E0003BE024022D0D003B415A043AE06F70D8216B00603C3D201003229048B1405102BB
:204A000048B4ED261900D3212908037410F09048B5E0FF2F4B022BF157201F01F1512004D1
:204A20002057601501F15F202B399C02FDC1C420120202228338430147942784047C00290F
:204A4000F9EC37F9037D02D1C4849314A2EB922EC2EBEBC0E0EAC0E0E9C0E07A0879FDF17E
:204A6000576340234609FB7F0C122283A22E92EB20D4016DEF30CE10FE60191460272402A9
:204A8000703DEB2402FFE43AFE2505115012291C7D608020127E1DC333CE33CED8F937E57F
:204AA000037D28800FE00510006422BD02900A6E667A204D03E01270424BF107122D2B904C
:204AC0000A6FE0242FD4016E122E09012AE149BE305004FFE03400FE23D60622E490090B4D
:204AE000112B2005020F113265FE02900913401F02FEFDFCE0010602EF1142261F02022CF8
:204B0000D170D9010BF531C20109F526B6031223E0F42671006FE000030664556009EF643C
:204B20004A4B7F020A010F2BF1258C2104022DC2EB40FB057D0C1189A22D20EF027B01E4D4
:204B40002138175B7F017E009017FCE4935EFE7401935F4E24FFB322900001200B06B400F3
:204B600007E493B4182D722348041217E0540821A72007004426084007037F0030E22B8F82
:204B8000600B055414FFBF14042B9C000225CAA01C00E0601C0D4478E0B4040D90447DE0F8
:204BA000600711E338F7204420132005204A03C41354072009032FCAE07047A0052F79C245
:204BC0001221CF400E004438EA062FCDE054FEF0A3800B00D1400B08227405D39F500B74CD
:204BE0006346460290447B216601447B204A0212240E2106211D05122413903B4022490451
:204C00001250677E232ED70724311221F7EF5407669D0C022440904B1AEFF078197C3B7D47
:204C200020F6047F13122827201111E0FF7DF47C0102240402242202237D0221CF39770999
:204C40001249E0FD7F01EF7011ED594C020143AE6B400753AEFE22EFB40114201E01EDF0FF
:204C6000A0180002447D0253AEFD2006575101E2032387375901E303210A200703E1037F2C
:204C8000042007017F05811000EF4035030253E6BF402E39850022374E030F146014227172
:204CA00002188B802069048DFD228B90400703C9228BA0400705CA22AF038FB0200903AF17
:204CC000058FCB28A6005220DF2034031114601820340A1E517AE5805180E5FD801C20093E
:204CE0000090200902C98012200900A0200902CA8008200900B0200901CB0248B300553BFD
:204D0000C92AB4204A2045200B25AD01AF9145B301AF9226F90059289A401A01495928CC7A
:204D200001A3A3228802E4FC7858DE018FE140132CBD201338C90178083421018FE2601356
:204D4000240D3A2E07E490495DF0A304F020070160F0934E458F0130E74102206457270187
:204D60004FEB201001E61A20180890495FE5DAF0E4F5DA200B04E5D630E3FB20352A020273
:204D80007188E5574800E4203B0C038B95125A5E51980BEBB403F1200E07759580125E1593
:204DA000125F5761202C514E30BF50F002125F3029D80749795E719590495E2728025D708A
:204DC0000622A002FF8002246501495D222036FC977F206D207902E0F5DA201722334056D5
:204DE000039B0475FC2F2E030322C230200502759B1F20054C700E20E71BE59A540FC39489
:204E0000024012E0448020AB542F0243FC04201F06D230E5FC30E609801F020540CD400DC0
:204E200000114A120875FC80F5FC75FC40E5543805303003125D1628B603E00E43F42CB228
:204E400003FF43A4042044049624EF30E1E000110008A01104E20943F40220230575961E00
:204E6000EF30E3200C26EC200C54E300EF26CC070475D7122275D72D61490184E6204B002A
:204E800094404B019814601001933F209404759A40913B4034019C93203901A1A3200401C9
:204EA00085312004058628E5FA54302C1547100275E74A22790275DF4921090143D320CB5C
:204EC000020153D35656228B200B0275D825203001B503200401B215200401BA02200401B6
:204EE000AFB3200401CD0A200400CB40AC01CA12200900BF27D50775CC96F5FFF5BDF5211E
:204F0000160081200401AEE1200401DA55200401F580200400E9404401E933200901972ABF
:204F200040590F9B42759CA4759D29759E48759F2475A12FA50612759AF820330C20CB0016
:204F4000962D7C0C0FE04440F022CCEFCCCFEDCF74239805C8EFC8088005C56A09CDECCD71
:204F6000EF5D601B303218404C01DCAD400501DDCD40ED019A74206301948421CB201700EF
:204F800053400501DD336017001440170004601701E465401701D647400C428124CE0E53EA
:204FA000FACFEFB4080543FA308012EFB404200805208009EFB402200804108000D3223571
:204FC000B60518131313541F2A9803FA125E2741E26F0700F6400943DE2052404B000327DC
:204FE00074F100BC0A22E5F75406FFBF06037F08A00A000463F960150002402A202383FD32
:205000000243E6102042240403EF2275ED20A600ED204603ED30E2FB200C02AFEF2220022F
:20502000018FEF20100220E0FB200730DF0643EC042253ECFB800A0008200A00F7201D30D9
:20504000B14005000460051301FF22904301E020E017123E317F3D123D037F2A40040080F5
:20506000400403A6123E94201E0103E023FA0F904308E0D18E904309E09000020228FA2560
:20508000E94005013DC023FB02903DC424590FE4903DE9F0D3903DC8E09420903DC7E03776
:2050A0009B0001262B037A3D79C9400E2665029045C07FF26035030F1243CA40383F9C020B
:2050C0004A600B203B2D4C01F118237F017F00400C0124C946A7003D2F40016F602179409E
:2050E000120104FF805E009F404E03940050C15FA50A8F8275830002286690494D40830354
:20510000FE90495030D9348700124011022DFF8E205407B50702D3220E80E420460445A690
:20512000124E97202825DC0712266BAC07EC602B201306E06C70249045A8202E208B031AAF
:205140009045A724030145AB24140550F0F11E4007401001B420204302EC7009E0000B020C
:205160009045AC802F000F4012202F3CB1202F01E11E34B506FF023E9A904305242C00E43F
:205180002006293D225501D10271ED07E4F5D1F5FFEFF1DC38AA0142D6201722B8048FD406
:2051A00022F5D7200A0153D6602903E9F1DCEA401C403502EFF5D86018000F202E2C830668
:2051C000F0C8E4C4540F48801B028FD4F5603D00D540282043202830D7050133333354F858
:2051E00045A004E5D354074F2D0003B40109D242FA0443AE4022C240080153AE264200C8D5
:20520000227600C8220A0175C8224200C8620D00C8620D0148A5211E029048A8A00545F762
:205220000A4D60089048A912665C80ED401E032DFFAF014020072DFFC3E99FFF22C0F402FB
:205240009F1F00C000C001C002C003C004C005C006C007C0FF12253AD0FFD007D006D005F3
:20526000D00408D003D002D001D000D0F20188E0163E29EA01270137390427019031376558
:205280009004270BD0FF004000E0125424FD07FFE58954FC4FF58962FC008923070D89FB9F
:2052A00022AF8CAD8AEFB58C04FEEDFF200B03EFFEAD8A200803EFC45430402C00CF602CC1
:2052C0003DA700AB6005008E80380040203808BF22AF8DAD8BEFB58D8038008D2038008B46
:2052E000203823CB04EF4420F5A440080143A443980401E5A454102051204400E940154325
:205300008202A41122201C23B40143F62B7967C30143F64812040253F6FE224F6620370503
:20532000ECF5A9EDF5A7403206AFA9EFFEE5A7FD805E06AFA6E5A570011F206F08A5ED2474
:20534000FFFDE434FF4E40BA203004EF54C4442A807A018FA927DE603B01E5A943A8014893
:20536000AE219901E5A727B701AD6E277607F5FFED540F4FF5DB421F00EF2D5300DC40113A
:2053800001F5DD200500EC60050643DB1022904AC121EE201203E5DB20E422A202FFF5DC35
:2053A0002F1800FF4016012DFF2B850BEDA4F58285F083122A10AEF0603407EEF5DD0DED2A
:2053C000B404DB2024403F200604E5DBC330E42FC8087BFF7A1F798790452420502EA80560
:2053E0000079009045272B5E204809E92402F9E43A227D017B25A9040228277B01433600E5
:20540000C02C5A2A670590452A7463F02C14017BFF804300728043047A26790722512E086A
:20542000A801AC02AD037B0122444900FC286891A90FA3ECF0A3EDF02229F9EA3CA801FC57
:20544000AD03289C02E9240B206709FA22E01475F005A4240054120165FE24890C49794265
:205460009048387405F022E9242D40223CF04AC9320231D10146D02089204A20A9029000FB
:205480000424526008050322F09041832033017F2020B401253F80862065204F05127921E5
:2054A00090483020E820093BB6409402D39FEC604001461920F321C56BD271DB0129F92FBA
:2054C000720022207560A60522E47FD07E072BAF014665254006E4904669F022FF46C10290
:2054E000A80708209D0007202701FA22ABC620E46D2E254C017D132D2A01225B210502AE10
:2055000002AF2147210C017E00806300C446782010551F00A3209F0CF0A3E05480F0547F45
:2055200022EE8FF0022D4501000325AF0435F0FA7B01209902E9242C40610174402225411F
:205540008F00FE418E00FF21B90075425C0D4352015356FE8556A08552CA22FE210600EE68
:2055600020262E410AE0FD75F0AA9003CC122DF35C842A5D58E520DF4F91032D0F7B012190
:205580000A05E4227E007D0120332051200500E42039609225300143482099260400B76601
:2055A000040322900A03203C41EC022779244006031F797822204102022E34614A0D4C226E
:2055C000FDEC9000061228FAED90000720BC037B017F072DB0555D03022F90EF529320402C
:2055E0002BDB01FFF52FFE04CF45F022FDC170047B0190478E21CE0122A34252213A029010
:2056000044C3205A017B01419C0174702094209B007426C103E8903036609F002222F400E8
:205620009623580575D70975F418402602E9240820B30F0BE09FFF90430AE09EFE22122FDA
:20564000B6E47B707D012B876173004E217E20D001434480D000E0657A02F5F42225160401
:20566000F9EA9EFA222173406300FA2080400121D7000C41750222AF0522B420B820F10327
:205680009D0225AD21DF017425347220DF03060222833D6F585C0322740129602D02900068
:2056A00013604502900005343233EA2099000A6019608402AA06F920D608EB2401FFE43A22
:2056C000FEEF7822AF00E4234403012224206023202E0290000220C8010AE037172F2441C5
:2056E000FD012FF9428B02FD7C0022270290479B2012208332BE09414CE022E99582EA95A3
:20570000832130007E22980290448220B50605F9E43AFAE4222EEF54FB09FF22A804A9053E
:20572000AA06AB0742CD00FA621B01434681440B903EB3E0FF14F0EF22904010800808E55D
:20574000D254804414F5D2224F5C0202284D2EB503FE022AE120EB000420EB27DE42AF221B
:205760004900EA611121B70303C3E0FD40B5008F555A631103050822FF21CB20A20422FF5B
:20578000907FC02E60836B29152D8A22D60127F52ED20107F520B4054AC9F090430E3E803C
:2057A000081CE014F0E022E0C313205E001322D3000250900122FFE0310011020002120B5C
:2057C000120F02060402121113BC01B00620090713C113C300070403200907C813D6001315
:2057E000FF0304E009610E7FC67EED7F4B7FB20371038D9C1AFFE030000890455C7420F01A
:2058000090455661F600A3224221CD213600EB2013075CE0FB904558E0F956910FE9F58301
:205820007880EBF9E0A3F608D9FA90455AE001150030C015335B00F9204842BD03FAF582AC
:20584000EF339E04F0A3D9FCEA600A1FEBFE7980E4FAEBFC7830C083C082E6F5F0E7A4FF80
:20586000E02FFDE435F0FFEA2DF0E43F06FAA308DCE9EAF0508903A309DED525B800F8E0B0
:205880000A9000FE409002FAE0FA409000EA609000FA409000DA209000FCE001150030E0CA
:2058A000011500F8E0001510C378807930E709FFE6083FF0A3DBF6E4332256014601E00931
:2058C000630146072063014603E0003720F4C063014605E00115E00163014601E00015E059
:2058E0000163009FE0016300C3E00263029046C8461200C5E00031027880EDA05D02EBF4C6
:2059000004207700C344A302F582EC401900E020AB0E6FFEEB5EFEEF6EF0A3DDF1229007A0
:2059200083401D024C60092009021269D758560322900A70248128CE0B6000128F3012503D
:20594000A445F0601E4014012DFF292E0202C00180150212F0A029200202D003403404E49E
:20596000900A8EF13B650FEBE56C7148E054F06440700241FCE4FE201100EE201000FD299C
:20598000DA04900A8FEEF037D30423EDB4020B200C367A0404EEF0800FA0220354F0FDBD2F
:2059A0002B5201010E366002C9EF6034AB038F74FFF0200501E0F4404A03126ABD50205155
:2059C00001E5153FDB0141FC40161190000AF1E0E030E40990000C129009549FF0801500E6
:2059E000BE201504540FFEBE05201800C220180230E1204018281D03EB900009261103E0E9
:205A000020E52E200C02EF9000283400F32086601F20110290000B2010424C02E04401255A
:205A20002F423900CF43CE403F05F1CA1250AB50602A01F56C202C20D52DD120F62FD703F6
:205A4000900671F0209900E22B784006053C7F04126E2C2023610C00FF610D001EA00E036F
:205A6000EF540FF0A00A00E02F7607E56CF1CA31BF800A203601E0056172205100E0386E22
:205A8000202320A00E07022DF3EBF07F02900A8CEFF1EFFE26D501EBED203805FC700C9044
:205AA0000A8D20B90B02EDF00F8006EC30E0027E0148E600DF202800E037B0010DEF2FD85A
:205AC000055007EE7004A36144018DE0359B0704501EEFF1CA7DEB6798402801441020E437
:205AE00041A220960EF0EEE1CA0247E8EF7002A11FB1214A400604E924BBD10D205A40104E
:205B00001424B8D10D9009DEB12012E843F1C47A0979DF127D01201600B6401600E620A129
:205B20000771529009DB12C91740384009045480128F3A49E41209E1E0C4540FF404FFC3D7
:205B4000740B9FB12924D8F1B9401F018FF340052BB305948F9009DFE0201809B6F1B9B1D0
:205B60002A128FB54480203605B12A24B1D10D201504D8D10D2F04200700B9403600DE2181
:205B8000D8200B00B8400B02E6E0FF204101F1B3406004FFC454F0FE203205BB12FE4444DF
:205BA00001203E014404200402EF24FE3925401F201D004F203702BCF1B9201002BF0F0BF3
:205BC000202A04B7D10D444020243928060FFED39404AF0636B90404B12AF1D982E3293428
:205BE000040979E2F1C4A2E2012283206C02128F292035002020350290066560B202D10D4D
:205C0000FD204B05BAD10DFBC003402004B2B412FB31201120BB0212FE703A5180330212D9
:205C2000FE5A400A01FB1F232C068C8922F090404F20FA00E9262420204008401048EB0BA9
:205C4000E3D10D6014E4904066B12024236604B77E217F2F26FC01807A216A0201D10D5D89
:205C600042033A12A7A320203C87201B201620C80230E719200821AC0220E010200800BCD0
:205C8000407007C3B504047D078008200F208C01F1E7204400354058E0283602900A866418
:205CA0006D0290404E22E909AE04AF05F1F7AC06AD0720176711050223199043D640C50BE4
:205CC0002403F9E43AFA12284D9043E126DC80134B48474D03900A9AEF20D420AD09FF3076
:205CE000E775540F6401706F209B21410E12C6AA7064900666E0705E90405204202420C923
:205D00000230E337201D20C9411917FE1424BD129093540F7022B1211292B624BED10D5443
:205D2000606015802121C00F240412FECC7D6E7C00029F98E490066B2043203A20180C75FE
:205D4000F03EA4FDACF07E207F6CA1CD202E207E0C20E717900768E0F4600312A0022012AF
:205D600013B212E29812A43C12A1221290017A07798712FE9F20AC03E09007863359293780
:205D8000202302E4F1B9220F030779867F335F06791267D4128FC0232400C33C0F0A400217
:205DA000E1AE12FC925013E0FF2360000224C10F04B121F1D9F1C412FE8312884B12FEB16B
:205DC000208C00DF40C7005D200800E640080063200800E740080064200800E840080065A3
:205DE000200800E44008005B200800E54008005C200800E9257A0912FE4CF012FBCC1293C0
:205E00004421BC0152F0207D03E06011A3216D01F1C42091044079567F05429B2016027F6A
:205E2000016050900149792166021250A225B3001D200C0212FEA882CF21380450A212FE46
:205E4000BAA2CF042F901247E8415B012E1F4285008A205102E924BA41BF29B900E82AC0EA
:205E60000090786A246F00A42BE20174006B8E022224BD40210122FF201624980875F00A0D
:205E8000842406FD22F0446300E426FB010A84622940F61A29E55407FF64026005EF6403A6
:205EA0007016F1AC25E0FBEC33FAEDAE047803B2F303801CF1ACE0020E02FBAA06401DD3DE
:205EC00011042BFFEE3AFE2C2240A2409A00048078800E02900A4120B7254907FE9181246C
:205EE000B812860D263B02EF54F02405010F4D239C00EE5C01097002617924FE700221B164
:205F000040050C61E024036002816A9181125766811004125FE21287A3DE047F04127E8100
:205F2000204B00B6406506EF917E24B7F13A2005805A0912FDD34F917EF19E740A20050B0C
:205F40001F740981671294899181F1B5408604860730E0332039000320850230E70C2009ED
:205F6000403464C2801E0020601400B7201E646E20200401F13A80074007021257D020AD48
:205F800080260130E1403B6026445F201E605100E2E000150010E0012AE001514529029092
:205FA000122A4D5A0F30E5027E20EF7F0030E4027F40EF4EFF2041408906549FFEEF5460F7
:205FC0004E20CC00BA2082401505D91287B97F09201E00B1201006916BF11FEF8167808313
:205FE0000420E602415920180009201826B4214D08FE900A45F07404C39E38900104F021AE
:206000007060C320143AE6404B00BB412F814E211001D212C14F22922047406021AB202C1B
:2060200000035CFF08D3EF9DEC1255B240362421601600FE201700C32D1C215600D2804417
:2060400002EE240A40290291812D2F2400FAE0034E018004206000F7A178034480F1972175
:206060007920B50230E0072669215000062006814F2078609600E420F3E1014300BB20D365
:20608000C14301114E429E00602215002D202C00B6201944820077200B402503FF20E06C82
:2060A000200A403A0220E4622009604D02EF4408204F00BC202B20752490051287D9124732
:2060C000D240634013212A410E44A4034410F197A0604012401D01F1EC40D008EC3AFAE9E9
:2060E00024BE1287B920408020049F12C8998041E040760154F721E0406D20620230E31856
:206100002009403A0212C79D20094057206257F2017F00200F4019200F02240B2F4062415F
:2061200066A1C7611F0424B71257D76120E2085427BC01741D20C760D281720290066D238A
:20614000600012C1B9017F1D81BB0401F1B77F262172001F430D406103FEEF042E206D01D5
:20616000F19E222E2063625B030F900A44290143050220E643A07C01F1E38011E0087C80ED
:206180003300F021FA0244E04F809F00E040E762F4478A01800A20A102DB427439BF009395
:2061A000202E431F221A021F741120B14082207E0124D8211E012F04200920882130002268
:2061C000409622A5004120C302E924B9428E00EE2016A01003229009802C792C7601098D76
:2061E00026BB0390098FEF24A702900987245703098AF129282D0D900986E054C06002A114
:206200009F900985E02808009F25D00310900981295C0408EED39436400E06300A11F1D96B
:20622000400D22B70730E6047F0180037F3C00604021170120E62A630486E020E40B4041F3
:2062400002D39497403103EE30E60620322ACE4950205B406D225000E6205C25B70409797F
:20626000907D078986050980E0900990209B0081200700912007208F0ADFF0300A06E0445D
:2062800020FF8005400F20B10094277F040988E0FFA326968A9201F119261304C20A900964
:2062A0008220FA04903F42122E29760785E0903F45127EFC2D7D02A374582F5B40690512DD
:2062C00024544009E420372FDA37ED3CCC207302F118E922F9228C20770C1287AFF119E95F
:2062E00024DFF1F9300A0E405280AC034401800F407E0430E60BF1A520200212FE67415A07
:2063000040A001907020B8008D2A68017053208704A7C5EF604B203582D50160602A28A0D1
:206320004100102030203962B00354F06002604720688A18048FE05498F040DDA039036728
:20634000FEEF4E201520E900812C3001FF07606A00FA20E92032213C01706C60100E0564A0
:20636000057062AF0512A6FC505412C7AD20303CED01A9E6228C06098EF06034E0FF24AF2A
:20638000029F402C2035011287A9CB0312C8A112C2E022DE20282A9200F0410203BC1287CC
:2063A000B9609404F1E178A8E621083D1540E000FBE001750205740620C5206640A9008D06
:2063C0002D6A41650109D420A50086200700D520070288E0FB21970209D6CB426A04F119B1
:2063E0009009D8618C41980212C34121702123019344223321C8008A30C70124D842A730CC
:20640000E88921000327384D5B03E924DA2240180274032221B8052F79D99049FE40482003
:206420000524DB22FE0230E11B400C04DB9F30E708203623E50080401D22C70457D080153D
:20644000EF201B0330E30AF1718A0574048004F12981676021203E002240C6020A4122830A
:20646000262205028D7404326E010A844E0103FD2224B7607C5269067A407953127C02207A
:206480000603567D057F3A00025B2408401C203342E1032E2224DF400E017405282A2487EC
:2064A0002AA0510602E924B14015534728AB044EF002231E282700EF2D5100E0206501543E
:2064C0001222A0010A572EAF2AFB241D01E20AE9018504110151ADE966760230E32D400A82
:2064E000000A20AF24FA200A011191205F07BD011751AD127B2925710212FBD921CA298AAD
:20650000057B127ECD8007600849AF00572318017AF069AF01128529B021D721440707794D
:206520007A7F010286DC956605E92FF9EE3AFA31D902900A20208D087F02128352900A232A
:20654000124CB401419B400921678CB4202001F51F208424AC032012E154200905C39F1464
:20656000FF51A5247F2333030A2051B0C0AF053651A5128F1F854B24204030401C40C103BB
:20658000FE128FEC602B0912B7F012FED5FEC3EF9EA97D0128E8604A202202D394266C7959
:2065A00000262046C8998033E202B0201B04DB42E451A2661C8CDF030212D823204363C2ED
:2065C00080710004204E207D03231287B32018462200FF27C002EF54F0206D257501EE1464
:2065E000375BC042000820084021416301A51266CA017401A01321D040E804BD11934440BF
:20660000E0041200512B7701519C60378023201000BFE0071000C0E0071002C1519C211FDC
:2066200001740525D3409C6161205665CF20A7410425CF200901B912415900232D6320C876
:206640006904023009084010032DFF918F4D6F402447AC00FD202C00BA20232D72200900CA
:20666000082D702006404F00124D71C0410212FE5A400BAD72089003B9E070031281F38369
:2066800061007F2113401D22B4629A012DFF35CA621D200F0444A2127CE53B5D00764B2106
:2066A0000144AB2229201203805E713E2013026290445A5581EE01713E50200ED0E06B709B
:2066C00008E965827003EA6583702C40312056074A9044A8700D51B080294040000BE001BA
:2066E0000C402105122E5422713E400B405F02A851B02004200A018098208000A824245FD8
:206700006E0312F6C6EF25630B4912EFD312F09D8039900A7C605B0160378009408C03EF93
:20672000D051BD400D213671A82793A00C05AAF0F9122F8C200E205B2013205B04BF229027
:20674000497D200800E9ACB9018181400F0086278704199183E924478821FC12BF0503D3A1
:206760008001C340059183028532128FC091834CE00116E0EC00E0202C001222340187C45F
:206780002CE3404101884E2CE601918285A62CE8400A00E621A12CEA400A00E7600A006426
:2067A000400A00E8600A0065400A00E4600A005B400A00E5600A005C400AACF3400A00E3DA
:2067C00040150649807003F0800347BD20BA01509E2CD6001E20140112FEACD68015021252
:2067E000FEBAA359052F90918371442F6101497D214424EE213002900A7620F404300922B4
:2068000091FAE30063641C008B20C280372C00072283C2092230032120190A2F79CE12C55A
:206820009A12C5307013E00532042F79CA800EE00212EC05433625406A21FD03229009E729
:206840002072029009EA390E019006500800EB21670154374277200A01538920DB05FF121B
:20686000D0E74009201D027402F0261CE00017288C00FB400C088607FFC330E501D3922746
:20688000E403EB127ABE2A834C1A01C20684B80109F064B804A1F5126A5F400C01A8F14013
:2068A0000504FB09128FF9402F01B33120620230E00E4014221B23524962401908DB9FFFB0
:2068C00012CAE790122146CB400E23480512F76D12FB3520AF26C70185F04016008647084E
:2068E0002009A03D02900987200C03EE12FDF24012A35504EF6002C180400F062DFF71443C
:2069000012C8A8E003C50364047039406326F340632736205B01460F2044605B0146102016
