:020000040000FA
:200000008000018EB2059B7F6842FBE0FFF4229003C6E0FF12250D900357C01F021DA92138
:200020002F2134007FB8EF90181393902000730A20364CE56FFF22EFF56F22231F732378BF
:2000400002778A5A0124E5FF02685F5A2D5761766520362E303400FF0277C90AFF1CFFFF0B
:2000600025CB2122232140FFFF0261704103C0004103BF00E00202000069FA400608021248
:200080000FE001020009544005010AA520051F120B00E00502120C120F0206044108F90641
:2000A0000114004108F8014108F601C11801190C00011700C12F4144770041446C20030092
:2000C000752003007620030F73FF433B3A000000423B380000414308406503121101B040B9
:2000E000520113004005009440581713BC01B0060604C11BC102412FAE00413038FF4130AC
:200100003000C1200900392003003A2003103101C105412FAD00414B1B00C13B4340492058
:2001200055024140482003044C004303B6200D0D4303B30103B642336398074348094010E8
:20014000174806014809414A1D02414A1C0D414A1E0860203AC742DB01201BE011002023CB
:2001600000E7403DE0130002503EBBE0071E1AC10E015800C10BC10C41498205C11CC11E30
:20018000C1234226339840412635205201234BE0072FE00700084320009F0100502003E030
:2001A00006181501612728B5000201050101020E06010100040704010220250A0400060811
:2001C00005040208031404200B0614050108090805400E0005600E0E000600140802020A89
:2001E0000A0802030100084013000860130B010800140A020D000A0A020C400408080B0A45
:200200000A01050C0E0A4022000A4022000A4022080E000A0D110E0208042009205E000E61
:200220004018000E6018010105200909020F0E1211000C0C0E1140220011402200114022E6
:2002400000114022001140220211000A20040402050E121240220512020C0F00124027002B
:2002600012402700124027001240270012402701120220540712000C001413020C219F00F7
:200280000241810702100000140209012004060B0013140007102009000A400E20900014A9
:2002A00020BD2004000D400E000E40090E10010060242AC50200FFFF0602FF0040030403A8
:2002C00001FF0023200F212D01001320030302000101400B03462A1C0121521B0402422A65
:2002E000A2242C412B2900412CD701412B2F00432B2C012AEA432B20200502410A9D21B971
:2003000002095FED2330E01200077F016E004248F900200400FB2004074AE100014449C402
:20032000002000185132835E855955702C2B2686725A73989F6C7A5B4531FA5E5520090474
:200340004C3273855940191F737A865A5B724932104C6966656C696E65004A3267200326DD
:20036000035B0370065A014A1E31F020012601260426052B01602E322F00002001526574BE
:2003800072616E736D697400E016000E4125F0004123A10041417C0142418120100141701B
:2003A00020030971004241380063414142200C034403414123610144042003040F00414B37
:2003C0004043A40313C1000723F10613C3000704030124141413C80013E00C0213CA0371A0
:2003E000038D0003008D03010604402103D60013FF802100DB22C5013D3420910E413D0968
:200400000041381D014142D9004142D4200300CC200300D5200300D8200304CF004242CD69
:2004200021290142DA202F0144C8402F0144C6200309CB00413E782860203E572012E00F33
:200440000000FF40180A413E56FF4149DF004149DC200304DD1E4149DE24070BB5014140A1
:20046000B4034440AC038D9420060DB018002000C156413D6300503C614036E003000A45C9
:200480003C710001020480473BEBA01602433BE8200902414B54208A00CD200300D3200302
:2004A00004D2004244CE20140144D7200300D6200C00D420B70144D0401120D1163138001C
:2004C000423136010141308E1941314103413140FF41313224AC009020471F61FF00758112
:2004E000B075FF03759E02122020023948021EC690184EE47E019360F4A3FF18543F30E563
:2005000009541FFEE493A360010ECF54E0B4E00EEFFAEEF9A320000DDAFDD9FB80D654C07E
:2005200025E0604B502620211AF85407240CC8C333C4540F4420C8834004F456800146F6D8
:20054000DFE480B020C5040810204080202500FA200300F8200308C8C582C8CAC583CAF09F
:20056000E0000905DFE9DEE78085201A401E1F4003F68001F208DFF4021DBEC2D5E830E74A
:200580000FB2D5E4C39BFBE49AFAE499F9E4980CF8EC30E717B2D5121E82122B82E004180C
:2005A00001800320111F30D50DE4C39FFFE49EFEE49DFDE49CFC2278B0E4F6D8FD9000000D
:2005C0007F007E10E4F012A3DFFCDEFA904B61A3E583C394204011FEAF8226A2040E0FE4C7
:2005E0008002801B410D1F1DBB223226E826ED26F226F726FC26CF26D426D926DE26E300D2
:200600006401900384076C0208340023D90B001E0064006E00780082008C219C001E200134
:2006200000C8E0000F43C2002CE0042F401F011E00622305FFFFFF0001FE200A0102FD2071
:200640000B0103FC20110204FBFF200F046300000F0F204B6000072576257B2580259440FF
:200660000C0125852001008A600900992001029E25A32013068F25A825AD25B24275600335
:2006800001FF612003205A40030200CCCC202D014C63226607000A0A5C63002120200905B1
:2006A00001630000400040170001200D02C80055E005000033E006000088E00500641B0FF9
:2006C00072013283110131FA050132730C031107400E03FF1FDB06200E000B200E16FFC057
:2006E0006F7420C0E0C082C083756F0AE5FF54CF4490F5FF22E003150020E00C1500366044
:200700001501A0F5E0052B004C601500B02015079081AA01169081BE200401A09020040156
:20072000B3A7200401C9DE400400F620040083400E01B4C3200901D061200401B30820048D
:2007400001AC94200401D8204004003C200401C2C6200401C1FB200401DFF7200401A40564
:20076000200401E030200401E6CC200401E4E7200401E7BA4004400901E983200901E90B9F
:20078000200401E35040040068200401BE4D200401E13A200401CC5A200400E9404F01CB32
:2007A000CE200901EFE5200400E0400E01A1D4200901E482200401D891200401E731200426
:2007C00001F003400400484004007C400400C7200401F15E4004000E400400852004018E8C
:2007E0002B200400F140AE0181F12009019FC9200400F2400E00F2405401CF6B400E4059BA
:2008000001EA9A400900FE200401CF92200401CE7B200401D8E9200401CF7F200401F31097
:20082000200401D0D540040051200400EB407C01EC54200901EC55200401F336200401F27D
:20084000DA200401D060200401EBE8200400F3409501CFD64009005D4004406301E57520D7
:200860000900C3401801C60A200901DD25200400DB409501DABD200901D8F9200400DB41B0
:200880007601D945200901DC93200400DB406D01D043200901F1D9400440B301D0EF200956
:2008A000019FBB200401D507200400EE40F901F799200901E609200401F6B4200400F941BA
:2008C0005D00F6413A01F72C200E01E79B200401FAC52004018097400441A801800020097E
:2008E00001815F200406C73501429080B4200401CC50200401B03B200401CC53200401B878
:200900008B2004018855200401A4B0200401A34D20040180EB2004018825200401D04A40DB
:20092000040072400400A1400400B1200401C4F62004018110200401D89E20040197B720A4
:200940000401DB36200401845B200401DF26200401E12A200401CDF8200401E137200401D7
:20096000B117200401B002200401DFEC200401DEE540040097200400E2409501E821200917
:2009800001A259200401E891400400DE200401A36D200401E91940040065200401A3C120ED
:2009A0000420CC2004403600E926EF0190E9407701E9CC200901B7CD200400C2407C01C9AE
:2009C0003E200901E9D2400400D7400400E8200401EA0E400400404004009A200401B67BD8
:2009E000200401B71A200400B040D6018862200901EB04200401A4C6200401EB4B20040104
:200A0000C968400400132004018B09200401C1FE200400B2400E01E96C200901E97420048C
:200A200001EBDA200401988D200401C358200401EC0640040022200401BDCE200401885C30
:200A4000200400CC40A901C943200901BDD8200401C949200400C241670096416701DF34DA
:200A6000200E01DBE6200400DC40FE00EC40A901E98E200E00A2404A01EFCF200901F14780
:200A8000400400B6200401B190200401F1F0200401951F200401F1F9200400F2408B01F234
:200AA000BA400900BB200401B1D54004407C01F2C4200901F2CB2004018C71200401F301F4
:200AC00040040041200401A25A200401F44E200400D5412B01D5FD200901F46040040063AC
:200AE000200401A0A8200401F5A4200401C0CA200400BD418501BAAB200900BC41B200CC6B
:200B000041E901C3DD200E01C3D4200401C523200401C3F1200400BB419E00FB431000FC56
:200B2000435B01FCF4226B01FE22200401DD53200401D9FC200401FE694004002320040111
:200B4000EADD200400FB43F101FE6C200900E7437E0693D0012C908FFB20040194112004A1
:200B600001C3D5200401C780200401CA57200401BB26200401D08F200421FD200900902085
:200B80000401A66B20040182E8200401A139200401A8C9200401D0C6200401B197200401CE
:200BA000A94F2004019A7A200401B3862004018243200401B1E020040199F5200401912875
:200BC000200401B20B200401E16A200401AAAF200401E0DC200401E25F200401E38A400428
:200BE000008C200401E470200401E52D200401A671200401E5CF200400E7409F01E71220A0
:200C00000901AEDB200401A13F200401E713200401A88B200401ABA9200401AC372004011F
:200C2000C4F9200401C205200401EC40200400B840A901F435200901F4BE200401947320A3
:200C40000400F3405E00F5408600AA40DB01F614201301A13C200401B8A1200401F61B406F
:200C6000040030200400DF401301F644200901AA94200400D540FE01C219200901F87C2076
:200C80000401F93B20040196A4200401F9EE20040199E4200401FA50200401D7B3200401CB
:200CA0009A06200401B7EF200400A6412601DA23200901FA3A20040091403B00FA41670169
:200CC0009C77200E01DA42200401D91F200401F192200401DAE1200423CE032C90904B2042
:200CE0000401BA25200401F8A521E9018C24200401DC3D200400F842FC00F8420701D003E6
:200D0000200E01B894200400B74414249120040014200400E0436501BE29200901F9B5408C
:200D20000400C5400442A200F943FB00F942ED01F9F4201300FA441401FA0C40090016404A
:200D400004406300CE428900F7431A01C5D14013008A200401CCBD200401D94F200400CCA0
:200D6000402701CC31200900FB428401C9D9200901CE0F200401CB1B200401CC70200400EA
:200D8000CB40A401E01120090EFB8F014200E709F608DFFA8046E70929160AFA803E888226
:200DA0008C83E709F0A3200B0132E3801B0178E3801B0070401B00E3801B076489828A8302
:200DC000E0A3F640330058800B603F1F4C80D280FA80C680D4806980F28033801080A68090
:200DE000EA809A80A880DA80E280CA800033402B00EC49AD49A903CCC583CC89A940096908
:200E0000A9000D402029AD205907F9ECFAA9F0EDFB22401102ECFAE0E00B3104EADEE8807B
:200E2000DB401F2031207F05F980CC88F0EF2A530F4E60C388F0ED2402B4040050B9F58217
:200E4000EB80090CAF23234582239027A273BB0106403509E0225002E722BBFE02E3606468
:200E60000EE49322BB010CE58229F582E5833AF5401E0506E92582F8E62022600801E222DF
:200E8000E0011C602C0009404508F8E028F022500327F720260905F8E328F3228A8389822C
:200EA0002A6E0028204E010FF8E0013260270309C5822920130126F6202D600B0BE225824A
:200EC000F222F8EA2583F583E96032609A2051000240500601F322F8BB010DE0014400E89A
:200EE0002019408C00C840400005209E0EC8F222EF8DF0A4A8F0CF8CF0A428CE200A082E0B
:200F0000FE22BC000BBE002920171984FFADF022E4CCF875F008EF2FFFEE33FEEC33FCEE17
:200F20009DEC984005200614FE0FD5F0E9E4CEFD22EDF8F5F0EE8420D21CFEADF080290EE9
:200F4000ED33FD4007985006D5F0F222C398FD202803EA22C2D52B1E00094B316AFD03EEFA
:200F600030E715400C6B1004122929C3E460162B2906292930D507C3E460180422C5F0F84F
:200F8000A320F9200613E582158270021583E038F022A3F8E0C5F025F0F0E0001303C838FF
:200FA000F0E8212F000A415103E0F5F0A3219B050687F009E71921270607E3F5F009E31999
:200FC000A1A403F5F0740141A90010E10114A0300009210E03F886F00841B0000A400B03B5
:200FE000E2F5F00821B401832A415B205400E94037000D21810BC582C5833AC5830229B485
:201000005011200E0BF808E5F026F618F5F0E582364157801308E225F0F5F0F218E235413A
:20102000A0A06C2049207D401802E49338C0AF03F0E5F0A3419603F709A7F040AF0606F3BC
:20104000E5F009F31941B90011A037224E00E8A02640A504C8F608A6F020D9600B03F2E523
:20106000F00821C41F2BFFEE3AFEED39FDEC38FC22C3EF9BFFEE9AFEED99FDEC98FC22E8E0
:201080008FF0A4CC8B05F0A42CFCE98E4005028AF0ED200B00EA200B02CDA8F02017062DDF
:2010A000CC3825F0FDE92025052CCD35F0FCEB201803FEA9F0EB200F10CFC5F02ECD39FE30
:2010C000E43CFCEAA42DCE35F0FD2009062275F008758200820E1FCD33CDCC33CCC58233D3
:2010E000C5829BED9AEC99E58298400CF582EE9BFEED9AFDEC99FC21F81FD6E4CEFBE4CD48
:20110000FAE4CCF9A88222B800C1B90059BA002DEC8BF084CFCECDFCE5F003CBF978188071
:201120004C2234225E12EB33FB10D703994004EB99FB0FD8E5E4F9FA22E0052015C933C978
:2011400010D7059BE99A4007EC9BFCE99AF90FD8E0E4C9206000FB209A0010E0004A2097A5
:2011600015C833C810D7079BEC9AE899400AED9BFDEC9AFCE899F8209315DAE4CDFBE4CC3F
:20118000FAE4C8F922EF5BFFEE5AFEED59FDEC582137827482891522EB9FF5F0EA9E42F0BF
:2011A000E99D42F0EC6480C864809845F0E0041501E89C201011E8600FECC313FCED13FD5D
:2011C000EE13FEEF13FFD8F1401202EFC333432F80D3201202BB0107429B09022D0A5005DD
:2011E000E9F80231B4437E200700C0801500162258E101EB4025000742816027A00900C06E
:20120000E0031F202FA04F0062804F00F6804F0132022069E004490062C049202180492018
:20122000230EE0FCA3E0FDA3E0FEA3E0FF22E493FC22930AFD740293FE740393FF22E02398
:201240007006F9A3E0FAA3E0FBE0074B0026C04B00CCC04B0131D9E002951931E6ECF0A3B9
:20126000EDF0A3EEF0A3EFF022A8828583F0D083D082122D85E0000201E473256B05C583CA
:20128000C5F0C58345C200F0E0020B206CA0D2006E60D201320EA0D200272019E004D20006
:2012A0006EA0864021A0D2062722F5F0C582A42398205900A4450D0822A42582F582E5F0BD
:2012C0003525190222E0FB60D002F922F820092007E4033A00FA244F03EBF0A3EA23DF24E8
:2012E000EB0193FB210C00FA210C00F92075A08F00FA808F0040A08F005261B2042E23BB76
:20130000011A40090ED0F0D0E0F8D0E0F9D0E0FAD0E0FBE82E6007F0022E1A5016E9F840B7
:20132000FCE000184E7604023249BBFEE00D18005B206EE004E400FAC0E42076A0E40052FB
:20134000E1026B407E0020E0010FE00E8400184244E00D86E00F1A015B22402F267F0170E2
:2013600012210905700DA3A393F8200805F5828883E4732117076860EFA3A3A380DF402535
:20138000E01024006C203C1003936D700C7404936E70067405936F60DD203620000180CA7A
:2013A00046DF03E473E569619F0068419F09B568048582692210AF06200602F5682260058B
:2013C00003D2AF22EC248A0BCCC5F0CCCDF8EFA4CEC5F02D447F06E8A42EC8C5F03D400AE6
:2013E00007EFA4FFE5F028FEE4600C002245E508E208B5F06BDFF58067400C00E6200C00A2
:201400005E200C015A87800B0452DFF6804E200B40240046200B00424891200F04E0A3B556
:20142000F036200F0032A00F22A102B5F02520380021401040494021001420100010C01010
:2014400060220002320807310D808780E9809028B2173E8015806E807E809D80B7808D8078
:20146000A380518074803C023119422348B3264042F248AB203EC00A08B5F076DFE3DEE143
:20148000807040266024409E0462DFF4805E4011469A40C70051207D004DC0104021004099
:2014A0002010003C401060334022002E2033042A800280574015E00670E801FE14B5F00622
:2014C000DFE4DEE280007FFFB5F0020F2240027F01228031406BC096E0033006D5DFE5DE8D
:2014E000E380CFE00924E004C600AF605600A9C94100ABA93F0198F5C93F008E893F063036
:201500005573EF4E6012496703EDBB010B40552A2F32F90A2289F05007F709DFFCA9F0263E
:20152000DA01FCF380091FE6FC08E6FD08E6FE08E6FF22E2FC08E2FD08E2FE08E2FF22E6D3
:20154000FB08E6F908E6FA0E08E6CBF822E2FB08E2F908E2FA08E2200C01E49342AF00F9C4
:2015600022AA00FA228318FB22ECF608EDF608EEF608EFF622ECF208EDF208EEF208EFF26D
:2015800062E603E493F60822DC200400024004050393F674047382D900F2401820040002DC
:2015A0004004020393F220184073207009F922EBF608EAF608E9F66078207520111FF20857
:2015C000EAF208E9F222023625E86480F8E933E83360110460F0ED33EC337009E8FC1FE969
:2015E000FDEAFEEBFF220460DED3EB9FEA9EE99DE8C2E78CF0C2F795F0400CE8CCF8E91F02
:20160000CDF9EACEFAEBCFFB1235F085D0F05804700320D5B3E80470075002B2D502362F07
:201620001492D5EC0460F7E4CCC0E0C398F8603B94186008400D246F1F023607E4FBFAC9B6
:20164000FC8028E830E406E4C9FBE4CAFCE830E305E4C9CACBFCE854070E6010F8C3E913DC
:20166000F9EA13FAEB13FBEC13268A0330F52FC3347DE8002220440FEF4E4D4C701222DB35
:201680000302362CEC2CFCEFC6BA03ED30E7EB2060E8005B202A0450130BBB002027002FBE
:2016A000E600EF2054202307EC4D6011E849701740EF0804600DE4FCFFFEFD224105020445
:2016C00070F8211320D60C58046009E4CC2481500628500920400128402046092CC0E0EB8C
:2016E0004A7044B98006205B1302361BEF4E701CBD8008EBFFEAFEE9FD80EBE98D288B046E
:20170000E5F00234454120214003EF89F0A4283400CE2006052EFFE435F0CD2008012DFEFC
:201720002008018067203A0C05BD80D780C3EF8BF0A4ACF0EE2005012CFC201902F8EF8A45
:20174000200906E5F038FCE433CB204F002C203F023BF8EE401420090438F8E433CF204457
:20176000600B02CF34004059002F2456043EFEE433C9202D002E207E0139CD202CA0140374
:201780003DFD33D0210500072105000F20C4E1032D21054011055D046005E85921C0E00071
:2017A000F619F6EC4860F2EC7004FDFEFF22C860DB2481C85009C3986002500621000C9881
:2017C00050CAF582E9294B4A7005AB8221010575F0007C1A7820C5069BEE9AED99400D2094
:2017E0000801FFEE69CB05E842F0DC23AC266D0FFFD0E0FED0E0FDAB8220E7101BEB60BA95
:20180000E0068406E803F830E705C02B8AA9A528840C40B830E7C280AA74F8CC6480CC28D3
:20182000C906C8F58204604FC3E803E200E828CC1F603C501DE5825FFFE582D313CB5BCB50
:20184000F42B5582FB50280ABA002409B900200880201C015BFB401C14CF5FCFF4C3132FD4
:201860005582FF50090EBE00050DBD00010CE0094E0707CC4820E701B3EC29990720800E1A
:2018800075F01080052A3E027D007E36F20C3392D530D503122C21EC334010E2007218ECED
:2018A00033FCD5F0ED22E5F0247EA2D513CC92E7CDCEFF22EDD2E7CD23470692D5248140F4
:2018C00006E4225903FC22FCE42A3E1FCC24E0501174FF80EDC3CC13CCCD13CDCE13CECF71
:2018E00013CF0470F030D5DE022C21E902D2E7C9238702F892D5A04000FC434C0822EC3047
:20190000E7100FBF000C20B7000820B711040BEB6014A2D5EB13FCED92E7FD2274FFFC411B
:20192000A711E480F8A2D574FF13FC7D80E480EF0000010020000117062004010018400589
:20194000000660050001600500086005010101402301011520210000385B4005000B400563
:20196000000660050008600501010D20160200010E401700013BA520057753010405403B8D
:2019800001040640590204070820173BD7200000036017010108600C4016216540290101EE
:2019A0001240110208030240110022200402000816401E0008400402000116402300066072
:2019C000050105095BB801050A2016010005602F0005407C0200061B406B00016005020608
:2019E0001C074011001D4005010705404201081E400B000837882005001F200402000821B6
:201A0000200402000811603560050008607701061940110006383D2005602F01061A40416C
:201A200001061440830007600500086065010724202201000860111D3F241E16110E0B09C0
:201A4000070504030201F0C8A791776760463835323024222014214A0A0202030304040527
:201A6000050606074089E013000087F80509018826E0060007000D45DA000D403040433C01
:201A8000FB09013F3F3F0404043535354010FC003C1F496E76616C69642067726F7570001E
:201AA00020B220B720BC20C120CB20DF20E420E9244F0D2459245E24632468246D247224EC
:201AC0007C220E060200040008001038C41F40008025EE25F326022607260C2611205820DA
:201AE0005D206C20712076233223412346231F4B2350822D1C1613111010467D4825498096
:201B00006E176ED969652175217A21B125D5251FDA25DF25E425E9261B2620262A2634269E
:201B20003E26432657265CFF0201209922AB22BF1A24452616262526752698E4FD7C0CAB1F
:201B4000050DEB90182E938F828E83F022C606010EDCEC7F0322400E3A4212740611FE74CB
:201B60000411FEA3E4F0EF2404F582E43EF56016035BF022F0402218A3A322AD0790121711
:201B8000E054FCF0E0FFED54307E0060027E02EF4E20134010067E0030E0027E01800F1001
:201BA000229003C87402F09003BFE0FF1225083106400F1A05F02275FF0275E404E4F5E48B
:201BC000127F32C330E001D34017E5E630E012204307E0540C600A1222E7600A03F7F0C212
:201BE0001720221F30E037E5E654036401702F12211B12605A401E90123FE0600AE014F079
:201C00007005121E0E90F1EE901215E020E002413F1250842004051E90D217F1EE60081587
:201C2000126F3A9003C1EFF0901200E0B47A14901214E0B49C0D20120DE0FF64056004EF25
:201C4000B40330E49003C720A409C7E0FFC394805013E42F20F601341240F740140304F0C0
:201C600080E3203C01747A20421A14749CF0D21312230F400312230A7B017A1279107D016C
:201C80007F01122305600C0011200C0021C00C0012200C0022200C20240C297F021275BA2D
:201CA000901229E0B40105202E04735E122120209902122116208907EFF0122094122111AC
:201CC000200A0DE0FFB40602800C3017047F028005601008122503EF24FFB3923B213515A6
:201CE00053E6BF12470C6002F1EE12683C12212A12404530130B607A082B7D101260AE1282
:201D00002166410A8154050E203B0B3131201D093079411220D090122AE0219C03800330F0
:201D20001740831F5FF5D2AF203B02615912232812581512251212230040F29003C0E0609F
:201D40004212214800EF215A1F6A9F4037E51470FCE51520E503126013122260EF70FA12D2
:201D60006D285005126D145004037F01919B403006B40204E4FF8009600A01030520E010C4
:201D8000508912213EE51530E1A2126BAA4002E4F0404110059174125F12127C46C0E091EC
:201DA000829003C3E0280F14FF12208A41D61267DB1250AD50031250CD9192EF702227207E
:201DC000840653902FAEE0704DE0018A0042E0048A014A8BE00F8D017011204404600C1247
:201DE00040284245044408F08008405003FF1222E2A0EB0522F11240021226350770231274
:201E0000403DEF6005227101803820350B7033126D5FEF702D124A2EEF226F052512402191
:201E2000802040450220E2196029000EE001FC03E4FF919B223A04C6F020140520ED1180ED
:201E400022126A5E9003B9E0FEEFC39E4005EF9EFF40760DB9E0F4042FFF7406D39F50027B
:201E6000C21441110023E11A111F1222B012215212682761599003C2E0FD75F0AA9003CC88
:201E8000122DEEED75F002A424BB0DF9740335F0FA7B0122124036B4014B810A904ABFEF69
:201EA000F0E4A3F0904309224312020A740F127F1374B9F0800DEF64047040743D400E0382
:201EC00079F0B1DD20280FE06007904308E0FF80027FAB91FFF10D401220100FF0701590E3
:201EE0004AC0E0D39400400C7FFF91FF400C1E14F080EBE4FFD1AF22122D0AE4E5C820E2FD
:201F0000FB8FEB227F01D1AF904B147401F0200506E0602EF1E8B192200908EFF0F10DB162
:201F2000819042FC4008200F10E05401F1FA60DCA3E0F460D7EF30E7D3E4201308F080CC8D
:201F4000B1E17F9F91FF20310642FDB19090430240040703EFF0D1AB9042FB202A001B407A
:201F60002F001620170EE0FD541F240FA3F0EDC41354074480201101F022203B02D791FFD6
:201F8000409C01B196202E01EFF0400A609600AF809602303914808D0115EF208D20060086
:201FA000E0241504C23930391780992090000B406000062090201701F10D40DC04A239E44A
:201FC00033FF80D51F4300E0122F273E04043E0C143E11153E16173E26303E2B343E303688
:201FE0003E353700001F3E1E5354EF855480802F5355EF80085355DF800353557F85559064
:20200000801D5356DF850A56A080155357FE800D5357401E0157BF201E1A577F8557B07FF4
:202020000CDFFE2290459E122D629045A2122E1A1247F3B19E427907580180F6F1CA600861
:20204000401C017C0F21762024017C0580070B2D0AE480269045A5127D2860203D0AA2123C
:202060002DFAE94A6012122848419F0B45A3E475F0011229B480DCE4200F0180D6414300BC
:20208000FF219601229121D514E4FFEFB4010443FE202253FEDF229048BBF09048B7407E9C
:2020A0004005020AF18B201103E06F6035E00987201F6087400740870348B791FB402C029B
:2020C000FFD1A9805E02D322C320610212777E240B219621B40B0B904B137406F0127F1B90
:2020E00070FBA143163F48043F50143F55153F5A173F6A303F6F343F74363F792143043FF1
:202100006243541061430C43551080084355208003435580614302435620614306435701DF
:20212000800D4357401E015740201E01578021434064000C806420CF00B220CBE004BC0543
:20214000B1DD7F03F1DF2148201A80C0200760C002B291FB226F0248B6EF42650148B632DD
:20216000B342C201D239224E0006412A05B1E19042FEE0214205904301E064024266020543
:2021800081FF45480854FEF022E4FFC1AFF0226D02E0FFF426D000C624470025263F00CBA3
:2021A00032A1200503E07F0070437F6408201000C6417E400622AD011136601A200D202529
:2021C000200D01B40240291C1273E712213912220112208F12232DF10C700221337FFF1213
:2021E00021C0900A0522182ADA0509318ABF540D2008000A200800A5256523A90000274577
:2022000026C520224203174B701D7F04FE318AEF2401FFE433FEC37401124E9D7F005020D5
:20222000608027277224BF004C802F0C127C617A0A790B71BD900A0BE033B34015077D3279
:20224000E43AFA900A08207108E92408F9E43AFEAF01262AE000260464037004A320430412
:2022600060081221C5204E207B205301702720951D04C006C374FA9404FE7469940090473F
:202280005BF0A3CEF07B007A007900D006F1D72B5E021221CA402C06FF1221EDF10C7F28C9
:2022A0002026111720F8122102122062127B161222651250C5FE4FFDA3E0FC4D20040DFB2A
:2022C0004D600BEE5FFFEC5FFFEB5FF470460410901221E0FF901225E06F9003BAF002228F
:2022E000FB64F60785F9740F35F07B0220A905E4FCFD023F8B21640290475820C1200E01A2
:20230000C007400A012DFA208F03127DE0D024E1003722200290433B201E600B160A904369
:2023200005E024FFFD127E635EFEED5F904340127DBF4E606008047BFE127DA520115477D9
:202340000990433E127B8A5006A3EC548B1151D491E0602B717DC004C005C006C00751D42D
:20236000238002057170453C16007E0051D4F1D0127CEBD007D006D005D004123E4051AD7A
:2023800020200404F1DE8076212902008070204E417207FF4E606C904304E0553705D3EFA9
:2023A0009DEE9C40208F0040606201800D402304FFA3E0A3CF407F0051E0307100044071D6
:2023C0000890433CF1068089D322205E607805C390433FE09F40D601E09E2005211500262C
:2023E000212E02122ADC600B41211E022DFAEFF4045FFFE4FEEF70037FFF22EFD3940F4092
:2024000009EFC4540FFFEE4404FE200E0703400AEF1313543F200F1102FEEF30E1010EAF42
:202420000622AB07AA06EB241FFF223A1FEF7805CEC313CE13D8F9F9EB541F904B16F0AFC1
:20244000057175FCAF0551DFAE01EE14C3169FC43354E0F9AF04C3EB9FFFEA9400FEE9FD03
:20246000C3EF9DFFEE20091AED600FE0FD6007C374209DFD80067D0080027D007C00EF2DB2
:20248000FFEC3E252F064344E0FF51DAEF403D200C80CF401405FD710E9043427626215A40
:2024A00020212E1E03A4FFAEF020D860D501260220DE014061220E01AE0262D6054079700E
:2024C0009047E7622F00E422102027422F00E42020201607127A91D0079045A7410D01457A
:2024E000AB201E03F1F3123DC59B02F5123D245704123FDF60094022037C0F123C25792003
:20250000080005A008043CFB9045AE45A00315123D92403F0469BB9045ACC59902E3123FAE
:20252000258904023EAFF18120580AE4904482F0A304F090447F619B084E700281DAD3EF11
:202540009420210A0540047F208006201920D102904481228801447C409F0B4481E0903DE6
:20256000C1127AE290447822C5041275FB400E204600E0223000FE2B662050402221E60124
:20258000448041E620590194002006202B0026201802127ECC2079002D46360007200E6737
:2025A000F4060090447DE48FF0263808904483E025E0F08149204625154162205620436293
:2025C00089614A020A913C217144EC054B0FEFF0C22F439A05601F7E127F0B249B010108B9
:2025E00024B801253024DD03904472E0257A43B7201001B1DA202D04E07002A1B320F10022
:2026000076208D201C0202D107401402FFB40120880476740180092B7B0010400A0702F05C
:20262000B1D2904474742B69004848AD003540460D701ED22FF1E7EF700FB1D2126D3A4071
:202640006F047D01B1FEB121050072402800394B1B09B40505E4F01222CEB1D24081207118
:2026600003640270202049604F00722057018012607F2047016002209320130301F0D10A6F
:20268000200725904495002249DA035403F022405F03E4FDB1FEE104F9002238C2037E0027
:2026A00029F93B17247102FDAB05223603EB023EBB20444042206C04237C467D7D44DC00AC
:2026C000EE334300FD210B0520DA7E497F80442803127B94D0241501E113602A08037019FC
:2026E00090446E127BC720EF00E040342B31037F0380112BE5000D402002B4040C401501D6
:202700007F04204A02024980601208010C127F2BF18BB1D220C300722654014ABD22ED01D6
:20272000EDF027B9014ABD201D001241A80073A0EA0505F07FFE805F401840954064200751
:20274000035590446D40A9027403F0E00695018048402A0470341221572AE6086029302FAE
:2027600014122526EF2B332010066006904ABE74FF21EB613281B90E4ABEE0FF02253012BD
:20278000216122EE8FF002223A2CAC08640122F11B904477EF209D01465A638E027FFFA3AB
:2027A000227808E8494A4B6051904661207A20050CE0FEC3940E5041EEF1C2E07033200FD7
:2027C00001F1C020B0238001465C225F029046554378054660E0904659202D005A652304DB
:2027E000D0071258F6202A01E0044B46400702F080B5226522D60062231820090477E0FFD5
:20280000F198211A0877F022AB07E4FF1BEB4063061C1269FE122D6E4F9903EB1258D8C005
:202820000A03F1C2E4F021ED07E0FF75F00CA424A84DDF0532F58322E92F21DB05FA2231CC
:202840009374FF321142FD271C23062E86037F0030E226B60A2275FF02E5E430E10675E485
:2028600020020003400E2EB90575E40175E402A00C03E4F5E4226BF900C961001122126D76
:2028800042EF70087FA07E0FFDFC01C6126D79218501EFF04C01074067E0605A31407E23FE
:2028A0007F166DE014FDE5F0A805088005C333CE33CED8F9FF3139312B4223092D26C0003A
:2028C000C001C002C003602606FF74107E00A807E0022812EE3395E0FDFC3131122AF7D066
:2028E00003D002D001D00025CD1280283140AFF07E003139801E904475E0FF600F22AE06B3
:20290000FEFB7AF47901F8202A01800826AF08D07D077C00312B3153C20F043124127B9B2C
:2029200042A719124713126D53EF703F31243131D3122C454007E47F01FEFD80254010020F
:20294000122B8220350F24E47B01127E3C50143124C3EF9401FF24B409FEED9400FDEC9428
:2029600000312A20490322EC11192198046E022D0AFC60061162E47BE87A03F9F8227C00CC
:202980007D64022FB1314825A802A0842227D40DE064AA2411FFF022511EEF6010E4612D6A
:2029A00001312A41780154E7224C218002FF74E0213127B10510F022EF64102012215A0100
:2029C000478B230A02E0B40243192009225D01024663CE096403706B904474E0605742FB7B
:2029E0002F64031222D3802019200B0402031222D8401B0114F024B86082024684E534DC62
:202A00000A64A4FFEF24A0FFE5F0340F35AB04FDE433FC8020F361B762990062412400E496
:202A2000229802F0024743C523F60412460A7FFD2306207B23B2000D40BC05055126FF017B
:202A400025206E60B5045408FF227B690A04E42220022920B507E030E10AF1F35006279B17
:202A600001018067A110EF4E7010122364EF700A515DEF70051119226624BF075183240F48
:202A8000517470082007030D517460A9F50822F9EA3402FA02284824A1009521D002903B38
:202AA0003A45CD402D02DC51B535700616517C24E0F9E4284208126E0A1241AC126E022865
:202AC0008604BB22900A32402801240429DA02FA022929F30032268009D22BC2EBE5146008
:202AE00002A1202E8A18E202C322B17024E3126B541267B551AC5407FF9008F8F012672AD9
:202B0000360135EF4FB205E06E126042404FD0015FF5201301E0FF6A210B36125E14E43324
:202B20007004D2EBA1004015042463127F0B26B4010A3641B20F3BD2EB126BE5A21692ED99
:202B4000900909E0600E6061067ABA431504F1B52124040918E070162046140979187C6ABE
:202B60007DB19047467464F0E4A3F0126988C322206D135005C237125D6F126164E5D1206A
:202B8000E0FBE4F510C217409A07C39403E49400502F204E09B1B168B16F24D8B1682F4A77
:202BA000FB273E0740EE648094804013201B00E320EE02127E5D206D408100D340DF4ADCB4
:202BC00006CFE9CFF5118F122020203C05F516AE111277401A00B2202D058B1CF51D891E0F
:202BE0002019205009F51F51ACFDACF054606040671FD9B168FF126BBFC22BB158FB7A0007
:202C0000900919127CE37D18122917EF2BFFEA3EFEEF062414FBE43EFA7D24260181EF40AF
:202C2000A2413C0A751408B170127B30126434805205FFAD1612670B201A42A30A247B016C
:202C4000FDB128D3D19D50052BB107288EE4F5FF1266F72DCE0B2428FBE433FA7D03E4FF67
:202C600081EF602B0402702BB12B202803400574FF802807E5D25480440AF5D2402D207885
:202C8000202D207808126C13D15B8059E4FB271C4057E0012E0751AC441045F07F0526E6CC
:202CA000030AEF547F603E024FF5D220710743D280B158FD7C00802133BF09047F0A800235
:202CC0007F05EF25E0245B08FEEF2DFBEE3CFA7D01605C0151AC295508A22B922A126450AF
:202CE0004006415204C322F1B590220A218100E5213D04FAEF1228E3401703D2EBD3228035
:202D00000704C322FFD160426E28750124B1402320B2221D801000D8A01061BB6CBE013E5F
:202D2000FEC01B418E20330007402222F2C03303229043C322BB0AB1E4E92405B1689043F3
:202D4000CBF0400A0001400A00CC28A409C3F1109043CDF0E92406401100CE201C06B165A4
:202D6000049043CFF02AF906CAE094029043C9291201402540340803B16830E1031220A396
:202D8000201402A3E0FD2287084379CB127B499043C620AE02122670406B2B0F0290415C4A
:202DA000207101D1946065054166F090416120650141672065204203904168F0201B00020B
:202DC0004009056AF0903B36E0493502416ECF4BBF04904164F1E6201D0504B1681490410E
:202DE0002780204A20500142AF20500E9042B2F1AB7A417966122409EF600323F820350126
:202E0000F1E623E641C100FF219C0275D102A2F705FFF5D1EF6008200721AF01800620076B
:202E20000453D27FEB6040080343D104EDA008000820404AE603E922C39F230407F8748085
:202E40009822904220206A01F1A360BB01422A2EBA002520BB01422B436500E960B40242E0
:202E60002EF0201E000340A001423120BF003860BF013B3D80BF034228F1D9404340B40003
:202E8000BF2049029042C220B40642792A122427EF80B4033B3DF1D920B4202221A6029081
:202EA00042EC602502EFEDF027FB21BF219903FC9042F4352F0521E0FD9042F3205204F07E
:202EC000F110540C226A07027E019042F6EEF02211079042F8F07E0030E1363D05EE4405A5
:202EE0009042F74026603F000321570142F9200E06ECF110649F702B605107B40405AF0466
:202F0000122418201520240290403180732476044034E4F1AE209F03F312241D20FC002516
:202F2000201E03E922AF052D5B01EFF0332200E4248620074470029049E040350749E0F11A
:202F400010FF1247982008202B03E40228E380FF003860FF0022800C0036800C01A21725A5
:202F600049006421D5020A66EB20040965EDF05402901240F0123420027002C3401C260992
:202F800000112EC4057D017F011150202C047403F0801320074A9E041222DD80072036017E
:202FA000117D601A03E09003C020450466E090123F31460AEB600875FF0153CDFD80062037
:202FC000070743CD02ED600553FB32520543FB20EF6007287B0243E14048660353E1BF2225
:202FE000406102E4FF222051047F0143FB10401C04E640EF600D200807E5E120E7FB43FBCF
:203000000D4038020E80FE2011018FE3268E2B44031011C54F229B6003047003D380012093
:20302000B101122340E130D625D409EF6041127BB031175009401603C394C040412A0212E3
:2030400079252012030E11C55F203B600302F460E8963E860B00E4205C00F0203804E0FD70
:2030600012226A27F206D8125E949044DE896E03019044E2272B24B104D554C0700545D3B3
:20308000212842C001967F20E60475D504F13620070143D542DC025394FB200405847FF5ED
:2030A000FF75982CF606DCE5F4F075F49C201E06A3E5E4F075E42521B8054479E2126FEF27
:2030C00020542A6F046002413DF5202702DB74142AD907DE517F7801122C69200927AE0781
:2030E000E5A730E1FB43A702200D01517F200C03E005E47B31392B990CF9F8EF4BFFEE4A3F
:20310000FEED49FDEC48289A402D204304E014F070BA200D20450B10122C567B6D7A4E793C
:20312000C67841292C08EF2439FFEE3430B187203C493E0B2B82EE547FFEE4FDFC12671816
:2031400060300EEB6FFFEA6EFEE8CDEFCDCCEECCECFF4101015FDA450A80090C900001ED62
:203160001228F590120FE030E643B20275968020D302E4F5D520E202E0F5F4200B06A3E0D3
:20318000F5E41271CC40D601B401819902E0FB252D8D042401F582E4587E20D200EBE0044A
:2031A0001000E0503C00A3AAA3013E9B201F02903EAB216904E4A3F0F14621F45943030E11
:2031C000903EAC201204FB7A3E79AC4135013EB64194022DC6C0217F01F5A4209003F09005
:2031E0003EAD2D190275FF0320080EE0FFF595EF14601314601C2402702720540B517FF183
:20320000C0903EA78016903E9F800B05A8800A903EA3800B08A9E0903EBAF01272FD200608
:2032200000E021DA067D91806690120E2B9C204C02127DED207C02E0701A207408517F9054
:203240003EB2F1D3FBC32A49225B033EB2517F241B20AF00BA2E1F04717E903EAA23B820CE
:203260007F07FDA23592321272AB603800126027029048AE6029209C01B18F4006025172B7
:203280001237A6017EB321FB00CB60270140A3E000C001F1EA403502B6B16542070056203D
:2032A0002D01515F802C0170DF201602127C9D41C2057A04F9F8B175A021405C07127C1929
:2032C000400343F420207C03331271DD40540324FF9231201C04517F127D53212A1975E5F5
:2032E00008127119E59B30E7FBD120F1CD43D5047FC8D132B13FF13D2290053E79AB1271C9
:203300002640F721B901127120B600AB4009835D013FFA20BD04F14690400FE10578010EAA
:20332000F0379C01400AA0B901400AE1077A013FFA216203BA904006217A013FFE800B00C5
:2033400007217A014002800B0408E0904013617A014013A17A00562055417A01400A417A58
:2033600001400F213B01400BE1017401400BA174203061740040381A26F401A23461722102
:20338000D2A16A408C216A2006A16A04BC60028146E000A921630517FF7E04FDFC206201B9
:2033A000B16A814601400AA16802BC70DAE1004D0034814D20F9E1087701C2312157029028
:2033C0001213229A2AC80201E4FD5C4B01EF2D22E9003E42D7201908E02CF00DEDB412E72C
:2033E00022606A06E0F8A3E0F9A3E02F8000FB238E02E47B7D23C32385A82F04E43DFDE460
:203400003C2DB00148AD58F300B1A1FC0548ADE0FBF174217D07901210E06480607024CFEC
:20342000107F5037EBF174C083C082517FEEC0E0EFC025790C10E075F004A4AEF0FBCAEE9C
:20344000CAEA2D4B01F9F83A8610D0E0FEC3EF9BFFEE9AFEED99FDEC98802B404E803921E4
:2034600051403401F4044036290E8D7F01EB2F4A0308E93DFDE83CFCD082D043AD44E304E5
:20348000758EC8F18223DE0A53D5FBF1C67F147E00F119236A06439180229040F2209B4226
:2034A0005B04BB0575BB8520230475D5022031250C60300643D520303102C1480306538EFF
:2034C000F7438E077D2E5902FF8DBC27EE05B102E5B130E22B0A0BFFAFDFEFFEACDEECFB2F
:2034E000EBFFED242800F0213E013440242803695EF5FF203606B1FD0DEDB40CC9206824A2
:20350000D10009230F00A3201900FD402900FAA02902E0C31321520913FBEDF1DE127F23E8
:203520002BFF30D9200A6EB711ED240490120DF0EDC394075016CFEDCF0DEF20230D7BFE43
:203540009040F7E09F9040F6E09E50B6208020DE257E04120DE0F5BC400D00BB44D501F5CF
:20356000D526A20403D3EF94022E1003400874FE3AEF00FF2B1E0DF592EE540FF591227FD7
:203580003FFEF119D125F20203E59126A7202C26D60280F19E210101438E26C7020153DB49
:2035A00086170402D130F1CD80120143DB4059252F012225E50312616109C2E17F1E125F4D
:2035C000E330E707408201C2A18014038122E5FA25FF0175FC40380F53D5EFE4F5FC75FC31
:2035E00040F1C6E5FC20E6FB217C010B022218013EB22005208800E4209601F13D207A00EC
:2036000022E2016820690124F8A1270E22E0F595E5F4540722AE07124948EE3503058EF0DE
:2036200084AFF0224D34050EE51520E509200900E02DA203F1F522D325EC2A5F02900000C7
:20364000200504500201D5C224B904A3E0904ABB684100E420180EF0A3F0D2ADF56BE56BD9
:203660001247C2E06078201A0431E9FD11D62FEA00D3451F024711E62FAE0308F46005204A
:20368000080114F0200401600F202B0169FF311D402502628010200E004730C3400D70DC2D
:2036A00008314FE0FEA3E04E600880080731E31101802011D642E82034527F406400FC6FD1
:2036C000D9022AE9D0829F0005208100C331880202013F201D404037A103FC22E56B711519
:2036E000009D40FB003220FBA00F00A7C00F02904653294B00ED319A0452EFF0FB9051AE6A
:20370000010A1251660362EB11D880058077002620EA20D8308CA07031D001E0FF203603F2
:20372000E0FE11E8294201465366C102EE3151604FC06800A5E0006808473A518F90473FD1
:2037400074FF37D6043EE09047402007349140B30161EF406B070AE4FB127E3C704C401EFF
:20376000027E01702A3A2020031247C0EE524D03473CE0FF2A623EB5016F802CF44F2C405C
:20378000AB036290473D925A01473A607F03D00711F6203602E004FF206B306C400A02F039
:2037A0008095200C31FB05AA06F9022F87611B00E4246101473E29CD04215F9049604012C6
:2037C00003FBAA06E430CD200D0D518F31F9517EAC00AD01AE02AF03616F0149602352019B
:2037E0005100417221D5022F7E005F1E20880000401D402D06D0E02FFFD0E03E20284A9934
:203800000253ECFC2009055188540342EC231107EDF5AF75ED0275ED39731F600543EC08E6
:20382000800353ECF7904963E0600443EC042253ECFB227F807E387D01FC02011E4C60C6DC
:2038400001EC2263B7219801A3EB40C5054F519290475525600BC2367FE87E03B1B571B791
:20386000500542FD02F7B1E935A8830F018007200C080202D322F1CB90475021FF01730A7C
:2038800023050553D5DF53FAFB204203E0FFD1B34017200A09B40811E0125774127EDB2243
:2038A000680924521255848004E01252478B02904751403900342039234B02759B04806FF9
:2038C0000275FC42206E09E10471B740F4904752E0486303E59B20E7601040082AAA202D44
:2038E0000A1F12579ED236804F71B01229D5208400FD289503E05D701D207401E0FF2015BC
:2039000000652A8B3627401A02FEEF4E200B06F012553F125782277911477953F1B1500F22
:20392000C3904754E09420904753E0389A00E7203309712612573D30360241A02103E70055
:203940008C60310055247024790FC330E701D322C21FE49049E6F0C220A3239320BF03E56F
:20396000D520E72A9C0BC238B14E201F02817153F4DF201F00E0210627D70430200543F474
:203980003C7D0253F4BF24690553F5F09049E7669206EA42F5EBF5F6D22034047FC812560E
:2039A00032201C03E59320E660E70B302058E5F430E3047D288010200800E2400800072080
:2039C0000808E1027D281257C67F28202F212002FC7F7860080C502AF19E50F8F1C6EFC3C6
:2039E0009D50F1200A05EDE5F720E5E8408E202C0180DF207903127C1F4020860220F1CB7D
:203A0000313C030A82EFF0401C01D21F200A00E020A910F0D220A3E4F0A3740DF071CFE409
:203A2000900A83F04B6D0076200812E07070E5F754C060EFB133B1466455704EB1462BB3EB
:203A400003E06F600E401C02F470395CDD0230E132401C0C6018E0FF644A6012EF640A6091
:203A60000D40252F780583E0FE6F7005200728820308F7E06E2009017019281201809E2096
:203A80000901800F200408E0B454057433F0808D200B22750180852007336D0806C237B189
:203AA0006F800071C2400E01FF2220CF01E00840890B70F5FF2243F701AFF922B133201A1F
:203AC0000FEFF022AFF4EF547FF5F4303805EF44806B13A18D04E5F4D330E64CA9054B129F
:203AE000E5F4F0E04024037F827E00E202D102303708201C00E04036827B214982EBE101C9
:203B0000D3C0450FB1BA02563690494CEE124FAE7A49794E2240031490494E43CF03FF90D5
:203B2000494D26DD05494CE09E400B400622EA06FF125719227FFA219D02E5FC3061D30010
:203B4000F7400801037F55FC20A1400A070222E5D57F0030E73180240C055CEFF0A3D194A3
:203B6000201C01B1E9574C224E03E5F430E62006409A204D021256363198010122411820F6
:203B80002D425C0353F4DFD22126057F787E00D1CF20390453E4BFE5E42A6B0FF1EB7F8A59
:203BA000F1E330E60890495DF1DAE480439C600A01E5D9316620280243E44042104ABC60A6
:203BC000532E4305F0A3EAF0A3E9254D03F730E50F6169428800F1223F00C3201E20334019
:203BE000B3208D22A506439A80EF127DEE200904539A7FD3228CBD1CF1A5AB94EF4BF1D20A
:203C0000CBEFCBFAE59130E71DF1A8A994E9F582EF4582FFEB29A10DEA3CF583C3EF958267
:203C2000E5F0958340DE47C20309CEECCE28210C12573922AF82AE837D01900A1A248B0B75
:203C4000127ADCE514707812603A500460EB010A1A4150048E11F512A32F670E9008FA1285
:203C60002E1AAE11AF127DAA12677020840A75D901F510E5155421602B274E02E504E42309
:203C80007622C4011FF0200325920312705FEF3B74010A1F29C70D1040EB7F0212251C53D3
:203CA00015DE9008F6379D01B403217C02126440414602D2EBA2346D60EA01E43320061180
:203CC00003AF93EF75F010A4FF22F1A5AD94EF4DF1D23AEC012A90C40303F1EBAFD920254C
:203CE000060153D8EF2224FB55FF00FF2D7A6A6C04F922FED1CF247100E0401F04E4F5EA3A
:203D000075EA3D0D04600E123C7440E810E4FD125F18800A12214D126013E433FF2221FE3E
:203D200020F10221113AB4B40211A63194B5054315205315FE34BB409801D322246008EB52
:203D4000A2ED9216C2EDE5F484870A11425004314B40033017036C3601F1B560DE20D20660
:203D60005C80900A95EFF025A4018014200905E0B43312E4F0601702BF020D2010436A00FC
:203D8000052125009521250395E0700B204995310111A640100224FF22255F077F08022553
:203DA0001C900A37217003900A3AED4E2102ED54FE200A02F060306FF702BF0128401E3285
:203DC000F2065117501D900A383CAF01021239D5040A3BE02402205A003B231C050A3AE0CA
:203DE0006F70D8207B55FC20102B7000A840510148AB267301F0D321940E037410F09048B9
:203E0000ACE0FF7A12792B3152201F013145200420576015057C0029F9EC3A200B0BABE014
:203E2000C39FFD01AEE4F5140113201C0202228322A840AB0E7B0190478B022E1A7D021113
:203E4000AEEFC36025A122170CE5D154FE4402F5D122C0E0C0F0485A06C0D075D008C0FFCD
:203E600021B342CB04047F028009E300801F8F18E51864026002414AE514122F2761BC0157
:203E800061CF0262330861DA0961E50A61F3070B62100C000063C4203C0C75C355151AE5AB
:203EA0001A600261C475144004401203F0751409200F400A035575140A600A0890090AE064
:203EC000F5C375140B800D24FF400D0301751A14360401912A80401B0C61C4AB1CAA1DA9B9
:203EE0001E9134AD16AF1FF10B124E5B75FF00D1F743FA0420070B914975140861C4C2EBAB
:203F0000751400368D02F1324020712165000121650161C420B324290361C4D1E7401605D1
:203F2000E510702271D8258414556004EFB4540BD217AF67900917EFF0613E751002204C19
:203F40000175D9204A01E5103615025F71F4640B03F191F15C23090FEFF071E8E0900A94DF
:203F6000F0E0FFD39409402520120CE0D39402400CEFD394AA7F004023243C60010A942069
:203F8000140040800E06EF600471DF8073401307F516F100901222EF270806008516D9757C
:203FA00010036064000340980171F433755587606D0171DF2022405B37851BE5D350055432
:203FC00002FF80035401FFEF602E30E111C3900904E094FF900903200502501880279F0125
:203FE0000906200A029009052005015007A0F5009120EF77DB204B01316774E506C2EB4391
:20400000150271D8257508901224E0FEEF6E71D72DA0042371D1A3A320070025400705A39E
:20402000E0FE9012262A35036D4F6016205800082052029009072005E000582015000220FE
:204040000F0190092B87E0011501751060B10CB40307151671E8E516F09003C3200503D0F1
:20406000FFD0D04A9E05D0F0D0E032FE605714FF85128285118322301705C217125BC22280
:20408000E51224072A94033511F58344086407029008FA361760BFA3E422A924C14115A497
:2040A0008E0091248D02125D6F23F6042274FFF5F021E80145F042CF0BE9D1EEEA540F4227
:2040C000D622125EB3221C20371153D1FD43D101224315015315DF9190D197402015011414
:2040E00022201C0D5315FB302A049146800A7F55917940035758229E271B45C505E5FA541F
:204100000360FA200F1F8FC3D322EF30E303AF1322AD1B201804EE30E00BE517C394F05024
:204120002091DB8018E508196006FDE4F51980128014201B0E540FFF600491CAAD07AF0508
:2041400022F125FF2B55221E050DEF90378A9323DA1708F9E0FDFFC3740EB102EFC4F8549B
:204160000FC868FFEEC454F048FE203704F0124E9C7F2CDA2037019FFF398400FE26F4002E
:20418000582C0F021211E02CB309A3E0B4FF0C90495A741828870213F0803BAA0011289AB2
:2041A000005A201F00122007005B55EB42EC01C16B203508E0FE64086004EEB40426E1057A
:2041C000597428F080064007023AF0EF4A59142C21E4D173EF24D8FFEE343FFEED3493FDEC
:2041E000EC3416FC3B4D088079037800121E4CF135C0005B222A05495AE0C3B1022BDF3048
:204200001A05ECC0E0EDC0E0AFDA1D495BD16CD173D0E0FBD0E0FAD0E0F9D0E0F8EB2FFBE0
:20422000EA3EFAE93DF9E83CF8206901D16C203202EF24542061080B125587E47BA87A1686
:204240003058011E4C26FC409D0D14605F14601B24FE600C24FC707C21A80375CE31807330
:20426000BF08CE21F5FF8BCF22E4FA201404EA2440F5CE4007212F1407B102747A2FF582F8
:2042800074383EF583E4D17B13C39DF5CF401B01244880230290387A2015072DF5CF0AEA85
:2042A000B408C2420E0275CE01404B4008020EF5FF33E260301075CE0FF5FFCFEBCFEB752F
:2042C000F003A4F5CF22E02C7F04FDFE227B6430F909022AF79325E0FDE433FC201D26D79F
:2042E00000AE225B002927BD05EBFFE4C313EF2A16026BEFF05A3501FFF13BB9006C800BF7
:204300000A24FD6013047008900A6A742CDD29F5026A7408416E20070002464F461F006CBE
:20432000214C010A6A545301FBE42BB10BF0125A9B50E9D322E5F754C0264701F5D720C7F7
:204340000153D6285900D23A790314F5D2222F120618131313541FFF40C70F8FD4F5FFCFE7
:20436000EDCF8FD522C8ECC8C9EDC9314E21460622E517C4540FFE225607A8932E22C39074
:2043800008FE2394029008FD20050222F132E300B30122EF20A0030680007E2D2203E4FEBA
:2043A000AF06200F417503FE6005803D2800222962017F0340640075F9000F05D1F5FFEF0E
:2043C000D1EE30520142D6209740780BD422E5F75406FFBF06037F08A00A0304037F04A0B8
:2043E0000A000249A7204A244F01E0F42F90006FE0000325660109EF2AF0256B020A010FB4
:2044000025DE2A8C1130150C902FAEE07006FF1220ADC2153017236582249305C39E400A51
:20442000EF9E45543C890022259607E0F42FD394014002400D0103C44D8B024C700A200922
:20444000290201EFF047EC200B48F803FF4E600921130AC9EFC9122F8722D2ADD2BD2DE72F
:2044600005758E71756A09200803E58E546F2ABF038E904948AFD3E609EE20240230E43EE8
:2044800060070354EF4410A02C030A125581603500622F6FA55B0AE56A30E0020559E56AAD
:2044A000700D205E0B0567E567700205668002156A403D028530E438680502438510056D57
:2044C000E404FF40B1047E697F65E438BD2201073EF002595F904B1022413A134B0C074E03
:2044E0006035903B3D315E200F00F034BF084B10E0B40219903B3F2885201700E021520B20
:20450000903B40CF11D1EFF4703F8028401F00FF201701802E393FA03F601403B4020EE4EB
:20452000203509F0A3EE11D1BFFF15801B6029057B017A3B7913202A0531C2122F8B226170
:204540003F00E43A5C003F4DC002A38009C01F0840317F7F02022F8BE0209103F5828E83F8
:204560002F960044704102904741288F02124FC020100331CC11DD200F0131BB2004061217
:204580004F10B4FF04E42B32800C01FF22314A02FAEF0239E8574202F5828C31E1204C2051
:2045A000BE374F07FB22AB07E4FA1BEB25100A500E31FE31F66008EB125850D9050AAF0264
:2045C0002280E2217104EC4D4E4F22237B040CA424A1F533740832F583220247981FEF4013
:2045E000330109EF602D000A299605FFFEFDFC22E42233204A0113EF31B20EE05D7C00B517
:2046000005027C01EC2EFE0F80E722E7057D02E4FF80DC3A2C08035126AB075144EF2B2350
:204620004C1FFD7F0380C8A2AD9229C2ADAF67AE66A22992AD22515E7C007D0A022917ADD8
:2046400007AC1A06515EC3EF9DEE9C4008EF9DFFEE9CFE8013EDF4FDECF4FCED24015509E7
:2046600004ED2FFFEC3E25950103C960D5015176338C00C8338C5AFB0118F03AFF00042D5F
:204680006D0014895F609B000525EE22F425DB010FFF200566350D5317F0126725FE740F33
:2046A000C39F4005EE261C020543173A5102EF42178026017F00206000C821CA0B0D8F1BD2
:2046C000900A17E0F51312212562EE010A6721850A7148E51B7145E924017154201007718D
:2046E0004E7148E92403F93DCF01E5134016060471547148715C21824195010A67274B217C
:20470000923C8E402200E420163DDB600A208E0754F0C4540F2FFFC32A6002027F0F2449A5
:20472000009826A0067E10EE60091EEE400C03B507F4EE21610340027E0D200F46BD06C2EB
:20474000AFEF4215D2AF400701F4524008067F0271A19003C23B6F00C727F706C204F0C311
:2047600094022269C2001329DC22DF0108F8250600ED29CE0230E5074F40003A27A926BF91
:2047800001E6F024B2000933C924B200FF2005E401AF6F2F082C044402F02254FDF024073F
:2047A0000119E0224020FC006D553B10FE60191460262402703BEB2402FFE43AFE21BB107A
:2047C000501229177D60801E9181C333CE33CED8F92B0F037D28800EE0040F006425C9025D
:2047E000900A6E62FB204B02E091954AF0534B030A6FE0242D59026E918CB35004022D62DE
:20480000EB243E240A3AFEEF780322FFE03400FE262234B60325E0240B42950609F583225F
:20482000EF9195228A08022CCCE490090B91C32005020F91CA629702900913204142A1E07D
:20484000010611A2EB922DC2EB7A0879FD7D0C91E4A22D92EB2B9104E4FF02225B20190B9F
:204860002EC2EBEBC0E0EAC0E0E9C0E0402202126152675400FA2760067F0C122283A22E42
:20488000202F137F017E009017FCE4935EFE7401935F4E24FFB3223511200B06B40007E47F
:2048A00093B4182E7A30B9031217E04422854007045414FFBF14353B0080331B6010017F5E
:2048C0000024BC45A90D4472E0B4040D904477E06007B1533D5F215F20132005203E03C473
:2048E0001354072009032FCAE0704419052F79C21221CF400E0A44C0F0902FCDE054FEF00D
:20490000A3800B00D1400B08227405D39F500B746342CE02904475215E014475204A0212F4
:20492000240E26112123011224247A003A22B903B1EA7E23318E0724311221F7EF54076CA6
:20494000851BD102123F8BEF600F124A7C24E0F9E49045AED10A1243DC227E127F944174E8
:20496000013AFA250111A37427F022022440904B11EFF078137C3B7D210B037F1312283060
:20498000B90711E0FF7DF47C01023755014662206424E90207D1C5400B054F10903B08F0A0
:2049A000232806124D68903B07F0401343090004600F00092557000C205B03904668A360BB
:2049C000330580D1CE90466520210402207BE0FD2D2F0109EB2D2F0290466A8054000D4076
:2049E00054006A6054000E203A000D353BC04A3BEA01467024E1007B4566020DD184404863
:204A0000066D80B57B017D0661E2049009EE746E20C4001740C4216800BB200D0374D9D1AE
:204A2000ED20760426022206A3204E003A2077029044BD206A3F480502237D0221CF3ECE74
:204A4000091249E0FD7F01EF7011ED5EA3030143AE014AA00753AEFE22EFB40114201E0138
:204A6000EDF0A0182373401800FD20065C9D00E251453CA501E30321F9200700E167AD021F
:204A8000E67F0581FF00EF4035030253E6BF402E3EDC00223C9A030F146014235602188B93
:204AA000802049048DFD228B90400703C9228BA0400705CA22AF038FB0200903AF058FCB7F
:204AC0002616004920A92034031214601A20340B21F1DDE580127B64E5FD801F200A0090B2
:204AE000400A02C98014200A00A0400A02CA8009200A00B0400A00CB24800290474C249434
:204B0000285A01AF91487805AF92229049E33ED7037F017C12271D01FE8D263501ED2E235E
:204B200067310F35C9040EEEB412EC5AB7026F600A4028015FDA466F2033005027982091C8
:204B40002008217B01A3A3237B02E4FC785E5F018FE140132CCF20133E4A01780839A101BF
:204B60008FE260132449098FE322E4904954F0A3043832024957F098CD4BF70130E7412E75
:204B8000209800753C94015FCB201001E61A201808904956E5DAF0E4F5DA200B04E5D630D1
:204BA000E3FB2035223800319CB500E4203B0C038B9512527111230BEBB403F1200E087526
:204BC00095801256201257CD3CCE202C303C3224007F54C10212573D2225074979553126F2
:204BE0009049552B480254700623AF02FF800227CF014954233B3C6904B401023112206CD2
:204C0000207802E0F5DA2016234D200E0243D810200635D8030475FC4120080222C2302000
:204C20000502759B1F2005514A0620E71BE59A540F2580004053B120B159B40143FC2F241A
:204C40000203D230535B0009801F020540CD400D001141470275FC8079BF00E559BD0230A5
:204C6000300336012CED03E00E43F4319603FF43A4042044049624EF30E1E000110008A01A
:204C80001104E20943F40220230575961EEF30E3200C2D59200C5A6700EF2D3A070475D71C
:204CA000122275D72D614F0184E6204B0094404B019814601001933F209404759A4031CCAE
:204CC0004034019C93203901A1A320040185312004058628E5FA543029B34D7E0275E74A2E
:204CE00022AB0275DF49410100D320CB030153D367203422BD200B0275D825203001B503DC
:204D0000200401B215200401BA02200401AFB3200401CD0A200400CB40AC01CA1220090062
:204D2000BF2C010775CC96F5FFF5BDF521160081200401AEE1200401DA55200401F5802094
:204D40000400E9404401E933200901972A4059199B42759CA4759D29759E48759F2475A1B2
:204D60001275A312759AF820330C20CB01968041710A4440F022CCEFCCCFEDCF74249005FE
:204D8000C8EFC8088005C68209CDECCDEF5D601B303218404C01DCAD400501DDCD20B8020F
:204DA000759A74200401948421CB20170053400501DD336017001440170004601701E465C0
:204DC000401701D647400C42871102C32253FACFEFB4080543FA308012EFB4042008052092
:204DE0008009EFB4022008021080006EBA048FDA22E4FF2BAA05C06003025FC62041203A52
:204E00000CE310125F9E50F3125FC6EF60ED400A00E8A3FE0143E6424E240501EF22390DC0
:204E20002003356C03ED30E2FB200C02AFEF222002018FEF20100220E0FB200730CBD91CDE
:204E4000600A04082253ECF7201D309E400500046005000125F30547F3123D9EEF3A1A0340
:204E6000580180F532D00B3EAFD239123DE17F06123F0B40070501123CFF7F03200C2518C9
:204E8000013EAF230A044379007D012011012305200A04097F08B1BA200704067F09B1A02C
:204EA000200707047F0BB1A090430423C94B211006BEFF16BFFF13B1A750028004B1B080ED
:204EC00009201A484B0140F0601203089043013A442EE920071F02F0904300E0122F27741E
:204EE0006704747214747A1574821774983074A03474A83674B004370000748D212107536B
:204F000050EF8550FD8047400A0351EF800E600702DF80066007057F8551C9802C400A064A
:204F200052DF8552CA8021400A0353FE80166007A02D0153BF802D0B537F8553CB123F0DF8
:204F40007F11B19233FA073C9B123D079042FE60891002E0247F6009047015B198740A8096
:204F600006B1C12007005820A140AF0DB1B0904303E0F46002A19090430660EA0364104EF7
:204F80007020C50603740EF0EF6420A00B000F200B0040A00B0010200B0080A00B0811F08F
:204FA000E4B5070AEEB40160310012A00D0002600D0013A00D0004600D0014A00D0008608B
:204FC0000D0015A00D0010600D0016A00D0020600D0017A00D0040600D0D18F061B8EF4463
:204FE00020F5FE227F10B19220D328BB0D7D02022305904309E024FE24FD2221882511021C
:20500000A3E4F04019000140190B42FBE020E017123DDD7F3D1221F2002A400400804004E8
:2050200008A6123EA9229042FDE04A9E211828C2021228F520EC20090102022009013DBA61
:2050400025D702903DBE266108E4903DE3F0D3903DC25A83023DC1E03EF500012061037A63
:205060003D79C3400E2C55282F7DFC60354838403827E4024A600B203B2CC401D17F255BAD
:20508000017F00400C0124C3265301343D2654016F60234F40120104FF805E009F404E0450
:2050A000940050C122203C0A8F8275830002286190493F408303FE90494232BD3A370012C6
:2050C0004011022DFA8E205401B5073BDA020E80E42046034594F10D28D007122666AC077E
:2050E000EC602B200F06E06C7024904596202A2087031A90459525DB01459925EC0542F01A
:20510000D1854007401001B420203F02EC7009E0000B0290459A802F000F4012202F009DAF
:20512000602F03C185C32238F502EDF0A3488B0142FF260900E420062B4304F5FFEFF5D893
:2051400020050253D60F2FAA324906F0C8E4C4540F4832FD20152FB2200509E5D1540133DA
:20516000333354F8FF400C05D354074FFF2228390109D2448D0443AE4022C240080153AE1E
:20518000280704C80122E5C823CE0275C802400843D100C843D100C0F602191500C000C074
:2051A00001C002C003C004C005C006C007C0FF1225352EE70E07D006D005D004D003D002DA
:2051C000D001D000F302F7E0163E047F0112270B379004270B90313226F70603122715D012
:2051E000FF004000E012540290494321138E98014B613B63064F904146E07049201709E042
:20520000FFB4010790494674013189400E35C90031400F0002353C024947F0200307E06456
:2052200003701E90325D47950425C1BF0205208401255D402C204C202003461180222A537A
:205240000402022562EF404C014B0D204C010AEF2048002B400B4048004B2A01004B27A790
:20526000010314404701B401A04823F503255D80002025204202F074E432AD02E4344A227E
:205280006F2AA60161E023A40474FFF07D0224EC02256222272207FFE58954FC4FF58965E6
:2052A0005200893E7A0D89FB22AF8CAD8AEFB58C04FEEDFF200B03EFFEAD8A200803EFC4E8
:2052C0005430402C00CF602C0324FF92AB6005008E80380040203808BF22AF8DAD8BEFB5DC
:2052E0008D8038008D2038008B203824A643B700A440080143A445EE0301E5A4542FA540E1
:205300004400E9401545CD02A41122201C0075261101F6022052000760094A69040253F65B
:20532000FE224F14203705ECF5A9EDF5A7403206AFA9EFFEE5A7FD805E06AFA6E5A5700101
:205340001F206F08A5ED24FFFDE434FF4E40BA203004EF54C4442A807A018FA92A35603B90
:2053600001E5A943F50148A522EA01E5A72A0A01AD6E29A107F5FFED540F4FF5DB42B10068
:20538000EF33A400DC401101F5DD200500EC60050643DB1022904AB8438B22D203DB20E445
:2053A000FB200702F5DCFD20054016012DFA39510BEDA4F58285F083122A0BAEF060340743
:2053C000EEF5DD0DEDB404DB2024403F200610E5DBC330E401D3227BFF7A1F798790451200
:2053E000205034F305007900904515235D2E880052204C00E9440200E96F2E70CC02900037
:20540000032472439100AE266B2FCB00FF202405A801AC02AD032BAA604C0072804C057A59
:2054200026791622F92F8801740120DA089045187463F0E4A3F06022018D2244AD51134378
:20544000CE406DA04C205A03FD9046C7200D00ED205A8021A01B0A7D017BFF7E0002282212
:20546000FA7D3BB12E2A24F90512792190482720B9200901232280862B4C0124B240774011
:20548000B90290000424BA40470329F9EA3C2BA900DF206C027B018F51CD0DF090417D74E4
:2054A00005F07F207E0002253A218921A62BCA203FA07121D400EE60E34685203F023EFA19
:2054C0002240490FFDD39FEC9E22E47FD07E07FDFC90465C259F05E4904660F02240550189
:2054E0007F01323060990023407F04E9240922FF490D03A8070822AF0323AC7B1921470104
:205500007D13232440C901227E27F7214920DE00E020E5807601C41334F30001607D01FFCC
:20552000C3204D000A6BBA00E460094BD800E422584B5C4B243419204F4081207F02900A70
:205540000360B706AA06A907022F8733AB0110023B631103C7E0FD75F0AA9003CC122DEE31
:20556000AF82AE83EFC15B03AE02AF01208481A400222DB941254218007520620901435234
:20558000015356FE8556A027F40122FE20A500EE21D001AF035DFF2200611200A34122015D
:2055A000242036DF054E22FAF9F802267C40FC000A2093219D40B2218A234E524580354835
:2055C000C300D3821F0040204E600F017C00273A0142E066C800A566C842510227792E40D2
:2055E00006031F797822204B02022E2F6071004C205A067F070222837F0430120290122150
:20560000260B007478FD01CA45223A207005C3E99FF9EA9E21820207F92227560074474E56
:20562000007B21E10085225D032212563D430406BD54F84404F5BD201F0006277603ED906D
:20564000000727730CF0A3E05480F0547FF02235F0FA610B204D01747020A5400742CD2366
:2056600070009621180575D70975F418203C0003203505904305E09FFF27FA01E09E481108
:2056800000A32142A247A245A2CE04122FB1E47B775D052B82E92404F9235860F101433E91
:2056A00080F100E066A201F5F4C22E01AF0525DA210902E9240C202B00FA43300174253438
:2056C000AF20FE000620FE02E004F05B1D0322740129601E20A24E312094001340AA00F563
:2056E000218D04C3022C45EC6712006894EC07AA06F97B01222420603000FA411800E340DD
:20570000B73E8F02FD7C0022FF4017017404819C008D201C62B146540622E99582EA9583DC
:205720004064017405201807A804A905AA06AB07602A421541870BFD90303622903EADE02C
:20574000FF14F0382401400A80085D910202284830C506FE022ADCAF03EA60D561CB02A312
:20576000E02235E5400120C6232B0005232B02907FC031CB801F047F0122FF54539C02FEF1
:2057800022F526430107F520DE014AC02A300008264A0813E014F0E022E0C3132251001374
:2057A00034D204FCFF0220EE25AD53380122FFE03A0011020002120B120F020604021211B7
:2057C00013BC01B00620091213C113C300070403010213C813D60013FF0301E0096A0E7F93
:2057E000C67FB77F787E740371038D57C0FFE030000890454A7420F0904544641700A32296
:205800000F2901213F00EB2013084AE0FB904546E0F9A329DD0FE9F5837880EBF9E0A3F642
:2058200008D9FA904548E001150030C01539F600F92048427103FAF582EF3A3B04F0A3D9EA
:20584000FCEA600A09EBFE7980E4FAEBFC7830540B18E6F5F0E7A4FFE02FFDE435F0FFEAD6
:205860002DF0E43FFAA308DCE9EAF05CC503A309DED5242E00E6E00A9000EC409002E8E0E9
:20588000FA409000EA609000FA409000DA209000EAE001150030E0011500E6E0001509C363
:2058A00078807930E709FFE60837B204DBF6E433FF206300EFE00A6300F5406300F1E0006E
:2058C0003720F4E0006300F3E00115E0026300EFE00015E00163009FE000630146BAE0021F
:2058E00063029046BF22C20146BCE00031027880EDA05D03EBF404FB202C42B302F582EC4B
:20590000401900E020AB056FFEEB5EFEEF32D105DDF122900783401D024C60092009021278
:2059200069C4585F0322900A7024B829570A5FF5F1C4124AB545F0601D4013032DFAC003E2
:205940002A3F000160140212F28B2A2C0202D00340321FE4900A8EF1EC7126E054F06440D2
:20596000700241EDE4FE75F0EBEE712BE0FDB40109900A028FEEF037CD0423EDB4020B202E
:205980000C3D080404EEF0800FA0220454F0FDBD8034D732290304C9EF603B7A008F2969A2
:2059A00020052A1A204A0312604A50200603E51530E12006037131900025AB0DEEE030E4B7
:2059C0000990000C12FEFA549FF0401400BE4014237101BE05201700C220170230E11A40DA
:2059E00017000940170220E52E206C03EF9000C1400D02B4FF20405D20110290000B20106F
:205A0000423D02E0440125C6422A00CF43E7401F05F1B5124ABC50602A01F56C202C20CDF9
:205A2000303120E900743476020671F0209100E22C064006002D25D4016BA120FF00FF61B8
:205A40000006147126EF540FF0200F31C707E56CF1B531BF800A202701E005615420420070
:205A6000E03C37205202E56C9025C1012DEE406E00FF200F217A048CEFF1ECFE26F60AEB9A
:205A8000ED712BE0FC700C900A8D20B00B02EDF00F8006EC30E0027E01491800DF202800AA
:205AA000E03E2D0A0DEFC394025007EE7004A36133018DE0380E0704501EEFF1B57DEB67BB
:205AC000AB402801441020DB419106712BEFF0EEE1B589370822EF7002A10CB1174A40063C
:205AE00004E924BBB1FB205E40101424B8B1FB9009DEB11612C96AF1AF7A0979DF127D1621
:205B0000201600B6401601E6F03833063A9009DB12B4BC4038400904CE9D129F5528901AC3
:205B20009009E1E0C4540FF404FFC3740B9FB10D24D8F1A4B10E24B1126B54402638CA05EB
:205B4000C23F9009DFE0201900B6601905B7127ABA44802039402501B1FB201704D8B1FB94
:205B60002F04200702B9F1A4208221D0200B00B8400B02E6E0FF204301F19E406304FFC496
:205B800054F0FE203204BB12D049442E7F02E3440420043D1939A6401F0354F0FE4F2037C6
:205BA00002BCF1A4201002BF0F0B202A04B7B1FB4440202400EE209F0DFED39404AF0640F6
:205BC000027F04B10EF1CE82D32902040979E2F1AFA2D3012283206C02129D8D20350020E0
:205BE00020350290066560B402B1FBFD204B0DBAB1FBFBC003B10E12B3A012EA5F20102029
:205C0000BA0212FEF1C0310212FF03400A01E9BD231B019AE826192049285C0422F09040FC
:205C200049600840070E2E1AE924E3B1FB6014E4904060B11636E5057ABA7E217F2F26D094
:205C400001807A216B0201B1FB292204403A12A7FA20203C7D201B201620C60230E71920F0
:205C60000821AD0220E010200800BC4070077CB504047D078008200F208B01F1E420440048
:205C8000354058E0283602900A86645A0290404822E50AAE04AF05128806AC06AD0720184A
:205CA00000E026B006FF0223199043D040C600247AB5051228489043DB26DA80137AA627E0
:205CC0003503900A9AEF20D520AE09FF30E775540F6401706F209C21400E12CFC570649036
:205CE0000666E0705E90404C04202420CA0230E337201D20CA411A17FE9D24BD1298D95404
:205D00000F7022B117129D8324BEB1FB54606015802121BF0F240412FF857D6E7C0002A0DA
:205D200056E490066B2043203A20180D75F03EA4FDACF07E207F6CA1BAB1612D0520E71304
:205D4000900768319F030312A0C020120EB2F1DD12A1D2F1D57A07798712FF4E20A703E067
:205D600090078635B728D4201E02E4F1A42209030779867F35BE0570127ADCF1F423205862
:205D8000EA0A4002E19912FF2A5013E0FF2360000224B01304B117F1CEF1AF12FF3612885E
:205DA0005C12FF6AB11624DF40C10057200800E64008005D200800E74008005E200800E872
:205DC0004008005F200800E440080055200800E540080056200800E925630912FEE3F01231
:205DE000AC8E129D9421B7014CF0207C03E06011A3216701F1AF2090044079507F0542943E
:205E00002016027F01605111024970EF203A00DC203A0345F0601F200E0212FF6182CA2009
:205E2000C640160212FF73A2CC2BE00000415801E75C428C008A205406E924BAF9E43AFAC0
:205E40005DE92A300290478B29FC247200A42A7A0174006A44248945F005E924DA2224BD47
:205E6000402B25E3054048F002231E200C01FEAF2E5F05F00A842406FD2908247802E4FF2C
:205E80002220A3034D127BD7200602507D053E8744790084624B06115C1229E054072FCBD9
:205EA000026005EF2FBD0F1712FF8E25E0FBEC33FAEDAE047803C39BF401801D2016E002A0
:205EC0000F02FBAA06401ED590052BFFEE3AFE22438A83446A8800FA20A55ED9256C07FEBA
:205EE000919E24B81285FB264C02EF54F02420010F4D202C0EEE14605D147002618D24FE0E
:205F0000700221BF40050C61F9240360028187919E127B30813004127BB01287C3F9017D42
:205F20001D204900B620E403FAEF919B24A0019F55200680591512C7394F919B12CF7874E2
:205F40000A919BF1177409818412C239202E44C640890485F530E034200F00032088023085
:205F6000E70C2009403864E0801E0020601400B7201E648C20200001206001800760080180
:205F8000C2BF20B180270130E1403C6027447E201E605200E2E000150010E0012AE001521C
:205FA00045480290122A4D900F30E5027E20EF7F0030E4027F40EF4EFF2041408A06549F42
:205FC000FEEF54604E20D100BA2083401505D91287A47F09201E00B12010069188F117EF57
:205FE000818480830420E60241682018000920180A127F03900A45F07404C39E3C2A0104BA
:20600000F0217060C0201400E03DC7202500BB4131814E21592518E10050012283201E407A
:206020005D00FF602D0D03FDE433FCD3EF9DEC124E9F4037243E601600FE201700C32D6D2C
:20604000215E01B3A0804602EE240A402A02919E2D2F0900FAE0034F612F4654E1017D03D1
:206060004480F11E217E20B90330E00812668F018006400761542080609F00E420F8E101B3
:206080004800BB20D8C14801115F42A30060221E0041202C00B6201944A70078200B402597
:2060A00003FF20E06D200A403A0220E4632009604D06EF4408919B24BC202B207624B50582
:2060C0001287CE1247D0406340132281411744C9034410F11EA0604012401D02129F914099
:2060E000D801EC3A22C900BE218220418021049F12C9628041E640770154F721E6406E20F4
:20610000630230E3182009803B00982009405820635A7B017F00200F4019200F02240B2FC3
:206120004063416FA1CDA124419F0174026125E2085D0612C96A741D919B80D6817D0290C7
:20614000066D24270012C1C5017F1D81C746A6037F26919E2227202F406503FEEF042E20C2
:20616000712315223920876266030F900A44292943110220E646E003810005E00D8180363B
:2061800000F0220B0244E04F802200E040EF630247B701800A202406B112C07C12288E209D
:2061A00009432D63830011A08620820124D82126012F042009408C21390022409B00FE40A5
:2061C0008644C800B9410100EE2016A0100B229009CF12770D9009D5D12326B8031287A4B3
:2061E000EF233703E1047F084151029009D821900FA94D9009D4E0FF74A9C39F500374A9F1
:20620000F0201502129D8D20660220E52120192038E200AE029009D12066E10030212E807A
:206220002020B421DE0109D6473D03A312A942404201E116207B401022232515032BD1255C
:20624000E9639018F55FB4FF08EE54F84401FE8016EE54077011900762E0B55F0A20130034
:20626000FE4883014EFE203E2097254F08EFFDE5F08DF0122A902011C0931F57300834EF18
:206280006404600A9009D0E0540F6406701012FF57BF0203D38001C39221D20222800EE03C
:2062A000030F07C22212C842ED4F80210301D0E024DC295501FDEF20F10AD0F0D208D12023
:2062C000E924B712872940213101AF06206403115FE48FE0066F0404D120116A601A209192
:2062E00004D124E9240641630712C963D125900A7F28E3400501DDC26043400A01FD862316
:206300008F0202288E206249CD01D8023165014974202700E9C762000D400F22A104E019F8
:20632000F10F2441FC212101BF0560BF004023CF069002851F1287F420080012278A0115DA
:20634000E0E7008A01F10F437D0087478C2041208F05FF6AF10E24DF21A9278F200900E6C2
:206360006009005D200900E76009005E200900E86009005F200900E460090055200900E5CE
:20638000600900562009A794200900E34013024977703A9B000329142098475E00456775B6
:2063A0000077E70075A016E7037540A6019D9429F720E32281022224D8411E0022215022E3
:2063C00082227E06C2127D099009CC20FF041298C824074B250107662C5A0478F012FF3FF6
:2063E00020CC097A06796712CFF3203B1846A106FEDD12C2B4600D802A0185FB65EDC00CFB
:206400001320E703029015901221E06068300C651298C024052023213C02640570401A0440
:20642000EF6401704E256C0230E748401C45D30230E318400A000A20272451200A021298D1
:20644000D724408450017E002010A01B0091200A0A129FAEE92FF9EE12FEAC7A34290D12EE
:20646000C2B8603020010302978E200427201E606D0220E71C200A031298D0E9239E038573
:20648000FBB40320AB03C012FEA820B6037002E18E200C0124062017209442CA117E00B4B9
:2064A00002027E80EF4E9007851285164A6047427023C8007B4B8903C812C9B3495522E8F6
:2064C0000307FF12852C92201A27E5029009C822D801FDBD2AEE074080027D00EE4DFE2643
:2064E000E52049067F80EE4F90066C5C3E01066C2891406D410202FF540F47F501C1832847
:206500000601E13E400A04E168240460A08F41480EFE740AD39E4002802AEF20E702C10DD1
:20652000208E02E04440603F411A2111059009C9F0600C33FD29F70505740B9E400A217600
:206540000412E42CE4024180A14C04E12730E324400D40520DFDEF240DFFE433FEC3ED125F
:206560004E9D504106617165CE4023E12B7E265AA5990109C223EF424902122E4FE0014DC1
:206580000015400A40B1021298BCE103C9C01620C800FE400B409F0624F4C39EC39FFF20B0
:2065A000C621910187A440160008215F26F2036002619C400E404841A80209C9E03B6D01C3
:2065C00061134013414E207C0230E60D42CD604802440D802F40C00C000922D9202802127F
:2065E000CA6E223E0447D012FF974C1E60660008606642E40685FB30E702A147202760509E
:206600002173800C8113E00FC5205020304095A28F02CA6EE9273E021298DB4D25E02D427C
:20662000615382AB02640360204301E558258C00464068E0268CA0498D1000872BB0018075
:206640000922C543BD44910245D20980E240BE03540F640F406B40654150414DA1176EC4C1
:206660000412CA755021401C402C21B300FF440A01C9F74244813D6EEF402040A300FF27A0
:20668000CAE000180520800EEF30E2E0014E47364028000B2173418426AA02EF81CC4011AD
:2066A000405B231801FDEF206007FCEDC39C400281D12017215406ED7E00291298DF62097A
:2066C000601360660230E06F4097000EC06A0212CFE7388801EC1424BC02B505086200015F
:2066E000048042150512CA6D12A7EA220F4400407361F800ED204B00A6205F604B0120E321
:20670000A00C4084E4007803540F7070803506541860668057ED205A0070405902127DD9C9
:20672000E00359E2075304EC146D7037C05A0230E32C400AE007580017A0580060E5023C53
:20674000502F402B4182E207D30014E203D34B68018076402A4056213341080066400F41C7
:206760007F0530E02BED2402401520DD4020215001FFED282C00442010E1044E0470328016
:2067800022ED31AB01402AA0190224FEFF3B6E03FE12D7BB259600FF45BA01B507E10460BE
:2067A00000016483000421BC418D0030250431A801E18E200702127B30460D2623258780F2
:2067C000128AB20198BF602F23B1202702CA75404006A098209720396041886B640C43F51E
:2067E000006E602D202640D003FE30E03820276A71065406FDEE54066DC01E40DE00FE20B1
:20680000DF5165806121DE43CF420D0303F0E18E2663802BE0011600012016405A4067405A
:20682000C50206EFF4E00322E200CB40E5E2002E20302644E40EEC40700124F6602BC4BA55
:2068400041C32CAC40698079034404E1632044607501FF54351C271702D39D50202110EF0D
:20686000541F75F008A47C002DFFEC35F0FEE0D3259FC12540A300542896202C02C39F14C7
:20688000214B208401EF133AD1121F29127EC5FEEF540712E8F78002C333D8FC5E6188C09F
:2068A0006D5280C06E02541FFF64AA203B2501E00EC36069001F2061A0CDC58A45D305EF86
:2068C000802512CA9F358E07066CE054BF6F7042C059213E017035E000730003256A0180C4
:2068E00026282E06E0FFC0079009C5238302900A10284922CC200B021222BA267E01D0E0F1
:20690000275C00666246412323F121A107030298AAEF30E77A405741F1E82506E5007606A1
