:020000040000FA
:200000007B017A2D7999902D0D12AD1C12AEB57B017A2D7998902DCE1223247A2D799412B3
:200020001C62902D98E070147B017A2D79947D04FF121C58902D99E0543F8010902D99E0C4
:200040004440F0A3E0F0902D99E0547FF0A3E0F07B017A2D7994902C707405F07F677E0024
:20006000116B7B017A2D799912AD19902C6D122324902C6BEEF0A3EFF0E4902C71F0A3F05A
:20008000A37403F0C3EE940240037F0022902C70E0F9FF902C6CE02FFF902C6BE03400FEB8
:2000A000D3EF9400EE94024029E9FDE42FFFEE34FEFEC3EF9DEE940040037F0022902C7006
:2000C000E0FF902C6BA3E0FEEF2EFEC3EF9E902C70F0902C70E0700221A3122E72902C6CF6
:2000E000E05403902C71F06016E0FFC374049FFFF0902C70E0FEC39F501AA3EEF080159012
:200100002C70E0FFD394044006A37404F08005902C71EFF0902C73E06065E4FF902C71E053
:20012000FEEFC39E5014902C6D122304E92FB19BFE74802FF8A6060F80E212D3A1121889D8
:200140007F0512AAD6902C71E0FD12ABEDE4FF121C5812D3A1121851902C71E0FF902C6D36
:2001600012CB9912ABED121C85EF7008902C737403F0800B902C73E014F0E07097802490F6
:200180002C7012BE38EF9E902C70F0902C72E02EF0EEFF7E00902C6B123ACB902C6E123AC7
:2001A000CB01D2902C72E0FF227403121FEC902B4A122304740F121FEC902B4A129761747D
:2001C00001121FEC9025F4E07BFFB402157A2979F9C003C002C001D14212234DD13C740DB5
:2001E00080137A2A7906C003C002C001D14212234DD13C740C121FECE4902B53F07B017AEC
:200200002B795312AE4D12A3D49027D1EFF0902B53E0601F9027D1E0B401187BFF7A2A79B1
:2002200012C003C002C001D14212234DD13C7404121FEC22902DBE122324902DC1EDF012CC
:20024000CC9F128C617A2079717F14121C80902DC1E0FF902DBE122304128C617B017A2049
:200260007985121C80E4FF902DC1E02414FEEFC39E400974002FB1BCE4F0800E74712F122A
:20028000D49FFE74002FB1BCEEF00FEFB410D812A7E3123B7E12A7E312A58FE4902010F088
:2002A0009022937410F0902DC1E0241412D4A8503974712E12D49F12D4DAB1BC12D3E870D6
:2002C00021FF902DC2123B6DFE74002FB1BC12D3C0B410EE12A7E312A58FE4902010F012D8
:2002E0003B78902293E004F080BC902010E06017E4FF902DC2123B6DFE74002FB1BC12D3D0
:20030000C0B410EE123B78229025F6E024EF7002619B24BF60742476605C24E0601D24FEC8
:2003200060252436600261BD7E607F14121C6C902587EFF0B1A59025878005B1A59025888E
:20034000E0902D89F0803C7E607F01121C6C9025F8EFF012BEDF121C6C9025F9EFF0B1A51B
:200360009025F8E0902D89F09025F9E0902D8A129D057B02802212B998902D93B1A2902D4F
:2003800089EEF012A9E57B01800E12B9BFB1A2902D89EE12A9E47B0102BA56E4902D93F0EA
:2003A000F012D418B1A57880E612A9E17B0112BA56902D93E004F0E0C3940A40E422E41240
:2003C000BE3FE0FD121C717E607F007D56121C7112B9AF12B99F12A33812D4B17E607F6DA3
:2003E000E4FD121C717E607F14E4FD121C717E607F01E412BEDBE4FD021C71902C99EDF0FD
:20040000902C98EFF0902C9A122324902AD0EFF0E92401B19B24FE606B24FE700281BF1462
:200420007002A14024046002A191902C9AB195D394094002A191902AC2E0600812C931E479
:20044000902ACBF0D124B19B6007902C9AB195700BE4FF124FA4E4902ACBF022902AC31276
:2004600096BC6003123CFCD124B19B902ACBF07E1D7FFC12533F902AC2EFF0902C9AB19516
:20048000FF024FA412D4007002A19112B686902C9E1297617403121FEC12546A902C9ED19D
:2004A0002E902ACBE0FF902C9ED127D13412C2D97404F0902C9812C3036002A191A18ED17E
:2004C00024B19BD394094002A191902ACAE064027002A191902C9AB195D394E84002A191FB
:2004E000902C9A122304E92404B19BFE902C9A128A22B19B12D4E2FE902AC8F0A3EFF04EAA
:20050000602E902C99E0902ACDF0FD7E607F0F121C71902C9AB195902ACFF0FD7E607F0624
:20052000121C71D124B19B12B74E12B3FB02B71FE4902ACAF07E607F0DFD121C7102B4E731
:2005400012D400604C12B686902C9E12976112B785902C9ED12E902ACAE0FF902C9ED127FB
:20056000D134902AC6E0FF902C9E122304E92404D134902AC6A3E0FF902C9E128A22D1344F
:2005800012C2D97406F0902AD012C303700312B63B22902B7A122304E92402F9E43AFA02BA
:2005A0001F84EFF0FE9025A5E0FF9025F6E0FD22F582E43420F583E0FD74002EF582E434A3
:2005C00022F583227E607F00121C6CEF6456702E7E607F12121C6C902588EFF07E607F6D32
:2005E00012D4B1E4FDFCFFFE1288B0C24612A3FFE4902600F012B9AA12B95902C21B12A3CD
:20060000E9E412BE48E0FD121C7112974512D42312974112B4B17418F0121C7B12A332E431
:20062000FD021C71902C9A122304E9240322122304E92402F9E43AFAEF021FEC902B50020B
:200640002304902B4D022304902C2012C17F902C221296CEB19B147002E1AF147002E1589F
:2006600024FD7002E13F0460030288AF902C22B19512D4D2D127B19BFF902C27F0902C2257
:20068000122304E92404B19B902C28F0902C26E0A2E59230A2E69231EFF4600AA3E0C39473
:2006A0006440030288AF902C28E06003B4FF0E7F633031027F009025ABEF02882A902C28C7
:2006C000E0FFC39401400AEFD3947F5004EFF08018902C28E0FFC39480400EEFD394FE506D
:2006E00008EF248175F03CA4F03031103030069025AB7463F0E4902F0CF0800E303005E4B5
:200700009025ABF0902F0C7463F012D3CD400512D45F800512D30BC39FFF902C28E0FEEF34
:200720008EF084902F0AF0902F0AE0700204F0902F0BE0FF70030288A31253A00288A390E4
:200740002F0BE0FF70030288AF1253A07E607F6F9025ABE0FD021C71128F20902C2612235F
:2007600024E94A70030288AF902C261223047426121FEC902C261297617403121FEC90256F
:2007800037E07003FF80077E607F6F121C6C902C26D12E902C21E0FF902C2612C2E1740338
:2007A000F0902C2012C30360030288AF02B63B902C22B195FF12D4D2D127B19BFD902C2707
:2007C000E4F0A3EDF0EFF4701012C3BBE0902F0CF012D37E121C718052902C26E070109091
:2007E000253712D383121C717D0A7F0102A6E6902C26E0FFC3946440030288AF902F0CEF4F
:20080000F090253774FFF07E607F6F902F0CE0FD121C71902C27E07002A3E0600612D30D76
:20082000B5070D902F0CE09025ABF012D317F02212C27B9401EE9400400BD3EF947FEE94DE
:20084000005002802212C27B9480EE94004020D3EF94FEEE94005017EF2481FFEE34FFFE70
:200860007C007D3C122020902C27EEF0A3EFF012D3CD400512D45F800512D30BC39FFF7E1E
:2008800000902C27E0FCA3E0FD122032902F0AEFF0902F0AE0700204F0902F0BE0FF6003F2
:2008A0001253A07E1E7F8812533F902F0BEFF02212D3437E607F06121C6C902ACFEFF07E16
:2008C000607F08121C6C902ACCEFF07E607F0F121C6C902ACDEF12B760902DD67402F01282
:2008E0001C767E607F0D121C6C902ACAEFF022902D10EFF0E4A3F0902D10E075F006A424DA
:2009000093F9742935F0FA7BFF902D12122324902D10E0C39405400221A0902D1212862753
:20092000511512859B902D0DF012A7DC12AEB5902D11EFF0A31297276401701E12976451EA
:200940001912859BFD12D469902DD6EDF0121C76511F12859B12D469800E902D1212976194
:200960001220B3AAF0F97B00902D15122324511F12859BFF902D1512CB9912A7DC121C8528
:20098000EF601D902D12128627511512859B902C70F0902D1512230412806B7F0512AAD68B
:2009A000902D11E0FF22510E7D087F0D121CD5510E719B40547E607F8C121C6CBF420B5116
:2009C0000A902DD67408F0021C767E607F8C7D42121C71E4902CCDF0902CCDE0FFC394080F
:2009E000501674C52FF9E4342CFA7B011236C8902CCDE02402F080E0510E719B50D5510A9C
:200A000012B4B17408F0121C7B227E607F847B017A2C79C522F9E43AFA1220B3FFAEF090A2
:200A20002D12122304E9240522902A9C122324902A9FEDF06039902A9FE0D3940F40037426
:200A40000FF071847D0FE4FF121C58902A9FE0FF902A9C12230491617184121C807E607FF4
:200A600051718412B4B1740FF0121C7B12ABB422902BF8123FCD128598902BFFF0902BF9AC
:200A800012862712859BFF7169E9240412859B902C00F0902BF9512212859BFE7169E9245F
:200AA0000612859B902C01F07169E9240712859BFC902588E060026168EF5480902BFEF081
:200AC000A3E024EE604714605624FE606B14700261531470026156240660026168EC24093E
:200AE000FF902BFCE06F60026168902C00E0FFAD06902C77ECF07169E92408F9E43AFA90D9
:200B00002C78122324902C01E0FB02AB41902BFEE0600302A7AF7169717D12D47B61DE9006
:200B20002BFEE0600302AAF9902BFCE0642570387169717DFA029C36902BFEE06005E4FF65
:200B400002B491902BFCE06409701D7169717DFA02AEA502AB0E902BFEE0600302ABB4711D
:200B600069717D12D47B512922902BF9022304ED121FFE902D1EE0900003121FFEE924049A
:200B8000F9E43A227B017A2A79A022E4FF11EF7F0211EF7F0111EF7F0301EF902F04122373
:200BA00024121F8412D4CA12D496500C12D48D12859B5F12B6EA80EFEFB4FF02C322902F67
:200BC0000412972712D4CA12D496500C12D48D12859B4F12B6EA80EFEFD37001C322902AD2
:200BE0003D122324902A40EDF0603E902A40E0D3941840037418F0912A12D423902A40E034
:200C0000FF902A3D1223049161912A121C807E607F60902A40E0FD121C717E607F15912AEA
:200C200012B4B17418F0121C7B227B017A2A7941227B017A2079277D107F36121C587B0100
:200C40007A207927902CA41223247A207915902CA71223247A12794312A4537B017A2079DD
:200C600015902D6E022324902C82EEF0902C7D12C17F7B017A257938902C831223247BFF66
:200C80007A2979C89161902C831223047F02121C80902C831296D87406121FEC902C7EE067
:200CA000FF902C83128627128634902C8212A78FE92404128634902C835122F9E43AFAC085
:200CC00003C002C001902C7F1223049161D001D002D003121C807B017A257938902C8212E8
:200CE000D4EAA37401129D05902C7DE0FF902D30123FCDC248902D36E0FFA3E09027D6CF8C
:200D0000F0A3EFF012CDB39027DBE0B40202D2489027D1E0B4010330481A902D30E0FFA36A
:200D200012C2E1E0902CE4F0902D3512A32B12D4C2021CB2902D30E0FFA312C2E1E0902C84
:200D4000B7F0902D35E0902CB8F0A312D4C2902CB3123FCD12D065EF7002FF22902CB9E0C0
:200D6000FCA3E0FD902012ECF0A3EDF0902CB312A78F902CB7E0902CAEF0902CB8E0902C65
:200D8000AF123D2C129DCA902CBBEFF0700312CEA2902CBBE0FF22902D1812C17F125D5304
:200DA00024FD606F24FE7002C14624046002C19F902D1AF1197401121FFE900002121F9DD9
:200DC000FF7002C19F12C979902D1EEFF07002C19FD1A0E94A4B7002C19FD1A87459121F2A
:200DE000ECD1A89000017402121FFE902D1AF119121F9D12D44BF119716FFA12C959D1A8E7
:200E000012D455F0902D1812975212D35B6002C19FC19C902D18E0902ABCF0902D19E09017
:200E20002ABDF0902D1AF119121F9D902ABE30E6057401F0800A7402F09000031412D39820
:200E4000902AB8F08068902D1A122304900003740112D398FF12CA11902D1EEFF06040D19C
:200E6000A0E94A4B6039D1A87459121FECD1A89000017406121FFE902D1A12230412D39B15
:200E800012D44BF119716FFA12C9E8D1A812D455F0902D1812975212D35B700312B63B222E
:200EA000F120902AB9122324902AB90223047E1E7F0BF123D1A2E94A4B604FD1A874591287
:200EC0001FECD1A89000017404121FFE902ABEE07F01B401027F81900002EF121FFE902A5D
:200EE000B8E0FFE92403F9E43AFA12C9B7902ABDE0FFD1A8902D34740AF0A3742512C30762
:200F0000700812B63BE4902ABEF0221223049000017403121FFE902BA71223049000022229
:200F2000E4FFFE902F411259CC12D07740077B007A00790022902F41E0FFA3E09026BDCFC5
:200F40001259CD7A27790712B64D7A27790722902BA512C17F902BA712C3A0121F9D147005
:200F60000302906C24FD700302907914700302908624FA700302909D240960030290B5E4B7
:200F8000902BABF0C24712C6F7BF0107F1167401121FFEF116121F9DFF7B017A2B79AB9008
:200FA0002DAD1223247A2E799612BBA2924720470302903BF120902BAD122324902BAD127C
:200FC000D473902BADF10B121F9DFF902BADF119EF121FFE12C6F4902BAD129C6B90000428
:200FE000E4121FFEE4902BACF0902BAB12BE389F5027902E961223048E82123B72FF902B09
:20100000AD128A22F9E43AFAEE7C0029F9EC128636902BACE004F080D0902BAD1223049052
:201020002BAB12D4EA902BA5F152741EF0A3743DF0902BA612D365707C8060128F20902BAE
:20104000AC122324902BAC12D473902BAC128F0B121F9DFF902BAC128F19EF121FFE90001C
:2010600003E412C9D7E4902E99F08046128F1612D36C902DB4F002BD72128F1612D36C90B4
:201080002C8AF002BC1712D40C602A12C3927406121FFE12C6F712C2E8701A801512D40CAD
:2010A000601312C392740C121FFE12CA1A12C2E8700312B63B22E0FFA3E0FDA31223049092
:2010C0002BB5E0902D05F0902D0012C17F121F84902D06F0E9240112859B902D07F0E490BF
:2010E00025A6F0902D00E030E3069025A67401F0902D05E0FF902D02122304128C617B01AB
:201100007A2579AC121C80902D02D1D8128C617B017A2579F67F0A121C80902D01E09025E2
:20112000A5F0902D05E09025A3F0902D02F127902589F0E9240112859B902584F0902D0005
:20114000E07F0030E1027F02EF4425902583F012B7D5902D06E0645E70159025A6E06004F5
:201160007109607A51EF902C94F012C315806F902D06E06433701E9025A6E0600D90258419
:20118000E064036059E06401605451EF902B7DF012C0238049902D06E06486701E9025A6BA
:2011A000E0600D902584E064116033E06413602E51EF902B07F0129A798023902D06E0641B
:2011C00072701B9025A6E0600D902584E06404600DE064066008902D0251FAFD711090278B
:2011E000D1E0B4010A9027DBE06401600241EE902D06E0645970259025A6E0601471097089
:201200000241E9E06403700241E9E06405700241E951EF902D1DF0128D9741E9902D06E0CD
:20122000B420119025A6E060067102700241E912BBFC41E9902D06E0B470159025A6E060AF
:201240000A902584E06405700241E912BC0141E9902D06E0648570239025A6E0601271022E
:20126000700241E9E06405700241E9E0640B607951EF902BAAF0128F4F806E902D06E0644B
:2012800073701A9025A6E060097102605CE06405605751EF902C9DF01283FB804C9025AC38
:2012A000E0647A70189025A6E0600E7109603AE064036035E064056030F1D3802C902D0643
:2012C000E0B4FE0A51EF902C1BF0F16C801B902D06E0642670139025A6E060047102600948
:2012E00051EF902C25F0128648E49025A6F022902583E0FF902D01E0FDA3122304902D055C
:20130000E022902584E0640222902584E0640122902DF5122324902DF8EDF0902584E024B0
:20132000FA602D2408700261F324FA6002810AD1C37405F0E4A3F0A37486F0A37401F0A37D
:201340007404F0E4A3F0A37475129A697408803E9025F6E06005E064017039902DFA7413B7
:20136000F0F0F141902DD6F0121C76D1C312D4BA902DFAE0FE442090253BF0AF06F145122A
:201380008C617A25793C121C80129A6A7417F14EF111805C9025F6E06402706ED1C37407C2
:2013A000F07B017A2D79F9902B631223247A2D09902B661223247A25793C902B6912232436
:2013C0007A2579F612B5FC9025F6E090253AF0902DF9E0C43354E0FFA3E0541FFE4F90251A
:2013E0003B12BED0902D34F14EF1119025A5E0FF028CED7E607F15902DF5128627F9E43A32
:20140000FA12B4B17413F0121C7B22902BB112C182902BB0EFF0E4902BB6F0EF7F0030E14A
:20142000027F02EF4425902BB7F0902BB2F12764986002C199E9240112859BB4040812D050
:20144000C7EF7002C1B6D1B96003125CEE9027D1E064027002C1A9D1CB12859B6480600DDB
:20146000D1B96003125CEE902BB67401F0D1CB12859B640470587F0A12D125902BB21285BA
:2014800095700FF13A7D10FF121C58F11912A43980087F0212A42C12D1117BFF7A2A793F4D
:2014A000902CE47403F0902BB7E04420902CE5F0E4A3F0F109121CB2EF600C7F0A12D02C9B
:2014C000E4902BB6F0801DE49027D1F08016902750E07010902BB6E07002C1B6D1B970029B
:2014E000C1B6C1B3D1CB12859B64807047902750E0600312D1119027DFE07008D1B9700270
:20150000C1B6C1B39027DFE0F4600312D16112CE97902BB1E0902284F0D1D5128C6112CE61
:20152000037F08121C80202E07C22F12CF56C1A9D22FC1A9902BB31250FB902BB5E014F002
:20154000902BB2122304902BB7E04420902D2CF0902BB5E0902D2DF10A129FC2902BB5EF4F
:20156000F07002C1A9E0F47002C1A9902BB3E475F00A122087902BB5E014F0E0C394025098
:2015800002C1A9902BB2F12724686002C165D1B96003125CEED1CB12859B24FA6079240410
:2015A0006002C1A9D1E3E94A7002C1A912CDB3F12DF1617403F12FD1D8E4121FEC12D3DA9A
:2015C000E94A60249027DCE0FF902BB8128627F9E43AFAC003C002C00112D3DA128C61D0CB
:2015E00001D002D003121C80902BB8128627F9E43AFA9027DCE0FE7C0029F9EC3AFA74EFC2
:20160000121FECD1EFEE2404902CC0D1F512A254EF7002C1A9804712D0C7EF7002C1B61268
:20162000D052600312D022D1D5128C61F13A7F10121C80F1197F0112A42C12A43912CDB327
:20164000D1E3E94A6063F12DF1617407121FECD1EF902CC07402D1F512A254EF604BE4904A
:201660002BB6F08044D1B9600312A6EBE4902BB6F09027DB04F012A6FDEF902BB06016E015
:20168000FFA3E0FDA3122304902BB5E0902E12F012C1DA800F11B6800B9027DB7402F090C9
:2016A0002BB011B6E49027DBF0902BB6E06007D1B9600312A6EB22EFF09027E1E0FEA3E0E0
:2016C000FF4E229025387472F0A322902BB2122304E9240122902BB2122304E92402F9E4AB
:2016E0003AFA227B017A257938902BB8122324902BB8022304F0902BB7E04420902CC1F04D
:20170000A3741EF0A37451F0E4A3F0902BB1E0FF22741DF0A374B1F022F13612B4B17410EB
:20172000F0021C7B902B7E122304021F847498121FEC902BB8227E607F727B017A2079EA03
:20174000227E607F157B017A25798B227403F0902583E0902D35F0A322902C17E0FF902C20
:201760001C122304E92401F9E43AFA22902C1612C17F902C1C122324128598902C1FF07B09
:20178000FF7A2979C812CB9C902C181223047F02121C85EF703C902C1FE0B4040DF15990B7
:2017A0002C1BE0902BFCF0028A70902C1FE0B4050DF159902C1BE0902C06F002AF4A902C74
:2017C0001FE0B4800DF159902C1BE0902C10F012C47D229025ADE024FD70030299E624FD1F
:2017E000603524056003029A68129BA47402129BAC90253AF0EDA3F0907FC2129BB0902562
:201800003CF0EDA3F0907FC4129BB090253EF0EDA351697408415F2044024168902A94E066
:20182000FF700241689025A5E06F600241687B017A2579AC9025A3E0FF902CF5E4F0A3EF4C
:20184000F07F0F7E1D121CDFEF4E600221C69025AEE07F0030E7027F01902A99EFF090259A
:20186000AEE0547FFEA3E012D4E2902A92F0A3EFF012D42AFFE43AFE902A92E06E7003A325
:20188000E06F600241689025A3E024FAFEE434FF902A96F0A3CEF0EB4A700B902A96A3E05F
:2018A000902A95F08016902A95E0FFA3E07003A3E06F6008902A99E07002416891AA902A92
:2018C00092E0FFA3E0902A8CCFF0A3EFF0902A89E0FEA3E0FF7B017A2579B0902A96E0FD79
:2018E000A3E0902CF5CDF0A3EDF0121CDF902A89EEF0A3EFF0902A93E024FFFF902A92E04C
:2019000034FFFE902A95E0FD7C001223C8902C2F1222BB902A96E0FCA3E0FD7B017A2579D7
:20192000B0123979902A99E0607571A47407F0902A89E0FCA3E0FDECFF902A8FE0FEEF6E9D
:201940007048A3E0FEED6E704191FE7B017A2A799A122F20E433902F6B12D4FA902F6BE0F4
:20196000FF7E00B401027E0190253BEEF0EF7F00B401027F01123A8B902A94516D740412D4
:20198000974E741DF0A374C0800C90253A7401516912974C9122F0128CED12C452816490A0
:2019A0002A921250FB12C41271A412C44A902A92E0FCA3E0FDEC90253BF0EDA3F0902A94AF
:2019C000516D7405415F902A8EE0FF740AD39F4002416891AA71A47407F0E4A3F0902A94AE
:2019E000516D7403807971A47404F09025B2E0902A8FF09025B3E0902A9071ACFF9025AEAB
:201A0000E0FBEF6B7001E4704D12D5027001E47045907FC271B1FF9025B0E0FBEF6B70018F
:201A2000E4703312D5027001E4702B902A89741DF0A3740FF09025A5E0902A9412D4FA9074
:201A40002A94516D12974C741DF0A374C5F0128CEDE4FF023A8B916390253A51697403126D
:201A6000974E9122F0128CED22F09025A5E0FF7B017A257938902D3422902B0212C17F1208
:201A80005D5324ED7002613D2402600261917192E94A70026191719E7486121FEC719E909C
:201AA00000017412121FFE124020902B0C128F19EF121FFE7E2B7F08124023902B09E0FF17
:201AC000719E916E902B0AE090000412C3B0E4FF919012C893719E900007EF121FFE91294B
:201AE000EF14FF719E900008EF121FFE902B107401F09129902B10E0FEC39F5021719E1298
:201B0000D391FAEE1475F004A429F9EA35F0FA902B10E0FF9190902B10E004F080D49129B5
:201B2000EF2408902B0FF0FE902B03516DEEF0902B02129752129711128CEDEF227192E97E
:201B40004A604E7486121FEC719E9000017414121FFE902B04128F19121F9DFF902B0C1200
:201B60008F19EF121FFE902B04128F19121F9DFF12C825719E916E902B0F7404F0902B035C
:201B8000516D7404F0902B02129752129711128CED227B017A257938902B0C122324902B59
:201BA0000C022304902538747AF0A322F0907FC0E493FC740193FDEC22902A8BE0606090A6
:201BC0002A98E0FD6055902A91E004F0C39405404EE4F030442D902A8EE004FFF0740AD3C7
:201BE0009F402071A412C44A12D42AE43A90253BF0EB04A3F0AF05516F7405F0A39120F000
:201C0000028CED71A412D4BA902A98516D7403F0A374059120F0128CED800091AA91632204
:201C2000F0A3741DF0A374B6227F01227F0F7E1D125D2E021CDF902EE91223247E607F31AE
:201C4000902EE912B4AE7420F0121C7B902EE912230412C59402806B12D44012D4F2B10550
:201C6000021C8AE4902A94F0C24422122304900003EF021FFE7E607F8D7B007A007900122E
:201C8000D4F2B105121C8A7E607F8E7D42021C71EF700D04121FECF58275830074058007DB
:201CA000E4121FEC900001021FFE902A8BE0FF60081253A0E4902A8BF0E4902A8EF012C4D7
:201CC00053902A98F0227BFF7A297927902C707413F0E4FFFE12806B7BFF7A297972902C4B
:201CE00070741CF07F4B7E0012806B7E607F517BFF7A29797212B4B1740FF0021C7B4354DF
:201D0000108554B022F0E4A3F0A3F022902BBB122324902BC4E0FEA3E04E700A9027E17469
:201D20001EF0A37442F0E49027DBF0902BBF1223049027D8122324902BC2E09027DCF090DB
:201D40002BBB1223049027CD1223249027D2EDF012D3DAE94A70049027DCF0902BC3E0706A
:201D6000157E607F82121C6CEF64567F0060027F01902BC3EFF0902BC3E0602E12A589E45E
:201D80009027D1F07E607F71FD121C717E607F727B007A00790012B4B17410F0121C7B7E12
:201DA000607F827D56121C71800F12A3D4129736902DD67410F0121C769027D0E0FF12CE68
:201DC0003690275274FFF07F0122902CAA123FCD9027D1E07002FF22902CAEE0FED3941E73
:201DE00040037F0022F12AE94A7002FF22902284E0FF902CAAE0FD6F606390228512232404
:201E000090215AEEF0902292EDF0902CAFE0902025F07F1412CF8B7F1412D1729022227479
:201E200098F0A37440F0D22EC22F12CEBA902CAAE0FF7B017A227922902CE47402F0902C8E
:201E4000AF12A32B741EF0A3741FF012A2DD60067F07F135E1247F0112CF0DE12412CE034D
:201E6000128C6112CD5612CDB312A596902CAEE0FFF12A128C617B017A207938121C80E493
:201E8000902037F07B017A207937902CAB122324902CAEE004F09020E37481F09021CD743D
:201EA00098F0A37481F0902CAAE0FF7A2179CF12CBE3F12A902CAEE0FD12CA329021C5E064
:201EC000FF902CAEE0FE24D7F582E43421F583124F209020E4F0902CAAE09020E5F0A3EE37
:201EE000F07B017A2179CF128C617A2079D37F08121C8012CE03128C6112CD5612CA5E7BAD
:201F0000017A2179CD902CAEE02413902CE4F090202512A32B12CFB9902CAAE0FF12A2DDA9
:201F20007002F130902CB2E0FF22902CAB02230412CEA27F01902F43EFF0E4A3F0902F44B2
:201F4000E0FFC39410507AEF75F005A4246AF582E4342812D28BFE6F6004EFF4705B12D45B
:201F600084246BF582E43428F583E0FF902F43E06F6004EFF4704212D484246CF582E4346D
:201F800028F583E0FF64FE6005902869EFF0902869E06E600612D1D312D239902F44E0FF71
:201FA00012D3F4F583E0FCA3E04C6015EF12D3F41235E7AA06F90223C2902F44E004F0E172
:201FC0003D22902D28123FCD12A596902D2DE0FEC3940150037FFF22902D291297279020D9
:201FE000E3F0543860037FFF229020E3E0FF64C16004EFB48119EE7E0024F7F582EE34FF28
:20200000F583121F9DFF12CCD0E433902D2FF09020E3E030E64ED1FDEF70399027DDF0F128
:20202000EA902D28E0FF12CDC8902D2812D3B1902D2C712B741EF0A37415F0121CB2EF706E
:20204000077F0212CEA880057F08129F357F1412CF8B8010902D28E0902210F0902D2CE0AF
:202060009021FEF0902D2DE0C3941250037FFF22902D29129761128C6112CC9F7F08121C7A
:2020800080902D2FE070037FFF22902D28E09020E4F090121CE09020E5F0514DFD9020E644
:2020A000F012D38BFA12CA9940037FFF229020E3E054BF6481600221B212D38BFA514DFDC9
:2020C000918E7F05129F35902D29122304900009121F9D902D2EF07004514DFF22902D2EF8
:2020E000E0FF30E43D20E53A902D28E090215BF0902D2EE0540F90215C51CB9021C1F051A6
:20210000D3F9E43AFA902D231223249021C1E0902D26F0A37464F07B017A21795D12CE0A3B
:2021200021B2902D28E0FF90215BE06F600221B2902D2EE0540FFF90215CE06F707451CCEE
:20214000FE9021C1E0FDC39E500890215B74FFF0FF22AF06ED240AFDE433FC902D291223EE
:2021600004E92DF9EA3CFAC003C002C00151D3F9E43AFA128C61D001D002D003121C8090FE
:2021800021C1E0FF51D3F9E43AFAC003C002C0017B017A21795D128C61D001D002D003128F
:2021A0001C8090215B74FF51CBFF9021C1E02F04FF227F05129F357FFF22902F31EFF070FA
:2021C0002A9025A8E0601C71E99026007401F01280007F0512AAD612C6087132E4FD121C6D
:2021E00071805A7D147F0AD1E680529025A8E0704C12800071D47D14BF01047F0C80027F40
:202200000BD1E67E607F6D9025F4E07D00B401027D0171389025F4E07D00B401027D011201
:202220001C71121D25902F32EFF0E060107B017A2F7932902DB47401F0FF12BD72902F31C7
:20224000E0FFB153902F31E09025A8F022902D2DE024EE22902CBC123FCD12CDB3902CC2B8
:20226000E0FFA3E09027D4CFF0A3EFF0E4FF9027DCE0FEEFC39E501A12D3DAE92F12859B19
:20228000FE902CBD129727B50605E4902CC4F00F80DC9027D1E0B40106902CC4E06014F190
:2022A0008C902CC0E0902CE4F0902CC1712B71E1021CB2F18C902CC0E0902CB7F0902CC1B2
:2022C000E0902CB8F0A371E1028D4EF0902D2DE024ED22902D29122304E9240A22121CB2C3
:2022E000902CB2EFF02212D1A0E433902F7DF0D1FDEF7036902210E0FFF4602EF1EA12CD69
:20230000C890221012D3B19021FE712B741EF0A37433F0121CB2EF70077F0212CDBA8005B1
:202320007F08129F357F1412CF8B22E0902CE5F0A3227E607F6DE4FD121C717E607F6C22A4
:20234000FDFCFFFE12D343902ACFF0902ACCF0902AC8F0A3F0902ACDF0902ACA12B77C7EAD
:20236000607F08902ACCE0FD121C7112B76112B4B112B4007E607F0F902ACDE0FD121C719E
:2023800012C927021C71902F3712BEC9F0902F37E0FFA3E0FDC39F5026ED7E00246312BE3E
:2023A000B1ED902A4293FD121C71902F38E0FF902A4293FD12BF5B902F38E004F080CE901D
:2023C00025AB7463F07E607F6FE0FD121C7112D37E021C717E607F71121C6C9027D1EFF05D
:2023E00022741EF0A37447F022911BE47140D24671FF121D34E49025A8F01283BE80877E94
:20240000607F8E121C6CBF4203304603129C7512D440902DD67401F0021C76B1851297196B
:202420009139E4FF912CE49027DEF0229027D1EFF0FD7E607F71021C71D1F47F55F1A07A42
:20244000227911F1959153D1F47FAAF1A07A227952F195902CA1122324902CA41223041299
:202460008C61902CA71223047F10121C80902CA4122304902CD1122324902CA712230490EB
:202480002CD4122324902CA1122304023B96902E07122324902E0AEDF0E4902010F0F1E34F
:2024A0007D10FF121C58E4902293F0902E0AE012D4A85051B17F8E82123B7212D4DA1285C4
:2024C000BC12D3E8703712D324902293E024F1FF902293E0FEEFD39E501A902E0CE0FE24D1
:2024E000D31285B0E06DFEB17F8F8275830012D4350F80DCF1E3B18FE4902010F0902293CB
:20250000E004F080A6902010E0604712D324902E0BF0902010E0FF902E0BE0FEC39F50328E
:2025200074D32E1285B0E06DFEEFFD902293E0C39DFDE49400FC902E0BE07A002DFDEA3C3F
:20254000FCB17F8D828C8312D435902E0BE004F080C022EF7006B185911D80209027D1E0C6
:20256000700D9027DEE070147F0A12D02C800D9027DEE070071296B96002D1EB7F01229024
:202580002E07022304B1A6B1967B017A2079EA7D10E4FF021C5812CF35600312CF8112965D
:2025A000B96002D1EB2212D052600312D0221296B96002D1EB2212B94B902F5DEFF0640170
:2025C00070219025A8E070049025F4F09025A8E0600A2041047F01F171C241229025AA743A
:2025E00010802F902F5DE0640470339025A8E070069025F47402F09025A8E0601020410A3B
:202600009026007402F07F01F171C241229025AA7411D1CE9026007450F07F01E171902F19
:202620005DE064026002C1AB90258AE0B4FF047401F02290258AE0C39402500B9025AAD1C9
:20264000CC90260004F02212D50A500E9025AA740DD1CE9026007402F02290258AE0C39460
:202660000A500C9025AA740ED1C8902BEBF02212D5125011E49025A4F09025AA7407D1C8C8
:20268000902586F02212D512403DE09416500BE49025A9F07D027F0BD1E69025A4E07027D0
:2026A00004F012B99F121C7102B9D812D50A4011E0940A500C9025A8E0600690258074031F
:2026C000F090258A74FFF022F09026007402F0E49025A9F02275F003A4241EF582E4342ADF
:2026E000F583E0FF7D1412B3F180E38F828E837F020223C67B017A2079007D1022902869EC
:20270000E0FF22902F70EFF0D2267C1D7DD9121D20902DA8E0F47058902F70E0902DA4B44F
:202720000109E4F0A304F0C2278023E4F0A37410F0A37401F0A3F012481BEF543F2432FDC8
:202740007E1D7FE8E4FB125343902DA3EFF012533B902DA8EFF0302517902F70E0B401108D
:202760007A1D7BDEE4FD7FFF121D11EF6002C22522902F71EFF030260312A826902DA27455
:2027800006F0902F71E0FF6002F10322902CBCE0FFA3022304902CA71223247A2079EA22BE
:2027A000121C587B017A207900902CA40223247E607F60121C6C902F39EFF0F1DC12D42357
:2027C0007E607F15F1DC902F39E0902DD6F1D8902C7012C58C02806BF0121C767B017A2759
:2027E00079E5227B017A227900229022887498F0A37480F022902E5512C17F902E56E0600E
:2028000024902E55E02480FF121D6B902E571253E6902E581250FB902E56E014F0902E5586
:20282000E004F080D622E4FDFCFF121D2051C56002516B902DA3E0FFF4600251BBC2262242
:20284000902F5BEFF0118E534DEF854DFD118E4350205354DF8554B011EB75FF015350BF4E
:202860008550CB75FF0153507F11EB12B7F55352FE85529075FF01534EFE854EC95352FE0A
:20288000855290902F5BE0FF12D1937F012243511085518075FF0122D2191289A61285C4A8
:2028A00012B92FD14712403E7E1D7F9311FE902536EFF07E1D7F9812533F9025F5EFF07B96
:2028C000FF7A2A7916902BBF122324902BC2740931E47A2A79127D04129D0C11FB51CC71DF
:2028E000F4D175E4FF124FA47F01228550CB4354408554B04354808554B02202301B7BFF8B
:202900007D0A025343902DEF12413F022324122E7212A5B6902580E06403600221D4902669
:2029200000740AF0902BE5E014601B14603D14605C14607B2404600221D49025AA74121234
:20294000A6CE7F09803D201B0221D9D3902582E0940531DA40028021902581E07002A3E00B
:2029600070059025A780177F058018301B6BD3902582E0940731DA40089025A774FFF08006
:2029800027E4FF12B6F2902BE5E004F022301B49D3902582E0940431DA40089025A7740F95
:2029A000F08005E49025A7F0902BE57404F0229025AA740812A6CE31EEE4902BEAF090259A
:2029C000A7E031E17B047D227F0112BA56E4902580F08001E4902BE5F022902581E09400D4
:2029E00022902D89F0E4A3F0A3F0A3F022F09026007414F022902600E0606FE014F0E070E7
:202A000069902586E030E10BE054FDF09025AA740B8022902586E030E20BE054FBF0902569
:202A2000AA740C8010902586E030E30BE054F7F09025AA740A80B6902586E030E00EE05408
:202A4000FEF09025AA740231EDD218229025A8E060119025A9E09025AA70057402F08003E0
:202A60007401F012B3DD902585F0221253A0902DA874FFF022902F3BEFF0A3EDF0902DA35B
:202A8000E0FFF4600251BB902F3BE0FFB40206C225D2268002D225EF70123026021126E424
:202AA000902DA2F0902F3CE0FF02A1BA51C560031253A0516EE4902DA2F0221253A0902D3C
:202AC000A374FFF022902DA8E0FFF422788076F77B017D10D102AD07AF051DEF600651E523
:202AE00051E580F4227FFA51EB7FFA1FAE071FEE60060000000080F4227E607F3112A7DCDC
:202B0000902DD6742012A7D812C59402806B129CC651F912A7AF71B4128000902C7774041D
:202B2000F07BFF7A2979C471ABFF7141902F6D740FF0902C777401F0FB7A2F796D71AB7F22
:202B400008902C76EBF0902C7BEFF0A3EDF071CB902C76E0B4A619902C7BE0FEA3E0FF90E2
:202B60002C78122304902C77E0902C70F002806B902C76E064AE7032A3E0FFD39410502A23
:202B8000EF94004025A3122304128C6171ED121C80902C76E0FF902C7BE0FCA3E0FD902C06
:202BA00077E0FB1218897F0551D622A31223247BAEE4FD227E607F5112A7DC902DD6740FC2
:202BC00012A7D8902C70D18402806B7E607F2D71EDB1F97884760971ED128C617A00798514
:202BE0007F04121C807B097D00D10241D67B007A00798022E4902BEEF0A3F012A7DC902B49
:202C0000F21223247A2779EB902BF51223247B097D807C017FA612185171ED128C610B7ADB
:202C20002779E57F09121C80902BF2122304B124EF60047F01807E902BF2128595902BEFCA
:202C4000F07B017A2779EE24FD902D0DF07F897E01D1B5902BF5122304902BEFE0FD12C5D1
:202C6000DFEF60047F02804D7B017A2B79F0902D9E122324902BF5122304B17E902BF0E0F3
:202C8000B4010512C6088033902BF0E0B4021212A7DCA3E0902C70F07F807E0112806B8065
:202CA0001A902BF0E0B403047F038009902BF0E0B404087F047E0091C2C322E4FFFE91C2F1
:202CC000D322902E921259CC7A2E7994902D0DB11CD1B5902E94E0543FB110FEA3E0FFA3FD
:202CE000E06E7003A3E06F6026D1479025A8E0902E927005E0543F8007E04440B110547F8F
:202D0000F0A3E0F07B017A2E7992B11912806B22F0A3E0F0902E92E022902C707402F07F72
:202D20005D7E0022902EEC122324E4FFEF6402701AB1762F12859BFEEF9029B593FDEED39D
:202D40009D5026EEC394035024801EEFB4080BB1762F12859B30E715800FB1762F12859B85
:202D6000FEEF9029B5936E6004EF04FF220FEF640970B97F0022902EEC122304E922902D9F
:202D80009B122324902D9E125D37902D9E129761E4121FEC902D9B12859520E7555430FF75
:202DA000C4540F902DA1F07031902D9B12862712859B14600B14600D24027018E4FF8002A1
:202DC0007F0102C5A09025A8E0600302C5D2B1F37404801BB1F374038015902DA1E0B40179
:202DE00011B1F37402121FEC902D9E129761E4121FEC22902D9E022304902DD67404F00282
:202E00001C767C097FAE1218897F0522E5B030E52530452212D4187880E630E00DC245901F
:202E20002865E0B401107402F022788076017B017D20D10251D622902EF2D17C902EF21275
:202E40002304B1F97F04227B017A2579A8902DCE1223241B7A007900021C6212CD5F902060
:202E600070E0700B7E1E7F1011FE902070EFF02212C69680977D147F0B02A6E61223247E27
:202E8000607F2D22740FF07F4B7E002222EF24FE600F24FE600B24FC60072407700602B717
:202EA00074129CFE22902EEFD17C902EEF12B4AE12B3D761CB902D08123FCAE4902D0EF06E
:202EC000A3F0902D0DE0D3948040037480F0902D0DE0902D0FF0902D0DE06068122E72908D
:202EE0002D0DE0FFD394104006A37410F08005902D0EEFF0902D08E0FCA3E0FD902D0EE0EA
:202F0000FB7FA6121851E4FF902D0EE0FEEFC39E501974802FF8E6FE902D0A122304EE12D2
:202F20001FEC902D0B1250FB0F80DD902D0D12BE38EF9E902D0DF0EEFF902D08E48FF012B5
:202F400020878092902D0FE0FF22902C02123FCDE4FE128598902C08F0902C0312862712BA
:202F6000859B902C09F012D3E0240412859B902C0AF0902C03128A2212859BFD12D3E02412
:202F80000612859B902C0BF012D3E0240712859BFC902C08E024EE602314602724FE602AA4
:202FA00024FE602F24067030902C0AE0FFA3E0FB902E04ECF012C622AE07801C12C571AE94
:202FC00007801512C45AAE07800E12A7DCD137AE07800512C465AE07EE6010902C02E0FF20
:202FE000902C08E0FD12A7DC128C6722902F5CEFF0902BEDE05401F0C394015035902F5CB5
:20300000E0B40107E4FBFD7FFF801A902F5CE0B40207E4FB7DFFFF800C902F5CE0B40307C9
:203020007BFFE4FDFF2109902F5CE0B404067F6401F9310C2212BF9C902580E0B401047F5D
:203040000380A9902865E0600281169025AAE012239CB09301B08F02B09B03B09F04B097D1
:2030600007B0AA08B0AE0AB0C90BB0CF0CB0D50DB0D90EB0DF0FB0E510B0E911B0ED12B0FB
:20308000F413B0B214B0BB15B0C2160000B0F6310C806331AF805F3143805B7F0A80027F4D
:2030A000FF11F9E49025AAF0804C319780487FFF8005902A22E0FF312D803B902A25E0FFE3
:2030C0008009902A28E0FF80087FFF317F80277FFF715E80217196801D7F6411F980177FB4
:2030E00064717880117F0280067F0380027F0412AFEC8002311202A9F5EF75F080A4FFAE2D
:20310000F071E5AE07AB06E4FD021ABEE4FBFDFF80F7902BEDE075F00C84AFF0EFF0C394A4
:203120000650087BFFE4FD7FFF80DE80DF30180CEFC3940A4006710E5002714D31FBE4FB17
:20314000FD80C690258AE0D3940F500AE0FFC374139F902BE4F0902BEBE0FF902BE4E012D0
:20316000482C902BEBEFF0EEC313FEEFC39E5004310C80047F64312D902BEBE004F0223022
:20318000180CEFC3940A4006710E5002714D31FBAD07E4FBFF21099025A7E0B4FF047F6428
:2031A00080DD9025A7E07F64B40F02806F212D902537E07005FBFDFF803D902A2231F99006
:2031C0002EE0EFF0FB902A2531F9902EE1EFF0902A2831F9902EE2EFF0EB510A902EE0EF22
:2031E000F0A35109902EE1EFF0A35109902EE2EFF0902EE012534B2109E0FF7E007C007D1A
:20320000FF1220207D64022032E0FF7E009025ABE0FD7C001220207D63022032902EE3EFFC
:20322000F030182071C6501471CE902EE4F0902585E075F019A4902EE5F08008902EE4745D
:20324000FFF0A3F0902EE471BE2109902865E06002610D9025A8E06002610D902600E06021
:2032600002610D902BE7E004F0E0C394964006E4F0A3E004F0902BE8E0C394064002E4F014
:203280007D50902BE8E014601F14602C14603914604614604F24057067902BE7E0711E90E0
:2032A0002EDDED129D058058902BE7E0711E902EDD7450F0A3ED800A7115902EDDEDF0A36F
:2032C0007450F0E4A3F08038902BE7E0711E712E7450F0A3EDF080287115712EEDF0A37466
:2032E00050F0801C902BE7E0FFC374969FFF7E007C001220207D96122032712EF0A3EFF032
:20330000E49025AAF0902EDD12534B310922902585E0940A22902BE7E0FFC374969FFF7E8F
:20332000007C001220207D96122032AD0722E4902EDDF0A32230180CEFC3940A4006710ED5
:203340005002714D31FBAB07E4FDFF2109E004F0EF75F00A84FFE0FEEF8EF0A4FF2280D55B
:20336000902D195109217F902A1C510980C731FBAE07AD06AB062109902F61EFF0902A1CC2
:20338000E0FF80EA902A1CE0FF7E009025ABE0FD7C005101212D71C6501371CE902F33F09D
:2033A000902585E0C454F0902F34F0800A902F3374FFF0A374A5F0902F3371BE2109E0FF53
:2033C000A3E0FDE4FB22902585E0C3940A22E004F0E075F019A4227404F0021C7BE4902B37
:2033E000E7F0A3F0227C007D6402203271F102A6CE9025AAEFF0902600ED22902D68F0A3FD
:203400007402F0021C7B902BEDE004F0902BEAE004F091CF01359027E3E0FFC39405500CF1
:20342000EF75F014A4240AFFA3F080209027E3E0C3941A5007A37464F0FF80109027E3E06A
:20344000C39423500BA3E024F6F0E0FF7178803A9027E3E064237032A3F0FF7178E49028CE
:2034600065F0902580F09027E374FFF09026007401F071DD12ABF440119025A8E0700B2092
:203480001A06FF12C5A08002C21A9027E3E004F022902F6CEFF07E607F2D7BFF7A2979C0BE
:2034A00091B171D7902F6CE0700312ABCB22122304902D68E4F0A3227E607F2D7BFF7A29BC
:2034C00079B191B171D712AB1B129CC6028000902867E0D394004003E014F02290258AE09C
:2034E000F46003E004F022E4FFFEB173902EF5122324E94A606AF16191B19100902EF5D1C8
:2035000089902EF5129761F185902EF512862E902ACAE0FF902EF5128627128634902AC655
:20352000B161E92404128634902AC6A3E0FF902EF5128A22128634902ACDE0700204F09000
:203540002ACDB161902CC07406B1DF7002B169902AC6E0FFA3E0902581CFF0A3EFF0D21B0A
:2035600022E0FF902EF5022304E49026BBD143E4021FEC902F3F1259CC12D07740077B00C4
:203580007A00790022902F3FE0FFA3E09026BBCF1259CD7A2679BFD14D7A2679BF22902E90
:2035A0009AEFF0E4FFFEB173902E9B122324E94A6028902E9BB1F5902E9AE0FFA31297613D
:2035C000EF121FEC902ACDE0FF902E9B122304902CC07402B1DF7002B16922E4FF80BFF0A5
:2035E000A37425F0A3741EF0A37438F0A37401F012A254EF22122304E4021FEC902B6012C3
:203600002324902B60129727B4021C7402121FEC902B63125D37902B69122304D191902BD5
:2036200066122304EF8011902B60B1F5902B63B1F5902B66122304E4021FECE49026BDD173
:2036400043A16FF0A3F07B017A2679B9227D48E4FF121C587B0122902600E0701E9026017D
:20366000E07018902BECE0B4011112A3D47D0ABF01047F0C80027F0B12A6E6E4902BE6F017
:20368000F16C740AF022902C9E1223047473021FEC902F07122324E4902CCDF0902CCDE0D1
:2036A000FF24C5F582E4342CF583E0FE902F07122304E92F125D59D1EBE0B408DF7F082252
:2036C000902BECE070237E1D7F9D7B017D14125343902BE6EFF0BFFF0AE4902BECF0902BE6
:2036E000E6F022902BEC7401F022FF902CCDE004F022902F78EFF0902AC8E4F0A3740AF0A9
:20370000902ACD7401F07E607F0FFD121C71902ACF7401F17C902F78E0F14E71FBC21B901B
:203720002ACAE0640260157402F012546A902AC5EFF0902ACCE0FF124FA4F13D227E1E7F71
:2037400001E4FB7D04125343902ACEEFF022902ACCF0FD7E607F08121C71E4902AC6F0A369
:20376000F07E607F0A7B017A2A79C622902BECF0902BE9225354EF8554B0C1C0F07E607F27
:2037800006FD021C717406121FEC902ACFE0FF229026BB1253ED6002F19EA169E0FF8D82CA
:2037A0008C830223C69029371253ED6002F19E22902F01EFF09026BDE0FFA3E0902F02CFB6
:2037C000F0A3EFF0D13B902F021253ED6005902F01F19C2222902BEC7402F022902BE9E0AF
:2037E000700C902BE6E0700CF16C7464F022902BE9E014F02275FF01434E025352FD8552DE
:2038000090854EC922E5907F0130E1027F00EF602B902E87E0D394645005E004F08006902A
:203820002E867402F090258AE0F4600201C09025AA7402F0902600740AF001C0902E87E069
:20384000FF607DD394044078EF94645066902580E0B40312E4F012A3409025AA12A6CC90B2
:20386000260004F0D241D201C218E4902E87F0902E89E004F0E0B401167E1D7FA77B017DD5
:2038800023125343902E88EFF0F47034F08031902E89E064027029902E88E0FF600E902E88
:2038A000867404F01253A0E4902E88F0E4902E89F0800D902E86E0B402067403F0E4A3F095
:2038C00002B24BE4902ACEF0A3E0FF902ACCE0FD7A1D7BF7121D02BF010B902AC31296BCC2
:2038E0006003123CFC22902DA7E014F0702E121D4D902DA6E0C3941B5003E004F0902DA658
:20390000E0A3F0902DA4E4F0A37406F012AAC5600312AA6B12533B902DA8EFF022E43126A6
:20392000902E8604F022902E89F0902E88F022E4902E86F0A3F031267E1D7FA27BFF7D01E8
:20394000125343EFB4FF02C322D322902E86E0FD64026002E4F0AF05223198EFC39401405E
:2039600006EFD3940A40027F0A902F5EEFF0D3940A5006E0C394015006902F5E740AF090AA
:203980002F5EE0FFC3740A9FFF124FA47E607F62902F5EE0FD021C717E607F62021C6C7FC7
:2039A0000A31697E607F627D0A2231BFEFF022E431B6FD021C71902601F07E607F61227EAE
:2039C000607F61121C6C90260122902F5FEFF012A3E9128000D219227B007A007900902ECE
:2039E00051122324E4902E54F09025A8E07005FF31CA8051C219902538745AF0A37401F02C
:203A0000FB7A2E7954902DAD1223247A2E79517F0171A25038902E54E07008902E5074FFFB
:203A2000F0800A902E51129727902E50F0902E50129A6D7402F0A37425F0A3741DF0A3743B
:203A4000ACF0128CEDE49025A8F012A38622902F60EFF0D21922AE039025387470F0A3741D
:203A600006F0A3EDF0A3EEF0902D89E090253CF0902D8AE090253DF0902D8BE090253EF034
:203A8000902D8CE090253FD1D0902D34F0A37425F0A3129711028CED902588E0B4010E9013
:203AA00025F6E064FC6006E0F4600261A19025F6E012239CBACD21BB8752BAEDC8BB65DC0A
:203AC000BAFFFCBB19FEBB36FF0000BBA19025F7E0547F6404600261A19026007432F0E4B8
:203AE0009025AAF09025F812534B02B1099025F7E030E703E4A3F09025F8E0D14880339058
:203B000025F7E030E703E4A3F09025F8E0D39401400261A1E0D13F80199025F7E030E705AE
:203B2000E4A3F0A3F07E607F019025F8E0D1DB9025F9E0FD80689025F7E054846484702293
:203B4000A3E06455705BA3E064557055A3E06455704FA3E064557049902865E06002D21A22
:203B600021D80283BE9025F7E030E7047F0A80159025F8E0902C6AF0E0FFD3940A5022EFF0
:203B8000C39401401C2169902600E07009902601E0700312AE759025F8E031B6E0FD121C1A
:203BA0007122902DA9123FCD7B017A2D79A9D10B400122902DA9E0242DF9E43429FA7B0123
:203BC000C003C002C001A312230412234DE4FF902DA971E7E060050FEFB401F3902DAD1239
:203BE00053E6D322902C86E0242DF582E43429F583E5822FF582E43583F58322902584E098
:203C000022902584E0B404024198902584E0B40505C24212830822902C87122324902C865E
:203C2000EFF0902C8DF07401C39F5002A10E902C86E0FFE4C39F50657401C39F405F902C46
:203C40008AE06044E4A3F0B14C400281FEE4A3F0B143502CB15612859BFE71E4E0B50618FB
:203C6000902C8CE0FD902C86E0FFB1662D71F4E4F0EF14FFB10F8008902C8CE004F080D0CB
:203C8000902C8BE004F080BFE4902C8CF0B143506D71E4E4F0902C8CE004F080F0902C8606
:203CA000E07065902C8AE0605AE4FCE4902C8BF0B14C5044E4A3F0B15612859BFF902C8CEC
:203CC000E0FE742E2CB13BE5822E71F4E0902C8CB50714E0FD742E2CB13BE5822D71F4E4E6
:203CE000F0AF04B10F8009E004F0E0C3940140C7902C8BE004F080B80CEC640170AD129C4A
:203D0000588005D24612A3FF7D047F85B1FC22ED04FEEEC39401501FB138E5822E71F4E03F
:203D2000FD742D2FB1682E71F4EDF0B138E5822E71F4E4F00E80DB22742E2FF582E4342962
:203D4000F58322902C8CE0FFC3940122902C8AE0FFA3E0C39F22902C87122304902C8BE059
:203D60002922902DB0E0242DF582E43429F583E58222902DB0123FCD7B017A2D79B0D10BEE
:203D80005079E4902DB5F0902DB4D1389F5066A374FFF0902DB1122304E92E12859BFFD37D
:203DA00094E85049EF6046E4902930F0902930E0FEC394015025B1622E71F4E0600BB5075B
:203DC00012902DB674FFF08012902930E0902DB6F08008902930E004F080D1902DB6E0FE56
:203DE000F4600AB1622E71F4EFF0129C58902DB5E004F080927D017F85B1FC22902F3DE055
:203E0000FAA3E0FB4A6003125D8622121F84FFD394015003EF7002C322D322902F72EFF0AC
:203E20007B017A2F7972D10B40037F0022902F72B1652D71F4E0FF22E0FFA3E0FEC3229003
:203E40002588F07E607F1222902587F07E607F1422129CFE75FF015350EF8550CB029CFE86
:203E600030431C902EE7D1C9F0902EE7B14F5039D1B9D1AA121C71902EE8E004F080EA903E
:203E80002EE6E0FFC39409500280027F09902EE6EFF0C394085004E0FF80027F08902EE6B1
:203EA000EFF0D1BBD1AA121C7122E0FD7E0074632FF9EE3460FEAF0122E0FF75F003A424A0
:203EC0001DF582E4342AF583227409F0E4A3F022F07B017A257938EE240422FD121C717468
:203EE000012401FFE43460FE22E4FFFE742E2EB13BE060010F0EEEB401F222902DFCEDF0BD
:203F0000A3EBF0902DFBEFF0E4902E00F0EFC394095007902DFBE0FF80027F09902DFBEF0C
:203F2000F012C1764034902DFEE0D394007F0140027F00902A3AEFF0902DFBE0902A3CF040
:203F4000EF7F0060027FFF902E00EFF0FD902A3CE0FFF15B902A3B7408F022AB07EDFF90A7
:203F60002F35E4F0A3EFF0EBC394025005EB94045029EBD1BBEDF0902F35123FC27D6412A4
:203F800020207DFF122032EB75F003A4241CF582E4342AF583EFF0EB12A6D52212C1765087
:203FA0005B902A3CE0FF12C1A4902F64EFF0902A3AE06019A3E0FE902F64E0FDD39E902A5F
:203FC0003CE0FF4004ED9E801EE4FD801F902A3BE0FEC374FF9EFF902F64E0FDC39F902A17
:203FE0003CE0FF5005ED2EFDE15B7DFFF15BC243902A3CE0902EE6F0D160F1FD22E4902AE7
:204000003B125707902A3AF022902F62EFF03176501012BFFDC243902F62E0902EE6F0126E
:20402000BE6022902B78317F902B7A1296CE12859B24FD700201D724FE7002210114601AD1
:2040400014700201C424066002215C316D902D3B741CF0E4A3F07B0201FF128592902B7EA0
:20406000F0902B7A12862712859BFF902B7FF0902B7A122304E9240412859B902B80F09095
:204080002B7EE0A2E59232A2E69233315DEF7002215CA3E0902B82F0303307E4902B81F069
:2040A0008006902B8174FFF0902B82E0FFA232E433FD902B80E0FBA3E0902DFEF0A3740379
:2040C000F002BEFB128592FF902B7EF0315DEF7002215CE0FF0109128592FF315DEF607C0E
:2040E000128592FF902B7FF031A4902B7EEFF0FE316D902B7FE0902D3BF0A3EEF07B0441A2
:2041000085128592541F902B82F0902B7A128627F9E43AFA902B7E122324E4902B81F0901A
:204120002B82E0FF902B81E0C39F5030129724FF315DEF6015129724902B83F0902B83E01E
:20414000FFE9240112859BFD3188902B7FE475F002122087902B81E004F080C322EFD39461
:20416000044004EFB408037F01227F0022902B78E0FFA3E0FD22902A3BE0C36001D322EF75
:20418000F0A3EDF0A3022324902F65EFF012BF5BC243902F65E0902EE6F012BE607D0A7FC1
:2041A0000102A6E6902F63EFF0C394095004E0FF80027F09902F63EFF012A6D5902F63E042
:2041C00012BEBBE0FF22902F66EFF012BEB9E0FD12BF5B902F66E0FF80CA902E0D317F9064
:2041E0002752E0F46034902E12E0FFD39478502A902E0F122304128C617B017A27795312D6
:204200001C80902E0EE0902752F0902E12E09027CBF0902E0DE0902751F022786C7C2B7D6E
:20422000017BFF7A2A794B7E007F0A121F5E902B7612BEC97E607F637B017A2B796C902DB8
:20424000D67409F0121C76E4902B77F0902B76517E9E5017746C2FF582E4342BF583E0FD4E
:2042600012BF5B902B77E004F080E171BB7E607F70121C6C902537EF02A6CE902C27E0FE06
:20428000A3E0FFC322902D3812413FEBF0128F20902D3D1223247433121FEC902D3AE0FFA7
:2042A000902D3D129761EF121FEC902D3BE0FF902D3D12862E902D3CE0FFA3128627128685
:2042C00034902D39E0FF902D3D51E17404F0902D387103700312B63B22902C99E0FF902C50
:2042E0009E122304902D3422902BAB122304900002EF121FFE902BA6E0FF902D347403F0ED
:20430000902BA5E0902D35F0A3741EF0A3743DF0128CEDEF22902C8FEFF0A3EDF0125D530A
:2043200064017065128F20902C95122324E94A6058902C95122304745E121FEC902C9571B2
:20434000A07402121FFE71AD902C95128F19EF121FFE71A7902C95129C6B71AA902C9512D1
:204360002304900004EF71B0718A902C95123DC4718A902C90E0FF902C9551E17409F0906D
:204380002C8F7103700312B63B22741B75F0000220DE902BAB1223047485121FEC902BAB47
:2043A000122304900001227F05227F00227F0122121FFEE92405F9E43AFA227E607F6F12D6
:2043C0001C6C9025ABEFF022902F67EFF022902F68EFF022902F69EFF0129CFE12403E80E2
:2043E000FE902F6AEFF0129BA4914AE4A3F0A304F0902A957428F09152D2449112902A94B8
:20440000129A6D740512974E741DF0A374BBF0028CED902A94E0FF902A98EFF0E4902A8ECB
:20442000F0902A91F0902A8BE070167E1D7FCA7BFF7DC8125343902A8BEFF0BFFF0BE4F09A
:2044400022902A8BE0FF1253C5227405F0A37401F022E4902A8CF0A3F02212A7DC902D0D09
:20446000B19702AEB512A7DC902D0D12AE8402AEB5916512A7DC7D0FB1297F0222902C0C2B
:20448000123FCDE4FE128598902C12F0902C0D12862712859B902C13F0B115240412859B96
:2044A000902C14F0902C0D128A2212859BFDB115240612859B902C15F0B115240712859B80
:2044C000FC902C12E024EE602214602524FE602724FE602924067029902C14E0FFA3E0FBC1
:2044E000902E8DECF0B143AE078016B137AE078010B11DAE07800AB17CAE0780049171AE06
:2045000007EE6010902C0CE0FF902C12E0FD12A7DC128C6722902C0D122304E922915A121E
:20452000A7DC7D20B1297F0222129C2CAC06EC9027E5F0A3EFF022B17112A7DC7D18B12910
:204540007F0222AA05E4FDFCEB64A67021EFFEE42AFFEC3EFE12A7DC902E8DE0902D0DF00A
:2045600012AEB5902E8DEFF0FD12A7DCB1297F022212A7DC902D0DB18C02AEB512A7DC12E5
:20458000AE3712A7DC7D04B1297F02227418F07F337E0022902C707420F07F137E002222D1
:2045A000EF60149025AA7411F09025A8E070189025F47402F080109025AA7410F09025A830
:2045C000E070049025F4F090260074C8F07F0102A7719025A8E060069025807403F0229081
:2045E0002E8E122324902E91EDF0E4FFFE902E91E0FDEEC39D5010902E8E122304E92E1211
:20460000859B6FFF0E80E62212A7DC7D097FFF121C5812A7DC902C707409F07F807E0102A9
:20462000806B902E03EBF0E4FE902E05EFF0A3EDF0902E04E0FD7002FF22902E03E0B4A6C2
:2046400017902E05E0FEA3E0FF12A7DC902D0DEDF012AEB5AE07803B902E03E0FF64AE70DD
:2046600032A3E0D3941040037410F0902E05E0FCA3E0FD902E04E0FB121851902E04E0FF7F
:2046800012ABED128C610B7A2779E5121C80902E04E0FEAF0622E5B020E519D2459028655B
:2046A000E0700B902867E0700590286504F0902867740AF022E4902868F022902F6EEFF049
:2046C000D22522902DA4124F38702830262512A8267B017A2F796F12AE4D902F6FE0700B31
:2046E0002027087F0212A771D22722902F6FE0FF12A1BA227F01227F012290292EE0FF609F
:204700000280027FFF22902F73EFF06003E014F0E4FFFE902F73E0242E12BD3BE5822FF543
:2047200082E5833EF583E06002D3220FBF00010EEF64014E70DDC322E4FE742E2E12BD3B35
:20474000E06002FF220EEEB401F022902F74EFF0902936E0FFC39401502D902935E0242E5E
:20476000F582E4342912BBEFE0FF6013F1A6A37425F0A3741DF0A374F2F0E4A3F0802090EC
:204780002936E004F080C9902F74E06017F1A6E4A3F0A3741DF0A374EDF0E4A3F07FFF12E6
:2047A000A254D322C322902932122304902931E0902CC0F022902F75EFF0902936E004F0D7
:2047C000E4FFF14B4008902F75E0FF12B7A522902DB9122324EF14902935F0E4A3F0AF05F4
:2047E000902931EFF0902DB9122304128C617B017A297939121C807B017A29793990293207
:20480000122324902DBCE0FFA3E0902937CFF0A3EFF07F0112C74B4005E4FF12B7A5227F58
:2048200001227F0122E4902F76F0EF12239CC85D26C87A33C86159C87A5AC8595EC87A70DB
:20484000C86572C87173C8697AC85F85C86786C87A98C87AEF0000C882118D8016800A806E
:2048600008111F800E80028000902F767402F080161122902F76EFF0800D902F767401F0D1
:204880008005E4902F76F0902F76E0FF227F02227F02227F75227F0222EF701E902AC61246
:2048A00050FC902AC8E07002A3E06027902580E0B403209025AA74128016902AC8E0700293
:2048C000A3E0600F902580E0B403089025AA741312A6CE902ACEE0FF60031253A0902AC855
:2048E000E07002A3E0600D902AC8124F38600512B73DF422902AC6E07002A3E06008902A63
:20490000CA7401F08005E4902ACAF03127121C71902AC5E0FF124FA412B4E7902AD1129651
:20492000BC6003123CFC227E607F0D902ACAE0FD22902AC2E0FF1253A0E4902AC2F0902A95
:20494000D11296BC6003123CFC22902ACBE014F07006FF124FA4313122902EF8122324EDF0
:20496000B40115902EF8122304A801AC02AD037B017A2A79AF1224C122EFB401097B017A73
:204980002A79AF02182E7F00227F0122902F79EFF0902ABEE0B401193189902AB8E0FE04EF
:2049A000F0EEC39F500B7E1E7F067B017D01025343E4902ABEF022EF121FEC900001E412A8
:2049C0001FFE900002E4121FFE900003740131D7900006E4021FFE121FFE900004E4121F94
:2049E000FE900005E4021FFEEDB40124C003C002C0017B017A2A79BF902C37122324902CB5
:204A00003AE4F0A37402F0D001D002D003121B0422EF7F00B401027F0222902AC1E0FF2272
:204A2000902AC1EFF022028EAE902F3DEEF0A3EFF022902E9E122324902EA1EDF0FF902E90
:204A40009E122304128C617B017A2179D7121C807B017A2179D7902EA1E0FD02A48E9020E4
:204A6000E6E0FD518D7A2179D71282349020E6E024D8F9E43421FA7B01C002C0017A207932
:204A8000FA128C61D001D0027F08021C807B017A2079FA902DC2022324902EA212232490BB
:204AA0002EA5EDF0C003C002C001518DD001D002D003128234902EA2122304902EA571A2D5
:204AC000129764719C7B017A2079FA7F08121C85EF24FFB3227B017A12794312A58F7B018C
:204AE0007A2279627D107FA5121C58E4902273F07B017A2279747D1071AB7B017A2279626E
:204B000012A7A97A207927902CA71223247A22797412A453E4902272F0902272E0FF24622A
:204B20007191C083C082E0FE74272FF582E43420F583E0FFEE6FD082D0837189E0B410D9C7
:204B4000902273E004F0E0D3940140A4E4902272F0902272E0FF2443F582E43412F583C0F5
:204B600083C082E0FE74622F7191E0FFEE6FD082D0837189E0B410D9128C317A1279437F9D
:204B800010121C807F0102366EF0902272E004F022F582E43422F58322122304902D75026F
:204BA0002324E07E0029F9EE3AFA22902EA6122324902EA9EDF0E4FF12366EE4902272F058
:204BC000902EA612230490227271A21236C8902272E02402F0902EA9E014F06005E014F043
:204BE00070DE22902EAA123FCD90206F74FFF0E4902272F0B12C50309190E0700A90227249
:204C0000E09021C2F08021B1A1E0FF90206FE0FEEFC39E500F902272E0FE90206FEFF09043
:204C200021C2EEF0718A80CC9021C2E09191E4F0919F91A6E4902272F0B12C50139190E083
:204C4000FF9020D3E0B50704E4F08004718A80E99020D3E060DA9021C2E0FFB1A574C8F005
:204C6000902EAAB135EEF09021C2B146C002C0017A2079D3128C61D001D0027F08121C805E
:204C8000919F128C61902EAB1223047F08021C80EF75F00AA4240AF582E43421F583227B29
:204CA000017A2079D322902EFB1223247B017A2079277D107F5C128C3B902EFB1223047F71
:204CC00008121C80128C317A1279437F10021C80902F7AEFF07002C322E4902272F0B12C96
:204CE00050489190E0FF902F7AE0FEEF6E7037902272B146128C61B156E4902273F0902235
:204D000073E0FFC39408501C902272E0B138B135E0B50608902273E09191E4F0902273E000
:204D200004F080DAD322718A80B4C322902272E0FFC3940822E0FEEF75F00AA42413F5820A
:204D4000E43421F58322E075F00AA4240AF9742135F0FA7B01227A2079DB7F08021C80E41D
:204D6000902272F0B12C50079190E4718980F5B1B3902292F0E49021C3F090221074FFF072
:204D800022E4902272F0B12C5016EFB1A5E07008902272E09191E4F0B1A1E014718980E679
:204DA00022902272E075F00AA42412F582E43421F5832290228474FFF022B175EF70047F77
:204DC0000480027F01029F357B017A22798A71E39021C37401F022902EAE123FCD902EAF96
:204DE000122304128C61D1037F08121C80902EAEE0FF902284F0902292E0FEEFB5060374BE
:204E0000FFF0227B017A2179C522902D27E0FF902D26E0D39F4002EFF0902D26E0FFC0036C
:204E2000C002C001902D23122304128C61D001D002D003021C80902F7CEFF012A439902FFB
:204E40007CE0700451D58007902F7CE0B4010312AE5B229021C4E0D394004004E014F022BF
:204E6000B1B39021FDE0FFF46002D18D7F10902F80EFF0129F301296B9600312A6EB9020E8
:204E8000121253ED6006902F8012B79C221253A09021FD74FFF0229021FDE0FFF46002D196
:204EA0008D22E49021FFF022EF70047F0480027F01129F35E49021C3F02290206EE0FFF474
:204EC00060031253A07E1E7F1A12533F90206EEFF09020267404F022902011E07016B1B3A9
:204EE000F1356002F1811296B9600F8F828E837F030223C6902011E014F02290206EE0FF95
:204F0000F460031253A090206E74FFF022902F7BEFF070147F02129F35D1FBC22E302F046F
:204F2000C22FF1567F02E1E090229274FFF0902F7BE0FFC16E902221E0FFF422902026E08A
:204F400014F0E0D364809480500BD1FBC22E302F04C22FF1562212D059EF60247F03129FED
:204F60003590228412A78F90215AE0902CAEF0A37420F0A3F1B9129DCAEF70047F11D16E1A
:204F8000221253A090222174FFF022EFC3940350027F03EFD3941440027F14902011EFF096
:204FA000F1356002F1817E1E7F2912533F9022211296B76003125CEE22741EF0A37456F01D
:204FC00022902EFE122324902EFE129727FFF4600E1253A0902EFE12230474FF121FEC2201
:204FE0009021C4EFF07B017A2179FDF1C17E1E7F2412533F9021FDEFF02290274FE0701B1B
:2050000012D052600312D0227F0212A42C1296B9600F8F828E837F030223C690274FE01439
:20502000F0221253A09027DE74FFF022EFD3941440027F1490274FEFF01152600211227EA5
:205040001E7F2E12533F9027DE1296B76003125CEE229027DEE0FFF4229021FFE07F00B4BF
:2050600001027F01229021FFE0B401037F00229021FF7401F0FF227A2679B9121F8470066F
:2050800004121FECD322C322EF24FF229026B9E064016005A3E0B40102D322C322902F7E77
:2050A000EFF0229027D41253ED600312B79E229027D61253ED600312B79E22902F7F129675
:2050C000B7600312A6EB22E4FFFE74EA2EF582E43420F583E04FFF0EEEB410EEEF7F0070A3
:2050E000027F0122902750E0700B311E600231077F0202A42C902750E0FFF46009EFD394D5
:20510000004003E014F0221253A09027CC74FFF022311E6002310790275074FFF02290270D
:20512000CCE0FFF422902750EFF0311E60031253A07E1E7F5B12533F9027CCEFF0229027BC
:20514000DFE07008A3E0FFF4600C800B9027DFE0F46003E014F0221253A09027E074FFF0D9
:20516000229027E0E0FFF4600231579027DF74FFF0229027DFEFF0A3E0FFF460031253A04B
:205180007E1E7F6012533F9027E0EFF022902F81EFF022902F82EFF0E49027D0F07F0122FA
:2051A000902752E0FDB4FF02C3229027DB7401F0902751E0FF7B017A2779539027CB129084
:2051C000C2E49027DBF0D3227F012231D3E4902869F0229028BBE0FFF460091253A0902889
:2051E000BB74FFF022902EB2EEF0A3123D2B31D3902EB2E0FEA3E0FFD394FFEE94004020E8
:2052000012B3E59028BAEFF0FB902EB4E0FFA3E09028BDCFF0A3EFF07E1E7F837D648010FF
:20522000902EB4E0FEA3E0FF902EB2A3E0FDE4FB1253439028BBEFF022E49028BCF09028B1
:20524000BCE0FFC394055042EF75F005A424BFF582E43428518BB507299028BCE0FD75F0B7
:2052600005A424C0F582E434281235E7FFED75F005A424C2F582E43428F583E0FCA3E0FD51
:2052800031E59028BCE004F080B422F583E0FF902869E0229028BAE0D394004004E014F0FF
:2052A0002231D39028BD1296BC6003123CFC2202A2E67F01029F3522304925902F0AE0FFD8
:2052C000C374639FFE9025ABE0D39E40057463F080069025ABE02FF0710DC39F4029801A12
:2052E000902F0A7110C39F5004E4F080079025ABE0C39FF0710DD39F500D902F0BE0FF12B9
:2053000053A0E4902F0BF07117F022C249902F0CE0FF9025ABE0227D0A7F0112A6E69025F1
:20532000A97401227B017A2079D3902CD1122324902CD41223247A227952123B96E4902E10
:205340000CF022902AC3EEF0A3EFF0AF05902AD1ECF0A3EFF0E4902ACBF022741EF0A374A1
:205360003DF0902D19E0FF128CEDEF22121F9DFFE92403F9E43AFA902BAAE024FD22902584
:205380003774FFF07E607F70E0FD22902D29122304E92409F9E43A22121FFE900003021F56
:2053A0009D902C6BE0FCA3E0FD902C71E0FB7FA622E0FF7B017A227988902CE4740AF02256
:2053C000E06E8F82758300121FFE0FEF229025ABE0FF902F0CE0FED39F229027D8022304F3
:2053E000902C03122304E922EFF0902010E004F0E064102275F005A4246DF582E434282249
:20540000128F20902C9E122324E94A22128F20902BAB122324E94A227B017D207C097FAE23
:205420000218517D18E4FF021C58902A8CE0FAA3E0FB240122EE121FFE902E0CE004F02251
:205440007E607F8D7B017A29792E22902D1FF0E0FD902AB922902D1EE02404902D3422D274
:20546000499025ABE0FFEE9F2224E5F9E43427FA7B01221223047485021FECFA902BFCE04C
:2054800024FBFD22902F44E075F005A422902F04122304E92E22902CCDE0FEC3940222F5AF
:2054A00082E43420F583E022FF902293E0FEC39F22121C6C9025F4EFF0227407F0A374014B
:2054C000F022741EF0A3744CF022FF902CCD7401F022902C26F0902C2222FF902010E0241F
:2054E00000227C002400FFEC3E22E02405902D34F022902BCBE4F0A30422F090253A74FF1E
:20550000F022AF05A3E0FDEF6D2290258AE0C394052290258AE0C394142202FFFFFFFFFF81
:00000001FF
