:020000040000FA
:200000000203370218034100C4002202180B222222FFFF021813E4FFA10EFF02181B75C8A7
:200020000122FF021823FFFFFFFFFF02182BFFFFFFFFFF021833FFFFFFFFFF02183BFFFF8B
:20004000FFFFFF021843FFFFFFFFFF02184BFFFFFFFFFF021853FFFFFFFFFF02185BFFFF10
:20006000FFFFFF021863FFFFFFFFFF02186BFFFFFFFFFF021873BB010689828A83E02250D2
:2000800002E722BBFE02E32289828A83E49322BB010CE58229F582E5833AF583E0225006A3
:2000A000E92582F8E622BBFE06E92582F8E222E58229F582E5833AF583E49322BB01068960
:2000C000828A83F0225002F722BBFE01F322F8BB010DE58229F582E5833AF583E8F0225019
:2000E00006E92582C8F622BBFE05E92582C8F222C5F0F8A3E028F0C5F0F8E58215827002FB
:200100001583E038F022A3F8E0C5F025F0F0E582158270021583E0C838F0E822BB010A89B7
:20012000828A83E0F5F0A3E022500687F009E71922BBFE07E3F5F009E3192289828A83E423
:2001400093F5F074019322BB010A89828A83F0E5F0A3F0225006F709A7F01922BBFE06F3CB
:20016000E5F009F31922EF2BFFEE3AFEED39FDEC38FC22C3EF9BFFEE9AFEED99FDEC98FCFA
:200180002275F008758200EF2FFFEE33FECD33CDCC33CCC58233C5829BED9AEC99E582989E
:2001A000400CF582EE9BFEED9AFDEC99FC0FD5F0D6E4CEFBE4CDFAE4CCF9A88222B800C180
:2001C000B90059BA002DEC8BF084CFCECDFCE5F0CBF97818EF2FFFEE33FEED33FDEC33FC38
:2001E000EB33FB10D703994004EB99FB0FD8E5E4F9FA227818EF2FFFEE33FEED33FDEC33D3
:20020000FCC933C910D7059BE99A4007EC9BFCE99AF90FD8E0E4C9FAE4CCFB2275F010EF2E
:200220002FFFEE33FEED33FDCC33CCC833C810D7079BEC9AE899400AED9BFDEC9AFCE89964
:20024000F80FD5F0DAE4CDFBE4CCFAE4C8F922EF5BFFEE5AFEED59FDEC58FC22EB9FF5F038
:20026000EA9E42F0E99D42F0E89C45F022E8600FECC313FCED13FDEE13FEEF13FFD8F12234
:20028000E8600FEFC333FFEE33FEED33FDEC33FCD8F122E0FCA3E0FDA3E0FEA3E0FF22E080
:2002A000F8A3E0F9A3E0FAA3E0FB22ECF0A3EDF0A3EEF0A3EFF022A8828583F0D083D08265
:2002C0001202CE1202CE1202CE1202CEE473E493A3C583C5F0C583C8C582C8F0A3C583C569
:2002E000F0C583C8C582C822E0FBA3E0FAA3E0F922F8E0FBA3A3E0F925F0F0E58215827072
:20030000021583E0FA38F022EBF0A3EAF0A3E9F022D083D082F8E4937012740193700DA36B
:20032000A393F8740193F5828883E4737402936860EFA3A3A380DF75814B02079BAEFFEE26
:2003400054CFFEEFC454F024804EF5FF2290091151AB9009115193B1A1900915E06F603466
:20036000110F9102EF6004111080F7B11AB1DB9000BAE0FF91E660099009115193781071F8
:200380009A900911719690091191EF900915E0FFB108D322C32251937808516DE4E5C820F5
:2003A000E2FB8FEB229000D151AB9000D57108110F9102EF6004111080F7B11AB1DB900004
:2003C000BAE0FF91E660099000D151937810719A9000D171969000D15193E4801B9000D838
:2003E000D1BB60189000D551E8EA494B60089000D5120E2B8001E4FF719D80E1B126E4FF38
:20040000A10E7F01B10E30021491D8915290092AEFF0B12690092AE020E002C20230021731
:2004200091419000B8EF91F4600BA3E0F46006EF30E702C202B126E4FFB10EA202E433FFE7
:2004400022B1DB7FD7719D7FFF719D91569000B7EFF07FFF719DE5C820E2FBAFEB227F017F
:20046000B10E9009287401F0900928E0602E91D89152900928EFF0B12691419000B8EFF0AC
:20048000B126900928E0540191F460DCA3E0F460D7EF30E7D3E4900928F080CCB1DB7F9FBC
:2004A000719D91529000B991509000BE91509000BFEFF0B10A9000B7E0F4601BA3E0F4609C
:2004C000169000BEE0FD541F240FA3F0EDC413540744809000BEF022B1DB7F05619D7F01D1
:2004E000B10EB1DB7F03719D9000BDE06402225193E4619DF09000B7E0FFF422FFFFFFFF7E
:20050000FFFFFFFFFFFFFFFF719DB126E4FFEFB4010443FE202253FEDF227F01B10ED2028B
:20052000B1DB7F06719D1213E7EF70FA9000BEE0F4600A9009277406F0F17D70FC9000BC5B
:20054000E07111055F04056714056C15057117058130058634058B36059037000005794376
:200560004610854680802F43471080084347208003434780854790801D4348208548A08041
:2005800015434901800D434910800843494080034349808549B0900927740CF0F17D70FC25
:2005A0002290090C51AB110F9102EF6004111080F791DE600990090C51937810719A90094D
:2005C0000C719690090C91EF9152900910EFF0B10A900910E0FF227F01B10E9000BCE07137
:2005E0001105FD04060514060A15060F17061F30062434062936062E37000006175346EF4C
:20060000854680802F5347EF80085347DF800353477F854790801D5348DF8548A0801553F2
:2006200049FE800D5349EF80085349BF800353497F8549B07F0CDFFE22110F9102EF6004CC
:20064000111080F7B11AB1DB7F01719D7F03719DB126E4FFA10E9000DA51AB9000DE7108D7
:20066000110F9102EF6004111080F791DE60099000DA51937810719A9000DA71969000DA48
:2006800091EF9000E1D1BB601291529000DE51E8EF11BC9000DF1212AA80E7B126E4FFA126
:2006A0000E9000B7E020E012B1D77F3D719D7F2A719D7F80719D7FA6B1082274FFF5F03154
:2006C0000645F022900929EFF09000C5E064027022B1D7900929E07FAB60027FB9719DB142
:2006E00026900929E09000C4F070047F1EDFFEE4FFB10E22900000EEF0A3EFF0A351939035
:20070000000851AB900006E0FFA3E090000CCF805D90000C120FDC605BC3EF9440EE940039
:200720004006A37440F0800590000EEFF0F185E0FF120D0DEFF09000085193D15690000E89
:20074000E0FFC390000DE09FF090000CE09400F0900008519F90000EE4FCFDFE31669000C3
:200760000851ABF174F185120C32900000EEF0A3EFF0809D900000E0FEA3E0FF229009276B
:20078000E014F0E0227B017A00790F90000E22110F9102EF6004111080F72275FF03759EEB
:2007A000029017FAE493F53C75FF02E5E654036003020B5D753CDE753DAD753EBE753FEF87
:2007C000C2AF75FF0275E404F5E47546FF7547FF7548FF7549FF7542FF7543FF7544FF7574
:2007E00045FF75FF0253E6BF1212CD1210D4120FE3EF64016003020B5490180893FE74018E
:2008000093FF9000ADEEF0A3EFF0F5828E83E493F540740193F541740293F54A740393F5F0
:200820004B740493F530740593F531740693F532740793F533C201EF4E7002212BEFF4FF01
:20084000EEF44F7002212BE540454AFEE541454BFFE5304EFEE5314FFFE5324EFEE5334FB3
:200860004E7002212BE54BF4FFE54AF4FEE541F4FDE540F44EFEED4FFFE531F4FDE530F461
:200880004EFEEF4DFFE533F4FDE532F44EFEEF4D4E7002212B7F0312033DE53324FFFFE536
:2008A00032B124640370247F0212033DE53124FFFFE530B124B402137F0112033DE54B2452
:2008C000FFFFE54AB124B40102D20120015D7F0112033DB1459000E8E54AF0A3E54BF07F6D
:2008E0000F7E1D91A57F02B13A9000E8E530F0E53191A37F03B13A9000E8E532F0E5339150
:20090000A37F0112033D900922E0FEA3E0FF7BFF7A187900E425419000E9F0E54034E8903E
:2009200000E891A44EC37001D39201300109B19AEF6401600261549000ADE0FEA3E0F582AD
:200940008E83740C93F53A740D93F53B9000961202937160900079B181FD9000AF7188EF03
:200960002408FFE43E71727B007A007938B10D7402F0120656C200D3900078E09539900034
:2009800077E09538400241639000AF12029FC000C001C002C003AE38AF39E4FCFDC006C024
:2009A00007900077E0FEA3E0FBAA06E4F9F8D007D006120173D003D002D001D00012016656
:2009C000716090007B120293EF24F2FFEE34FFB14C9000AFB1D4400241639000AF120293E2
:2009E0007A00799FB10B740EF01206569000ABE0F536A3E0F5379000A1E0F54AA3E0F54BC1
:200A0000A3E0F530A3E0F531A3E0F532A3E0F533900092120293EF24FFFFEE347F71727161
:200A200060AE4AAF4BE4FCFD9000AF71881205A1EF6401702E71667160AE30AF31E4FCFD62
:200A40009000AF71881205A1BF021871667160AE32AF33E4FCFD9000AF71881205A1BF03D4
:200A600002D200200002615030010EE53B65377004E53A6536700261507B017A0979227178
:200A80008E4002615090009B1202B700001800717A612A7440D395345002613F90007B9173
:200AA000B3EE34F8B14C9000AF12029FD312025C4002613F90009B1202937B007AF879011C
:200AC0007800C312025C40779000AF1202930B7A0179009000E17408F0A3E4F0120656E429
:200AE000F535FB91DFAF34B156E535C39408502091DDE5357F00FEEF2400F974013EFA7B55
:200B00000190090BE535F0AD34121330053580D990009B91B3EE3408717290009B1202ABF7
:200B20009000AF91B3EE340871727160E4FB7A08F9F890009B1202931201BD8F3441937455
:200B400040D39534400A91DDAF34B156053480EFE4FFB1DBE4F53CF53DF53EF53F02180038
:200B60009000AF0202AB9000AF120293E42FFFEE3480FEE43DFDE43CFC22900079E0FEA309
:200B8000E0FFE4FCFD90009612029F02016690091F120308717AEF2408FFE43E71727A00FE
:200BA000797FB10B7402F012065690007FB181FD90009271887B017A007984B10D740EF031
:200BC000120656900092716991C2900086B12D7F0F7E1D91C8B114C006C00791B0E43E919C
:200BE000BA900088B12DD007D00691C8B114C006C00791B0EE348091BA90008AB12DD007F0
:200C0000D00691C8B114C006C007717A91C2900085E02400FE900084E034E8900006F0A3C5
:200C2000CEF0D007D00691C812011C45F0C37001D322E0FD9000E8E4F0A3EDF09000E3EE59
:200C4000F0A3EFF0A31203089000E81206BB604A9000E5D12B9000EAF07D80ED60EA919A33
:200C6000EE7C0030E7027C019000EAE05D7B0060027B01EB6CFCEF25E0FFEE339000E3F09A
:200C8000A3EFF0AF04EF600C9000E3E06410F0A3E06421F0EDC313FD80C19000E3E0FEA320
:200CA000E0FF22A3F0913C900922EEF0A3EFF022900092120293E42FFF22FEED3401FDE498
:200CC0003CFC9000020202AB1206F490091F1202E8EE8FF012014790091F0202E87B007A7B
:200CE00000793CB17A75FF03120076F5D375FF03900001B11B900002B11B900003B11B7547
:200D0000D40175FF03E5D55402FF227B019000E1E4F0A32212011CFFAEF02212008FF5D379
:200D200075FF0322347F8F82F583E49322E0FFA3E0900006CFF0A3EFF02212033D900922DD
:200D4000E0FEA3E0FF7BFF7A80790022FEED34FFFDEC34FFFC2275FF03EF543F4480F5D149
:200D6000E5D520E20AE5D520E005E5D530E1F1E5D55403FF75FF0375D50575FF0375D4029A
:200D800022E0FEA3E0FFE4FC227F0F7E1D91349000EF1202E89000F28132E4900926F0900E
:200DA000009AE06020B1CB70087FFF7E77FDFC800CD11B50107FFF7EFF7D017C001205A154
:200DC000900926EFF0900926E0FF22E4FFFE7D02FC90007B12029FC302025C900924EFF0DC
:200DE000E4A3F090009AE06021B1CB7008D1107E777D00800AD11B5011D1107EFF7D017C7B
:200E00000012034DE433900925F0900925E0FF22900924E0900915F07FFF2290007B1202F2
:200E200093E4FBFA7904F8D302025CE475F0011202F1020076B17A75FF03E5D5F45402FF32
:200E4000229000FCD15CC0079000FC1202E89000FFE0FFB10DEFF0D007020656120308E427
:200E6000FCFD22900902D15CC0079009021202E8900905F1D0F0D00790004F1202AB9000DD
:200E800053120308E4900076F0D3900057E0941E900056E094004001227B017A00795890A8
:200EA0000056E0FFA3E09000E1CFF0A3EFF090004F1202931206569000531202E8E94A6062
:200EC0000F900076E0F58275830012008FFF80027F00900076E02458F582E43400F583E0C4
:200EE0006F6002C322900076E004FFF0D3900057E09F900056E0940050BD229000C6120237
:200F0000AB9000CA1203081214389000CDF1D0F09000C6120293D1785002E1C59000C1E0D4
:200F200024FFFF9000C0E034FFFEE4FCFD9000C612029F12024F9000CFEEF0A3EFF04E6078
:200F40003BF1C7C39000C1E09FFF9000C0E09EFE9000CFF0A3EFF09000CDE0FCA3E0FDD3E3
:200F60009FEC9E5006A3ECF0A3EDF01213F3E94A6004F1C780427E007F00803C9000CDF1C3
:200F8000DC60409000C0E0FCA3E0FDD3EF9DEE9C400A9000CFECF0A3EDF0800D9000CDE071
:200FA000FFA3E0A3CFF0A3EFF01213F3E94A6004F1C780047E007F009000CBEE8FF0120009
:200FC000F080B9D322C3229000CFE0FEA3E0FF22E0FFA3E0900056CFF0A3EF22E0FEA3E011
:200FE000FF4E22E490009AF07B017A007981121378900083E0FBB411229000961202B70031
:201000000078009000921202B7000060009000777418F0A3E4F0A3F0A380277412D39B50F0
:20102000279000961202B7000200009000921202B700020000E4900077F0A3F0A37418F01A
:20104000A3E4F090009A04F090009AE0FB6017E4FFFE7D02FC900083E024EFF9F812028098
:2010600090007B1202ABAF032275FF03E4F59751B1E59720E1FB75FF03AF9922900916EFF2
:20108000F0A3EDF0A3120308900917E06045901215E06012900916E02410FF1169900918F5
:2010A0001202E8EF8017900916E0640190091870071202E8748080051202E874FF1200BCE0
:2010C00090091951AA900917E014F0900916E004F080B5227B017A0079BC7F0351917A00EC
:2010E00079C57F0851917A0079C27D027F09117C7B017A0079C07D027F0B117C9000C012D9
:201100000FDC6006BEFF1BBFFF189000C5E024FD600304700451A080099000C0E4F0A374EA
:2011200040F09000C5E024FD60030470089000BD7403F080069000BD7402F09000BCE0121F
:201140000311115E04116914117115117917118F30119734119F3611A7370000118475FFB8
:20116000015342EF8542FD804775FF015343EF800E75FF015343DF800675FF0153437F8558
:2011800043C9802C75FF015344DF8544CA802175FF015345FE801675FF015345EF800E75D8
:2011A000FF015345BF800675FF0153457F8545CB1205267F11518BE4FF1206C412045E90C5
:2011C00000BA7402F09000BEE0247F60090470165198740A80071206A151987458F090004F
:2011E000BD7403F051A09000BFE0F4600241889000C2E0FEA3E0FF64104E70069000BF74DF
:201200000EF0EF64204E70069000BF740FF0EF64404E70069000BF7410F0EF64804E700626
:201220009000BF7411F0E4B5070AEEB401069000BF7412F0E4B5070AEEB402069000BF74BB
:2012400013F0E4B5070AEEB404069000BF7414F0E4B5070AEEB408069000BF7415F0E4B5B3
:20126000070AEEB410069000BF7416F0E4B5070AEEB420069000BF7417F0E4B5070AEEB454
:2012800040069000BF7418F0020639EF4420F5FE227D01117C7B01227F10518B9000BA2214
:2012A0009000C07401F0A3E4F022E475F0010200F075FF038F9875FF032275FF03759701E9
:2012C00051B1E59720E1FB75FF03AF992290091B7410F090091BE0FFD3947F503D1169907B
:2012E000091CEFF090091BE0B410067E1D7F0F800890091DE0FEA3E0FF7B017A09791C90A1
:2013000000E8E4F0A304F0120C3C90091DEEF0A3EFF090091BE004F080B990091DE0700241
:20132000A3E07F0070027F01901215EFF024FF2275FF03ACD5EC20E13C75FF03ED543FF5D1
:20134000D175FF03E9F5D375FF03EA540FFF90090BE0C4547044804FF5D2E5D520E205E545
:20136000D530E0F6E5D55401FC75FF0343D40275FF0375D505AF04229000B9E01200BC90D5
:2013800000BEE09000011200CE9000BFE09000020200CEE4FCFD0205A1AB05E4FCFD900902
:2013A00015EBF002034D9000F5120E5CC0079000F51202E89000F8E0FFA3E09000CDCFF09C
:2013C000A3EFF0D007020EFBEFB40109D2AD75FF0143AE4022C2AD75FF0153AEBF22E5C842
:2013E0005402FF75C80222E5C85404FF22E5C85401FF229000CA1202E89000CFE0FFA3E0D7
:201400009000D8CFF0A3EFF09000C61202931203A59000CFE0FEA3E0FFC39000CEE09FF01D
:201420009000CDE09EF09000C612029FE4FCFD1201669000C61202AB9000CA0202E8FFFF29
:20144000FFFFFFFFFFFFFFFFFFFFFFFFFFFFFFFFFFFFFFFFFFFFFFFFFFFFFFFFFFFFFFFFAC
:20146000FFFFFFFFFFFFFFFFFFFFFFFFFFFFFFFFFFFFFFFFFFFFFFFFFFFFFFFFFFFFFFFF8C
:20148000FFFFFFFFFFFFFFFFFFFFFFFFFFFFFFFFFFFFFFFFFFFFFFFFFFFFFFFFFFFFFFFF6C
:2014A000FFFFFFFFFFFFFFFFFFFFFFFFFFFFFFFFFFFFFFFFFFFFFFFFFFFFFFFFFFFFFFFF4C
:2014C000FFFFFFFFFFFFFFFFFFFFFFFFFFFFFFFFFFFFFFFFFFFFFFFFFFFFFFFFFFFFFFFF2C
:2014E000FFFFFFFFFFFFFFFFFFFFFFFFFFFFFFFFFFFFFFFFFFFFFFFFFFFFFFFFFFFFFFFF0C
:20150000FFFFFFFFFFFFFFFFFFFFFFFFFFFFFFFFFFFFFFFFFFFFFFFFFFFFFFFFFFFFFFFFEB
:20152000FFFFFFFFFFFFFFFFFFFFFFFFFFFFFFFFFFFFFFFFFFFFFFFFFFFFFFFFFFFFFFFFCB
:20154000FFFFFFFFFFFFFFFFFFFFFFFFFFFFFFFFFFFFFFFFFFFFFFFFFFFFFFFFFFFFFFFFAB
:20156000FFFFFFFFFFFFFFFFFFFFFFFFFFFFFFFFFFFFFFFFFFFFFFFFFFFFFFFFFFFFFFFF8B
:20158000FFFFFFFFFFFFFFFFFFFFFFFFFFFFFFFFFFFFFFFFFFFFFFFFFFFFFFFFFFFFFFFF6B
:2015A000FFFFFFFFFFFFFFFFFFFFFFFFFFFFFFFFFFFFFFFFFFFFFFFFFFFFFFFFFFFFFFFF4B
:2015C000FFFFFFFFFFFFFFFFFFFFFFFFFFFFFFFFFFFFFFFFFFFFFFFFFFFFFFFFFFFFFFFF2B
:2015E000FFFFFFFFFFFFFFFFFFFFFFFFFFFFFFFFFFFFFFFFFFFFFFFFFFFFFFFFFFFFFFFF0B
:20160000FFFFFFFFFFFFFFFFFFFFFFFFFFFFFFFFFFFFFFFFFFFFFFFFFFFFFFFFFFFFFFFFEA
:20162000FFFFFFFFFFFFFFFFFFFFFFFFFFFFFFFFFFFFFFFFFFFFFFFFFFFFFFFFFFFFFFFFCA
:20164000FFFFFFFFFFFFFFFFFFFFFFFFFFFFFFFFFFFFFFFFFFFFFFFFFFFFFFFFFFFFFFFFAA
:20166000FFFFFFFFFFFFFFFFFFFFFFFFFFFFFFFFFFFFFFFFFFFFFFFFFFFFFFFFFFFFFFFF8A
:20168000FFFFFFFFFFFFFFFFFFFFFFFFFFFFFFFFFFFFFFFFFFFFFFFFFFFFFFFFFFFFFFFF6A
:2016A000FFFFFFFFFFFFFFFFFFFFFFFFFFFFFFFFFFFFFFFFFFFFFFFFFFFFFFFFFFFFFFFF4A
:2016C000FFFFFFFFFFFFFFFFFFFFFFFFFFFFFFFFFFFFFFFFFFFFFFFFFFFFFFFFFFFFFFFF2A
:2016E000FFFFFFFFFFFFFFFFFFFFFFFFFFFFFFFFFFFFFFFFFFFFFFFFFFFFFFFFFFFFFFFF0A
:20170000FFFFFFFFFFFFFFFFFFFFFFFFFFFFFFFFFFFFFFFFFFFFFFFFFFFFFFFFFFFFFFFFE9
:20172000FFFFFFFFFFFFFFFFFFFFFFFFFFFFFFFFFFFFFFFFFFFFFFFFFFFFFFFFFFFFFFFFC9
:20174000FFFFFFFFFFFFFFFFFFFFFFFFFFFFFFFFFFFFFFFFFFFFFFFFFFFFFFFFFFFFFFFFA9
:20176000FFFFFFFFFFFFFFFFFFFFFFFFFFFFFFFFFFFFFFFFFFFFFFFFFFFFFFFFFFFFFFFF89
:20178000FFFFFFFFFFFFFFFFFFFFFFFFFFFFFFFFFFFFFFFFFFFFFFFFFFFFFFFFFFFFFFFF69
:2017A000FFFFFFFFFFFFFFFFFFFFFFFFFFFFFFFFFFFFFFFFFFFFFFFFFFFFFFFFFFFFFFFF49
:2017C000FFFFFFFFFFFFFFFFFFFFFFFFFFFFFFFFFFFFFFFFFFFFFFFFFFFFFFFFFFFFFFFF29
:2017E000FFFFFFFFFFFFFFFFFFFFFFFFFFFFFFFFFFFFFFFFFFFFFFFFFFFF0426FFFEFFFFDE
:20180000021F0B1A611A66227FB8FF0267C65A2D5761766520342E353400FF0267CB1A9D2B
:201820001AA2FF0268091B381B3DFF0258C0EF90183793901900730A20364CE560FF22EF38
:20184000F56022822D1C16131110100250671C9B1CA0FF02680EC2D5E830E70FB2D5E4C376
:201860009BFBE49AFAE499F9E498F8EC30E717B2D512188C122997E4C39BFBE49AFAE49915
:20188000F9E498F8800312299730D50DE4C39FFFE49EFEE49DFDE49CFC22789CE4F6D8FDD0
:2018A0009000007F007E10E4F0A3DFFCDEFA904FFFA3E583C394204011FEAF829020000EC3
:2018C0000FE48002F0A3DFFCDEFA121920021F1D22323F241E16110E0B0907050403020190
:2018E000F0C8A791776760463835323024222014000101020203030404050506060707FFF4
:20190000C0607419C0E0C082C08375600AE5FF54CF4490F5FF22C0607419C0E0C082C08353
:20192000756020E5FF54CF4490F5FF22C0607419C0E0C082C083756036E5FF54CF44A0F504
:20194000FF22C0607419C0E0C082C08375604CE5FF54CF44B0F5FF2290800A2116909001F0
:2019600021169090042116909FFD211690A7FC21169097AB211690A7FF211690B7F2211622
:2019800090872D2116908FB821169091AE211690B843211690B844211690B964211690B20D
:2019A00052211690B913211690C070211690C076211690C25F211690C32C211690991A2115
:2019C0001690C5B0211690C5C5211690C5D7211690C64D211690C7D4211690C82C2116907A
:2019E000C893211690968A2116909164211690917E21169090C9211690C95B211690B499F4
:201A0000211690B634211690B5AD211690BEDF211690A749211690BD74211690BDBF21165F
:201A200090BE6C211690C984211690BCFD211690902E2116909070211690BC74211690CD81
:201A400009211690CA4B211690BEBB211690CD6C211690CDAC211690C771211690C77E21F5
:201A60001690B905211690CE2F211690B09C212C90B189212C90B8C2212C90BAA6212C90A3
:201A80008533212C90BE04212C909A17212C90BF9A212C90BF9B212C90BFA1212C90C1F623
:201AA000212C90C478212C90C812212C90C871212C90C879212C90B05F212C90C8B6212C8E
:201AC00090802A212C90CB4C212C90CBAF212C90CD51212C90CE58212C90D0A5212C90CB89
:201AE00081212C908616212C909F42212C90C5BA212C90A8AC212C90D31C212C90AF3E21EA
:201B00002C90D606212C90D78C212C90D79E212C9084CF212C90D6F9212C90D7C2212C906C
:201B2000A26E212C90D7C5212C90D7CF212C90D191212C90D7D5212C90D7DB212C90D7DEB0
:201B4000212C90D887212C90D88A212C90BF79212C90B69F212C90D498212C90CBD5212CB0
:201B600090DB92212C90CE55212C90854F212C90DFD7212C90E171212C90E439212C90DA44
:201B800082212C90DAD9212C90E613212C90E566212C90E460212C90E6E5212C90E83C214A
:201BA0002C90E602212C90E64D212C90C587212C90CDDC212C90EFB1212C90EFE6212C90B6
:201BC000AF26212C90B5FA212C90A68F212C90F089212C90F092212C90F099212C90F0DCCE
:201BE000212C90DC96212C90DB4F212C90DC7E212C90F236212C90F25A212C90F26D212CA1
:201C000090F27D212C90F283212C90F289212C90E980212C90EC0E212C90F4CD212C90C4BF
:201C200007212C90F63E212C90F588212C90F522212C90F66E212C90C716212C90C4F2218F
:201C40002C90AA4C212C90F1DC212C90F240212C90F243212C90F6B7212C90F1E7212C90EB
:201C6000F6B8212C90F6BE212C90F6CD212C90C563212C90C541212C90F6F9212C90F753AA
:201C8000212C90F7A2212C908634212C90A5BC212C909D9C212C90C0D4212C90F87F212CD1
:201CA00090F88F212C9094C321429094CB21429094D421429094DD21429094F221429094C8
:201CC000E121429094B7214290AFE6214290B00E214290B07B214290B0B0214290B0EE2189
:201CE0004290B212214290B158214290B1DD214290B180214290843E2142908A2121429067
:201D0000819E214290994821429082DF21429082AD214290996121429098E22142908A9AE9
:201D2000214290B3192142908286214290A065214290B9F9214290BA3D214290BA4421420E
:201D400090AA3E2142908AE4214290BB57214290A4032142909EF821429091472142909133
:201D6000DC21429091DF21429094932142909496214290949921429085F4214290BB6A2128
:201D800042908AE1214290A56C2142909EEF214290B95C214290959F21429095CD2142900B
:201DA00095D021429096D4214290BBCD21429091C821429097F7214290A8A421429085F76B
:201DC000214290A55E2142909804214290BC82214290AA88214290AAB82142908AF92142FA
:201DE000909353214290B075214290949C214290B487214290AACF214290BE0C2142909157
:201E00004F21429095B32142908A53214290884A214290ABEB2142909EFB21429083A12156
:201E2000429095DB214290B32921429080772142908328214290AA55214290838F2142901F
:201E400084DD21429099982142909FFF214290BF70214290AE49214290AD44214290AD9448
:201E60002142908AD6214290AEEF214290C6E7214290987F214290AD67214290AD122142B9
:201E8000908AEC214290ABF2214290B0A22142908A61214200902D5AE47E0193700122A3E3
:201EA000FF543F30E509541FFEE493A360010ECF54E0B4E03AEFFAEEF9E493FBA3E493FE4D
:201EC000A3E493FFA3E493FDC083C082C001C002C006C007121971D007D006D002D001D081
:201EE00082D083A30FEF70010EDADAD9D880A954C025E060105005A3DFFD809CA3A3A3DF1E
:201F0000FDDEFB8093A3A3DFFD808D75819C75FF03759E02121920023AD20218D0902D5A31
:201F2000E47E019360F4A3FF543F30E509541FFEE493A360010ECF54E0B4E00EEFFAEEF995
:201F4000A3A3A3A3DAFDD9FB80D654C025E0604B5026E493A3F85407240CC8C333C4540F38
:201F60004420C8834004F456800146F6DFE480B00102040810204080E493A3FAE493A3F84F
:201F8000E493A3C8C582C8CAC583CAF0A3C8C582C8CAC583CADFE9DEE78085E493A3F8E4A6
:201FA00093A34003F68001F208DFF4021F205E8672598573718480303170987A5AEF5E86F7
:201FC000725985737184803031707A5AEF5E98845AEF5E8672845985737180303170987A73
:201FE000000E08F8000E0F3800000000020C00003F3F3F0404041B1A1B1F1B241B291B2E6C
:20200000DFFE22A2AF92D5C2AF11FEEF31353182EC31353182ED3135318211FE74014F3172
:202020003531827980800631B431E5F709DBF831B431F4F7512DA2D592AF22A2AF92D5C298
:20204000AF11FEEF31353182EC31353182ED313531827980E73135318209DBF8512DA2D5E5
:2020600092AF22A2AF92D5C2AF11FEEF31353182ED3135318211FE74014F313531827980D2
:20208000800631B431E5F709DBF831B431F4F7512DA2D592AF22A2AF92D5C2AF11FEEF313B
:2020A000353182ED313531827980E73135318209DBF8512DA2D592AF22A2AF92D5C2AF11CB
:2020C000FE74014F313531827980800631B431E5F709DDF831B431F4F7512DA2D592AF227D
:2020E000A2AF92D5C2AF11FEEF313531827980E73135318209DDF8512DA2D592AF2275FFFD
:20210000014353024357028553FD75FF014353014357018553FD5164C28175FF015353FD29
:202120008553FDC2815164C28075FF015353FE8553FDC280227808C28075FF015353FE85DE
:2021400053FDC28033400FC28175FF015353FD8553FDC281800C75FF01435302435702853E
:2021600053FD516475FF014353014357018553FD5164D8C3C28075FF015353FE8553FDC29C
:20218000802275FF014353024357028553FD75FF014353014357018553FD5164A281724C0D
:2021A000924C00000000C28075FF015353FE8553FDC2802275FF014353024357028553FD2F
:2021C000780875FF014353014357018553FD5164A28133C28075FF015353FE8553FDC28086
:2021E0005164D8DE22C28175FF015353FD8553FDC281800E75FF014353024357028553FDD3
:20220000516475FF014353014357018553FD5164C28075FF015353FE8553FDC2805164C2EF
:202220008175FF015353FD8553FDC28122C28175FF015353FD8553FDC281C28075FF01534E
:2022400053FE8553FDC280516475FF014353014357018553FD516475FF0143530243570287
:202260008553FD2200000000000000000000000000000022022635E86480F8E933E833608D
:20228000110460F0ED33EC337009E8FCE9FDEAFEEBFF220460DED3EB9FEA9EE99DE8C2E725
:2022A0008CF0C2F795F0400CE8CCF8E9CDF9EACEFAEBCFFB12260085D0F05804700320D515
:2022C000B3E80470075002B2D502263F92D5EC0460F7E4CCC0E0C398F8603B941860084068
:2022E0000DD0E0FB022617E4FBFAC9FC8028E830E406E4C9FBE4CAFCE830E305E4C9CACB0B
:20230000FCE854076010F8C3E913F9EA13FAEB13FBEC13FCD8F130F52FC3E49CFCEF9BFF8E
:20232000EE9AFEED99FDD0E0FBEF4E4D4C701222DB0302263CEC2CFCEF33FFEE33FEED33B9
:20234000FDED30E7EB022617EF2BFFEE3AFEED39FDD0E0FB50130BBB000302263FED13FDB5
:20236000EE13FEEF13FFEC13FC022617EC4D6011E8497017ED33EC3304600DE4FCFFFEFD37
:2023800022E933E8330470F802263512260058046009E4CC2481500628500902263F284023
:2023A0000302263CC0E0EB4A7044B98006D0E0FB02262BEF4E701CBD8008EBFFEAFEE9FD2A
:2023C00080EBE98DF0A4FEE5F0022455E9CDF9EAFEEBFFEF89F0A4FCE5F0CE89F0A42EFFC4
:2023E000E435F0CD89F0A42DFEE435F08067EF4E7005BD80D780C3EF8BF0A4ACF0EE8BF0B3
:20240000A42CFCE435F0F8EF8AF0A42CE5F038FCE433CB8DF0A42CFCE5F03BF8EE8AF0A46E
:202420002CFCE5F038F8E433CF89F0A42CFCE5F038CF3400CE89F0A42FFFE5F03EFEE433F3
:20244000C98DF0A42EFEE5F039CD8AF0A42FFFE5F03EFEE43DFD33D0E0FB50070BBB000F06
:2024600002263FEC2CFCEF33FFEE33FEED33FD02261702263FEC5D046005E8590470030272
:202480002635122600580460F6EC4860F2EC7004FDFEFF22C860DB2481C85009C39860026F
:2024A000500602263C9850CAF582E9294B4A7005AB8202262B75F0007C1A7880C3EF9BEE6F
:2024C0009AED99400DC3EF9BFFEE9AFEED99FDE842F0DC23ACF0D0E0FFD0E0FED0E0FDABD0
:2024E0008220E7101BEB60BAEC2CFCEF33FFEE33FEED33FD022617E803F830E705C0F0754F
:20250000F000EF2FFFEE33FEED33FD40B830E7C280AA74F8CC6480CCC86480C8F582046040
:202520004FC3EB9FF5F0EA9E42F0E99D42F0E89C45F0603C501DE5825FFFE582D313CB5BAE
:20254000CBF42B5582FB50280ABA002409B9002008801DE5825BFBE582D313CF5FCFF4C31A
:20256000132F5582FF50090EBE00050DBD00010CC3EB9FF5F0EA9E42F0E99D42F0E89C45D5
:20258000F06007CC4820E701B3EC2275F020800E75F010800575F0087D007E007F0033924E
:2025A000D530D503122A43EC334010EF33FFEE33FEED33FDEC33FCD5F0ED22E5F0247EA2EB
:2025C000D513CC92E7CDCEFF22EDD2E7CD33EC3392D524814006E4FFFEFDFC22FCE4CFCE82
:2025E000CDCC24E0501174FF80EDC3CC13CCCD13CDCE13CECF13CF0470F030D5DE022A43CC
:20260000E9D2E7C933E833F892D5EDD2E7CD33EC33FC5002B2D522EC30E7100FBF000C0EEB
:20262000BE00080DBD00040BEB6014A2D5EB13FCED92E7FD2274FFFCFDFEFF22E480F8A21D
:20264000D574FF13FC7D80E480EFE709F608DFFA8046E709F208DFFA803E88828C83E709BC
:20266000F0A3DFFA8032E309F608DFFA8078E309F208DFFA807088828C83E309F0A3DFFA61
:20268000806489828A83E0A3F608DFFA805889828A83E0A3F208DFFA804C80D280FA80C6C0
:2026A00080D4806980F28033801080A680EA809A80A880DA80E280CA803389828A83ECFA9F
:2026C000E493A3C8C582C8CCC583CCF0A3C8C582C8CCC583CCDFE9DEE7800D89828A83E4C9
:2026E00093A3F608DFF9ECFAA9F0EDFB2289828A83ECFAE0A3C8C582C8CCC583CCF0A3C8B2
:20270000C582C8CCC583CCDFEADEE880DB89828A83E493A3F208DFF980CC88F0EF60010EBA
:202720004E60C388F0ED2402B4040050B9F582EB2402B4040050AF232345822390269A73AA
:20274000BB010689828A83E0225002E722BBFE02E32289828A83E49322BB010CE58229F584
:2027600082E5833AF583E0225006E92582F8E622BBFE06E92582F8E222E58229F582E5831B
:202780003AF583E49322BB010989828A83F8E028F022500327F722BBFE05F8E328F3228A0C
:2027A000838982F8E4932822BB010689828A83F0225002F722BBFE01F322F8BB010DE58284
:2027C00029F582E5833AF583E8F0225006E92582C8F622BBFE05E92582C8F222EF8DF0A445
:2027E000A8F0CF8CF0A428CE8DF0A42EFE22BC000BBE0029EF8DF084FFADF022E4CCF87574
:20280000F008EF2FFFEE33FEEC33FCEE9DEC984005FCEE9DFE0FD5F0E9E4CEFD22EDF8F528
:20282000F0EE8420D21CFEADF075F008EF2FFFED33FD4007985006D5F0F222C398FD0FD59C
:20284000F0EA22C5F0F8A3E028F0C5F0F8E582158270021583E038F022A3F8E0C5F025F010
:20286000F0E582158270021583E0C838F0E822BB010A89828A83E0F5F0A3E022500687F071
:2028800009E71922BBFE07E3F5F009E3192289828A83E493F5F074019322BB0110E5822964
:2028A000F582E5833AF583E0F5F0A3E0225009E92582F886F008E622BBFE0AE92582F8E289
:2028C000F5F008E222E5832AF583E993F5F0A3E99322BB010A89828A83F0E5F0A3F02250B3
:2028E00006F709A7F01922BBFE06F3E5F009F31922EF2BFFEE3AFEED39FDEC38FC22C3EFEC
:202900009BFFEE9AFEED99FDEC98FC22E88FF0A4CC8BF0A42CFCE98EF0A42CFC8AF0EDA416
:202920002CFCEA8EF0A4CDA8F08BF0A42DCC3825F0FDE98FF0A42CCD35F0FCEB8EF0A4FE6B
:20294000A9F0EB8FF0A4CFC5F02ECD39FEE43CFCEAA42DCE35F0FDE43CFC2275F0087582B1
:2029600000EF2FFFEE33FECD33CDCC33CCC58233C5829BED9AEC99E58298400CF582EE9BD0
:20298000FEED9AFDEC99FC0FD5F0D6E4CEFBE4CDFAE4CCF9A88222B800C1B90059BA002DCB
:2029A000EC8BF084CFCECDFCE5F0CBF97818EF2FFFEE33FEED33FDEC33FCEB33FB10D70326
:2029C000994004EB99FB0FD8E5E4F9FA227818EF2FFFEE33FEED33FDEC33FCC933C910D726
:2029E000059BE99A4007EC9BFCE99AF90FD8E0E4C9FAE4CCFB2275F010EF2FFFEE33FEED95
:202A000033FDCC33CCC833C810D7079BEC9AE899400AED9BFDEC9AFCE899F80FD5F0DAE40C
:202A2000CDFBE4CCFAE4C8F922EF5BFFEE5AFEED59FDEC58FC22EF4BFFEE4AFEED49FDEC9B
:202A400048FC22C3E49FFFE49EFEE49DFDE49CFC22EB9FF5F0EA9E42F0E99D42F0EC64807E
:202A6000C864809845F022EB9FF5F0EA9E42F0E99D42F0E89C45F022E8600FECC313FCEDFD
:202A800013FDEE13FEEF13FFD8F122E86010ECA2E713FCED13FDEE13FEEF13FFD8F022E890
:202AA000600FEFC333FFEE33FEED33FDEC33FCD8F122BB010789828A83022AEC5005E9F858
:202AC000022CD0BBFE05E9F8022CDC89828A83022AF8BB010789828A83022B695005E9F86C
:202AE000022D12BBFE05E9F8022D1E22E0FCA3E0FDA3E0FEA3E0FF22E493FC740193FD741A
:202B00000293FE740393FF22E0F8A3E0F9A3E0FAA3E0FB22BB010789828A83022B08500521
:202B2000E9F8022CE8BBFE05E9F8022CF589828A83022D027401FF3395E0FEFDFCA3A3A397
:202B4000E0CF2FF0E582158270021583E0CE3EF0E582158270021583E0CD3DF0E5821582E3
:202B600070021583E0CC3CF022ECF0A3EDF0A3EEF0A3EFF022A8828583F0D083D082122BCC
:202B80008C122B8C122B8C122B8CE473E493A3C583C5F0C583C8C582C8F0A3C583C5F0C56C
:202BA00083C8C582C822A42582F582E5F03583F58322E0FBA3E0FAA3E0F922F8E0FBA3A3A1
:202BC000E0F925F0F0E582158270021583E0FA38F022EBF0A3EAF0A3E9F022BB0107898227
:202BE0008A83022BB25005E9F8022D2ABBFE05E9F8022D3C89828A83022D4EBB011A8982DA
:202C00008A83D0F0D0E0F8D0E0F9D0E0FAD0E0FBE8C0E0C0F0022BD25016E9F8D083D0821E
:202C2000D0E0F9D0E0FAD0E0FBC082C083022D33BBFE16E9F8D083D082D0E0F9D0E0FAD037
:202C4000E0FBC082C083022D4522D083D082F8E4937012740193700DA3A393F8740193F595
:202C6000828883E4737402936860EFA3A3A380DFD083D082F8E4937012740193700DA3A307
:202C800093F8740193F5828883E473740293B5F0067403936860E9A3A3A3A380D88A8389DF
:202CA00082E473EC8EF0A4CCC5F0CCCDF8EFA4CEC5F02DFDE43CFCE8A42EC8C5F03DFDE46A
:202CC0003CFCEFA4FFE5F028FEE43DFDE43CFC22E6FC08E6FD08E6FE08E6FF22E2FC08E243
:202CE000FD08E2FE08E2FF22E6FB08E6F908E6FA08E6CBF822E2FB08E2F908E2FA08E2CB08
:202D0000F822E493F8740193F9740293FA740393FB22ECF608EDF608EEF608EFF622ECF259
:202D200008EDF208EEF208EFF222E6FB08E6FA08E6F922EBF608EAF608E9F622E2FB08E24E
:202D4000FA08E2F922EBF208EAF208E9F222E493FB740193FA740293F922412CC80041029E
:202D6000B20041340C00C151C139410415060114004104140141041301C12F011A000117C9
:202D800000C130C132C12641253300412599FF41259100C125C12441259A0041259B0041CD
:202DA000259201C12841253200C135C12C013000C129C12A43316D00000041316C004131C0
:202DC0007000012000412986004130F3FF4130EEFFC1B6C1384130ED00C137412C5A0041E3
:202DE0002C6300412C6700412C6600412C6200412C5D00422C5B0000422C690000C15F4103
:202E00002BD500412BDC28412BE200422BD30000412BE100412BD200412BD80043328600EA
:202E2000000041328900432AF8000000412AFD00C160492AEE4C6966656C696E65004E2AA7
:202E4000FE2001300380033105710584075A014134300041319A0041319800413199004104
:202E60002B8400412B7B32C161422B770000422B8A0000422B7E03E8422B790000422B8CD8
:202E80000000412B8100412DA000412D9E0041321DFF41321BFF41321A0A4231A60000C19E
:202EA000444131A2004133490A41334A0041334B004129E51E4229F300004229EE00004210
:202EC00029EC0FFF4229FC00004129E9004229E602034129EB004121C300412284004120FD
:202EE0007000C146C14541206EFF412026004121C402412210FF4121FE0041271300412723
:202F000065FF6050271401030300000505001C4B0501001C4B00070100000203030000026B
:202F200001001C4B0306001C4B0301001C4B0101001C4B01020200000008040000040405C7
:202F400000000004051C550005000000FF03FE0000FFFFFE1C465927690207D01C5003075C
:202F6000D01C500500141C500107D01C500407D01C50412680FF4126FCFF41270FFF4127DF
:202F800010FF41270E004127030041270D0043270800000041270C004326FD000000412718
:202FA000020041270B00422711000042270400004227060000609625E90000000000000042
:202FC0000000000000000000000000000000000000000000000000000000000000000000F1
:202FE0000000000000000000000000000000000000000000000000000000000000000000D1
:203000000000000000000000000000000000000000000000000000000000000000000000B0
:20302000000000000000000000000000000000000000000000000000000000000000000090
:2030400000000000000000000000000000000041312E00502A6DA81FFF7F3F3F079FFFFF82
:20306000FFFFFF1313FF502A7D00030000000100010080808080830300C114C10FC111C174
:203080000CC116C108C10AC10BC109C11AC118C11BC10EC115C110C112C10DC117C11C4186
:2030A0002B2E00412B2D00412B3900412B3800412B4100C119C193412B3B00422B2B0000BB
:2030C000412B2800422E71F448C17644308F00000000423093000041309600442ADE0000AD
:2030E0000000442AE200000000442AE600000000442AEA00000000422ACF0000422AD1005C
:20310000006020278200000000000000000000000000000000000000000000000000000086
:203120000000000000604027A200405734039874BC002B0A480000AFBB000A228D017E72FF
:2031400048038E3A947B6B01000025352F0218A9FC001B199A00006DAC0006600600C30D76
:20316000EE0388EE64DB8F01004132540041325200413259004132570041325600C14EC15E
:203180004D413255FF41325800413392004133930041339100E00C02612500860000000242
:2031A0000064010D0436413394004233950000001DC71DCC1DD11DD61DDB11224488012B80
:2031C0002F012B31012B32012B34012B35020102010101020408100000000000000000001E
:2031E000000000000000001C5F1C641C691C6E1C731C781C7D1C82980500F1000000000ECF
:203200001000000E1000000E10010204080000000000000000000000000000000000000053
:2032200019E419E919EE19F319F819FD1A071A16BDB91C1E1C231C281C2D1C321C371C3C8F
:203240001C41198F199E19A319A819AD19B71C461C4B1C501C551C5A1AA71AAC1AB11AB661
:203260001ABB1ACF1AD41AD91AF21AF71AFC1B011B061B0B1BB01BB51BBA1BC91BD31BE2DA
:203280001DF41DF900000B691A3E1A481B331B791BF61D311E217F0191D4902CC0E0122CDA
:2032A0004A32BD0432C51432CA1532CF1732DF3032E43432E93632EE37000032D75357EFC8
:2032C000855780802F5358EF80085358DF800353587F855890801D5359DF8559A08015538F
:2032E0005AFE800D535AEF8008535ABF8003535A7F855AB07F0CDFFE227F0191D4903409DF
:203300007401F0903409E0602ED1577195903409EFF091537184902CBCEFF0915390340952
:20332000E05401F1F760DCA3E0F460D7EF30E7D3E4903409F080CC519A7F9F717C71959034
:203340002CBD7193902CC27193902CC3EFF091D0902CBBE0F4601BA3E0F46016902CC2E02E
:20336000FD541F240FA3F0EDC41354074480902CC2F022122AEC7808122A78E4E5C820E2B5
:20338000FB8FEB22519A7FD7717C7FFF717C7199902CBBEFF07FFF717CE5C820E2FBAFEBEE
:2033A000227F0191D4304F14D157719590340BEFF0915390340BE020E002C24F304F1771EA
:2033C00084902CBCEFF1F7600BA3E0F46006EF30E702C24F9153E4FF91D4A24FE433FF2264
:2033E000902F11122B69902F15122BD2D14271A1EF6004B1FD80F79147519A902CBEE0FFBB
:20340000B1F4600A902F11122AEC78107178902F117173902F11122AECE48021902F18121A
:2034200069AC601D902F15126945600F902F15E475F001122BBB1227408001E4FF717C8097
:20344000DB9153E4FF81D47F0191D4D24F519A7F06717C125898EF70FA902CC2E0F4600BFA
:203460009034087406F0126B0670FB902CC0E0122C4A348E04349314349815349D1734ADF9
:203480003034B23434B73634BC37000034A5126A99802F4358108008435820800343588071
:2034A000855890801D4359208559A08015435A01800D435A108008435A408003435A8085D1
:2034C0005AB0903408740CF0126B0670FB22717C9153E4FFEFB4010443FE202253FEDF2265
:2034E0009031DD122B699031DD122AECB12C9031E1E06F6035D14271A1EF6004B1FD80F7C2
:203500009147519A902CBEE0FFB1F4600A9031DD122AEC781071789031DD71739031DDD158
:20352000519031E1E0FF91CED322C3229031D8122B69D14271A1EF6004B1FD80F7B1EC60A7
:203540000A9031D8122AEC781071789031D871739031D8D15171959031DCEFF091D0903153
:20356000DCE0FF22D14271A1EF6004B1FD80F79147519A7F01717C7F03717C9153E4FF81EA
:20358000D4902F1A122B69902F1E122BD2D14271A1EF6004B1FD80F7B1EC600A902F1A125D
:2035A0002AEC78107178902F1A7173902F1AD151902F211269AC60147195902F1E125A8F73
:2035C000902F1FE475F00112284380E49153E4FF81D4902CBBE020E01251967F3D717C7F4E
:2035E0002A717C7F80717C7FA691CE227F0191D4519A7F03717C902CC1E0640222E51530D4
:20360000E20FE51520E50AE51530E0057F01123E672290340AEFF0902CC9E06402702251ED
:203620009690340AE07FAB60027FB9717C915390340AE0902CC8F070047F1EDFFEE4FF912D
:20364000D42275FF02E5E430E10675E40675E40322122AECE4617C519A7F05617C9028E86C
:20366000EEF0A3126A6A9028F0122B699028EEE0FFA3E09028F4CF806A9028F4E0FEA3E01B
:20368000FF4E6065C3EF9440EE94004006A37440F080059028F6EFF0126A2AFFF1C1EFF03B
:2036A0009028F0122AECB1819028F6E0FFC39028F5E09FF09028F4E09400F09028F0122BA7
:2036C000089028F6E4FCFDFE1228F19028F0122B69D1E9126A2AFD126A4FEDF01219DF9041
:2036E00028E8EEF0A3EFF080909028E8E0FEA3E0FF2290339D122BD2F1D2FD902A231242C8
:2037000071EF24081245497A2A790CF1BF7402F0B181902A0CF1D5FD12426E7A2A7911F1A2
:20372000BF740EF0B181F1C8EE348012454CF1B9902A13F1EA7F0F7E1DF1ABF1DDC006C0BD
:2037400007F1C8E43E126AC3F1B9902A15F1EAD007D006F1ABF1DDC006C007F1C8EE3480F5
:20376000126AC3F1B9902A17F1EAD007D006F1ABF1DDC006C007F1D2FD902A23124271F1BD
:20378000B9902A12E02400FE902A11E034E89028EEF0A3CEF0D007D006F1AB90339D122BFE
:2037A000B212286F45F0C37001D322D15D90339D122BB2EE8FF00228D29028EA022B697BB7
:2037C00001902F21E4F0A322902A1F122AECE42FFF22902A06E0FEA3E0FFE4FC2290339DB8
:2037E000122BB212286FFFAEF022E0FFA3E09028EECFF0A3EFF022F0902CBBE0FFF422901B
:203800002CBDE01227A8902CC2E09000011227BA902CC3E09000020227BAE4902A27F07B18
:20382000017A2A790E1237FF902A10E0FBB41122902A23122B7500007800902A1F122B75F6
:2038400000006000902A047418F0A3E4F0A3F0A380277412D39B5027902A23122B7500027E
:203860000000902A1F122B7500020000E4902A04F0A3F0A37418F0A3E4F0902A2704F0909B
:203880002A27E0FB6017E4FFFE7D02FC902A10E024EFF9F8122A9F902A08122B69AF032264
:2038A0007A2C79C07F031269277A2C79C97D017F081219D57B017A2C79C67D027F095166F9
:2038C0007B017A2C79C47D027F0B5166902CC4E0FEA3E0FF4E6006BEFF1BBFFF18902CC902
:2038E000E024FD600304700451698009902CC4E4F0A37440F0902CC9E024FD6003047008A9
:20390000902CC17403F08006902CC17402F0902CC0E0122C4A393104393614393E1539467A
:2039200017395C30396434396C3639743700003951126AA0804775FF015354EF800E75FFA1
:20394000015354DF800675FF0153547F8554C9802C75FF015355DF8555CA802175FF015368
:2039600056FE801675FF015356EF800E75FF015356BF800675FF0153567F8556CB12345383
:203980007F115158E4FF1236121232F9902CBE7402F0902CC2E0247F6009047016515E747D
:2039A0000A80071235D2515E7458F0902CC17403F05169902CC3E0F460024155902CC6E0A7
:2039C000FEA3E0FF64104E7006902CC3740EF0EF64204E7006902CC3740FF0EF64404E70C4
:2039E00006902CC37410F0EF64804E7006902CC37411F0E4B5070AEEB40106902CC37412EB
:203A0000F0E4B5070AEEB40206902CC37413F0E4B5070AEEB40406902CC37414F0E4B5077F
:203A20000AEEB40806902CC37415F0E4B5070AEEB41006902CC37416F0E4B5070AEEB4200D
:203A400006902CC37417F0E4B5070AEEB44006902CC37418F0023564EF4420F5FE227F1047
:203A60005158902CBE220219D5902CC47401F0A3E4F02211A012616D1219C11259FE90021B
:203A8000B3E064017F0060027F01121A2A121A2F1219991269027A0279B6121962126A2205
:203AA000FE4FFDA3E0FC4DFDA3E0FB4D600BEE5FFFEC5FFFEB5FF47002D17E90121CE0FF8B
:203AC000540324B6F582E43402F583E06F9002B1F02275FF0275E404E4F5E4C22E75FF0212
:203AE000901215E0603CE5E6540364017034121A52125E3D4020901222E0600DE014F07078
:203B00000812189AE4901215F0901215E07002619A124B29619A12189AD22EE4901215F07A
:203B2000807812189A1261ED9002B3EFF0901200E0B47A14901214E0B49C0D9002B3E0FF6A
:203B400064056004EFB4032EE49002BCF09002BCE0FFC394405013E42FF582E43412F5834F
:203B6000E4F09002BCE004F080E3901200747AF0901214749CF01219DA7B017A1279107DA3
:203B8000017F011219D57A1279117F211269277A1279127D017F221219D5121A571261ED33
:203BA0001258579002B3EFF01219CB1258129002B3E0FFB40602800C302E047F028005904A
:203BC00002B3E0FF121A6BEF24FFB3925175FF0253E6BF9002B3E064016005E4901215F02A
:203BE0001258A4121A5C5173901215E0700F20510C121A707B017A25799D121A0C90121D14
:203C0000E030E0028003302E047F01D167D2AF3051791259E0B15D121A8E1219D040F390C9
:203C200002B2E0604212617DEF7005125DFB4037E51470FCE51520E502F12C12195DEF70AF
:203C4000FA1261B2500512619E50057F011236129002B2E0B40204E4FF80099002B2E0B48E
:203C600003057F01124B46125401E51530E1A312694C4002E4F0E51520E506B14B7D01B1F7
:203C8000E79002BCB14E126AB28087125022124FF05002D17E9002B2E0605E902533E0702B
:203CA0005812617DEF7005125DFB404DE51470FCE51520E50990121DE020E002F12C12190B
:203CC0005DEF70FA1261B2500512619E50057F011236129002B2E0B40203E480189002B2D7
:203CE000E0B403047F01800E9002B2E0B4050A9012157401F0FF124B461259E0B15D121AF1
:203D0000849002B0E07005125401801512505EFF9002B0E0FEC3EF9EC394064002E4F0D218
:203D2000AD121807E51530E11A12694C4002E4F0E51520E506B14B7D01B1E79002BCB14E3F
:203D4000126AB2121A431257FD818B9002B4E075F0AA9002BF122BA6AF82AE8322900000D7
:203D6000E06065E014F0E4F55DE55DC3940C50EDB1D7E0FEA3E04E604BB1D71257B545F0E5
:203D80007042E55DB1C9E0FF600AF46007E55DB1C9E014F0E55DB1C9E06011E55D125DA013
:203DA000E0FEA3E0FFB1D7EEF0A3EFF0F176E0FEA3E04E600CF176E0FEA3E0AA06F9122C8A
:203DC0009D1235FD055D80A12275F007A42498F582E43428F58322E55D75F007A42492F543
:203DE00082E43428F58322900439EEF0A3EFF0E514706F125E2D5004C259D1EA900439E0EE
:203E0000FEA3E08E11F512AE11AF127DAA1262AAE4F5FF75D901F510E5155421602CE51595
:203E200030E505E4FF124DD2E490043BF090043BE004F0125E9AEF600990043BE0C3941096
:203E400040EB7F02121A935315DE900413E07F00B403027F011251D4D259D1EAD2EBA22DC9
:203E600092ED22EFF07F01EF6008B14BE4FDB1E7800912570DF12CE433FF227F0122E4FF9D
:203E8000D167EF60437B017A0279B6D1C99002B6E0C394C040EF7B017A0279B8D1C9126AEA
:203EA000225FFFA3E05FFFA3E05FF460E990121DE030E0047F01D167E490121CF07B017A8F
:203EC0000279B6E0FD1219672290043F122BD2C252E4FFD167BF010B90043F122BB212452B
:203EE0005492527F01D167A2522290340DE5F4F0E0547FF5F47F827E00F159F15D5005E535
:203F0000FC20E6F730590890340DE04480F5F4F155F15D5005E5FC20E6F775FF01E5D520A3
:203F2000E702C322E5F4D330E601C322E5147023125E2D5004C259D1EA124FD912520CE529
:203F4000D120E0FB4315205315FEE4F510A22D92EDD322C3227FE87E03F1CA801275FF03FA
:203F6000E591C330E701D3227FC87E0012476475FF0343918022E55D75F007A42496F58209
:203F8000E43428F583229031E3ECF0A3EDF0AA07AF03EF70010FEF75F00AA4FFAEF0EA12DA
:203FA0005DA0EEF0A3EFF0EAB1D9EEF0A3EFF09031E6E0FFEAB1C9EFF09031E3E0FEA3E002
:203FC000FFEAF178EEF0A3EFF02290325AEEF0A3EFF07B017A32795C124CB7501490325CFD
:203FE000E0FEA3E0FF90325BE09F90325AE09E400B90325AE0FEA3E0FF12476422EF75F031
:2040000004A4FDACF0E075F011A42408F9740035F0FAE92DF9EA3CFEAF01E4FCFD02352C8A
:20402000FEAF01E4FDAB05E4FCFD9031E1EBF00234E0FEAF017B007A00799290314D74049D
:20404000F090314A1160C00790314A122BB290314DE0FF902F21E4F0A3EFF0D00702358181
:20406000122BD2E4FCFD229030A91160C0079030A9122BB29030ACF1D2D0073173122BD280
:20408000902E1C122BB2902E1F124A14902E18122AECF1F650022132902CC5E024FFFF906D
:2040A0002CC4E034FFFEE4FCFD902E1851C6902E21EEF0A3EFF04E6038902E2151CC902C58
:2040C000C5E09FFF902CC4E09EFE902E21F0A3EFF0902E1F317D9FEC9E50031257D73134A4
:2040E000122BB2E94A60043184803E7E007F008038902E1FE0FEA3E0FF4E6034902CC43142
:204100007DEF9DEE9C400A902E21ECF0A3EDF08007902E1F126A56F03134122BB2E94A607A
:2041200004318480047E007F00902E1D51C080C1D322C322902E1C122BB2902E21E0FFA314
:20414000E0902F18CFF0A3EFF0902E18122AEC1233E0902E21E0FEA3E0FFC3902E20E09FE5
:20416000F0902E1FE09EF0902E18122B08E4FCFD1228F1902E18122B69902E1C22E0FCA3EA
:20418000E0FDD322902E21E0FEA3E0FF22902F07122BD2902F0AECF0A3EDF0902A27E070C1
:2041A0000241525158705151775161504B902F0A1237D5FDA35171E4FB7A18F9F8C3122A41
:2041C000675035902F0C122B08C3E49BFF74189AFEE499FDE498FCE4902F088FF0122843E5
:2041E000C3902F0BE09FF0902F0AE09400F0902F0C122B75000018005168126ABA902F0A49
:204200001237D5FD1228F1902A08F1EF403FF1DF4024E4517751614034902F0AE0FEA3E007
:20422000FBE49BFF74A09EFE74019400FDE49400FCA3516150175168C007902F07122BB2EA
:20424000902F0AF1D2D007117BE4338001E4902F10F0902F10E0FF22E4FFFE7D02FC902A4E
:2042600008122B08C3022A67902F0C122AEC902A1F122B080228F1FF7E18FDFC902F0C22F4
:20428000903406EFF0E4A3F0902A27E060215158700851B57E777D00800AF1DF501151B562
:2042A0007EFF7D017C001234E0E433903407F0903407E0FF22903406E09031E1F07FFF22E7
:2042C000EE8FF0022843122B08022A29E0FEA3E0FFC322902B8E122B69E4F5FF75BB0575B4
:2042E000BB8575FF0175D502205405F153124DAF75FF0143D5203054026195E4F5FF538E10
:20430000F7438E077D04E4F5FF8DBCF5FF43B102E5B130E2FBE4F5FFAFDFEFFEACDEECFBDB
:20432000EBFFED25E0248CF582E4342BF583F14CF5FFF5FF53B1FD0DEDB40CCA902B8E715B
:20434000BD7809122A78A3F14CFDED25E02496F582E4342BF583E0C313FAA3E013FBF13945
:20436000E0C313FEA3E0132BFFEE3AFEF139EEF0A3EFF0ED240490120DF0EDC394075015B5
:20438000CFEDCF0DEFF13A51CC902B93E09F902B92E09E50B5E4F5FF758EC8F5FF90120D6B
:2043A000E0F5BCE4F5FF75BB8075FF01F5D522E025E025E02401F582E43412F583E0FCA3DC
:2043C000E0FDA3E0FEA3E0FF22902B43122B6975FF0243E180124FB0F181902B58122B75D5
:2043E000002DC6C0E4F5FFF5A490120EF0A3F0902B537402F0F1A9FFF595EF1460131460E5
:204400001C24027027902B4371BDF146902B4F8016902B4771BDF146902B50800A902B4BBE
:2044200071BDF146902B51E0902B5CF0126515902B5CE0700FF5FFF59675FF0175D7097564
:20444000F418805590120EE004F0902B53E0124FE0902B5871BD902B54F1C6C3122A67500B
:2044600009902B5471BDA3122B69902B5CE0FF126396902B52E0FFA3E0FDA25792551264EA
:20448000C3A371BD9031ED122B69902B53E0FFD19A902B5371AF125F72F1B1600261F574FD
:2044A00002F0F1A9F595E5F454077018902B58B12A7801122A78902B53F129122B69EB71E5
:2044C000B0125F72F1B170DA75FF03759580124F96400343F420A25792561263F5902B586D
:2044E000126A60E02420FFEE344EB14CE4FB7A04F9F8B13A7801122A78C25451D3E4F5FFD8
:20450000E5BD54F84404F5BD9012137401F07E127F01E4FDEF2DF582E43EF583E0FC9012FD
:2045200013E02CF00DEDB412EB22FF7E04FDFCE0F8A3E0F9A3E0FAA3E0FB12290CE47B7DB3
:20454000FAF9F8122997EF2401FFE43EFEE43DFDE43CFC22902E23126334902E29122B75EC
:2045600000000001902E2D7401F0F5FFE5D554C07005125E355002C322E4F5FF53967F7522
:20458000FF0175D504F15375FF0143D508E4F5FF5394FBF5FF53847FF5FF7598FF902E270B
:2045A000E5F4F075F49C75FF01A3E5E4F075E4257B017A2E792D126305902E2DE06401600A
:2045C00002C178F5FF902E267414F0902E2971BD7801122A9F902E29122B69E5A730E1FBC2
:2045E00043A702902E2971BDE5A730E005E47B018002E4FBFAF9F8EF4BFFEE4AFEED49FDCB
:20460000EC48FC902E29122B69902E26E014F070BA902E2971BD7810122A787B6D7A4E7971
:20462000C6784112290CEF2439FFEE3430B14CE4FBFA7901F8122997EE547FFEE4FDFC124F
:2046400066A9902E2971BDEB6FFFEA6EFEE8CDEFCDCCEECCECFF902E23F1BDEF1227A890B6
:204660002E23F1BD900001ED1227BA90120FE030E606E4F5FF75968075FF01E4F5D5902ED9
:2046800027E0F5F475FF01A3E0F5E41263E4902E2DE0B40103D38001C3229031ECEFF0E4D4
:2046A000A3B12A7801122A789031ECF129122B69901210E0FF6480606FEFC3947F5037EB67
:2046C000F12BC083C08271BDEEC0E0EFC0E0901210E075F004A4AEF0FBCAEECAEA3395E0A2
:2046E000F9F8D0E0FFD0E0FEC3EF9BFFEE9AFEED99FDEC98802A9031ECE0F12BC083C082BB
:20470000F1C6901210E0F40475F004A4FFAEF0EE3395E0FDFCEB2FFFEA3EFEE93DFDE83C99
:20472000FCD082D083122B6922E0FB25E025E02401F582E43412F58322ED25E02494F582AA
:20474000E4342BF58322902B54022B69EEF0A3EFF0E4227F3FFEF164123F6F75FF03E591B3
:2047600020E7FB2275FF03D3EF9402EE9400400874FE2FFF74FF3EFEEFF592EE540FF591E0
:2047800022F19F53DB7F75FF0175D5027F14123F6AF15BF19F43DB8075FF01E4F5D5227577
:2047A000FF01438E1075FF012275FF03902B53E022902B53E0FF14F0EF2290326BE0FBA34D
:2047C000E0FAA3E0F922E0F8A3E0F9A3E0FAA3E0FB22E0FFA3E0902E1FCFF0A3EFF02290BE
:2047E0002A08122AECE4FBFA7904F8D3022A67122B08D3022A679029B5122B699029B91268
:204800002BD2E49029DCF0D39029BDE0941E9029BCE094004001227B017A2979BE9029BC40
:20482000E0FFA3E0902F21CFF0A3EFF09029B5122AEC1235819029B9122BB2E94A600B9008
:2048400029DCE0F582117BFF80027F009029DCE024BEF582E43429F583E06F6002C32290C3
:2048600029DCE004FFF0D39029BDE09F9029BCE0940050C122122BB21E8E8275830002273E
:2048800059903129122BB2903010122BD2903129122BB2903013122BD27B017A227911901A
:2048A000300D3134E58F20E0FB31BD538FF075FF017E109030101175F593EE70F67E1090D4
:2048C000300D1175F594EE70F67F0111E931D3EF70FB7E10903013122BB21E8E82758300EA
:2048E000E5931227BAEE70EC22EFB4010221C775FF01E58F54F04406F58F229031D231343E
:20490000E58F20E0FB31BD538FF075FF01E4FF9031D2122BB28F82117BF5930FEFB410EFB8
:20492000E4FF9031D5122BB28F82117BF5940FEFB410EF22122BD275FF0122903016313435
:20494000E58F20E0FB31BDE58F54F04402F58F75FF017F10903016122BB21F8F82117BF5FE
:204960009490301C31DCE41227BAEF70E731B4EA540FFD90301C122BB2EAC4F854F0C8E908
:20498000C4540F4854F04DF59231B4E9F59875FF0190301C122BB2E9F59675FF01759910EE
:2049A00075FF0175971075FF0143912031C7E58F20E0FB2275FF01903019022BB275FF01D2
:2049C000538F0675FF012275FF01E58F54F64401F58F2275FF01E58F5401FF22122BB28F5D
:2049E00082758300229033A33134E4FF9033A331DCE5931227BA0FEFB410F1229030B01238
:204A00004060C0079030B0122BB29030B35114D0070247F6E0FFA3E09029BCCFF0A3EFF0CA
:204A200022E4FF0234D41236421233A1EF60051235FD80F522E4F97D0CAC0109EC90180E0A
:204A400093FC0FEFAA0670010E14F5828A83ECF0DDE77F03228F828E83E4F0A374045168F4
:204A600074365168A3E4F022F08F828E83A3A32275FF0275E40475E40175E4022275FF02A0
:204A800075E404E4F5E422900433716F90121DE054306006716C5002C322900433E0B40437
:204AA0000BA351EE9004337403F08025900433E06405701890121DE090043430E50651EEDD
:204AC0007F1F800451F6E4FF7164800590043451F6900433E09002B2F0900435E0901222D9
:204AE000F0125DAE9002BDEEF0A3EFF0D322E0FB7D017F018006E0FB7D01E4FFEB600875A2
:204B0000FF0153CDFD800675FF0143CD02ED600553FBDF800343FB20EF600775FF0243E11B
:204B2000402275FF0253E1BF2290121DE07B027D0130E5087F0151FC7F1F8006E4FF51FCB0
:204B4000E4FF71647F0143FB1075FF0243E640EF600D75FF02E5E120E7FB43FB0D80034345
:204B6000FB0E80FE75FF028FE32280F8A22E22EFF0A3EDF0A3EBF0229030C3716F9030C94F
:204B80007401F0C258123F55123F5D5005E5FC20E6F6918BBF0108E4F5FC75FC408007918E
:204BA0008BBF0202D322F18F9030C4E0FF1266B675FF0153D5DF53FAFB9030C3E0FFB1D2F8
:204BC0009030C4E09030C3B4080FE012472B126A60E0245212454980031243AF125F7290F3
:204BE00030C5E0FFF1CC75FF0175FF03759B04123F5575FC42E5FC20E105123F5D40F39073
:204C000030C6E0F075FF03E59B20E705123F5D40F3E59B20E70C75FF03759B1FF1B0D258E6
:204C2000804E91841263059030C4E0FD90120FE05D701D9030C3E0FF918412652290120F7A
:204C4000E0FF9030C4E0FEEF4E90120FF0124508B1AF7B017A3079C791B7500FC39030C81E
:204C6000E094209030C7E0940340E7918412633D12475B305802617D9030C9E0B40103D3A4
:204C80008001C3227B017A3079C9227FFA123F6AE5FC30E605123F5D40F6E5FC30E6037F97
:204CA000032275FF01E5D530E6037F0222E5D57F0030E7027F012291CCAD94EF4DF19E8FF8
:204CC000F01228D2E591C330E701D32275FF03AF93EF75F010A4FF22CDEFCDCCEECC91CC44
:204CE000AB94EF4BF19ECBEFCBFAE59130E71D91CFA994E9F582EF4582FFEB2DF582EA3C1C
:204D0000F583C3EF9582E5F0958340DEE59120E709CEECCECFEDCF1247562290326AEFF0D2
:204D2000A312633475FF01918BEF64016002C322E5F430E602C3227FE87E03124764123F2F
:204D40006FB199400122C259123EEA90326AE0FFB1D253F4DFD259123EEA7F787E0091D8EB
:204D600075FF0153E4BFE5E430E7FBF1A67F8AB1CA30E6061247BAE4800875FF011247BAAF
:204D8000E5D91227A875FF0143E440F196400343F420B199400122D322E5F730E50FE5F7F9
:204DA00054C07005123F5D40F0D1ACC322D322E4F5FF75C2E17F1EB1CA30E707E4F5FF75C2
:204DC000C2A122E4F5FF75C28122FE91D890120FE02275FF01E5D530E602C322E4F5FF433B
:204DE0009A80EFF1E0E4F5FF539A7FD322C23BE49032F5F0C23CA3F0A3F075FF01E5D520A5
:204E0000E702C322C25AD1B3203B02C19E53F4DF9032F5E0FFB1D275FF0143D810303C0518
:204E200043F440800353F4BFE4F5FF53F5F09032F6E0FAA3E0FBEA42F5EBF5F6D25AD1B3AB
:204E4000123F68E4F5FFE59320E605123F5D40F3303C57E5F430E3047D288010E5F430E28A
:204E6000047D288007E5F430E1027D28D1AC7F28123F6A123F5D40FB7F78123F6A123F5D49
:204E80005028F16350F7F18AEFC39D50F0F16350ECE5F720E5E7C25AD1B3D1AC80DF53F4DA
:204EA000BFF196400543F420F18FD32275FF03E4F59122AFF4EF547FF5F4305A05EF448008
:204EC000F5F475FF01E5D520E702C322E5F4D330E601C322900445EFF0C25AD1B3D23B902F
:204EE0000445E09032F5F0D23CA3E4F0A3740DF0B1FAE4900446F0125E35503E900446E003
:204F00007038E5F754C060EFF150F150900446EFF0BF5512F150900446F1D26F90044670B2
:204F2000147402F080D1900446E0B454057433F080C59004467401F080BD900446E0B40217
:204F400007C259123EEA8000B1ED900446E0FF22E5F720E008E5F754C070F5FF2243F70167
:204F6000AFF92275FF01E5E43322E4FFE5F754C06002801675FF01E5D530E30DF16350F422
:204F8000F18AEF60EFF16350EB22F1A6AFD92275FF0153D8EF2290120EE0D394012224FB7C
:204FA000FFE5F034FF2275FF01E4F5EA75EAFF22E5FA30E1FB75FC8075FF0153D5EFE4F5CF
:204FC000FC75FC40D1ACE5FC20E6FB2275FF018FDA22EFF090121CE022F1B07F08021A932D
:204FE00033333354F8F5F422302E04C22EB1ED2290121CE07011126A224FFFA3E04FFFA330
:20500000E04F7003D38001C3229002B1E064AA2411FFF022AE071109EE04FEEF8EF084AFDF
:20502000F02230500C902533E07006FF121A39C25011360219C6302E241160FF900424E06C
:20504000FEEFC39E400AEF9ED394024010C22E22900424E0F42FD394014002C22E22C2AD7A
:205060009028E6E0A3E022C0E0C0F0C083C082C0D075D008C0FF124C8B8F18E51864027039
:2050800050E51424F860402407600221BB900425F1B545F07027AB1CAA1DA91ED105AD1689
:2050A000AF1FD15BE4FB7D01FF71CD75FF00F10443FA0475FF0031DD75140821BB43FA0482
:2050C00075FF0031DD21BBC2EB75140043150421BBE5186401600221BBF1AE400221BBE5C2
:2050E00010702A851282851183E090044BF0E0FF64556004EFB4540AD22E1160900424F00F
:20510000218C75100275FF0075D90821BBE5106402705731C8E090044BF01266EB1260878F
:20512000900413EFF090044BE0FFD394094025900413E0D39402400CEFD394AA7F00400259
:205140007F01800D90044BE0D394407F0040027F01EF6005124FE8803390044BE0FFF51682
:2051600075FF008FD97510038051E5106403704B124FE875FF00900413E0C39403E5D3503D
:20518000055402FF80035401FFEF600431E4802BC259123EEA75FF00510FE5D120E0FBC22F
:2051A000EB431502751000900413E0B40307151631C8E516F09002B5E516F0D0FFD0D0D060
:2051C00082D083D0F0D0E032E5122407F582E43511F58322124DD243FA04E4F5FF53D1FD90
:2051E00043D10122C259123EEA510CE5D120E0FBE4F5FF75D901900413E07F00B403027FB0
:205200000131D4D259123EEAE4F51022E4F5FFE5D154FE4402F5D122900427F1CCC2EBE500
:2052200014600261AFE51530E202C322125E355005C259123EEA510CE5D120E0FBE4F510AF
:20524000C22E900428E05407C39403E494005022900430E0FF90042CE02FFFE433FED3EFDB
:205260009440EE648094804009431504A22D92EDD32290042D122BB2CFE9CF8A118F129089
:205280000430E0F516AE111262CC900429122BB28B1C8A1D891E90042CE0F51F900427E000
:2052A000FCA3E0FD5460602E900431E0FFD11171BDFB7A00900425E0FEA3E0FF7C007D17DE
:2052C0001227DCEF2BFFEA3EFEEF2414FBE43EFA7D027F016197900427A3E0540790041404
:2052E000F0751408900429122BB2D10590042CE0FFAD16D15B900414E0640370237B01FD22
:2053000071BAB1BB5007B1AD7401122786E4F5FFF10471BD2428FBE433FA7D03E4FF807760
:20532000900414E06402701D71B7B1BB4007B1AD74FF122786F11771BD2414FBE433FA7D90
:20534000027F018052E471B7B1BB4007B1AD74FF122786E4F5FFB1A544104E7F0560027F75
:205360000AEF547FFFE5D254804FF5D2E4F5FF43D28071BDFD7C00B1A544104E7E006004D3
:205380007F0A80027F05EF25E0FFEE33FEEF2DFBEE3CFA7D017F011260B9B1A5FFD168403A
:2053A00006A22D92EDC322A22D92EDD2EBD322A22D92EDD2EBC322FB7D01FF71CD90042951
:2053C000122BB2E92407F9E43AFA022740E4F5FF75D102E5D120E0FBE4F5FFF5D1EF60088A
:2053E000E4F5FF43D2808006E4F5FF53D27FEB6006E4F5FF43D104ED6006E4F5FF43D108B6
:2054000022E4900449D1FC75F0E5E55EB19FE054F064407002A158E4FE75F0E5EEB19FE082
:20542000FDB4010990044AEEF0E4FF8023EDB4020B90044AE0B4FF04EEF0800F75F0E5EEA7
:20544000B19FE054F0FDBD80027F010EEEB403C9EF600690044A74FFF090044AE0F47002E6
:20546000A158125E165002A158E51530E102A15890044AE0900004B1EA30E409900006B10B
:20548000DCE0549FF090044AE09000B8B1EA540FFEBE05099000BCB1DCE030E11590044AE2
:2054A000E0900003B1FC20E5229000BBB1E3E0B4FF1990044AE0B1F3C083C082E04401FF0F
:2054C000A3E0D082D083CFF0A3EFF090044AE0FDB1F3E0FEA3E0FFC006C007ED75F0E5A43C
:2054E00024B3F9740035F0FA7B01C002C00190044AE09000D9B1FC90042CF0EF75F0E5A4E9
:205500002409F9740035F0FAA3122BD290044AE0FF75F0E59000B2122BA6E0900430F090D0
:2055200000DAB1E3E0900431F0E4A3F0D001D002D007D0065118502090044AE0F55E75F052
:20554000E5B19FE04440F09004497401F09022A2F0E51530E202D322E51530E2377F04F182
:20556000C375F0E5E55EB19FE0FF54F06440701F75F0E5E55EB19FEF540FF075F0E5E55E89
:20558000B19FE04480F0E55ED1ED12199480057F01123E67900449E024FF2275F0E5EF90E0
:2055A0000001022BA6900427E0FEA3E022900429122BB2E92407F9E43AFA22FF900430E043
:2055C000FD90042CE02DFDE433FCED2401FDE43CFCD3EF9DEC6480F87480982275F0E5EFB8
:2055E000022BA675F0E5EF022BA6FF75F0E5122BA6E02275F0E5900005022BA6FF75F0E5A3
:20560000122BA6E022E4F5FFE9F1DEEA540F42D62290043CF1D5751401E4FBFDFF71CD7BDA
:20562000017A047916D105E4FD7F02D15BF1179004167455F090043CE0900417F09004149A
:205640007402F090043EE090042530E507E4F0A3743CF022E4F0A374F0F022E4F5FF8FD4FC
:20566000F5FFCFEDCF8FD5224315015315DFF1621260284004E4F514225315FB31D7D322E5
:20568000900447EFD1FCFEFD75F0E5EDB19FE0FC700C900448E0B4FF02EDF00F8006EC309A
:2056A000E0027E010DEDB403DF900447E06401600DEFC394025007EE7004A374FFF09004D1
:2056C00048E0FFC39403501EEFD1ED7DE5E4FF121958900447E04410FFA3E0FE75F0E5B1DC
:2056E0009FEFF0EE80077B007A0079002275F0E5A42401F9740035F0FA7B0122F0A374FFE4
:20570000F0E4FF22E5D254804414F5D222F123EF7004910180F722E4F5FFE5D25480440A75
:20572000F5D222E4FFB19BE054F0FEBE40037F00220FEFB403EF7F0122900415E0FDFFC3FF
:20574000740EF1BCEFC4F8540FC868FFEEC454F048FEE51754F0C39FEEB1D57F005002AF0B
:205760000522EF30E303AF1322AD1B202F04EE30E00BE517C394F05020F1398018E51A6021
:2057800006FDE4F51A8012E517C394F0500BE517540FFF6004F19CAD07AF05221269DAFFB6
:2057A000C3940E40027F0DEF9018D293FF22E5F754C024FF2274FFF5F00228439FFFE49489
:2057C00000FE22C2AFEFF45215D2AF22EEF0A3EFF0A3022BD2EFF0A3ECF0A3EDF022F5D77D
:2057E000E4F5FF53D6F0229002BAE0FCA3E04C700A9002BAEEF0A3EFF0D322C3229002BA53
:20580000E0FEA3E0FF4E6009CAEECAC9EFC9122C9D22E4F557F558F559F55A75FF0185FD60
:205820005375FF0185C95475FF0185CA5575FF0185CB5622EF113BF0020000901221F09038
:20584000340C22901221E0FFF4600590340CEFF074FF113BE0FF22901221E0FE64069034AD
:205860000C6004EFF08008EEF090122174FFF090340CE0FF22EFB40109D2AD75FF0143AEEA
:205880004022C2AD75FF0153AEBF2275C80122E5C85402FF75C80222E5C85404FF22E5C84A
:2058A0005401FF2275FF02D2ADD2BD75FF02758E71755B0975FF02E58E546F4480F58E2216
:2058C000C0E0C0F0C083C082C0D075D008C0FF75FF02E58E30E42C75FF02E58E54EF4410AE
:2058E000F58E900000E004F0E55B30E0020531E55B700E755B099028E675F00112284380A1
:2059000002155B75FF02E58530E404311C055CD0FFD0D0D082D083D0F0D0E03275FF024300
:205920008510223142311CC239E4F55CC23A2230390F3142311CE4F55CD23A75FF024385EB
:20594000802275FF0253857F22AB07AA063142311CED4C70050DBD00010CD3ED94FFEC943C
:2059600003500AEDF586EC4430F5858052D3ED94FCEC940F5017EDAE047802CEC313CE13D2
:20598000D8F9AC06F586EC4434F5858032D3ED94F0EC943F5016ECC4F854F0C868FCEDC447
:2059A000540F48F586EC4438F5858013EDAE047806CEC313CE13D8F9F586EE443CF58590E6
:2059C00033A631D8D23AE4F55C75FF0243854075FF02438580D23922AF03EAF0A3EFF0220B
:2059E000303A13E55C600F155C9033A6E0FEA3E0FF4E600231F722AA06A907022C9DE4F542
:205A00005CC23A229031E7EEF0A3124B6F7FFFA3E0F9E9C3940C5024E9123DD9E0FCA3E0ED
:205A20004C7016AF019031E7E0FC514FA3E09031E6F0123F86E904FF220980D6227E1A7F29
:205A4000B17BFF7D649031EB7402F080B7E0FFA3E0FDA3E0FB22E4FB7D01E49031EBF08095
:205A6000A39030B5122BD29030B5122BB2B11BAE04AF059030BAE0FDA3E0FB515A9030B574
:205A8000518F5196B4FF04E41227A85196FF22122BB2EF0227A89030B5122BB202274090AF
:205AA0003144EDF0903141122BD2E4903146F01227A871AA5357FD71519031477480F090C7
:205AC0003147E0D3940040417148E47F01FEFDFC121B83903145E0FFB13B903146EFF0E427
:205AE0007F03B11230E10E9031415199FF903147E04F1227A871BAE47F01FEFDFC121B8309
:205B0000903147E0C313F080B6903144E07004917D800471AA91F68553FDE47F01FEFDFCE4
:205B2000121B83714871B171AA5357FD7151B10B121B83903146E0FF2275FF014353025382
:205B400057FD8557808553FD75FF014353015357FE8557808553FD22E490345CF0FF71AAAB
:205B60005357FD71517E80EED39400401671480000E58030E103EF4EFF71BA0000EEC313B6
:205B8000FE80E4EF1227A8ED7004917D800471AA91F68553FD7148000071BA000071AA5317
:205BA00057FD715190345CE0FF2275FF0143530222E47F05FEFDFC121B835357FE8557806C
:205BC00075FF015353FE8553FD22903397EFF0E4A3F0A37480F0903399E0FFD39400403369
:205BE000903397E0FEEF5E7004917D800471AA91F68553FDE47F01FEFDFC121B837148716E
:205C0000B1E47F01FEFDFC121B83903399E0C313F080C37139E47F01B11230E10690339840
:205C20007401F071BAB10B121B83903398E0FF2271AA5357FD7151E47F01FEFDFC121B837D
:205C4000714891748553FDE47F0A71B491EF021B8371BA91748553FDE47F01FEFDFC121B72
:205C600083714891EF121B8371AA5357FD715191EF021B83E47F01FEFDFC121B835357FD62
:205C800085578075FF015353FD22E4FE7D80EDD39400401BED5F7004917D800471AA91F6EC
:205CA0008553FD7148000071BAEDC313FD80DF7139E58030E1027E0171BAAF062271AA53FB
:205CC00057FD7151000071480000917D8553FD000071BA00002271BA0000917D8553FD00B7
:205CE000007148000071AA5357FD7151000022E47F0AFEFDFC225357FD855780229130E4F5
:205D0000FF71CAEF70047F0671CA22E47F14FEFDFC22FEFDFC121B83E58022122740FFB11D
:205D200025E40227A8B17C500FB19FE4F0A3F0EF123DD9E4F0A3F00EAF0622903404EFF03C
:205D4000E4A3F0E58020E014903404E0FF14F0EF70037F0422B174121B8380E7903405E0BC
:205D6000FF226139B162EF25E090339CF0440190339BF022E47FE87E03FDFC22E4FE1FEF86
:205D8000C3940C22B17C5014B19FE0FCA3E0FD4C600AEF123DD9ECF0A3EDF00EAF0622EF44
:205DA00075F007A42494F582E43428F58322A2AFE433FFC2AF9028E6E0FCA3E0FBAA04EF5D
:205DC00024FF92AFAE02AF03229033A8EEF0A3EFF0B1AE9033A812417D9FEC9E5009C3EF42
:205DE0009DFFEE9CFE80139033A8D10DFCED2401FDE43CFCED2FFFEC3EFE229002BDE0FEEA
:205E0000A3E0FFB1C9D3EF94C8EE940022E0FCA3E0F4FDECF422D1355004D1264003302E80
:205E200003D38001C322E5F754E024FF22C2EBA2ED922DC2EDE5F4C330E701D3225315FE18
:205E4000E51530E5057F01124DD2D19AEF70FB7F02121A937F01124ED490044CEFF0BF0244
:205E600002801490044CE0B43312E4F07F01124ED4BF020D90044C7401F08005E490044CEF
:205E8000F090044CE0700CD1355005C259123EEA124FD990044CE024FF22E4903262F0A34C
:205EA00004F0E4903265F0E5FA30E1FB75FF01E5D530E7037F0022E4F5FF75E508124F8FF4
:205EC000E5D530E61A75FF01903264E5DAF0E4F5DA75FF01E5D630E3FB9032657401F0759C
:205EE000FF03759B0475FC4175FF03E59B30E7FBE4FB75FF038B95EB1243B0F1720BEBB45E
:205F000003F075FF03759580E4F5FF758EC8124DAF75FF0153D5FB124EAC7F14123F6A12D8
:205F2000475B75FF0143D504903265E07009124EAC123F6812475B7B017A32796312633D7F
:205F4000903263E09032627006E04404FF8002E0FF903262EFF090120EE0B4010675FF0157
:205F600043D81075FF01903264E0F5DA903262E0FF2290325E122B6975FF0190325EA3E0A9
:205F8000FDA3A3E4FFFEE4FC7810122A788FE190325EA3A3E0FEA3F1A68FE290325EA3A3FC
:205FA000A3E0FF8FE322E4FFE4FDFC7808022A78AF14EFC36001D322EFC3940E50059004DF
:205FC00015EFF022E517540FFF22E517C394F050205317F01269DAFE740FC39F4005EE941F
:205FE0000E400543170D8003EF4217E517540FFF227F0022E51754F0C4540F2FFFC39410FF
:2060000040027F0FEF9018E093FF227E10EE60091EEE9018E093B507F4EEC3940E40027EB6
:206020000DEE9018D293FF22900437EFF0900414E024FD6011047007116F7404F08012116D
:206040006F7408F0800BE4900438F09004367402F07F01121A93900438E0FF900436E0FD79
:20606000A3E0FBE49030C6F0124B7850E9D3229004387401F090043622E4F514023F2CC20C
:20608000AFEF4215D2AF22EF24FE600C24FE600580007F01227F02227F0322E51520E50DEF
:2060A000C259123EEA12520CE5D120E0FBE4F51022900425E0A3E0FF22900442EFF0ED245C
:2060C000FE60191460262402703BEB2402FFE43AFE7C007D501227DC7D60801E312DC33385
:2060E000CE33CED8F9FF7C007D28800E312DC333CE33CED8F9FF7C007D641227EE90044304
:20610000EEF0A3EFF0900442E03138C083C082122B08900444E02401FF900443E03400FE71
:20612000E4FCFD1228F1D082D083022B69EB2401FFE43AFEEF78032225E025E02418F582A8
:20614000E43404F58322EF3138122AEC022AD2E4FFFEFDFC900418316490041C3164900417
:2061600020022B69122B69E4FFFEFDFC22E4FF12559BE4F00FEFB403F6E4F55E22E4FF1215
:20618000559BE060037F00220FEFB403F27F0122E40227A8122740540F0227A880F67F018A
:2061A0007E009017FCE4935EFE7401935F4E24FFB322900001740193B40007E493B41802A5
:2061C000C322D322EF7011ED600775FF0143AE012275FF0153AEFE22EFB40110ED60077585
:2061E000FF0143AE022275FF0153AEFD2275FF02E5E630E2037F0322E5E630E3037F002279
:20620000E5E630E1037F0422E5E67F0530E0027F0122EF600775FF0253E6BF2275FF024358
:20622000E64022EF14600F146014240270188B8075FF018DFD228B9075FF018DC9228BA00F
:2062400075FF018DCA22AF038FB075FF01AF058FCB229030BD122BD2EF146011146018240A
:2062600002701E518CE5805192E5FD801C518CE5905192E5C98012518CE5A05192E5CA8002
:2062800008518CE5B05192E5CB0227A89030C0022BB21227A875FF019030BD022BB2E4F536
:2062A000FFAF9122E4F5FFAF9222E4F5FF75D102E5D120E0FBE4F5D1F5FFEF1257DEEE545B
:2062C0000F42D6E4F5FFCFEDCF8FD422E4F5FFEFF5D8E4F5FF53D60FEE540FC4F854F0C8F2
:2062E000E4C4540F4842D622E4F5FF8FD422E4F5FFE5D1540133333354F8FFE4F5FFE5D35D
:2063000054074FFF229032F271347F017C127D01E4FEED2EF582E43CF583E02FFF0EEEB403
:2063200012F0901213E06F600A9032F21247BDE41227A822EBF0A3EAF0A3E9F022C25375BC
:20634000FF03759B1F75FF0390120FE0FF20E71BE59A540FC394024012EF4480F0E4F5FFDB
:2063600075C2A143FC0475FF03D253E5FC30E609E59A540FC3940540CCE5FC30E611E4121E
:2063800027A875FC80F5FC75FC40E5FC20E6FB30530312450822EF30E00E43F401E4F5FF95
:2063A00043A404F5FF759624EF30E10E43F401E4F5FF43A408F5FF759624EF30E20943F45E
:2063C00002E4F5FF75961EEF30E30943F404E4F5FF75961075FF01EF5403600475D71222E2
:2063E00075D72D22E4F5FF7584E6F5FF439404F5FF75981422E4F5FF75933F75FF03759AA0
:206400004071E4E4F5FF759C93F5FF75A1A3F5FF758531F5FF758628E5FA54304480F5FA72
:2064200075FF0175E74A75FF0275DF4975FF0143D30475FF0153D367E4F5FF53E6BF75FF59
:206440000175D825F5FF75B503F5FF75B215F5FF75BA02F5FF75AFB3F5FF75CD0AF5FF75DF
:20646000CB08F5FF75CA12F5FF75BF0EF5FF75CC96F5FFF5BDF5FF75C281F5FF75AEE1F5C4
:20648000FF75DA55F5FF75F580F5FF75E903F5FF75E933F5FF75972A75FF01759B42759C9F
:2064A000A4759D29759E48759F2475A11275A312759AF820560CF5FF43968090120FE0446D
:2064C00040F022CCEFCCCFEDCF74017E00C8EFC8088005C333CE33CED8F9FFCDECCDEF5DF2
:2064E000601B30551875FF0175DCAD75FF0175DDCDE4F5FF759A74F5FF7594842275FF010A
:2065000075DC5375FF0175DD33E4F5FF759A14F5FF7594042275FF0175E46575FF0175D6CC
:206520004722903266EDF0901211E0FEF46006A3E0FDB4FF0C9032687418F0A37413F08083
:2065400008903268EEF0A3EDF012274064016002C183903266E0FE64086004EEB404089013
:2065600032677428F08006903267743AF0EF1243B0122A43E4D184EF24D8FFEE343FFEEDC7
:206580003493FDEC3416FC7B007A8079037800121856D1A9903269E0FF903268E0C3125762
:2065A000BCE4FCFD12290CECC0E0EDC0E0EEC0E0EFC0E0903269E0FFE4FCFDFED184D0E0DB
:2065C000FBD0E0FAD0E0F9D0E0F8EB2FFBEA3EFAE93DF9E83CF8903267E0FFE4FCFDFE125E
:2065E000290CEF2454FFEE340B12454CE47BA87A16F9F8121856CBEFCB903266E014605EC9
:2066000014601B24FE600C24FC7078E4F5FF75CE318006E4F5FF75CE21F5FF8BCF22E4FAF9
:20662000E4F5FFEA2440F5CEE4F5FFEAFFC374071257BC74432FF58274183EF583E4D18C6D
:20664000C39DF5CFE4F5FFEA2448F5CEE4F5FFEA901843D18C2DF5CF0AEAB408C322E4F5BC
:20666000FF75CE01F5FF8BCFF5FF75CE0EF5FFEB25E0F5CFE4F5FF75CE0FF5FFEB75F0032B
:20668000A4F5CF227B64FAF9F802290C9325E0FDE433FCEB75F010A4FFAEF01227EECDEF43
:2066A000CDEBFFE4C313EF1322C8ECC8C9EDC9CAEECACBEFCB2275FF01E5D530E602C322F5
:2066C00053FACFEFB4080543FA308012EFB4040543FA208009EFB4020543FA108000D322F1
:2066E000E5F45418131313541FFF22E5F75406FFBF06037F0822E5F75406FFBF04037F0464
:2067000022E5F75406FFBF02037F02227F012275FF01E5D520E602C322E5FA540360FA75F8
:20672000FF018FC3D322CEEFCE75FF01E5D520E602C32243FA04E4FDEDC39E50077F55F1DF
:206740000F0D80F4E5FA543070047F0F80027FF0F10FD322E5F71322E4903394F02290333D
:2067600094E0C36001D32253897F5389BF5389DF438910D2ABD2AF758D82758BFFD28E22FC
:20678000E4903395F0A3F0227F0120AF027F0090345BEFF0C28E758D82758BFFC28BD28ECA
:2067A000C3903396E094F1903395E094015007E475F001022843903394740180027405F0C6
:2067C000E4A3F0A3F022C0FFD0FF32C0E0C0F0C083C082C0D075D000C000C001C002C0031D
:2067E000C004C005C006C007C0FFF188D0FFD007D006D005D004D003D002D001D000D0D040
:20680000D082D083D0F0D0E032C0FFD0FF32C0FFD0FF32F0FDE4FFE4F5FFED540F4FF5DB9A
:2068200022E4F5FFEF25E0F5DCE4F5FFEDF5DDE4F5FFECF5DDE4F5FF43DB10229033A012CF
:206840002BD2E4F5FFE5DB20E4FBE4F5FFF5DCFDE4F5FF9033A0122BB275F002EDA4F58265
:2068600085F08312289AAEF0F5DDE4F5FFEEF5DD0DEDB404DBE4F5FF43DB1022E4F5FFE5D2
:20688000DBC330E401D32275FF01E58F54F64408F58F2275FF01E58F5408FF22EFB401071A
:2068A00075FF0143AE202275FF0153AEDF22EFB4010775FF014391202275FF015391DF2229
:2068C000EFF0A3EDF0A3022BD2122BB2E9240122F9E43AFAE40227A8E0FEA3E07C002400D1
:2068E000FFEC3EFE227B017A2D79A7902EC4122BD2E4902EC7F0A304F0A37432F07A2D7932
:20690000A3227B017A12791C903151022BD2F0A3F0A3F0A3F0A3227F64FEFDFC021C141278
