:020000040000FA
:200000000203370218034100C4002202180B222222FFFF021813E4FFA10EFF02181B75C8A7
:200020000122FF021823FFFFFFFFFF02182BFFFFFFFFFF021833FFFFFFFFFF02183BFFFF8B
:20004000FFFFFF021843FFFFFFFFFF02184BFFFFFFFFFF021853FFFFFFFFFF02185BFFFF10
:20006000FFFFFF021863FFFFFFFFFF02186BFFFFFFFFFF021873BB010689828A83E02250D2
:2000800002E722BBFE02E32289828A83E49322BB010CE58229F582E5833AF583E0225006A3
:2000A000E92582F8E622BBFE06E92582F8E222E58229F582E5833AF583E49322BB01068960
:2000C000828A83F0225002F722BBFE01F322F8BB010DE58229F582E5833AF583E8F0225019
:2000E00006E92582C8F622BBFE05E92582C8F222C5F0F8A3E028F0C5F0F8E58215827002FB
:200100001583E038F022A3F8E0C5F025F0F0E582158270021583E0C838F0E822BB010A89B7
:20012000828A83E0F5F0A3E022500687F009E71922BBFE07E3F5F009E3192289828A83E423
:2001400093F5F074019322BB010A89828A83F0E5F0A3F0225006F709A7F01922BBFE06F3CB
:20016000E5F009F31922EF2BFFEE3AFEED39FDEC38FC22C3EF9BFFEE9AFEED99FDEC98FCFA
:200180002275F008758200EF2FFFEE33FECD33CDCC33CCC58233C5829BED9AEC99E582989E
:2001A000400CF582EE9BFEED9AFDEC99FC0FD5F0D6E4CEFBE4CDFAE4CCF9A88222B800C180
:2001C000B90059BA002DEC8BF084CFCECDFCE5F0CBF97818EF2FFFEE33FEED33FDEC33FC38
:2001E000EB33FB10D703994004EB99FB0FD8E5E4F9FA227818EF2FFFEE33FEED33FDEC33D3
:20020000FCC933C910D7059BE99A4007EC9BFCE99AF90FD8E0E4C9FAE4CCFB2275F010EF2E
:200220002FFFEE33FEED33FDCC33CCC833C810D7079BEC9AE899400AED9BFDEC9AFCE89964
:20024000F80FD5F0DAE4CDFBE4CCFAE4C8F922EF5BFFEE5AFEED59FDEC58FC22EB9FF5F038
:20026000EA9E42F0E99D42F0E89C45F022E8600FECC313FCED13FDEE13FEEF13FFD8F12234
:20028000E8600FEFC333FFEE33FEED33FDEC33FCD8F122E0FCA3E0FDA3E0FEA3E0FF22E080
:2002A000F8A3E0F9A3E0FAA3E0FB22ECF0A3EDF0A3EEF0A3EFF022A8828583F0D083D08265
:2002C0001202CE1202CE1202CE1202CEE473E493A3C583C5F0C583C8C582C8F0A3C583C569
:2002E000F0C583C8C582C822E0FBA3E0FAA3E0F922F8E0FBA3A3E0F925F0F0E58215827072
:20030000021583E0FA38F022EBF0A3EAF0A3E9F022D083D082F8E4937012740193700DA36B
:20032000A393F8740193F5828883E4737402936860EFA3A3A380DF75814B0207A20436FF81
:20034000FEFFFFAEFFEE54CFFEEFC454F024804EF5FF2290091151AB9009115193B1A190D0
:200360000915E06F6034110F9108EF6004111080F7B11AB1DB9000BAE0FF91E660099009DF
:20038000115193781071A0900911719C90091191EF900915E0FFB108D322C322519378086A
:2003A000516DE4E5C820E2FB8FEB229000D151AB9000D57108110F9108EF6004111080F776
:2003C000B11AB1DB9000BAE0FF91E660099000D15193781071A09000D1719C9000D151932C
:2003E000E4801B9000D8F19960189000D551E8EA494B60089000D5120E328001E4FF71A361
:2004000080E1B126E4FFA10E7F01B10E300214D1BB915890092AEFF0B12690092AE020E0FC
:2004200002C20230021791479000B8EFF173600BA3E0F46006EF30E702C202B126E4FFB1BB
:200440000EA202E433FF22B1DB7FD771A37FFF71A3915C9000B7EFF07FFF71A3E5C820E2D6
:20046000FBAFEB227F01B10E9009287401F0900928E0602ED1BB9158900928EFF0B12691B4
:20048000479000B8EFF0B126900928E05401F17360DCA3E0F460D7EF30E7D3E4900928F065
:2004A00080CCB1DB7F9F71A391589000B991569000BE91569000BFEFF0B10A9000B7E0F4E0
:2004C000601BA3E0F460169000BEE0FD541F240FA3F0EDC413540744809000BEF0227F018D
:2004E000B10EB1DB7F0371A39000BDE06402225193E461A3900000E0FEA3E0FF22FFFFFF8B
:20050000FFFFFFFFFFFFFFFF71A3B126E4FFEFB4010443FE202253FEDF227F01B10ED20285
:20052000B1DB7F0671A31213EEEF70FA9000BEE0F4600A9009277406F0F17B70FC9000BC50
:20054000E07111055F04056714056C15057117058130058634058B36059037000005794376
:200560004610854680802F43471080084347208003434780854790801D4348208548A08041
:2005800015434901800D434910800843494080034349808549B0900927740CF0F17B70FC27
:2005A0002290090C51AB110F9108EF6004111080F791DE600990090C5193781071A0900941
:2005C0000C719C90090C91EF9158900910EFF0B10A900910E0FF227F01B10E9000BCE0712B
:2005E0001105FD04060514060A15060F17061F30062434062936062E37000006175346EF4C
:20060000854680802F5347EF80085347DF800353477F854790801D5348DF8548A0801553F2
:2006200049FE800D5349EF80085349BF800353497F8549B07F0CDFFE22110F9108EF6004C6
:20064000111080F7B11AB1DB7F0171A37F0371A3B126E4FFA10E9000DA51AB9000DE7108CB
:20066000110F9108EF6004111080F791DE60099000DA5193781071A09000DA719C9000DA36
:2006800091EF9000E1F199601291589000DE51E8EF11BC9000DF1212B180E7B126E4FFA11B
:2006A0000E9000B7E020E012B1D77F3D71A37F2A71A37F8071A37FA6B10822B1DB7F05615A
:2006C000A3900929EFF09000C5E064027022B1D7900929E07FAB60027FB971A3B126900937
:2006E00029E09000C4F070047F1EDFFEE4FFB10E22900000EEF0A3EFF0A35193900008519B
:20070000AB900006E0FFA3E090000CCF805D90000C120FE3605BC3EF9440EE94004006A3A2
:200720007440F0800590000EEFF0F183E0FF120D14EFF09000085193D15690000EE0FFC3CB
:2007400090000DE09FF090000CE09400F0900008519F90000EE4FCFDFE316690000851AB61
:2007600091F4F183120C39900000EEF0A3EFF0809D81F4F09000B7E0FFF422900927E014C7
:20078000F0E0227B017A00790F90000E22110F9108EF6004111080F72274FFF5F03106458F
:2007A000F02275FF03759E0290033DE493F53C75FF02E5E654036003020B64753CDE753D76
:2007C000AD753EBE753FEFC2AF75FF0275E404F5E47546FF7547FF7548FF7549FF7542FF97
:2007E0007543FF7544FF7545FF75FF0253E6BF1212D41210DB120FEAEF64016003020B5B44
:2008000090180893FE740193FF9000ADEEF0A3EFF0F5828E83E493F540740193F54174020B
:2008200093F54A740393F54B740493F530740593F531740693F532740793F533C201EF4ED0
:2008400070022132EFF4FFEEF44F70022132E540454AFEE541454BFFE5304EFEE5314FFFCF
:20086000E5324EFEE5334F4E70022132E54BF4FFE54AF4FEE541F4FDE540F44EFEED4FFFA0
:20088000E531F4FDE530F44EFEEF4DFFE533F4FDE532F44EFEEF4D4E700221327F0312037B
:2008A00043E53324FFFFE532B12B640370247F02120343E53124FFFFE530B12BB402137F83
:2008C00001120343E54B24FFFFE54AB12BB40102D20120015D7F01120343B14C9000E8E528
:2008E0004AF0A3E54BF07F0F7E1D91AC7F02B1419000E8E530F0E53191AA7F03B141900050
:20090000E8E532F0E53391AA7F01120343900922E0FEA3E0FF7BFF7A187900E42541900043
:20092000E9F0E54034E89000E891AB4EC37001D39201300109B1A1EF64016002615B900073
:20094000ADE0FEA3E0F5828E83740C93F53A740D93F53B9000961202937167900079B18894
:20096000FD9000AF718FEF2408FFE43E71797B007A007938B1147402F0120656C200D390B1
:200980000078E09539900077E095384002416A9000AF12029FC000C001C002C003AE38AF03
:2009A00039E4FCFDC006C007900077E0FEA3E0FBAA06E4F9F8D007D006120173D003D002D4
:2009C000D001D000120166716790007B120293EF24F2FFEE34FFB1539000AFB1DB400241FC
:2009E0006A9000AF1202937A00799FB112740EF01206569000ABE0F536A3E0F5379000A14C
:200A0000E0F54AA3E0F54BA3E0F530A3E0F531A3E0F532A3E0F533900092120293EF24FF73
:200A2000FFEE347F71797167AE4AAF4BE4FCFD9000AF718F1205A1EF6401702E716D7167E6
:200A4000AE30AF31E4FCFD9000AF718F1205A1BF0218716D7167AE32AF33E4FCFD9000AF97
:200A6000718F1205A1BF0302D200200002615730010EE53B65377004E53A653670026157FB
:200A80007B017A09792271954002615790009B1202B700001800718161317440D39534508A
:200AA00002614690007B91BAEE34F8B1539000AF12029FD312025C4002614690009B1202BC
:200AC000937B007AF879017800C312025C40779000AF1202930B7A0179009000E17408F0F8
:200AE000A3E4F0120656E4F535FB91E6AF34B15DE535C39408502091E4E5357F00FEEF2498
:200B000000F974013EFA7B0190090BE535F0AD34121337053580D990009B91BAEE34087124
:200B20007990009B1202AB9000AF91BAEE340871797167E4FB7A08F9F890009B12029312A6
:200B400001BD8F34419A7440D39534400A91E4AF34B15D053480EFE4FFB1E2E4F53CF53DD4
:200B6000F53EF53F0218009000AF0202AB9000AF120293E42FFFEE3480FEE43DFDE43CFC34
:200B800022900079E0FEA3E0FFE4FCFD90009612029F02016690091F1203087181EF2408C9
:200BA000FFE43E71797A00797FB1127402F012065690007FB188FD900092718F7B017A00C4
:200BC0007984B114740EF0120656900092717091C9900086B1347F0F7E1D91CFB11BC00600
:200BE000C00791B7E43E91C1900088B134D007D00691CFB11BC006C00791B7EE348091C1D3
:200C000090008AB134D007D00691CFB11BC006C007718191C9900085E02400FE900084E018
:200C200034E8900006F0A3CEF0D007D00691CF12011C45F0C37001D322E0FD9000E8E4F0EE
:200C4000A3EDF09000E3EEF0A3EFF0A31203089000E8120799604A9000E5D1329000EAF0CB
:200C60007D80ED60EA91A1EE7C0030E7027C019000EAE05D7B0060027B01EB6CFCEF25E0B7
:200C8000FFEE339000E3F0A3EFF0AF04EF600C9000E3E06410F0A3E06421F0EDC313FD8052
:200CA000C19000E3E0FEA3E0FF22A3F09143900922EEF0A3EFF022900092120293E42FFFFF
:200CC00022FEED3401FDE43CFC9000020202AB1206F190091F1202E8EE8FF012014790095B
:200CE0001F0202E87B007A00793CB18175FF03120076F5D375FF03900001B122900002B128
:200D000022900003B12275D40175FF03E5D55402FF227B019000E1E4F0A32212011CFFAEF7
:200D2000F02212008FF5D375FF0322347F8F82F583E49322E0FFA3E0900006CFF0A3EFF091
:200D400022120343900922E0FEA3E0FF7BFF7A80790022FEED34FFFDEC34FFFC2275FF0320
:200D6000EF543F4480F5D1E5D520E20AE5D520E005E5D530E1F1E5D55403FF75FF0375D555
:200D80000575FF0375D40222E0FEA3E0FFE4FC227F0F7E1D913B9000EF1202E89000F28195
:200DA00039E4900926F090009AE06020B1D270087FFF7E77FDFC800CD12250107FFF7EFF9C
:200DC0007D017C001205A1900926EFF0900926E0FF22E4FFFE7D02FC90007B12029FC30224
:200DE000025C900924EFF0E4A3F090009AE06021B1D27008D1177E777D00800AD1225011C4
:200E0000D1177EFF7D017C00120353E433900925F0900925E0FF22900924E0900915F07FCD
:200E2000FF2290007B120293E4FBFA7904F8D302025CE475F0011202F1020076B18175FFF1
:200E400003E5D5F45402FF229000FCD163C0079000FC1202E89000FFE0FFB114EFF0D00772
:200E6000020656120308E4FCFD22900902D163C0079009021202E8900905F1D7F0D007900E
:200E8000004F1202AB900053120308E4900076F0D3900057E0941E900056E0940040012261
:200EA0007B017A007958900056E0FFA3E09000E1CFF0A3EFF090004F1202931206569000ED
:200EC000531202E8E94A600F900076E0F58275830012008FFF80027F00900076E02458F5D4
:200EE00082E43400F583E06F6002C322900076E004FFF0D3900057E09F900056E09400508E
:200F0000BD229000C61202AB9000CA12030812143F9000CDF1D7F09000C6120293D17F504F
:200F200002E1CC9000C1E024FFFF9000C0E034FFFEE4FCFD9000C612029F12024F9000CFA6
:200F4000EEF0A3EFF04E603BF1CEC39000C1E09FFF9000C0E09EFE9000CFF0A3EFF09000CA
:200F6000CDE0FCA3E0FDD39FEC9E5006A3ECF0A3EDF01213FAE94A6004F1CE80427E007FC3
:200F800000803C9000CDF1E360409000C0E0FCA3E0FDD3EF9DEE9C400A9000CFECF0A3ED1A
:200FA000F0800D9000CDE0FFA3E0A3CFF0A3EFF01213FAE94A6004F1CE80047E007F00908B
:200FC00000CBEE8FF01200F080B9D322C3229000CFE0FEA3E0FF22E0FFA3E0900056CFF0DC
:200FE000A3EF22E0FEA3E0FF4E22E490009AF07B017A00798112137F900083E0FBB4112206
:201000009000961202B7000078009000921202B7000060009000777418F0A3E4F0A3F0A3EA
:2010200080277412D39B50279000961202B7000200009000921202B700020000E4900077D1
:20104000F0A3F0A37418F0A3E4F090009A04F090009AE0FB6017E4FFFE7D02FC900083E08E
:2010600024EFF9F812028090007B1202ABAF032275FF03E4F59751B8E59720E1FB75FF035B
:20108000AF9922900916EFF0A3EDF0A3120308900917E06045901215E06012900916E02427
:2010A00010FF11709009181202E8EF8017900916E0640190091870071202E87480800512CA
:2010C00002E874FF1200BC90091951B1900917E014F0900916E004F080B5227B017A007954
:2010E000BC7F0351987A0079C57F0851987A0079C27D027F0911837B017A0079C07D027F24
:201100000B11839000C0120FE36006BEFF1BBFFF189000C5E024FD600304700451A7800916
:201120009000C0E4F0A37440F09000C5E024FD60030470089000BD7403F080069000BD7414
:2011400002F09000BCE0120311116504117014117815118017119630119E3411A63611AE90
:20116000370000118B75FF015342EF8542FD804775FF015343EF800E75FF015343DF800620
:2011800075FF0153437F8543C9802C75FF015344DF8544CA802175FF015345FE801675FF54
:2011A000015345EF800E75FF015345BF800675FF0153457F8545CB1205267F115192E4FF13
:2011C0001206C11204649000BA7402F09000BEE0247F6009047016519F740A80071206A19A
:2011E000519F7458F09000BD7403F051A79000BFE0F46002418F9000C2E0FEA3E0FF64101C
:201200004E70069000BF740EF0EF64204E70069000BF740FF0EF64404E70069000BF741026
:20122000F0EF64804E70069000BF7411F0E4B5070AEEB401069000BF7412F0E4B5070AEEB3
:20124000B402069000BF7413F0E4B5070AEEB404069000BF7414F0E4B5070AEEB408069005
:2012600000BF7415F0E4B5070AEEB410069000BF7416F0E4B5070AEEB420069000BF7417BF
:20128000F0E4B5070AEEB440069000BF7418F0020639EF4420F5FE227D0111837B01227F29
:2012A0001051929000BA229000C07401F0A3E4F022E475F0010200F075FF038F9875FF0330
:2012C0002275FF0375970151B8E59720E1FB75FF03AF992290091B7410F090091BE0FFD378
:2012E000947F503D117090091CEFF090091BE0B410067E1D7F0F800890091DE0FEA3E0FF14
:201300007B017A09791C9000E8E4F0A304F0120C4390091DEEF0A3EFF090091BE004F080D7
:20132000B990091DE07002A3E07F0070027F01901215EFF024FF2275FF03ACD5EC20E13CFC
:2013400075FF03ED543FF5D175FF03E9F5D375FF03EA540FFF90090BE0C4547044804FF5D1
:20136000D2E5D520E205E5D530E0F6E5D55401FC75FF0343D40275FF0375D505AF04229054
:2013800000B9E01200BC9000BEE09000011200CE9000BFE09000020200CEE4FCFD0205A131
:2013A000AB05E4FCFD900915EBF00203539000F5120E63C0079000F51202E89000F8E0FF08
:2013C000A3E09000CDCFF0A3EFF0D007020F02EFB40109D2AD75FF0143AE4022C2AD75FF2B
:2013E0000153AEBF22E5C85402FF75C80222E5C85404FF22E5C85401FF229000CA1202E808
:201400009000CFE0FFA3E09000D8CFF0A3EFF09000C61202931203AB9000CFE0FEA3E0FFE6
:20142000C39000CEE09FF09000CDE09EF09000C612029FE4FCFD1201669000C61202AB904D
:2014400000CA0202E8FFFFFFFFFFFFFFFFFFFFFFFFFFFFFFFFFFFFFFFFFFFFFFFFFFFFFFF1
:20146000FFFFFFFFFFFFFFFFFFFFFFFFFFFFFFFFFFFFFFFFFFFFFFFFFFFFFFFFFFFFFFFF8C
:20148000FFFFFFFFFFFFFFFFFFFFFFFFFFFFFFFFFFFFFFFFFFFFFFFFFFFFFFFFFFFFFFFF6C
:2014A000FFFFFFFFFFFFFFFFFFFFFFFFFFFFFFFFFFFFFFFFFFFFFFFFFFFFFFFFFFFFFFFF4C
:2014C000FFFFFFFFFFFFFFFFFFFFFFFFFFFFFFFFFFFFFFFFFFFFFFFFFFFFFFFFFFFFFFFF2C
:2014E000FFFFFFFFFFFFFFFFFFFFFFFFFFFFFFFFFFFFFFFFFFFFFFFFFFFFFFFFFFFFFFFF0C
:20150000FFFFFFFFFFFFFFFFFFFFFFFFFFFFFFFFFFFFFFFFFFFFFFFFFFFFFFFFFFFFFFFFEB
:20152000FFFFFFFFFFFFFFFFFFFFFFFFFFFFFFFFFFFFFFFFFFFFFFFFFFFFFFFFFFFFFFFFCB
:20154000FFFFFFFFFFFFFFFFFFFFFFFFFFFFFFFFFFFFFFFFFFFFFFFFFFFFFFFFFFFFFFFFAB
:20156000FFFFFFFFFFFFFFFFFFFFFFFFFFFFFFFFFFFFFFFFFFFFFFFFFFFFFFFFFFFFFFFF8B
:20158000FFFFFFFFFFFFFFFFFFFFFFFFFFFFFFFFFFFFFFFFFFFFFFFFFFFFFFFFFFFFFFFF6B
:2015A000FFFFFFFFFFFFFFFFFFFFFFFFFFFFFFFFFFFFFFFFFFFFFFFFFFFFFFFFFFFFFFFF4B
:2015C000FFFFFFFFFFFFFFFFFFFFFFFFFFFFFFFFFFFFFFFFFFFFFFFFFFFFFFFFFFFFFFFF2B
:2015E000FFFFFFFFFFFFFFFFFFFFFFFFFFFFFFFFFFFFFFFFFFFFFFFFFFFFFFFFFFFFFFFF0B
:20160000FFFFFFFFFFFFFFFFFFFFFFFFFFFFFFFFFFFFFFFFFFFFFFFFFFFFFFFFFFFFFFFFEA
:20162000FFFFFFFFFFFFFFFFFFFFFFFFFFFFFFFFFFFFFFFFFFFFFFFFFFFFFFFFFFFFFFFFCA
:20164000FFFFFFFFFFFFFFFFFFFFFFFFFFFFFFFFFFFFFFFFFFFFFFFFFFFFFFFFFFFFFFFFAA
:20166000FFFFFFFFFFFFFFFFFFFFFFFFFFFFFFFFFFFFFFFFFFFFFFFFFFFFFFFFFFFFFFFF8A
:20168000FFFFFFFFFFFFFFFFFFFFFFFFFFFFFFFFFFFFFFFFFFFFFFFFFFFFFFFFFFFFFFFF6A
:2016A000FFFFFFFFFFFFFFFFFFFFFFFFFFFFFFFFFFFFFFFFFFFFFFFFFFFFFFFFFFFFFFFF4A
:2016C000FFFFFFFFFFFFFFFFFFFFFFFFFFFFFFFFFFFFFFFFFFFFFFFFFFFFFFFFFFFFFFFF2A
:2016E000FFFFFFFFFFFFFFFFFFFFFFFFFFFFFFFFFFFFFFFFFFFFFFFFFFFFFFFFFFFFFFFF0A
:20170000FFFFFFFFFFFFFFFFFFFFFFFFFFFFFFFFFFFFFFFFFFFFFFFFFFFFFFFFFFFFFFFFE9
:20172000FFFFFFFFFFFFFFFFFFFFFFFFFFFFFFFFFFFFFFFFFFFFFFFFFFFFFFFFFFFFFFFFC9
:20174000FFFFFFFFFFFFFFFFFFFFFFFFFFFFFFFFFFFFFFFFFFFFFFFFFFFFFFFFFFFFFFFFA9
:20176000FFFFFFFFFFFFFFFFFFFFFFFFFFFFFFFFFFFFFFFFFFFFFFFFFFFFFFFFFFFFFFFF89
:20178000FFFFFFFFFFFFFFFFFFFFFFFFFFFFFFFFFFFFFFFFFFFFFFFFFFFFFFFFFFFFFFFF69
:2017A000FFFFFFFFFFFFFFFFFFFFFFFFFFFFFFFFFFFFFFFFFFFFFFFFFFFFFFFFFFFFFFFF49
:2017C000FFFFFFFFFFFFFFFFFFFFFFFFFFFFFFFFFFFFFFFFFFFFFFFFFFFFFFFFFFFFFFFF29
:2017E000FFFFFFFFFFFFFFFFFFFFFFFFFFFFFFFFFFFFFFFFFFFFFFFFFFFFFFFFFFFFFFFF09
:2018000002347C0268393A257FB82202687D28A428AAFF0268782A002A2AFF0268BC2ACCBC
:201820002AD2FF0267BB2B1A2B20FF026024EC30E703122229222E202E7AFF0268C15A2D48
:201840005761766520342E353400FF0258C528682874FF0267FA29C42ABAFF02404BDFFE24
:2018600022A2AF92D5C2AF315CEF319331E0EC319331E0ED319331E0315C74014F31933103
:20188000E079808006510E513FF709DBF8510E514EF75187A2D592AF22A2AF92D5C2AF3126
:2018A0005CEF319331E0EC319331E0ED319331E07980E7319331E009DBF85187A2D592AF64
:2018C00022A2AF92D5C2AF315CEF319331E0ED319331E0315C74014F319331E07980800605
:2018E000510E513FF709DBF8510E514EF75187A2D592AF22A2AF92D5C2AF315CEF319331E5
:20190000E0ED319331E07980E7319331E009DBF85187A2D592AF22A2AF92D5C2AF315C74B8
:20192000014F319331E079808006510E513FF709DDF8510E514EF75187A2D592AF22A2AF47
:2019400092D5C2AF315CEF319331E07980E7319331E009DDF85187A2D592AF2275FF014361
:2019600055804359808555CA75FF014355404359408555CA51BEC2A775FF0153557F855517
:20198000CAC2A751BEC2A675FF015355BF8555CAC2A6227808C2A675FF015355BF8555CA2B
:2019A000C2A633400FC2A775FF0153557F8555CAC2A7800C75FF014355804359808555CA52
:2019C00051BE75FF014355404359408555CA51BED8C3C2A675FF015355BF8555CAC2A6220F
:2019E00075FF014355804359808555CA75FF014355404359408555CA51BEA2A70000000075
:201A0000C2A675FF015355BF8555CAC2A62275FF014355804359808555CA780875FF0143CF
:201A200055404359408555CA51BEA2A733C2A675FF015355BF8555CAC2A651BED8DE22C20D
:201A4000A775FF0153557F8555CAC2A7800E75FF014355804359808555CA51BE75FF014394
:201A600055404359408555CA51BEC2A675FF015355BF8555CAC2A651BEC2A775FF0153555D
:201A80007F8555CAC2A722C2A775FF0153557F8555CAC2A7C2A675FF015355BF8555CAC2DC
:201AA000A651BE75FF014355404359408555CA51BE75FF014355804359808555CA22000026
:201AC0000000000000000000000000000022021E8FE86480F8E933E83360110460F0ED3355
:201AE000EC337009E8FCE9FDEAFEEBFF220460DED3EB9FEA9EE99DE8C2E78CF0C2F795F098
:201B0000400CE8CCF8E9CDF9EACEFAEBCFFB121E5A85D0F05804700320D5B3E804700750BE
:201B200002B2D5021E9992D5EC0460F7E4CCC0E0C398F8603B94186008400DD0E0FB021E4B
:201B400071E4FBFAC9FC8028E830E406E4C9FBE4CAFCE830E305E4C9CACBFCE85407601089
:201B6000F8C3E913F9EA13FAEB13FBEC13FCD8F130F52FC3E49CFCEF9BFFEE9AFEED99FDDC
:201B8000D0E0FBEF4E4D4C701222DB03021E96EC2CFCEF33FFEE33FEED33FDED30E7EB022A
:201BA0001E71EF2BFFEE3AFEED39FDD0E0FB50130BBB0003021E99ED13FDEE13FEEF13FFA7
:201BC000EC13FC021E71EC4D6011E8497017ED33EC3304600DE4FCFFFEFD22E933E8330430
:201BE00070F8021E8F121E5A58046009E4CC24815006285009021E99284003021E96C0E0D9
:201C0000EB4A7044B98006D0E0FB021E85EF4E701CBD8008EBFFEAFEE9FD80EBE98DF0A411
:201C2000FEE5F0021CAFE9CDF9EAFEEBFFEF89F0A4FCE5F0CE89F0A42EFFE435F0CD89F03F
:201C4000A42DFEE435F08067EF4E7005BD80D780C3EF8BF0A4ACF0EE8BF0A42CFCE435F0D4
:201C6000F8EF8AF0A42CE5F038FCE433CB8DF0A42CFCE5F03BF8EE8AF0A42CFCE5F038F8BE
:201C8000E433CF89F0A42CFCE5F038CF3400CE89F0A42FFFE5F03EFEE433C98DF0A42EFEB2
:201CA000E5F039CD8AF0A42FFFE5F03EFEE43DFD33D0E0FB50070BBB000F021E99EC2CFCF7
:201CC000EF33FFEE33FEED33FD021E71021E99EC5D046005E859047003021E8F121E5A5862
:201CE0000460F6EC4860F2EC7004FDFEFF22C860DB2481C85009C39860025006021E96985E
:201D000050CAF582E9294B4A7005AB82021E8575F0007C1A7880C3EF9BEE9AED99400DC3E6
:201D2000EF9BFFEE9AFEED99FDE842F0DC23ACF0D0E0FFD0E0FED0E0FDAB8220E7101BEB08
:201D400060BAEC2CFCEF33FFEE33FEED33FD021E71E803F830E705C0F075F000EF2FFFEE48
:201D600033FEED33FD40B830E7C280AA74F8CC6480CCC86480C8F58204604FC3EB9FF5F062
:201D8000EA9E42F0E99D42F0E89C45F0603C501DE5825FFFE582D313CB5BCBF42B5582FB1B
:201DA00050280ABA002409B9002008801DE5825BFBE582D313CF5FCFF4C3132F5582FF5016
:201DC000090EBE00050DBD00010CC3EB9FF5F0EA9E42F0E99D42F0E89C45F06007CC48205A
:201DE000E701B3EC2275F020800E75F010800575F0087D007E007F003392D530D503122270
:201E000029EC334010EF33FFEE33FEED33FDEC33FCD5F0ED22E5F0247EA2D513CC92E7CDCB
:201E2000CEFF22EDD2E7CD33EC3392D524814006E4FFFEFDFC22FCE4CFCECDCC24E0501125
:201E400074FF80EDC3CC13CCCD13CDCE13CECF13CF0470F030D5DE022229E9D2E7C933E80D
:201E600033F892D5EDD2E7CD33EC33FC5002B2D522EC30E7100FBF000C0EBE00080DBD0089
:201E8000040BEB6014A2D5EB13FCED92E7FD2274FFFCFDFEFF22E480F8A2D574FF13FC7D81
:201EA00080E480EFBB010689828A83E0225002E722BBFE02E32289828A83E49322BB010BE0
:201EC00089828A83F8E0C828F0E822500327C722BBFE07F8E3C828F3E8228A838982E493AE
:201EE00022BB010CE58229F582E5833AF583E0225006E92582F8E622BBFE06E92582F8E2C6
:201F000022E58229F582E5833AF583E49322BB010989828A83F8E028F022500327F722BBA8
:201F2000FE05F8E328F3228A838982F8E4932822BB010FF8E58229F582E5833AF583E028C9
:201F4000F0225009C58229F8E58226F622BBFE09C58229F8E22582F222F8EA2583F583E957
:201F6000932822BB010689828A83F0225002F722BBFE01F322F8BB010DE58229F582E5832E
:201F80003AF583E8F0225006E92582C8F622BBFE05E92582C8F222EF8DF0A4A8F0CF8CF0B2
:201FA000A428CE8DF0A42EFE22BC000BBE0029EF8DF084FFADF022E4CCF875F008EF2FFF8A
:201FC000EE33FEEC33FCEE9DEC984005FCEE9DFE0FD5F0E9E4CEFD22EDF8F5F0EE8420D232
:201FE0001CFEADF075F008EF2FFFED33FD4007985006D5F0F222C398FD0FD5F0EA22C5F088
:20200000F8A3E028F0C5F0F8E582158270021583E038F022A3F8E0C5F025F0F0E58215821B
:2020200070021583E0C838F0E822BB010A89828A83E0F5F0A3E022500687F009E71922BBC1
:20204000FE07E3F5F009E3192289828A83E493F5F074019322BB0110E58229F582E5833A79
:20206000F583E0F5F0A3E0225009E92582F886F008E622BBFE0AE92582F8E2F5F008E222F9
:20208000E5832AF583E993F5F0A3E99322BB010789828A83021FFE500B09C5F027F7C5F0AE
:2020A0001937F722BBFE0D09F8E325F0F3C5F019E338F322F889828A8374019325F0C5F025
:2020C000F8E4933822BB010A89828A83F0E5F0A3F0225006F709A7F01922BBFE06F3E5F030
:2020E00009F31922EF2BFFEE3AFEED39FDEC38FC22C3EF9BFFEE9AFEED99FDEC98FC22E826
:202100008FF0A4CC8BF0A42CFCE98EF0A42CFC8AF0EDA42CFCEA8EF0A4CDA8F08BF0A42D66
:20212000CC3825F0FDE98FF0A42CCD35F0FCEB8EF0A4FEA9F0EB8FF0A4CFC5F02ECD39FEFB
:20214000E43CFCEAA42DCE35F0FDE43CFC2275F008758200EF2FFFEE33FECD33CDCC33CC42
:20216000C58233C5829BED9AEC99E58298400CF582EE9BFEED9AFDEC99FC0FD5F0D6E4CE4D
:20218000FBE4CDFAE4CCF9A88222B800C1B90059BA002DEC8BF084CFCECDFCE5F0CBF978D0
:2021A00018EF2FFFEE33FEED33FDEC33FCEB33FB10D703994004EB99FB0FD8E5E4F9FA226F
:2021C0007818EF2FFFEE33FEED33FDEC33FCC933C910D7059BE99A4007EC9BFCE99AF90FD7
:2021E000D8E0E4C9FAE4CCFB2275F010EF2FFFEE33FEED33FDCC33CCC833C810D7079BECE2
:202200009AE899400AED9BFDEC9AFCE899F80FD5F0DAE4CDFBE4CCFAE4C8F922EF5BFFEED7
:202220005AFEED59FDEC58FC22C3E49FFFE49EFEE49DFDE49CFC22EB9FF5F0EA9E42F0E9AE
:202240009D42F0EC6480C864809845F022EB9FF5F0EA9E42F0E99D42F0E89C45F022E86040
:202260000FECC313FCED13FDEE13FEEF13FFD8F122E8600FEFC333FFEE33FEED33FDEC3313
:20228000FCD8F122BB010789828A830222BE5005E9F8022592BBFE05E9F802259E89828AB2
:2022A000830222CABB010789828A830222E65005E9F80225AABBFE05E9F80225B622E0FC47
:2022C000A3E0FDA3E0FEA3E0FF22E493FC740193FD740293FE740393FF22E0F8A3E0F9A3B8
:2022E000E0FAA3E0FB22ECF0A3EDF0A3EEF0A3EFF022A8828583F0D083D0821223091223A9
:2023000009122309122309E473E493A3C583C5F0C583C8C582C8F0A3C583C5F0C583C8C546
:2023200082C822A42582F582E5F03583F58322E0FBA3E0FAA3E0F922F8E0FBA3A3E0F9253B
:20234000F0F0E582158270021583E0FA38F022EBF0A3EAF0A3E9F022BB010789828A83029E
:20236000232F5005E9F80225C2BBFE05E9F80225D489828A830225E6BB011A89828A83D06F
:20238000F0D0E0F8D0E0F9D0E0FAD0E0FBE8C0E0C0F002234F5016E9F8D083D082D0E0F966
:2023A000D0E0FAD0E0FBC082C0830225CBBBFE16E9F8D083D082D0E0F9D0E0FAD0E0FBC03E
:2023C00082C0830225DD22BB010DE58229F582E5833AF58302232F5007E92582F80225C20C
:2023E000BBFE07E92582F80225D4E58229F582E5833AF5830225E6BB0120E58229F582E5A4
:20240000833AF583D0F0D0E0F8D0E0F9D0E0FAD0E0FBE8C0E0C0F002234F5018E92582F885
:20242000D083D082D0E0F9D0E0FAD0E0FBC082C0830225CBBBFE18E92582F8D083D082D0B4
:20244000E0F9D0E0FAD0E0FBC082C0830225DD22D083D082F8E4937012740193700DA3A342
:2024600093F8740193F5828883E4737402936860EFA3A3A380DF8A838982E473EC8EF0A46B
:20248000CCC5F0CCCDF8EFA4CEC5F02DFDE43CFCE8A42EC8C5F03DFDE43CFCEFA4FFE5F0DA
:2024A00028FEE43DFDE43CFC22E709F60870FA8046E709F20870FA803E88828C83E709F071
:2024C000A370FA807EE309F60870FA8076E309F20870FA806E88828C83E309F0A370FA80E7
:2024E0006289828A83E0A3F60870FA805689828A83E0A3F20870FA804A80D280FA80C68046
:20250000D4806580F28031801080A680EA809A80A880DA80E280CA803189828A83ECFAE4E4
:2025200093A3C8C582C8CCC583CCF0A3C8C582C8CCC583CC70E9800D89828A83E493A3F656
:202540000870F9ECFAA9F0EDFB2289828A83ECFAE0A3C8C582C8CCC583CCF0A3C8C582C8DF
:20256000CCC583CC70EA80DD89828A83E493A3F20870F980CE88F0ED2402B4040050C4F595
:2025800082EB2402B4040050BA23234582239024F973E6FC08E6FD08E6FE08E6FF22E2FCF0
:2025A00008E2FD08E2FE08E2FF22ECF608EDF608EEF608EFF622ECF208EDF208EEF208EFD5
:2025C000F222E6FB08E6FA08E6F922EBF608EAF608E9F622E2FB08E2FA08E2F922EBF20898
:2025E000EAF208E9F222E493FB740193FA740293F92227B427C027C627CC27D227DE2B3265
:20260000C0647426C0E0C082C08375640AE5FF54CF4490F5FF22C0647426C0E0C082C08320
:20262000756420E5FF54CF4490F5FF22C0647426C0E0C082C083756436E5FF54CF44A0F5DE
:20264000FF22C0647426C0E0C082C08375644CE5FF54CF44B0F5FF229080000226169080E2
:202660001002261690801C02261690802802261690802B02261690803702261690804502D7
:20268000261690805302261690806102261690806F0226169088120226169097FE02261626
:2026A000909E1B0226169086F202261690A80102261690C00502261690CAD502261690CD79
:2026C0005202261690CEE302261690CFF102261690D00B02261690D01A02261690D0C502D5
:2026E000261690B03302261690D07102261690DD3502261690D24D02261690D3340226163C
:2027000090D31A02261690D3A10226169090DC02261690912002261690E00E02261690E0D7
:202720008D02261690E0CA02261690CAC702261690CAB402261690E0E302261690DD6F023C
:20274000261690E1CE02261690E1E302261690D4A002261690E26102261690E264022616C7
:2027600090E3E102261690C8E402261690B4D902261690CD3102261690D46E022616908DF9
:202780009102261690CE9402261690DCF802261690914F02261690E0DA02261690E5AC023F
:2027A000261690D4C602261690E5C402261690E5DF02261690E61402261690E7E00226160F
:2027C00090BF4102261690E86602261690E87E02261690A79D02261690E44F02261690E94F
:2027E000050226169092CB02261690EA4502261690EA5A02261690EA7E02261690DF820233
:20280000261690D7D802261690E53902261690E55402261690D74C02261690EB1E02261644
:2028200090DC3702261690E6AE02261690DC3502261690DD4602261690E1E902261690DB82
:20284000E502261690DA2C02261690DEF202261690E5A602261690E40502261690D6F30278
:20286000261690E39E02261690EBEC02261690CA1E02261690EC4F02261690E28C0226162D
:2028800090EC5D02261690EC8E02261690ECA202261690ECC002261690ECCA02261690EC03
:2028A000D202261690ED6C022616909F0A02261690E77602261690A48502261690EA6B0261
:2028C000261690ED9202261690EDE802261690DE7302261690DE7702261690E0D702261605
:2028E00090E12F02261690EE9B02261690EEA102261690D40B02264290D44602264290D5F4
:202900006402264290D81002264290D8C30226429082EC02264290D53402264290D4B602EB
:20292000264290D5B702264290D62202264290819002264290DE1402264290DDFE022642EB
:2029400090DE4902264290DE4A02264290DE4B02264290B24F02264290C9E7022642908854
:202960009302264290B25902264290DB1B02264290DBC902264290DCC702264290C0E302F5
:20298000264290D01E02264290896A02264290C02602264290B97E02264290C7D502264253
:2029A00090E44C02264290E4E902264290E55702264290E5AA0226429092EE02264290E677
:2029C0001102264290E6C902264290976802264290B98102264290E04302264290E76302AD
:2029E000264290DFA1022642909FA402264290C02302264290E7C402264290B58102264206
:202A000090E89702264290E89F02264290C80302264290E8A202264290E8C402264290CD70
:202A2000A302264290C3F602264290B14B02264290E94E02264290AFA602264290AFAD0272
:202A4000264290AFD302264290EB4602264290CCA002264290C51102264290BD84022642F6
:202A60009099340226429088B802264290E6EC02264290C27402264290E67B02264290BEB0
:202A80005002264290BA8F02264290BB2602264290BABB02264290BAF902264290BCCA022A
:202AA000264290AFEC02264290EBB002264290B42702264290E9B702264290EC33022642FC
:202AC00090A16A02264290D14102264290B9D602264290E017022642908BBC02264290D2C8
:202AE0009302264290AD5A02264290D34D02264290EC4002264290D35002264290ED1502E7
:202B0000264290B51602264290A24B02264290B3D902264290BF6802264290EFDB02264236
:202B200090DFED02264290C4FA02264290C8FC02264290F2C802264290ABBF02264290D1E0
:202B40005402264290F44202264290F5B202264290CDD202264290F62A02264290CCFE02D7
:202B6000264290F6A102264290EDC702264290EE8F02264290F6EF02264290D296022642F6
:202B800090CAFC02264290C66C02264290C51302264290C9BE02264290E73F02262C90B9A3
:202BA0005602262C90D14402262C90E74502262C90D88102262C90E74602262C90A84D028D
:202BC000262C90D73502262C90E82702262C90E91B02262C90E00F02262C90AD1602262C5E
:202BE00090E91D02262C90B8A502262C90B08A02262C90B0BE02262C90E9CF02262C90E925
:202C0000D802262C90815302262C9099B402262C909CBC02262C90CFFE02262C90E65902E1
:202C2000262C90B86F02262C90D87A02262C90EB6302262C90B21702262C90808302262C3B
:202C400090C01802262C908C1C02262C90EA5F02262C90E02E02262C90EBB202262C90A05C
:202C6000CB02262C90EBD102262C90EBDF02262C90EBE602262C90810E02262C90C2F40277
:202C8000262C908D0902262C90B23002262C908B3B02262C90D67D02262C908CC702262C8A
:202CA000908D0002262C90E5CB02262C9084CF02262C90E7CC02262C90E79802262C90E866
:202CC0003102262C90E8D802262C90ED0F02262C90E87802262C90ED2802262C908000029C
:202CE000262C90C21E02262C90ED3102262C90E56502262C90AE6802262C90AEA502262C5D
:202D000090E09902262C90E09F02262C90E08D02262C90E09302262C90EE2A02262C90EED1
:202D20003002262C9080CC02262C90EE3602262C90811102262C90EE5902262C90EE7C023A
:202D4000262C90C5AC02262C90DFF702262C90EE9E02262C90DFD102262C90EEA502262C97
:202D600090DFE402262C90EEAC02262C90EEB302262C90EF0102262C90946B02262C908ED4
:202D80000F02262C90C0F502262C90EF4402262C90C1FD02262C90EF6402262C90C32702CB
:202DA000262C90DC3D02262C90C1E602262C90E77002262C90C1B902262C90C55702262CA0
:202DC00090DBDB02262C90C33402262C90D7DE02262C90DB8502262C90EF8B02262C909320
:202DE000F002262C9097C902262C90A43002262C90A22A02262C90AD6502262C90C16D022D
:202E0000262C90AADF02262C90D78302262C90F0F902262C90D05B02262C9095C102262C9F
:202E200090F19902262C90AC2202262C90ACF802262C9094BC02262C90ACF502262C90940D
:202E4000B502262C90AD2602262C90AC8A02262C90F28402262C90AB4102262C90AB9D0294
:202E6000262C90A9CA02262C90A9BA02262C908DEF02262C90A10302262C90F29E02262C06
:202E800090849F02262C9084A202262C90B67702262C90F51202262C90B86902262C90A4EC
:202EA0006402262C908E0E02262C908D0202262C90F1C702262C90B60902262C90B43002B2
:202EC000262C90B23C02262C90843502262C908E4502262C9095F302262C909CC202262CCC
:202EE00090850602262C90F4D702262C90B96D02262C90B6A402262C90F07502262C90F0A3
:202F0000D002262C9094B502262C90C23C02262C90F10102262C90F43902262C90F5C1024F
:202F2000262C90C5A002262C90C79302262C90BFF602262C90F5C702262C90C36802262C70
:202F400090C2FE02262C90D87102262C90DCBB02262C90DF9102262C90A12C02262C90A1EF
:202F60003202262C90F7E902262C90F7EE02262C90A78A02262C90F7FA02262C90C2BF0241
:202F8000262C90F7FF02262C90CED302262C90D68E02262C90DFB802262C90F82D02262CB4
:202FA000908EE702262C9094A802262C90B8B702262C90CE0C02262C90CF2D02262C90F91E
:202FC000AA02262C90CEF402262C90D1B202262C90F9E402262C90D84A02262C90CDCF02F1
:202FE000262C90FA4502262C90FA7A02262C90FA7D02262C90FA8202262C90FA5F02262C0C
:203000004102B200410415060114004104140141041301C112011A00011700413D7300425A
:20302000315D010141315F0042315B00004130A9004230AE00004230A000004430A50000FC
:203040000000413166FF41315700016000413EFE00C135413F0100413F0200423F03000075
:20306000C11EC115C10941322E00413294FF41328C00C108C1074132950041329600413216
:203080008D01C10B41322D00C10F013000C10CC10D41469F00C139434343000000414342EB
:2030A0000041434600413F7100413F720041442100453B33007F120000453B2A007F170039
:2030C00000C142413D84004541940000000000414199004141930041419A00443D93FFFF73
:2030E000FFFF483D9A0000000000000000423D980101413CE300413CEC00413CF000413CE7
:20310000EF00413CEB00413CE600423CE40000423CF200004131C0004131B9004131BB0099
:2031200041322900606631C20000000000000000000000000000000000000000000000003A
:2031400000000000000000000000000000000000000000000000000000000000000000006F
:2031600000000000000000000000000000000000000000000000000000000000000000004F
:203180000000000000000000000000000000C1C841322BFE41322CFE41316D004242A1FF6A
:2031A000FF4442A400000000C1CE4146AC004342A90000004142AE0043451C00000041459B
:2031C0001F0041340B0049337B4C6966656C696E65005233844B65793120766961204C6999
:2031E00066656C696E65005233964B65793220766961204C6966656C696E65004933AB42D5
:203200007574746F6E2031004933B4427574746F6E203200433D39000000413D4100433D2D
:20322000420000004141B2FFC116C118414457204144550141276000412511004124FB00F3
:20324000413BED01423BF40000413BDE00413BE1004146BF004142E0004142E201C1A5C1A6
:20326000244145E1004145E200413C3400413C3D00423C320000413C4B00413C4400C1A650
:20328000C1A74134870044340C00000000443410000000004134443C423FC60000423FBE43
:2032A0000000413A0700E00C0260DE0086088400030084020004364142FBFF4142FA03C1CD
:2032C000E54142F7004142F800412C06FF422BF80000412C07FFC16C4939924C6966656C9D
:2032E000696E650041399C0041399B01C1ED4246749403413C6F01413C6E00443C660884DB
:203300009403443C6A18002000413AED28563AC7000000000000000000000000000000000D
:2033200000FF000000004132E5FF413361FF413375FF413376FF413374004133680041335A
:20334000730043336D0000004133720043336200000041336700413371004233770000426B
:203360003369000042336B000041296600412A270041281300C129C128412811FF4127C976
:2033800000412967024129B3FF4129A10041348C004134DEFF6050348D010303000005055E
:2033A000002FE80501002FE8000701000002030300000201002FE80306002FE80301002F5C
:2033C000E80101002FE80102020000000804000004040500000004052FF40005000000FF9E
:2033E00003FE0000FFFFFE2FE25934E20207D02FEE0307D02FEE0500142FEE0107D02FEE38
:203400000407D02FEE00903000E47E0193700122A3FF543F30E509541FFEE493A360010E1E
:20342000CF54E0B4E03AEFFAEEF9E493FBA3E493FEA3E493FFA3E493FDC083C082C001C02B
:2034400002C006C00712276CD007D006D002D001D082D083A30FEF70010EDADAD9D880A995
:2034600054C025E060105005A3DFFD809CA3A3A3DFFDDEFB8093A3A3DFFD808D75819C75EC
:20348000FF03759E02122620023AD40235E6903000E47E019360F4A3FF543F30E509541FC0
:2034A000FEE493A360010ECF54E0B4E00EEFFAEEF9A3A3A3A3DAFDD9FB80D654C025E0600A
:2034C0004B5026E493A3F85407240CC8C333C4540F4420C8834004F456800146F6DFE4806C
:2034E000B00102040810204080E493A3FAE493A3F8E493A3C8C582C8CAC583CAF0A3C8C50A
:2035000082C8CAC583CADFE9DEE78085E493A3F8E493A34003F68001F208DFF402349190E9
:20352000457C1222BE7810EC4D4E4F70047CA57DA5C3EC13FCED13FDEE13FEEF13FF5010A8
:20354000EC64CCFCED644CFDEE644EFEEF64CEFFD8DF90457C1222E6EE547FFE2290457CA7
:20356000EEF0EFA3F0A374A5F0A3F022C2D5E830E70FB2D5E4C39BFBE49AFAE499F9E498B7
:20358000F8EC30E717B2D51235A212218AE4C39BFBE49AFAE499F9E498F8800312218A30DD
:2035A000D50DE4C39FFFE49EFEE49DFDE49CFC22789CE4F6D8FD9000007F007E10E4F0A371
:2035C000DFFCDEFA904FFFA3E583C394204011FEAF829020000E0FE48002F0A3DFFCDEFADF
:2035E00012262002348E2232EF9035F193902600730A20364CE564FF22EFF56422E4FFFE99
:20360000121EA4600C0FEF70010E09E970F20A80EF225E2527328171608E2C2B7086727310
:2036200085597A5AEF825E2527328171608E2C2B708672738559987A5AEF825E985AEF82FD
:2036400086722527328171608E2C2B707385597A200382015A01710532022001270427055F
:203660002B01200120010000FF365A0452657472616E736D69740000000000000000000020
:20368000000000000000000000000000000000000000000000000000FF366201436F6E74FE
:2036A000726F6C3A4B65793100000000000000000000000000000000000000000000000029
:2036C0000000000000000000FF366401436F6E74726F6C3A4B6579320000000000000000DA
:2036E000000000000000000000000000000000000000000000002BC22BC82BCE0000FF00F2
:203700000000FFFFFF0001FE00FF0002FD00FFFF03FC0000FF04FBFF00FF0000FF000000B7
:2037200080FF800000FFFFFF0001FE00FF0002FD00FFFF03FC0000FF047C8000FF04FBFF97
:2037400000FF006300000F0F000000000000000028F228F828FE29160000000029042904F0
:20376000290A00000000291C291C2922292800002910292E293429402946294C2952268293
:203780002688268E2676267C2658265E2664266A2670006401900384076C08340001001E8D
:2037A000001E000000000000000000000002001E001E00C8000000000000000000010003E1
:2037C00000C8006401900384076C08340001001E001E001E26CA26D0000026CA26D00000CF
:2037E00026CA26D0000026A6FF000000FF000000FFFF6100FFFFFFFF00FFFFFF0000CCCC29
:203800000000004C63002000000A0A4C63002000004B4B5C6300210000202001630000409C
:203820000000004C630120000064004C000120000064004C63000003030101FF3803FF375C
:20384000E80000006300120100020200000858060002000000000001090200000001008011
:203860003204030409A280CACF0998445CAD550641469503862B44000000000005000006DF
:2038800000000010000024288000002420800000113821000044288000004420800000341A
:2038A000382100003F241E16110E0B09070504030201F0C8A7917767604638353230242246
:2038C00020140001010202030304040505060607070000000000000000000000000000007C
:2038E000002F7C2F822F882F8E2F942F9A9805000AFFFFFF32FFFFFF32FFFFFF32FFFFFF3B
:2039000032FFFFFF0AFF00002A540000000000000000000000000000000A0000025800008D
:203920000258000E08F8000E0F3800000000020C00003F3F3F0404042E922E982EB02EB6AB
:203940002EBC2EC22EE02EE62EEC2EF228022808280E2814281A2820282C283EDA26000120
:2039600000020004000800100020004000802FB22FB82FBE2FC42FCA2FD02FD62FDC000099
:203980002C6A2C702C762C7C00002FE22FE82FEE2FF42FFA822D1C1613111010270C271289
:2039A0002718271E2F642F6A2F702F760003010206040529D629DC29E22E082E0E2E142C0F
:2039C000CA2F52E4F97D0CAC0109EC90183E93FC0FEFAA0670010E14F5828A83ECF0DDE7BA
:2039E0007F03228F828E83E4F0A3740431F6743631F6A3E4F022F08F828E83A3A322904631
:203A000078EFF0903DFCE0B40110C2ED7A46797890403E511B122B68D2ED227B0112234F81
:203A20007A3D79FD22903DFCE0640170287B017A3D79FD122B74EF701C904679F0C2ED7A54
:203A4000467979903FAA511B122B6ED2ED904679E0FF122B3E22903DFC7401F0FB51797EA3
:203A60003A7F259002BAE0FCA3E04C700A9002BAEEF0A3EFF0D322C3227A3E79059041CE9C
:203A800012234F9041D17401F0A37405F07A3D79FD022B627F0151A8903DFCE0B401047B7D
:203AA00001517922EFF07F01EF600B9002B451C5E4FDB14F80091228C2B1CBE433FF227F6B
:203AC00001229002BCE075F0AA9002BF122323AF82AE832275FF0275E404E4F5E4C2117581
:203AE000FF02901215E0603CE5E65403640170341228921254B64020901222E0600DE0141A
:203B0000F070081235B0E4901215F0901215E07002619C1250B6619C1235B0D211E4901240
:203B200015F080781235B01262789002B3EFF0901200E0B47A14901214E0B49C0D9002B385
:203B4000E0FF64056004EFB4032EE49002BCF09002BCE0FFC394405013E42FF582E43412E8
:203B6000F583E4F09002BCE004F080E3901200747AF0901214749CF0122B567A1279107F17
:203B800001126A927A1279117D017F21122B507B017A1279127D017F22122B501228981232
:203BA000627812288C9002B3EFF01227F61228809002B3E0FFB40602800C3011047F0280A6
:203BC000059002B3E0FF122B9EEF24FFB3923975FF0253E6BF9002B3E064016005E490126E
:203BE00015F012600812289E12495B901215E0700F20390C122BA47B017A327998122832B7
:203C000090121DE030E00280033011047F0151A8D2AF303979122742122790122BAA122BE7
:203C20004A40F29002B2E060411228BCEF7005126B164036E51470FCE51520E502B1CB12EC
:203C40002754EF70FA12623D500512622950047F01D13A9002B2E0B40204E4FF8009900232
:203C6000B2E0B403057F011250D31228B6E51530E1A31261394002E4F0E51520E509900247
:203C8000B451C57D01B14F51C2126C6080871258801258475003124B8B9002B2E0605D909D
:203CA000322EE070571228BCEF7005126B16404CE51470FCE51520E50990121DE020E00276
:203CC000B1CB122754EF70FA12623D500512622950047F01D13A9002B2E0B40203E48018A7
:203CE0009002B2E0B403047F01800E9002B2E0B4050A9012157401F0FF1250D31227421213
:203D00002790122BB09002B0E070051228B680151258BCFF9002B0E0FEC3EF9EC3940640B1
:203D200002E4F0D2AD12180AE51530E11A1261394002E4F0E51520E5099002B451C57D0131
:203D4000B14F51C2126C6012286E125FF3818E900439EEF0A3EFF0E514706F12576E500427
:203D6000C233B1F4900439E0FEA3E08E11F512AE11AF127DAA126401E4F5FF75D901F5108B
:203D8000E5155421602CE51530E505E4FF12549BE490043BF090043BE004F012550FEF6025
:203DA0000990043BE0C3941040EB7F02122B985315DE900413E07F00B403027F01125A3042
:203DC000D233B1F4D2EBA21092ED22E514702312576E5004C233B1F412574C125CEFE5D110
:203DE00020E0FB4315205315FEE4F510A21092EDD322C32290467FE5F4F0E0547FF5F47FBD
:203E0000827E001254541252A05005E5FC20E6F630330890467FE04480F5F412545012524B
:203E2000A05005E5FC20E6F675FF01E5D520E702C322E5F4D330E601C32290467DEFF09029
:203E40003D74E064027023F1E890467DE07FAB60027FB9D16F12462590467DE0903D73F0E8
:203E600070047F1EDFFEE4FFF163221222BEE4E5C820E2FB8FEB227F01F16390467C740144
:203E8000F090467CE0603AF1EC7F05F10390467CEFF0124625D1FF903D66EFF0F105903DBE
:203EA00067EFF012462590467CE05401126CBF60D0A3E0F460CBEF30E7C7E490467CF08036
:203EC000C0F1EC7F9FF103903D68EFF0F105903D6DEFF0F105903D6EEFF0F15E903D66E09E
:203EE000F4601BA3E0F46016903D6DE0FD541F240FA3F0EDC41354074480903D6DF022F1F6
:203F0000EC7FD7D16F7FFFD16FE5C820E2FBAFEB227F01F163302C17F1EC7F05F103904689
:203F20007EEFF012462590467EE020E002C22C302C20D1FF903D66EFF0F105903D67EF12FA
:203F40006CBF600BA3E0F46006EF30E702C22C124625E4FFF163A22CE433FF22D16F1246A6
:203F600025E4FFEFB4010443FE202253FEDF229043D21222E6124778F111EF600512479BE2
:203F800080F612478760089043D212476ED16F9043D2124764D16F9043D21222BEE4F103A6
:203FA0009043D6EFF0F15E9043D6E0FF22903D66E020E012F1E87F3DD16F7F2AD16F7F809E
:203FC000D16F7FA6F15C22124778F111EF600512479B80F6124616F1EC7F01D16F7F03D11E
:203FE0006F124625E4FFE1637F01F163903D6BE0122450400F04401714401C154021174055
:204000003130403634403B36404037000040295357EF855780802F5358EF80085358DF80F4
:204020000353587F855890801D5359DF8559A08015535AFE800D535AEF8008535ABF800360
:20404000535A7F855AB07F0CDFFE22C0E0C0F0C083C082C0D075D000C000C001C002C0036B
:20406000C004C005C006C00790467AE5FFF075FF02E5D430E60A75D44031DE4E600231C37B
:2040800075FF02E5D430E50A75D42031D54E600231C375FF02E5D430E41175D41031B14EE2
:2040A00060098F828E837F0512247A75FF02E5D430E30A75D40831DE4E600231CC75FF0272
:2040C000E5D430E20A75D40431D54E600231CC75FF02E5D430E11575D4025129EF600D3164
:2040E000B14E600431BA800431EF31E775FF02E5D430E01175D40131B14E60098F828E8361
:204100007F0712247A75FF02E5D530E40D75D51031B14E6005511912247A75FF02E5D530AF
:20412000E11175D50231B14E60098F828E837F0612247A75FF02E5D530E00A75D50131B1DA
:204140004E6002512075FF02E5D530E21175D50431B14E60098F828E837F0A12247A75FF35
:2041600002E5D530E71175D58031B14E60098F828E837F0812247A75FF02E5D530E61175D3
:20418000D54031B14E60098F828E837F0912247A90467AE0F5FFD007D006D005D004D003CA
:2041A000D002D001D000D0D0D082D083D0F0D0E03290431CE0FEA3E0FF228F828E837F0291
:2041C00002247A8F828E837F0102247A8F828E83E4FF02247A90431AE0FEA3E0FF22904316
:2041E00018E0FEA3E0FF22510FE4F59E7F012275FF0153CCFD43FB40510F759E0143FB09E2
:2042000075FF03859E9E75FF03859E9E7F012275FF0243D20175FF03228F828E837F0322A1
:204220008F828E837F0402247A75FF02AFD3EF7F0030E6027F012275FF028FD675FF02AF19
:20424000058FD77F01EF6003D2ED22C2ED22E475FF02AFD4CDEFCD75FF02AFD5EFFCEDCE69
:20426000ECCEFF2275FF02EFF452D475FF02EDF452D52290449012234F9044931248C49443
:204280003F4003743FF075FF02E5CD30E105E4F55B8003755B01E55B6038E5FD255C0454A0
:2042A0003FFFE5DD543F6F6029904493F1E5502290449012232F855C8251E7AEFD124869F3
:2042C000ED543F248EF582EC3406F583EFF0055C80C4E55B6008E5FD255C543FF5FDAF5C78
:2042E0002212232F1E8E82758300021EE190431512232F90415C12234F90431512232F9038
:20430000415F12234F7B017A2979B490415971A1E58F20E0FB912B538FF075FF017E109061
:20432000415C51E1F593EE70F67E1090415951E1F594EE70F67F017156126957EF70FA7E1B
:204340001090415F12232F1E8E82758300E593121F75EE70EC22EFB40102813575FF01E553
:204360008F54F04406F58F229043CC71A1E58F20E0FB912B538FF075FF01E4FF9043CC12C3
:20438000232F8F8251E7F5930FEFB410EFE4FF9043CF12232F8F8251E7F5940FEFB410EFDD
:2043A0002212234F75FF012290416271A1E58F20E0FB912BE58F54F04402F58F75FF017FDA
:2043C0001090416212232F1F8F8251E7F594904168126927E4121F75EF70E69122EA540F9B
:2043E000FD90416812232FEAC4F854F0C8E9C4540F4854F04DF5929122E9F59875FF0190D3
:20440000416812232FE9F59675FF0175991075FF0175971075FF014391209135E58F20E054
:20442000FB2275FF0190416502232F75FF01538F0675FF012275FF01E58F54F64401F58F70
:2044400022903A9F1222E6903AA312234FE4903AC6F0D3903AA7E0941E903AA6E094004068
:2044600001227B017A3A79A8903AA6126B9B903A9F1222BEF114903AA312232FE94A600B71
:20448000903AC6E0F58251E7FF80027F00903AC6E024A8F582E4343AF583E06F6002C322EA
:2044A000903AC6E004FFF0D3903AA7E09F903AA6E0940050C122B1A7903F4812234FD110EB
:2044C000903F4B1263EF903F441222BE91415002A167903D70E0903D6F126C99E4FCFD9050
:2044E0003F441222DA12221C903F4DF1EC6034903F4DF1DE903D70E09FFF903D6FE09EFEF0
:20450000903F4DF0A3EFF0903F4BD1B85003125FB5B169D110E94A6004D1AE80417E007F22
:2045200000803B903F4BE0FEA3E0FF4E6037903D6F126C069C400A903F4DECF0A3EDF080C3
:204540000D903F4BE0FFA3E0A3CFF0A3EFF0B169D110E94A6004D1AE80047E007F00903F8D
:2045600049D1A080BED322C322903F4812232F903F4DE0FFA3E0904088CFF0A3EFF0903F08
:20458000441222BEB1AD903F4DE0FEA3E0FFC3903F4CE09FF0903F4BE09EF0903F441222EF
:2045A000DAE4FCFD1220E4903F440222E69040811222E690408512234FF178123F11EF60B3
:2045C00004F19B80F6D116123FEC903D69E0FFF1916008904081F16E123E6F904081F1649D
:2045E000123E6F9040811222BEE48018904088F1C16016904085126C3E6007904085F1B748
:204600008001E4FF123E6F80E3D125E4FF023F63903F4802232F7F01123F63D22C123FECBD
:204620007F06123E6FF1D8EF70FB903D6DE0F4600A90467B7406F0D1A670FC903D6BE012D3
:204640002450465E04466614466B15467017468030468534468A36468F370000467843578C
:2046600010855780802F43581080084358208003435880855890801D4359208559A08015BA
:20468000435A01800D435A108008435A408003435A80855AB090467B740CF0D1A670FC22E8
:2046A000EE8FF0021FFE90467BE014F0E022903F4DE0FEA3E0FF22FFE0FCA3E0FDD39FECE0
:2046C0009E229043D71222E69043D71222BE123F6F9043DBE06F603AF178123F11EF600445
:2046E000F19B80F6D116123FEC903D69E0FFF19160089043D7F16E123E6F9043D7F16412BC
:204700003E6F9043D7123E6B9043DBE0FF123F5CD322C32290408A1222E690408E12234F1D
:20472000F178123F11EF6004F19B80F6F187600890408AF16E123E6F90408AF164123E6F93
:2047400090408A123E6B904091F1C16010123F0590408E126A0A90408FF1B080E9D125E444
:20476000FF023F631222BE780812225EE4221222BE781012225EE42275FF02E5E430E10624
:2047800075E40675E403227F01123F63123FEC7F03123E6F903D6CE0640222E51530E20FCE
:2047A000E51520E50AE51530E0057F01123AA822E475F001021FFEE475F001122338021E0B
:2047C000A474FFF5F012201445F022F178123F11EF6004F19B80F622E5C85404FF22E0FEFA
:2047E000A3E0FFC322E0FFE55CC39F22EEF0A3EFF04E2290449412234F904497EDF075FF36
:2048000002E4F55CEDD3941F4003741FF075FF02E5CD30E205E4F55B8003755B01E55B60C1
:2048200039E5C9255C04541FFFE5DE541F6F602A9044971247E5502290449412232F855CA3
:20484000821242E7AEC91169ED541F24EEF582EC3406F583EFF0055C80C3E55B6008E5C94A
:20486000255C541FF5C9AF5C22FFE55CFDEE2DFD7C002290449812234F90449B11C4943F5F
:204880004003743FF075FF02E5CB255C543FFFE5DB543F6F602190449B1247E55019ADCB28
:2048A00011CC543F244EF582EE3406F583E09044983125055C80D1E55C600625CB543FF58C
:2048C000CBAF5C22EDF0E4F55CEDD322ED255CFF7E00EF2290449C12234F90449F11C49420
:2048E0001F4003741FF075FF02E5CC255C541FFFE5DC541F6F602190449F1247E55019ADCE
:20490000CC11CC541F24CEF582EE3406F583E090449C3125055C80D1E55C600625CC541F0F
:20492000F5CCAF5C22FF12232F855C82758300EF021F7575FF02E5DB543FFFE5CB543F6FCC
:204940007F0060027F012275FF02E5DC541FFFE5CC541F6F7F0060027F012231B61228B044
:204960001227EA1227489002B3E064017F0060027F0112285612285C1227BA126A6A122770
:204980005A12585FFE4FFDA3E0FC4DFDA3E0FB4D600BEE5FFFEC5FFFEB5FF47002718B90D9
:2049A000121CE0FF540324B6F582E43402F583E06F9002B1F0227A3D796B7F03126A927A67
:2049C0003D79747D017F08122B507A3D79717F09717A7A3D796F7F0B717A903D6FE0FEA336
:2049E000E0FF4E6006BEFF1BBFFF18903D74E024FD600304700471818009903D6FE4F0A32B
:204A00007440F0903D74E024FD6003047008903D6C7403F08006903D6C7402F0903D6BE0F4
:204A20001224504A3F044A4A144A52154A5A174A70304A78344A80364A883700004A657542
:204A4000FF015353EF8553FD804775FF015354EF800E75FF015354DF800675FF0153547F70
:204A60008554C9802C75FF015355DF8555CA802175FF015356FE801675FF015356EF800E5A
:204A800075FF015356BF800675FF0153567F8556CB1246257F11716CE4FF123E3A123E7752
:204AA000903D697402F0903D6DE0247F60090470167172740A8007123FAD71727458F09095
:204AC0003D6C7403F07181903D6EE0F460026169903D71E0FEA3E0FF64104E7006903D6E88
:204AE000740EF0EF64204E7006903D6E740FF0EF64404E7006903D6E7410F0EF64804E70C8
:204B000006903D6E7411F0E4B5070AEEB40106903D6E7412F0E4B5070AEEB40206903D6E4C
:204B20007413F0E4B5070AEEB40406903D6E7414F0E4B5070AEEB40806903D6E7415F0E403
:204B4000B5070AEEB41006903D6E7416F0E4B5070AEEB42006903D6E7417F0E4B5070AEE62
:204B6000B44006903D6E7418F0023FC7EF4420F5FE227F10716C903D69227B017D02022B28
:204B800050903D6F7401F0A3E4F022E4FF123AA8EF603C71D071D79002B6E0C394C040F32E
:204BA0007B017A0279B871D712585F5FFFA3E05FFFA3E05FF460E990121DE030E0057F0129
:204BC000123AA8E490121CF071D0E0FD122760227B017A0279B62290043F12234FC22BE405
:204BE000FF123AA8BF010A90043F12232F71F9922B7F01123AA8A22B22903F4FF1EEE9F061
:204C0000903F551222F200000001903F597401F0F5FFE5D554C070051257765002C322E48B
:204C2000F5FF53967F75FF0175D5041255E075FF0143D508E4F5FF5394FBF5FF53847FF580
:204C4000FF7598FF903F53E5F4F075F49C75FF01A3E5E4F075E4257B017A3F79591264404D
:204C6000903F59E064016002A11FF5FF903F527414F0903F55B14F7801122271903F5512A0
:204C800022E6E5A730E1FB43A702903F55B14FE5A730E005E47B018002E4FBFAF9F8EF4BDD
:204CA000FFEE4AFEED49FDEC48FC903F551222E6903F52E014F070BA903F55B14F78101231
:204CC000225E7B6D7A4E79C678411220FFEF2439FFEE3430D1D4E4FBFA7901F812218AEE43
:204CE000547FFEE4FDFC125FC9903F55B14FEB6FFFEA6EFEE8CDEFCDCCEECCECFF903F4FF9
:204D0000D1DFEF121F63903F4FD1DF900001ED121F7590120FE030E606E4F5FF75968075E9
:204D2000FF01E4F5D5903F53E0F5F475FF01A3E0F5E41264C0903F59E0B40103D38001C3FC
:204D400022E025E025E02401F582E43412F583E0FCA3E0FDA3E0FEA3E0FF22903C4C12223C
:204D6000E675FF0243E1801257021265F1903C611222F2002DC6C0E4F5FFF5A490120EF049
:204D8000A3F0903C5C7402F0D1C0FFF595EF14601314601C24027027903C4CB14FD1BA90E2
:204DA0003C588016903C50B14FD1BA903C59800A903C54B14FD1BA903C5AE0903C65F0128F
:204DC000661A903C65E0700FF5FFF59675FF0175D70975F418805790120EE004F0903C5C76
:204DE000E01257D6903C61B14F903C5D1266E4C312224D5009903C5DB14FA31222E6903C93
:204E000065E0FF126472903C5BE0FFA3E0FDA231922F12659FA3B14F9043DD1222E6903CFD
:204E20005CE0FF126627903C5CB14112577ED1C86002A1887402F0D1C0F595E5F45407704E
:204E400017903C611266B6903C5CE0FB1257601222E6EBB14212577ED1C870DB75FF037565
:204E60009580F1F5400343F420A23192301264D1903C61126C10E02420FFEE344ED1D4E4EA
:204E8000FB7A04F9F81266C6C22E125615E4F5FFE5BD54F84404F5BD9012137401F07E1293
:204EA0007F01E4FDEF2DF582E43EF583E0FC901213E02CF00DEDB412EB22903C5D0222E6D7
:204EC00075FF03903C5CE022903C5CE0FF14F0EF22FFE43EFEE43DFDE43CFC229044B1E035
:204EE000FBA3E0FAA3E0F9227FC87E00F18B75FF03439180229044B0EFF0A3F1EEE9F0753B
:204F0000FF01125417EF64016002C322E5F430E602C3227FE87E03F18BD1EEF174400122B8
:204F2000C233123DF49044B0E0FF12549B53F4DFD233123DF47F787E00F1A875FF0153E4AD
:204F4000BFE5E430E7FB126C457F8A126C7930E605D1DCE4800775FF01D1DCE5D9121F634D
:204F600075FF0143E440F1F5400343F420F174400122D322E5F730E510E5F754C0700512A0
:204F800052A040F0125442C322D32275FF03D3EF9402EE9400400874FE2FFF74FF3EFEEF96
:204FA000F592EE540FF59122CDEFCDCCEECC125753AB94EF4B1257DECBEFCBFAE59130E7DA
:204FC0001E125756A994E9F582EF4582FFEB2DF582EA3CF583C3EF9582E5F0958340DDE5BD
:204FE0009120E709CEECCECFEDCF1255E322EBF0A3EAF0A32290120EE0D394012275FF02E4
:2050000075E40475E40175E4022275FF0275E404E4F5E42290043311FC90121DE054306053
:205020000611F95002C322900433E0B4040BA3117B9004337403F08025900433E06405703D
:205040001890121DE090043430E506117B7F1F80041183E4FF11F18005900434118390041A
:2050600033E09002B2F0900435E0901222F01227A89002BDEEF0A3EFF0D322E0FB7D017F2F
:20508000018006E0FB7D01E4FFEB600875FF0153CDFD800675FF0143CD02ED600553FBDFDC
:2050A000800343FB20EF600775FF0243E1402275FF0253E1BF2290121DE07B027D0130E583
:2050C000087F0111897F1F8006E4FF1189E4FF11F17F0143FB1075FF0243E640EF600D75AA
:2050E000FF02E5E120E7FB43FB0D800343FB0E80FE75FF028FE32280F8A21122EFF0A3ED89
:20510000F0A3EBF0227B017D017F607E00904578EEF0A311FC3180126C68C006C0079045D4
:2051200078126B31D007D006D31222377E0050047F0180027F00C006C0073180D0E02FFFEF
:20514000D0E03E904578F0A3EFF053ECCF904578F1C05403125FA64842EC75FF02EDF5AEAC
:2051600075ED2075ED40A3E0600543EC80800353EC7F90457BE0600443EC402253ECBF22EE
:20518000904578E0FEA3E0FBAA06E4F9F87F807E387D01FC02356C90423811FC90423E7474
:2051A00001F0C232915051A05005E5FC20E6F79117BF0108E4F5FC75FC4080079117BF021F
:2051C00002D322B1F2904239E0FF1266F075FF0153D5DF53FAFB904238E0FF919B904239FF
:2051E000E0904238B4080DF15F126C10E02452124ED18003124D41F17E90423AE0FFF1BA6F
:2052000075FF0175FF03759B04915075FC42E5FC20E10451A040F490423BE0F075FF03E5B6
:205220009B20E70451A040F4E59B20E70C75FF03759B1FF102D232804D5199126440904234
:2052400039E0FD90120FE05D701D904238E0FF5199125DB190120FE0FF904239E0FEEF4E14
:2052600090120FF0124E98B1F97B017A42793C9186500FC390423DE0942090423CE094039D
:2052800040E75199F1EEB1E9303202219C90423EE0B40103D38001C3227B017A42793E2271
:2052A00075FF03E591C330E701D322C21CE4904583F0C21DA3F0A3F075FF01E5D520E702EA
:2052C000C322C2347168201C02615953F4DF904583E0FF919B75FF0143D810301D0543F470
:2052E00040800353F4BFE4F5FF53F5F0904584E0FAA3E0FBEA42F5EBF5F6D2347168124EEE
:20530000E8E4F5FFE59320E60451A040F4301D56E5F430E3047D288010E5F430E2047D28CA
:205320008007E5F430E1027D2891427F28124EEA51A040FC7F78124EEA51A050299149508F
:20534000F8F13EEFC39D50F1914950EDE5F720E5E8C2347168914280E053F4BF124FF54018
:205360000543F420B1F2D322AFF4EF547FF5F4303405EF4480F5F475FF01E5D520E702C3EB
:2053800022E5F4D330E601C322900445EFF0C2347168D21C900445E0904583F0D21DA3E457
:2053A000F0A3740DF051B8E4900446F0F176503E900446E07038E5F754C060F09104910471
:2053C000900446EFF0BF55129104900446F1C76F90044670147402F080D2900446E0B45480
:2053E000057433F080C69004467401F080BE900446E0B40207C233123DF4800051AB90048F
:2054000046E0FF22E5F720E008E5F754C070F5FF2243F701AFF9227FFA124EEAE5FC30E62C
:205420000451A040F7E5FC30E6037F032275FF01E5D530E6037F0222E5D57F0030E7027FE6
:20544000012275FF03E4F5912275FF01E5E433227FE87E039159024EEE9044A0F1CE7A4492
:2054600079A2918650149044A2E0FEA3E0FF9044A1E09F9044A0E09E400B9044A0E0FEA39A
:20548000E0FF124F8B22F153AD94EF4DF1DE8FF01220C5E591C330E701D32275FF01E5D5A4
:2054A00030E602C322E4F5FF439A80EFF1D6E4F5FF539A7FD3225315FEE51530E5047F01D2
:2054C000919BB10FEF70FB7F02122B987F01718990044CEFF0BF0202801390044CE0B433FA
:2054E00011E4F07F017189BF020D90044C7401F08005E490044CF090044CE0700BF176500F
:2055000005C233123DF4F14C90044CE024FF22E49044A8F0A304F0E49044ABF0E5FA30E1E2
:20552000FB75FF01E5D530E7037F0022E4F5FF75E508B1F2E5D530E61A75FF019044AAE5E7
:20554000DAF0E4F5DA75FF01E5D630E3FB9044AB7401F075FF03759B0475FC4175FF03E513
:205560009B30E7FBE4FB75FF038B95EB124D42F17E0BEBB403F075FF03759580E4F5FF7522
:205580008EC8B1F975FF0153D5FB91427F14124EEAB1E975FF0143D5049044ABE070079131
:2055A00042124EE8B1E97B017A4479A9F1EE9044A9E09044A87006E04404FF8002E0FF9025
:2055C00044A8EFF090120EE0B4010675FF0143D81075FF019044AAE0F5DA9044A8E0FF22F6
:2055E0007F3FFE124F8B124EEE75FF03E59120E7FB2275FF0153D8EF22E4F5FF75C2E17F84
:205600001E126C7930E707E4F5FF75C2A122E4F5FF75C28122903C951222E6E4F5FF75BB50
:205620000575BB8575FF0175D502202E04B1E0B1F975FF0143D520302E02C1DBE4F5FF538E
:205640008EF7438E077D04E4F5FF8DBCF5FF43B102E5B130E2FBE4F5FFAFDFEFFEACDEECF5
:20566000FBEBFFED25E02493F582E4343CF144E4F5FFF5FF53B1FD0DEDB40CCB903C9512D7
:205680004D4F780912225EA3EEF0A3EFF0E4FDED25E0249DF582E4343CF583E0C313FAA32E
:2056A000E013FBD1F5E0C313FEA3E0132BFFEE3AFED1F5EEF0A3EFF0ED240490120DF0EDD5
:2056C000C394075016CFEDCF0DEFD1F61247DE903C9AE09F903C99E09E50B4E4F5FF758EDA
:2056E000C8F5FF90120DE0F5BCE4F5FF75BB8075FF01F5D522ED25E0249BF582E4343CF554
:205700008322E5FA30E1FB75FC8075FF0153D5EFE4F5FC75FC409142E5FC20E6FB22E4FF3C
:20572000E5F754C06002801675FF01E5D530E30D914950F4F13EEF60EF914950EB22126CF2
:2057400045AFD922F583EEF0A3EFF022F1027F08022B9875FF03AF93EF75F010A4FF22E05F
:2057600025E025E02401F582E43412F58322C2EBA2ED9210C2EDE5F4C330E701D3229044B5
:20578000A41222E675FF019044A4A3E0FDA3A3E4FFFEE4FC781012225E8FE19044A4A3A38F
:2057A000E0FEA3E4FFE4FDFC780812225E8FE29044A4A3A3A3E0FF8FE32275FF018FDA2251
:2057C000E0FCA3E0FDEC22EFF090121CE022EEF0A3EFF07B012233333354F8F5F42224FBB3
:2057E000FFE5F034FF22301104C21151AB22C22D75FF03759B1F75FF0390120FE0FF20E7A7
:205800001BE59A540FC394024012EF4480F0E4F5FF75C2A143FC0475FF03D22DE5FC30E6DD
:2058200009E59A540FC3940540CCE5FC30E611E4121F6375FC80F5FC75FC40E5FC20E6FB20
:20584000302D03124E982290121CE07010115F4FFFA3E04FFFA3E04F7003D38001C3229013
:2058600002B6E0FFA3E0229002B1E064AA2411FFF022AE071167EE04FEEF8EF084AFF022A6
:20588000302A0C90322EE07006FF1227FCC22A11940227F030112411BEFF900424E0FEEFC6
:2058A000C39E400AEF9ED394024010C21122900424E0F42FD394014002C21122C2AD903574
:2058C000B5E0A3E022C0E0C0F0C083C082C0D075D008C0FF1254178F18E5186402704EE5F3
:2058E0001424F8603E240760024117900425F19C7027AB1CAA1DA91E5163AD16AF1F91DD10
:20590000E4FB7D01FF912975FF00B11243FA0475FF005139751408411743FA0475FF00510C
:20592000394117C2EB7514004315044117E518640160024117F18C40024117E510702A85A5
:205940001282851183E090044BF0E0FF64556004EFB4540AD21111BE900424F021E8751006
:205960000275FF0075D9084117E510640270575124E090044BF012672512614E900413EFC8
:20598000F090044BE0FFD394094025900413E0D39402400CEFD394AA7F0040027F01800D7A
:2059A00090044BE0D394407F0040027F01EF60051257E6803390044BE0FFF51675FF008F1E
:2059C000D97510038051E5106403704B1257E675FF00900413E0C39403E5D350055402FF78
:2059E00080035401FFEF60045140802BC233123DF475FF0091F2E5D120E0FBC2EB4315025A
:205A0000751000900413E0B4030715165124E516F09002B5E516F0D0FFD0D0D082D083D01B
:205A2000F0D0E032E5122407F582E43511F5832212549B43FA04E4F5FF53D1FD43D10122C5
:205A400091EAE5D120E0FBE4F5FF75D901900413E07F00B403027F015130D233123DF4E407
:205A6000F51022E4F5FFE9F193EA540F42D622900427EEF0A3F186C2EBE5146002810BE507
:205A80001530E202C3221257765005C233123DF491EFE5D120E0FBE4F510C211900428E003
:205AA0005407C39403E494005022900430E0FF90042CE02FFFE433FED3EF9440EE648094C5
:205AC000804009431504A21092EDD32290042D12232FCFE9CF8A118F12900430E0F516AE36
:205AE00011B12790042912232F8B1C8A1D891E90042CE0F51F900427E0FCA3E0FD546060C8
:205B00002E900431E0FF91939119FB7A00900425E0FEA3E0FF7C007D17121F97EF2BFFEA7C
:205B20003EFEEF2414FBE43EFA7D027F0161F3900427A3E05407900414F075140890042919
:205B400012232F516390042CE0FFAD1691DD900414E0640370247B01FD91169173985007C7
:205B6000915D7401121F0EE4F5FFB11291192428FBE433FA7D03E4FF8079900414E064029C
:205B8000701E91139173984007915D74FF121F0EB11B91192414FBE433FA7D027F018053C4
:205BA000E491139173984007915D74FF121F0EE4F5FF916B44104E7F0560027F0AEF547F33
:205BC000FFE5D254804FF5D2E4F5FF43D2809119FD7C00916B44104E7E0060047F0A80020A
:205BE0007F05EF25E0FFEE33FEEF2DFBEE3CFA7D017F0112616A916BFF91FB4006A21092E8
:205C0000EDC322A21092EDD2EBD322A21092EDD2EBC322FB7D01FF912990042912232FE9C0
:205C20002407F9E43AFA021EA4E4F5FF75D102E5D120E0FBE4F5FFF5D1EF6008E4F5FF4383
:205C4000D2808006E4F5FF53D27FEB6006E4F5FF43D104ED6006E4F5FF43D1082290042989
:205C600012232FE92407F9E43AFA22900427E0FEA3E022FF900430E0FD90042CE02DFDE4ED
:205C800033FCED2401FDE43CFCD3EF9DEC6480F874802290043CF1B3751401E4FBFDFF9103
:205CA000297B017A0479165163E4FD7F0291DDB11B9004167455F090043CE0900417F090A4
:205CC00004147402F090043EE090042530E507E4F0A3743CF022E4F0A374F0F022E4F5FFC1
:205CE0008FD4F5FFCFEDCF8FD522C233123DF4E4F5FFE5D154FE4402F5D122431501531535
:205D0000DFB13CF1354004E4F514225315FB5133D322E5D254804414F5D222E4F5FFE5D207
:205D20005480440AF5D222E4F5FFEFF5D8E4F5FF53D60FEE540FF1A64842D622EF30E30345
:205D4000AF1322AD1B201204EE30E00BE517C394F05020B1878018E51A6006FDE4F51A8000
:205D600012E517C394F0500BE517540FFF6004B176AD07AF0522F1D6FFC3940E40027F0D07
:205D8000EF9038A493FF22900415E0FDFFC3740EB1AAEFF1BCFEE51754F0C39FEE6480F8C9
:205DA0007480987F005002AF05229FFFE49400FE229044ACEDF0901211E0FEF46006A3E0AF
:205DC000FDB4FF0C9044AE7418F0A37413F080089044AEEEF0A3EDF0121EA464016002E10B
:205DE000089044ACE0FE64086004EEB404089044AD7428F080069044AD743AF0EF124D427D
:205E0000122229E4F110EF24D8FFEE343FFEED3493FDEC3416FC7B007A8079037800123564
:205E20006CF1C99044AFE0FF9044AEE0C3B1AAE4FCFD1220FFECC0E0EDC0E0EEC0E0EFC0F6
:205E4000E09044AFF109F110D0E0FBD0E0FAD0E0F9D0E0F8EB2FFBEA3EFAE93DF9E83CF8CC
:205E60009044ADF1091220FFEF2454FFEE340B124ED4E47BA87A16F9F812356CCBEFCB905F
:205E800044ACE014605D14601B24FE600C24FC7077E4F5FF75CE318006E4F5FF75CE21F53A
:205EA000FF8BCF22E4FAE4F5FFEA2440F5CEE4F5FFEAFFC37407B1AA74942FF58274393EAD
:205EC000F583E4F118C39DF5CFE4F5FFEA2448F5CEE4F5FFEA903994F1182DF5CF0AEAB487
:205EE00008C422E4F5FF75CE01F5FF8BCFF5FF75CE0EF5FFEB25E0F5CFE4F5FF75CE0FF53E
:205F0000FFEB75F003A4F5CF22E0FFE4FCFDFE227B64FAF9F80220FF9325E0FDE433FCEB4B
:205F200075F010A4FFAEF0121FA9CDEFCDEBFFE4C313EF1322900437EFF0900414E024FD2D
:205F40006011047007F17C7404F08012F17C7408F0800BE4900438F09004367402F07F013A
:205F6000122B98900438E0FF900436E0FDA3E0FBE490423BF012519750E9D3229004387433
:205F800001F090043622EFF0A302234FE5F754C024FF22F5D7E4F5FF53D6F02274FFF5F0C2
:205FA000121FFE45F022C4F854F0C8E4C4540F22EEF0A3EFF0A3ECF0A3EDF022C4F8540FC6
:205FC000C868FFEEC454F04822C8ECC8C9EDC9CAEECACBEFCB22E517C4540FFEEF9038C274
:205FE000932E22E51520E50791EAE5D120E0FBE4F510229002BAE0FEA3E0FF4E6009CAEE66
:20600000CAC9EFC91224762275FF02D2ADD2BD75FF02758E71755F0975FF02E58E546F442C
:2060200080F58E22C0E0C0F0C083C082C0D075D008C0FF75FF02E58E30E42975FF02E58EBB
:2060400054EF4410F58E900000E004F0E55F30E0020531E55F700B755F099035B51247B116
:206060008002155F75FF02E58530E40875FF024385100561D0FFD0D0D082D083D0F0D0E0F6
:2060800032125776500411924003301103D38001C322E5F754E024FF22AF14EFC36001D33A
:2060A00022EFC3940E5005900415EFF022E517540FFF227E607F89903CEBE0FD12276C903C
:2060C0003CE6E0FFE517C394F050205317F0125FD6FE740FC39F4005EE940E400543170D07
:2060E0008003EF4217E517540FFF227F0022E51754F0C4540F2FFFC3941040027F0FEF9069
:2061000038B293FF227E10EE60091EEE9038B293B507F4EEC3940E40027E0DEE9038A49326
:20612000FF22E4F514023DCBC2AFEF4215D2AF22C2AFEFF45215D2AF227F0231309002B467
:20614000E09002BCF09002B404F0C3940222EF24FE600C24FE600580007F01227F02227F24
:206160000322900425E0A3E0FF22900442EFF0ED24FE601914602A24027043EB2402FFE415
:206180003AFE7C007D50121F977D608026EB31E6EF7803C333CE33CED8F9FF7C007D288091
:2061A00012EB31E6EF7803C333CE33CED8F9FF7C007D64121FA9900443EEF0A3EFF09004CA
:2061C00042E031EDC083C0821222DA900444E02401FF900443E03400FEE4FCFD1220E4D064
:2061E00082D0830222E62401FFE43AFE2225E025E02418F582E43404F58322EF31ED1222AA
:20620000BE0222A4E4900418511BE490041C5122E4FFFEFDFC9004200222E6FFFEFDFC0265
:2062200022E6FFFEFDFC0222E67F017E009017FCE4935EFE7401935F4E24FFB322900001A4
:20624000740193B40007E493B41802C322D322EF7011ED600775FF0143AE012275FF015347
:20626000AEFE22EFB40110ED600775FF0143AE022275FF0153AEFD2275FF02E5E630E203D3
:206280007F0322E5E630E3037F0022E5E630E1037F0422E5E67F0530E0027F0122EF6007FB
:2062A00075FF0253E6BF2275FF0243E64022EF14600F146014240270188B8075FF018DFD9B
:2062C000228B9075FF018DC9228BA075FF018DCA22AF038FB075FF01AF058FCB22904224EF
:2062E00012234FEF1460111460182402701E7117E580711DE5FD801C7117E590711DE5C934
:2063000080127117E5A0711DE5CA80087117E5B0711DE5CB021F6390422702232F121F6359
:2063200075FF0190422402232FE4F5FFAF9122E4F5FFAF9222903D68E0121F63903D6DE066
:20634000900001121F75903D6EE0900002021F75FAE92DF9EA3CFEAF01E4FCFD023F6FFA5F
:20636000A3E07E0029F9EE3AFEAF01E4FDAB05E4FCFD9043DBEBF00246C2FEAF017B007A80
:206380000079929043237404F090432071A0C00790432012232F90432371C0D00702471417
:2063A00012234FE4FCFD2290422C71A0C00790422C12232F90422F71CBD0070244B67B0196
:2063C000E0FF904091E4F0A3EFF022E0FFA3E0903F4BCFF0A3EFF02290423371A0C00790B9
:2063E000423312232F90423671EFD007024441E0FFA3E0903AA6CFF0A3EFF022E4FF023FA5
:2064000063E4F5FF75D102E5D120E0FBE4F5D1F5FFEF125F93EE540F42D6E4F5FFCFEDCFEB
:206420008FD422E4F5FF8FD422E4F5FFE5D1540133333354F8FFE4F5FFE5D354074FFF2258
:20644000904580124FEEE9F07F017C127D01E4FEED2EF582E43CF583E02FFF0EEEB412F067
:20646000901213E06F600A904580124EDFE4121F6322EF30E00E43F401E4F5FF43A404F583
:20648000FF759624EF30E10E43F401E4F5FF43A408F5FF759624EF30E20943F402E4F5FF83
:2064A00075961EEF30E30943F404E4F5FF75961075FF01EF5403600475D7122275D72D2240
:2064C000E4F5FF7584E6F5FF439404F5FF75981422E4F5FF75933F75FF03759A4091C0E4E5
:2064E000F5FF759C93F5FF75A1A3F5FF758531F5FF758628E5FA54304480F5FA75FF017521
:20650000E74A75FF0275DF4975FF0143D30475FF0153D367E4F5FF53E6BF75FF0175D825EF
:20652000F5FF75B503F5FF75B215F5FF75BA02F5FF75AFB3F5FF75CD0AF5FF75CB08F5FFAA
:2065400075CA12F5FF75BF0EF5FF75CC96F5FFF5BDF5FF75C281F5FF75AEE1F5FF75DA5507
:20656000F5FF75F580F5FF75E903F5FF75E933F5FF75972A75FF01759B42759CA4759D2982
:20658000759E48759F2475A11275A312759AF820300CF5FF43968090120FE04440F022CC73
:2065A000EFCCCFEDCF74017E00C8EFC8088005C333CE33CED8F9FFCDECCDEF5D601B302F55
:2065C0001875FF0175DCAD75FF0175DDCDE4F5FF759A74F5FF7594842275FF0175DC537510
:2065E000FF0175DD33E4F5FF759A14F5FF75940422D11053DB7F75FF0175D5027F14124EB6
:20660000EA1255E9D11043DB8075FF01E4F5D52275FF01438E1075FF012275FF0175E4655C
:2066200075FF0175D647229043DCEFF0E4A3D1B69043DCE0FB1257601222E6901210E0FF97
:2066400064806071EFC3947F5039EB125760C083C082124D4FEEC0E0EFC0E0901210E0752C
:20666000F004A4AEF0FBCAEECAEA3395E0F9F8D0E0FFD0E0FEC3EF9BFFEE9AFEED99FDEC46
:2066800098802A9043DC12575FC083C082D1E4901210E0F40475F004A4FFAEF0EE3395E03D
:2066A000FDFCEB2FFFEA3EFEE93DFDE83CFCD082D0831222E622FF7E04FDFCE0F8A3E0F9B0
:2066C000A3E0FAA3E0FB1220FFE47B7DFAF9F812218AEF2401FFE43EFEE43DFDE43CFC7825
:2066E0000102225EE0F8A3E0F9A3E0FAA3E0FB2275FF01E5D530E602C32253FACFEFB408B3
:206700000543FA308012EFB4040543FA208009EFB4020543FA108000D322E5F4541813130C
:2067200013541FFF22E5F75406FFBF06037F0822E5F75406FFBF04037F0422E5F75406FF37
:20674000BF02037F02227F012275FF01E5D520E602C322E5FA540360FA75FF018FC3D322C8
:20676000CEEFCE75FF01E5D520E602C32243FA04E4FDEDC39E50077F55F1490D80F4E5FA3D
:20678000543070047F0F80027FF0F149D322E5F71322EFB40109D2AD75FF0143AE4022C28C
:2067A000AD75FF0153AEBF2275C80122E5C85402FF75C80222E5C85401FF22C0E0C0F0C0DF
:2067C00083C082C0D075D000C000C001C002C003C004C005C006C007C0FF122BF2D0FFD076
:2067E00007D006D005D004D003D002D001D000D0D0D082D083D0F0D0E032C0E0C0F0C08353
:20680000C082C0D075D000C000C001C002C003C004C005C006C007C0FF122BE0D0FFD007C3
:20682000D006D005D004D003D002D001D000D0D0D082D083D0F0D0E032C0E0C0F0C083C059
:2068400082C0D075D000C000C001C002C003C004C005C006C007C0FF122C2ED0FFD007D024
:2068600006D005D004D003D002D001D000D0D0D082D083D0F0D0E032C0FFD0FF32C0E0C01C
:20688000F0C083C082C0D075D000C000C001C002C003C004C005C006C007C0FF122C3AD08B
:2068A000FFD007D006D005D004D003D002D001D000D0D0D082D083D0F0D0E032C0FFD0FFC8
:2068C00032C0FFD0FF3275ED402275ED2022E5ED30E6FB75ED40AFEE22AFEE228FEE22E5D7
:2068E000ED20E4FB8FEE22EF600443EC402253ECBF22EF600443EC802253EC7F22E5ED54DF
:2069000020FF22E5ED5440FF22E5ED5410FF229046071243A1E4FF9046073127E593121FC4
